:020000040800F2
:1000000068070020D5020008153600085D33000897
:10001000113600088D150008C940000800000000D6
:100020000000000000000000000000008936000809
:10003000911500080000000085360008E136000830
:10004000EF020008EF020008EF020008EF020008CC
:10005000EF020008EF020008EF020008EF020008BC
:10006000EF020008EF020008EF020008EF020008AC
:10007000EF020008EF020008EF020008EF0200089C
:10008000EF020008EF020008EF020008EF0200088C
:10009000EF020008EF020008EF020008EF0200087C
:1000A000EF020008EF020008EF020008EF0200086C
:1000B000EF020008EF020008EF020008EF0200085C
:1000C000EF020008EF020008EF020008EF0200084C
:1000D000EF020008EF020008EF020008EF0200083C
:1000E000EF020008EF020008EF020008EF0200082C
:1000F000EF020008EF020008EF020008EF0200081C
:10010000EF020008EF020008EF020008EF0200080B
:10011000EF020008EF020008EF020008EF020008FB
:10012000EF020008EF020008EF020008EF020008EB
:10013000EF0200080000000000000000EF020008CD
:10014000EF020008EF020008EF020008EF020008CB
:10015000EF020008EF020008EF020008EF020008BB
:10016000EF020008EF020008EF020008EF020008AB
:10017000EF020008EF02000800000000000000008D
:10018000EF020008EF02000800F002F800F092F819
:100190000AA090E8000C82448344AAF10107DA45E2
:1001A00001D100F087F8AFF2090EBAE80F0013F0A2
:1001B000010F18BFFB1A43F001031847C84A00009B
:1001C000E84A0000103A24BF78C878C1FAD852072C
:1001D00024BF30C830C144BF04680C6070470000C1
:1001E0000023002400250026103A28BF78C1FBD840
:1001F000520728BF30C148BF0B6070476E2900F01E
:10020000FF81702900F04183662904F0A2846529EA
:1002100004F09F84672904F09C84612904F09B8486
:1002200003681B0A28BF41F08001692900F0AC81F6
:10023000642900F0A981752900F0A6816F2900F0DA
:10024000CF82782900F00D83E92900F06982E42942
:1002500000F06682F52900F06382EF2900F0CC827D
:10026000F82900F00C830368DB0928BF41F0800106
:10027000632901F00D80732901F01280E32901F058
:100280001D80F32901F02280002070471FB504F083
:1002900053FC01F071F804000020002104F036FC4A
:1002A000401C60600020002104F01AFCE0601FBDCB
:1002B00010B510BD01F032F81146FFF7E7FF03F06B
:1002C000CBFF01F00FF903B4FFF7F2FF03BC01F01D
:1002D00055F900000948804709480047FEE7FEE756
:1002E000FEE7FEE7FEE7FEE7FEE7FEE7FEE7FEE7E6
:1002F00004480549054A064B70470000A537000829
:1003000089010008680100206807002068030020B8
:100310006803002053EA020C00F069802DE9F04BDD
:100320004FF00006002B1FBFB3FA83F503FA05F464
:1003300024FA05F65E4012BF1643B2FA82F502FABD
:1003400005F4C5F120051EBF22FA05FC44EA0C04A1
:10035000203556EA044C4FEA144418BF641C4FF091
:1003600000084FF00009904271EB030C39D30029CB
:1003700019BFB1FA81F701FA07F6B0FA80F700FA6F
:1003800007F6C7F120071EBF20FA07FC46EA0C0655
:100390002037B6FBF4FCA7EB0507103F07F01F0B57
:1003A000CBF120062CFA06F60CFA0BFB44BFB34641
:1003B0000026202FA4BF5E464FF0000B5BEA060C20
:1003C00008BF4FF0010B19EB0B0948EB0608ABFB1C
:1003D000027C06FB02CC0BFB03CCC01B71EB0C01B7
:1003E000C1E70B46024641464846BDE8F08B13B5CF
:1003F000084318BF4FF0FF300146AFF30080BDE85F
:100400001C4070470FB41CB5084B06AA7B446946D4
:100410000090059800F00DF904460020694600F0B0
:100420001BF920461CBC5DF814FB000049020000CB
:1004300010B5431C02E010F8011B71B18107FAD11D
:100440004FF0013202C88C1A8C4314EAC211F9D061
:10045000C01A0A0603D0C01E10BDC01A10BD0A047F
:1004600001D0801E10BD0902FCD0401E10BD4FF00F
:10047000000200B5134694469646203922BFA0E8F4
:100480000C50A0E80C50B1F12001BFF4F7AF090700
:1004900028BFA0E80C5048BF0CC05DF804EB8900F1
:1004A00028BF40F8042B08BF704748BF20F8022B34
:1004B00011F0804F18BF00F8012B7047704770474C
:1004C000704770B5044685690068C10601D53026BD
:1004D00000E02026C00707D070BDD4E901213046D6
:1004E0009047206A401C20626D1EF6D570BD70B525
:1004F000044685690078C00707D170BDD4E90121A1
:1005000020209047206A401C20626D1EF6D570BDE9
:1005100009684A0501D540B27047C905FCD500B24B
:10052000704709684A0501D5C0B27047C905FCD5B6
:1005300080B2704770B50C460546012A05D0287870
:10054000800600D5EA69002302E0012305E05B1C78
:10055000934202D2E05C0028F9D1A869E618C01ADB
:10056000A861286A184428622846FFF7AAFF04E019
:10057000D5E9012114F8010B9047B442F8D328467D
:10058000FFF7B5FF70BD00002DE9F04106460024DD
:1005900010687529314616A510D0FFF7B9FF00285D
:1005A00002DA404213A507E031688A0701D512A597
:1005B00002E0490704D511A5012401E0FFF7B1FFCE
:1005C00000210A2206F1240709E0B0FBF2FCB0FB8F
:1005D000F2F302FB1C00303078541846491C002806
:1005E000F3D123462A463046BDE8F04100F061BA17
:1005F000000000002D0000002B0000002000000083
:1006000011680268006A530501D508700AE0D30535
:1006100001D5088006E0130603D5C217C1E9000220
:1006200000E008600120704701694A1C02610878F7
:10063000704700B58FB0CDE9013100210591054922
:100640007944CDE903101146684600F029F90FB04E
:1006500000BD0000E5FFFFFF0A6802F8010B0A6019
:10066000704700002DE9FF5F15468A460446DFF813
:10067000AC80F8440027D8E900103E46CDE90010D0
:1006800010E03AF816106A4602A800F023FE411C5A
:1006900007D02178890603D5E269391891420DD82F
:1006A0000744761C2078800602D5E069B84205DD53
:1006B000AE42E6DB3AF816000028E2D1A069C01B82
:1006C000A0612046FFF7FDFED8E90010CDE900103B
:1006D000002017E03AF818106A4602A800F0FAFD68
:1006E000B0F1FF3F81460BD000250DF1080B05E06E
:1006F000D4E901211BF8050090476D1C4D45F7D347
:1007000008F10100B0428046E4DB206A38442062F0
:100710002046FFF7ECFEBDE8FF9F0000E644000026
:100720002DE9F0418046D21D22F007020025D2E9D2
:100730000002F52915A614D0011E72F1000106DA97
:100740000023D0EB030063EB020211A608E0D8F807
:1007500000108B0701D50FA602E0490701D50EA6B0
:1007600001251146002408F1240704E000F05CF99B
:1007700030323A55641C50EA0102F7D12B4632461A
:1007800021464046BDE8F04100F093B9000000006A
:100790002D0000002B0000002000000030B40021DC
:1007A00000F1240408E002F00705D208303542EADF
:1007B0004372DB086554491C52EA0305F3D104680F
:1007C000002310A2250708D504F020040C4304D010
:1007D000C46901230CA2641EC46130BC00F069B975
:1007E00010B5044621461068FFF79BFE02462046DE
:1007F000BDE810400023D1E7D21D22F00701D1E966
:100800000023CBE70000000030000000F0B40D46EC
:100810000188090502D5214C7C4402E01F4C7C4430
:100820000E34002100F1240608E002F00F0712093F
:10083000E75D42EA03721B097754491C52EA030739
:10084000F3D102780023120704D5702D06D009B128
:10085000022311342246F0BC00F02BB901231034DE
:10086000F8E770B504460D4621461068FFF759FEBB
:10087000024629462046BDE870400023C6E7D21D47
:1008800022F00703D3E90023C0E70368126843F0AE
:10089000200303600823C3610023B7E74843000037
:1008A0002DE9F05F894604464FF0000ADFF874B185
:1008B000FB44C0F820A02046E1688847002874D097
:1008C000252806D0D4E901219047206A401C2062E7
:1008D000F1E700265F462046E16888472028054664
:1008E00007DB312D05D2781910F8200C08B106432A
:1008F000F1E7B00701D526F00406C4F81CA00027D4
:10090000C4F818A02A2D09D0284604F0E1F838B31D
:1009100004EB8708303DC8F8185019E059F8041B5B
:10092000204604EB87029161E1688847012F054664
:1009300018D1E069002820DA26F020061DE0D8F85A
:10094000180000EB800005EB40003038C8F81800B4
:100950002046E1688847054604F0BAF80028EED141
:10096000012F0AD02E2D08D12046E16888477F1C30
:100970000546022F46F02006C4DBA069002803DAF2
:10098000404246F00106A061F00701D026F01006B3
:100990006C2D0BD0682D09D04C2D39D06A2D35D057
:1009A000742D35D07A2D33D016E038E0E1682F462B
:1009B00020468847B842054609D16C2F26D04FF40F
:1009C0008060E168064320468847054604E06C2FB6
:1009D0001AD04FF4807006430DB3A5F141001928D9
:1009E00002D8203546F400664A462946204626604D
:1009F0004E46FFF703FC80B101280BD0F61D26F010
:100A0000070000F1080956E74020E4E78020D8E716
:100A10000020D6E706F104094DE7284652E7206A90
:100A2000BDE8F09FD842000030B5B0F10A0271F184
:100A300000034FEA900E4EEA817EB0EB0E0061EBB0
:100A400091014FEA101E4EEA017E10EB0E0041EBC1
:100A500011114FEA102E4EEA016E10EB0E0041EB21
:100A600011214FEA104E4EEA014E10EB0E0041EB01
:100A70001141401841F100014FEAD00040EA4170B5
:100A80004FEAD1014FEA810444EA907410EB8005EB
:100A900044EB01046D1944EB0404521BA3414FF0D5
:100AA000000348BF0A3200D530BD401C41F10001AF
:100AB00030BD2DE9F0470D4699469246044600F1B7
:100AC00024080168880604D5E06921F0100121603E
:100AD00000E00120A84201DD471B00E00027A169DA
:100AE0007A1902EB0900081AA0612078C00602D426
:100AF0002046FFF7E6FC002608E0D4E901211AF8B9
:100B000006009047206A401C761C20624E45F4DBAC
:100B10002078C0060AD52046FFF7D3FC06E0D4E9CA
:100B2000012130209047206A401C2062381EA7F126
:100B30000107F4DC07E0D4E9012118F8050090472B
:100B4000206A401C2062281EA5F10105F3DC204626
:100B5000FFF7CDFC2078000602D50220BDE8F08723
:100B60000120FBE72DE9FF4F0C461E464FF0FF37F3
:100B70008BB0D2E90001DDF860800A908A46C1F3AB
:100B80000A5505B93D46002108464FF00000BAF16C
:100B9000000F00F4400005DA00EB80004FF4400144
:100BA00001EA50004FEA9059B9F1010F00DDB94652
:100BB0000A9850EA4A000ED044F61050A5F2FF35CC
:100BC00045432F14B8F1000F1ED07542291E1EDDBB
:100BD000C9F100021CE0B8F1010F4FF0000001D094
:100BE000302103E0F24305E02154401CB042FBDB1E
:100BF00030460022002121540B99C1F80880C1E938
:100C000000200FB0BDE8F08FBD1B6D1CDEE74A462B
:100C100000DA694206A800F0F3FB06AB93E8070090
:100C200003AB83E8070050460A9903F071FB8DE897
:100C30000700A0F500501F3800900398002D0ADD32
:100C400042F21F014A460844002303A90390684664
:100C500003F0DAFD09E0A0F500504A461F380023F2
:100C600003A90390684603F0E4FD8DE80700000443
:100C7000000C03D04FF0FF30410800E01046B8F1FF
:100C8000000F03D00022009215461EE0751E05D409
:100C9000FFF7CAFE303262556D1EF9D5B346012208
:100CA000084302D000227F1C04E02078302801D1C4
:100CB00000227F1E002A099784D01DE0112D07DA3B
:100CC000FFF7B2FE303262556D1C50EA0102F5D1D9
:100CD000084302D00098C8B10EE00021681E05E06C
:100CE000235C625C63542254401E491C8142F7DB42
:100CF000AB46A81B401E0990002004F80B000B987F
:100D0000099AC0F80880C0E9002B7AE711264FF055
:100D1000000857E72DE9F04F88460446D21D22F01F
:100D2000070191B0D1E90001CDE90A0103F0B8FE55
:100D300002460B98C00F01D02D2007E020688107E4
:100D400001D52B2002E0202101EAC000032A0990EE
:100D500001D0072A05DB03464146204600F010FB80
:100D60000BE12078800601D5E06900E00620B8F1AB
:100D7000650F814606D0B8F1660F18D0B8F1670F3D
:100D800070D131E00020B9F1110F009001DB112387
:100D900001E009F101030AAA01A90CA8FFF7E2FE8C
:100DA000DDE90C70002609F10105834647E00120CA
:100DB0004B4600904FF000470AAA01A90CA8FFF784
:100DC000D1FEDDE90DB00C995D46002610B909F1A0
:100DD00001000D18B9EB050003D4C0F1FF3609F18D
:100DE0000105A5EB09002BE0B9F1010F01DA4FF085
:100DF00001090020B9F1110F0090484601DD1123CF
:100E000000E003460AAA01A90CA8FFF7ABFEDDE942
:100E10000C704D4600268346207800070AD4AB4567
:100E200000DA5D4601A8012D04DD411911F8011C0D
:100E3000302907D04F4502DA17F1040F04DA0120F8
:100E400082460FE06D1EEEE7002F02DCED1B3E44F4
:100E500003E0781CA84200DD7D1CB81B00F1010AEC
:100E60004FF000472078000703D4AA4501DB4FF07C
:100E7000FF3A0021B7F1004F0DF143088DF8431000
:100E800024D002202B23002F01DA7F422D230A21B8
:100E9000021EA0F1010000DC5FB197FBF1FC97FBA3
:100EA000F1F201FB1C7C17460CF1300C08F801CD67
:100EB000EEE7A8F1010003702188090501D545215D
:100EC00000E06521A0F1010800F8011C09980FA9B4
:100ED000A1EB0807FF1D00B10120411901EBEA70E9
:100EE000A1693844081A401EA0612078C00602D4C7
:100EF0002046FFF7E6FA099828B1D4E90121904786
:100F0000206A401C20622078C00622D52046FFF7C8
:100F1000D8FA1EE0002E04DBB34502DD01A8805D97
:100F200000E03020D4E901219047206A401C206273
:100F3000761CAAF101005FEA000A0AD100F01CFA4F
:100F4000C0680168405CD4E901219047206A401CD8
:100F50002062281EA5F10105DCDC07E0D4E90121AF
:100F600018F8010B9047206A401C2062381EA7F138
:100F70000107F3DC2046FFF7BAFA032011B041E67F
:100F80002DE9F04F04460D46D21D22F0070089B02E
:100F9000D0E900974846394603F082FD0246F80F33
:100FA00001D02D2307E02068810701D52B2302E023
:100FB000202101EAC0038DF820300BB1012000E0B0
:100FC0000020032A824601D0072A04DB2946204656
:100FD00000F0D6F93FE12078800601D40D2500E02D
:100FE000E569C7F30A560D2D49DA00214FEA175B70
:100FF00008464FF00000002F00F4400007DA00EB35
:1010000080004FF4400100EBD07001EA60008115D0
:10101000012901DD4FF0FF3100224FEA850CBCF1C0
:10102000180F06D31346ACF118004FF08052C2409F
:1010300003E04FF4801323FA0CF30CF10C0CBCF119
:10104000200F04D3ACF1200C09FA0CF001E007FAF0
:101050000CF000294FF0004801DD18B90FE00ED167
:1010600040450CD319EB02095F4121B9404502D13B
:101070009F4329EA0209BBEB175F00D0761C20884A
:10108000000502D57B48784402E07A487844193854
:1010900008AA302302F80A30037C0AF10101002E6D
:1010A0000AF1020A53546A4602DC4FF0300101E0B3
:1010B0004FF031014FF001088DF8001002D0A6F278
:1010C000FF3603E059EA470100D06B4E002D02DCE9
:1010D0002178090704D54FF002082E218DF8011060
:1010E000C44600210BE0C7F303433F01C35C491C26
:1010F0006D1E02F80830052908F1010801DA002DFB
:10110000F1DC00210CE000EB1973491C1B786D1E0B
:10111000082902F808304FEA091908F1010801DA34
:10112000002DF0DC21688B0602D516E0A8F101083D
:10113000E04505DD02EB080313F8013C302BF5D048
:10114000B8F1000F09DD02EB080313F8013C2E2B68
:1011500003D1090701D4A8F10108002D05DD3E21C6
:1011600002F808106D1E08F10108407C002E02F8FC
:10117000080008F1010804DA2D20764202F8080080
:1011800002E02B2002F808000A214FF47A70864210
:1011900008F101080BDB96FBF0F3303302F808305E
:1011A00096FBF0F308F1010800FB136601E0642EE2
:1011B0000CDB642096FBF0F3303302F8083096FB2A
:1011C000F0F308F1010800FB136601E00A2E06DBCC
:1011D00096FBF1F0303002F8080008F1010896FBA8
:1011E000F1F001FB1060303002F80800A16908F14D
:1011F000010808EB050202EB0A00081AA06120783A
:10120000C00602D42046FFF75CF9216A08AE01EB64
:101210000A00206204E0D4E9012116F8010B90478E
:10122000BAF1010AF7D22078C00602D52046FFF7AE
:1012300048F96E4609E016F8010B3E280FD0D4E9B4
:1012400001219047206A401C2062B8F10108F2D2C7
:101250002046FFF74CF909B00320BDE8F08F206A63
:101260002844206203E0D4E90121302090476D1E1C
:10127000EBD3F8E7263B000002FCFFFF10B5436903
:1012800013B1AFF3008001E0FFF754F9012010BD66
:10129000127800F124010A7000224A700122EDE761
:1012A00011684FF0FF32E9E710B5436913B1AFF3AE
:1012B000008001E0FFF7D6F9012010BD128800F18F
:1012C000240182840022C2840122EDE711684FF0DC
:1012D000FF32E9E72DE9F04116460C46054600F0DD
:1012E00043F8036893F80101012807D0FF2C12D8B6
:1012F000185D80B101202C70BDE8F081D3F80701A2
:101300003246214603F20713C7182846BC46BDE8FB
:10131000F041002360474FF0FF30EDE7754600F0E5
:10132000EBF8AE4605006946534620F007008546B7
:1013300018B020B5FEF7DCFFBDE820404FF00006F6
:101340004FF000074FF000084FF0000BAC46ACE840
:10135000C009ACE8C009ACE8C009ACE8C00921F09C
:1013600007018D467047000010B500F005F8001D1C
:1013700010BD00BF993700000048704730000020C2
:101380002DE9F0411F46044603260168072A01F4AF
:10139000006004DB08B116A505E016A503E008B15E
:1013A00015A500E015A521F010002060A069C01E61
:1013B000A0610FB1401EA0612046FFF782F84FB137
:1013C000D4E9012138469047206A401C2062C01CA5
:1013D000206206E0206AFAE7D4E9012115F8010B42
:1013E0009047761EF8D22046FFF781F8BDE8F081DD
:1013F0004E414E006E616E00494E4600696E6600B9
:101400002DE9F047814616468AB0354878440DC824
:101410008DE80D0032487844801C03AC0DC884E888
:101420000D0041F69B300844372190FBF1F290FB10
:10143000F1F5A5F1800501FB12041B3C02D56442C5
:10144000012000E00020DFF898A080460027FA4441
:10145000AAF1BE0A0EE0E0070AD03246684607EB62
:10146000470101230AEB810103F0E3F98DE807004E
:1014700064107F1C002CEED1194F7F44AE3F19E061
:10148000E80715D007EB04100DF1180A90E80E00DC
:101490008AE80E00C068F04201D1981908903246DF
:1014A000012306A903A803F0C4F903AB83E80700EE
:1014B0006D10641C002DE3D14FF0010332466946E4
:1014C000B8F1000F03A802D003F09EF901E003F089
:1014D000B0F9C9E90001C9F808200AB0BDE8F087F1
:1014E0003038000010B50446AFF300802046BDE858
:1014F0001040FEF7E8BE00000048704710000020D2
:1015000030B44FF0013C50F8042B51F8043BCCFAB6
:1015100052F4D51A20D1FCB950F8042B51F8043BF1
:10152000CCFA52F4D51A17D1B4B950F8042B51F8AB
:10153000043BCCFA52F4D51A0ED16CB950F8042BF6
:1015400051F8043BCCFA52F4D51A05D1002CDAD06C
:1015500030BC4FF00000704729BAB1FA81F111F0A8
:101560001801D1F120008440F2D1CA40CB4012F0E2
:10157000FF0213F0FF0330BCD01A70470149182056
:10158000ABBEFEE72600020070470000FFE7FEE763
:101590007047000072B6FFE7FEE7000080B584B038
:1015A000039000F011FA0290039801900198013025
:1015B00048B1FFE740F20400C2F200000178019850
:1015C00008440190FFE7FFE700F0FEF90299401A96
:1015D0000199884201D2FFE7F6E704B080BD000020
:1015E0008EB00D900C9100200A90099008900B90FD
:1015F000FFE70B980F2800F2CC81FFE70B99012041
:1016000088400A900C9800680A9908400990099847
:101610000A99884240F0B881FFE70C98406800F0D2
:101620000300012807D0FFE70C98406800F0030092
:1016300002282FD1FFE70D98806808900B98410091
:10164000032000FA01F10898884308900C98C068BC
:101650000B99490000FA01F108980843089008988E
:101660000D9988600D98406808900B99012000FA48
:1016700001F10898884308900C984068C0F3001066
:101680000B9900FA01F108980843089008980D9901
:101690004860FFE70C98406800F00300032818D06A
:1016A000FFE70D98C06808900B984100032000FAEE
:1016B00001F10898884308900C9880680B994900BC
:1016C00000FA01F108980843089008980D99C8603D
:1016D000FFE70C98406800F00300022826D1FFE7DE
:1016E0000D980B996FF0030202EA51010844006A59
:1016F00008900B9800F0070081000F2000FA01F11C
:101700000898884308900C9800690B9901F007012C
:10171000890000FA01F108980843089008980D998B
:101720000B9B02EA530211440862FFE70D98006820
:1017300008900B984100032000FA01F108988843B3
:1017400008900C98406800F003000B99490000FADB
:1017500001F108980843089008980D9908600C98C2
:1017600080798007002800F00E81FFE7FFE7002066
:10177000079043F64400C4F20200016841F480413E
:101780000160006800F4804007900798FFE70B981D
:1017900020F0030043F60801C4F20101405808900C
:1017A0000B9800F0030081000F2000FA01F1089867
:1017B000884308900D980021C4F20201884203D1A9
:1017C000FFE7002006905EE00D9840F20041C4F271
:1017D0000201884203D1FFE70120059050E00D98F7
:1017E00040F60001C4F20201884203D1FFE7022063
:1017F000049042E00D9840F60041C4F20201884294
:1018000003D1FFE70320039034E00D9841F200017B
:10181000C4F20201884203D1FFE70420029026E0CF
:101820000D9841F20041C4F20201884203D1FFE762
:101830000520019018E00D9841F60001C4F2020164
:10184000884203D1FFE7062000900AE00D9941F697
:101850000042C4F202020820914208BF0720009013
:10186000FFE700980190FFE701980290FFE70298D8
:101870000390FFE703980490FFE704980590FFE7C3
:1018800005980690FFE70698C0B20B9901F0030196
:10189000890000FA01F108980843089008980B990C
:1018A00021F0030143F60802C4F20102885043F616
:1018B0000840C4F20100006808900999089888431C
:1018C00008900C988079C006002805D5FFE7099993
:1018D000089808430890FFE7089843F60841C4F2C7
:1018E0000101086043F60C40C4F201000068089052
:1018F00009990898884308900C98807980060028F8
:1019000005D5FFE70999089808430890FFE708986C
:1019100043F60C41C4F20101086043F60440C4F2EE
:1019200001000068089009990898884308900C986D
:1019300080798007002805D5FFE7099908980843B2
:101940000890FFE7089843F60441C4F201010860DB
:1019500043F60040C4F20100006808900999089815
:10196000884308900C988079C00728B1FFE709994F
:10197000089808430890FFE7089843F60041C4F22E
:1019800001010860FFE7FFE7FFE70B9801300B90CC
:101990002FE60EB07047000082B00190ADF8021043
:1019A0008DF801209DF8010028B1FFE7BDF8020085
:1019B0000199886105E0BDF8020000040199886181
:1019C000FFE702B07047000040F26010C2F2000072
:1019D0000068704740F20400C2F20000027840F252
:1019E0006011C2F2000108681044086070470000EE
:1019F00080B543F60041C4F20201086840F400706B
:101A00000860086840F480600860086840F48070EE
:101A10000860032000F080F80F2000F005F800F0C7
:101A20003BF8002080BD000080B582B0009040F2FD
:101A30000000C2F20000006840F20401C2F200019E
:101A40000A784FF47A71B1FBF2F1B0FBF1F000F0DB
:101A50009BFD20B1FFE701208DF8070018E00098FA
:101A60000F280DD8FFE700994FF0FF30002200F05B
:101A700039F8009840F20801C2F20001086003E062
:101A800001208DF8070003E000208DF80700FFE734
:101A90009DF8070002B080BD82B0FFE700200190F2
:101AA00043F64400C4F20200016841F48041016041
:101AB000006800F4804001900198FFE7FFE70020F4
:101AC000009043F64000C4F20200016841F08051EA
:101AD0000160006800F0805000900098FFE702B0BD
:101AE0007047000080B586B08DF81700049103920E
:101AF0000020029002F068FB02909DF9170001900F
:101B000002980499039A01F087FD0146019802F0BA
:101B100063FB06B080BD000080B582B001900198E3
:101B200002F07CFB02B080BD80B584B002900191D0
:101B3000029820B9FFE701208DF80F0021E10198FC
:101B400043F60041C4F20201096801F0070188422E
:101B500012D9FFE7019943F60040C4F20200017078
:101B6000006800F007000199884204D0FFE70120D7
:101B70008DF80F0005E1FFE7029800788007002844
:101B80002AD5FFE7029800784007002809D5FFE72B
:101B900043F60801C4F20201086840F4E05008600E
:101BA000FFE7029800780007002809D5FFE743F611
:101BB0000801C4F20201086840F460400860FFE7D1
:101BC00043F60801C4F20201086820F0F000029A0E
:101BD000926810430860FFE702980078C007002869
:101BE0006ED0FFE702984068012811D1FFE743F665
:101BF0000000C4F20200006800F400310020B0EBE5
:101C0000514F04D1FFE701208DF80F00B9E02CE01F
:101C100002984068022805D0FFE702984068032830
:101C200011D1FFE743F60000C4F20200006800F0A3
:101C300000710020B0EB516F04D1FFE701208DF857
:101C40000F009EE010E043F60000C4F202000068BE
:101C500000F002010020B0EB510F04D1FFE701209A
:101C60008DF80F008DE0FFE7FFE743F60801C4F2AF
:101C70000201086820F00300029A526810430860CD
:101C8000FFF7A2FE0090FFE743F60800C4F202004F
:101C9000006800F00C0002994968B0EB810F0ED08B
:101CA000FFE7FFF791FE0099401A41F2893188421F
:101CB00004D3FFE703208DF80F0062E0E4E7FFE7BD
:101CC000019843F60041C4F20201096801F00701DE
:101CD000884212D2FFE7019943F60040C4F20200A5
:101CE0000170006800F007000199884204D0FFE706
:101CF00001208DF80F0044E0FFE7029800784007CC
:101D000000280CD5FFE743F60801C4F20201086879
:101D100020F4E050029AD26810430860FFE702986E
:101D20000078000700280DD5FFE743F60801C4F24C
:101D30000201086820F46040029A126940EAC20079
:101D40000860FFE700F04CF843F60801C4F2020116
:101D50000968C9B20A0944F65841C0F60001895C15
:101D6000C84040F20001C2F20001086040F20800E1
:101D7000C2F200000068FFF757FE00208DF80F0048
:101D8000FFE79DF80F0004B080BD000040F20000A6
:101D9000C2F200000068704780B5FFF7F7FF43F616
:101DA0000801C4F202010968C1F3822244F66841C5
:101DB000C0F60001895CC84080BD000080B5FFF717
:101DC000E5FF43F60801C4F20201096889B24A0B33
:101DD00044F66841C0F60001895CC84080BD00003F
:101DE00080B586B00020059004900390029043F6E1
:101DF0000800C4F20200006800F00C0001460191E6
:101E000040B1FFE7019804280AD0FFE701980828AD
:101E10000CD04FE042F20040C0F2F40002904FE0DC
:101E200047F64000C0F27D10029049E043F60400FE
:101E3000C4F20200016801F03F0105910068400210
:101E4000002813D5FFE743F60400C4F2020000683F
:101E5000C0F3881047F64001C0F27D11A0FB0101DC
:101E6000059A0023FEF756FA049012E043F60400A8
:101E7000C4F202000068C0F3881042F20041C0F2D0
:101E8000F401A0FB0101059A0023FEF743FA049038
:101E9000FFE743F60400C4F20200006800F440319A
:101EA000022000EBD130039004980399B0FBF1F0CD
:101EB000029005E042F20040C0F2F4000290FFE719
:101EC000029806B080BD000080B586B004900498EA
:101ED00020B9FFE701208DF8170050E3049800783F
:101EE000C007002800F0A580FFE743F60800C4F211
:101EF0000200006800F00C00042813D0FFE743F64E
:101F00000800C4F20200006800F00C0008281ED18E
:101F1000FFE743F60400C4F2020000684002002814
:101F200015D5FFE743F60000C4F20200006800F494
:101F300000310020B0EB514F08D0FFE70498406813
:101F400020B9FFE701208DF8170018E370E0FFE7E4
:101F500004984068B0F5803F09D1FFE743F60001DF
:101F6000C4F20201086840F48030086020E0049860
:101F70004068B0F5A02F0DD1FFE743F60001C4F291
:101F80000201086840F480200860086840F480304E
:101F900008600CE043F60001C4F20201086820F476
:101FA00080300860086820F480200860FFE7FFE7C1
:101FB000FFE704984068E8B1FFE7FFF705FD0390ED
:101FC000FFE743F60000C4F20200006800F40031AD
:101FD0000020B0EB514F0CD1FFE7FFF7F5FC039960
:101FE000401A652804D3FFE703208DF81700C6E2E6
:101FF000E7E71CE0FFF7E8FC0390FFE743F600008B
:10200000C4F20200006800F400310020B0EB514F30
:102010000CD0FFE7FFF7D8FC0399401A652804D3DA
:10202000FFE703208DF81700A9E2E7E7FFE7FFE7E6
:10203000FFE7049800788007002840F19680FFE7CA
:1020400043F60800C4F20200006810F00C0F13D031
:10205000FFE743F60800C4F20200006800F00C003D
:1020600008282CD1FFE743F60400C4F20200006800
:102070004002002823D4FFE743F60000C4F2020028
:10208000006800F002010020B0EB510F09D0FFE71B
:102090000498C068012804D0FFE701208DF81700DC
:1020A0006DE243F60001C4F20201086820F0F80076
:1020B000049A126940EAC2000860FFE754E00498FD
:1020C000C06870B3FFE70021C4F247210120086017
:1020D000FFF77AFC0390FFE743F60000C4F202002A
:1020E000006800F002010020B0EB510F0CD1FFE7B7
:1020F000FFF76AFC0399401A032804D3FFE7032083
:102100008DF817003BE2E7E743F60001C4F2020155
:10211000086820F0F800049A126940EAC2000860DA
:1021200021E00021C4F2472100200860FFF74CFCA9
:102130000390FFE743F60000C4F20200006800F0DD
:1021400002010020B0EB510F0CD0FFE7FFF73CFC81
:102150000399401A032804D3FFE703208DF81700E2
:102160000DE2E7E7FFE7FFE7FFE7049800780007E5
:1021700000284BD5FFE70498406918B3FFE740F605
:102180008061C4F2472101200860FFF71DFC039025
:10219000FFE743F67400C4F20200006800F0020199
:1021A0000020B0EB510F0CD1FFE7FFF70DFC0399B6
:1021B000401A032804D3FFE703208DF81700DEE15F
:1021C000E7E722E040F68061C4F247210020086082
:1021D000FFF7FAFB0390FFE743F67400C4F2020036
:1021E000006800F002010020B0EB510F0CD0FFE7B7
:1021F000FFF7EAFB0399401A032804D3FFE7032003
:102200008DF81700BBE1E7E7FFE7FFE704980078E8
:102210004007002840F1CE80FFE700208DF807003E
:1022200043F64000C4F202000068C000002815D444
:10223000FFE7FFE70020009043F64000C4F20200F1
:10224000016841F080510160006800F0805000900A
:102250000098FFE701208DF80700FFE747F2000034
:10226000C4F200000068C005002822D4FFE747F24E
:102270000001C4F20001086840F480700860FFF7B4
:10228000A3FB0390FFE747F20000C4F200000068E0
:10229000C00500280CD4FFE7FFF796FB0399401A0E
:1022A000032804D3FFE703208DF8170067E1EAE76E
:1022B000FFE7FFE704988068012809D1FFE743F6AC
:1022C0007001C4F20201086840F0010008601FE0DC
:1022D0000498806805280DD1FFE743F67001C4F229
:1022E0000201086840F004000860086840F001003E
:1022F00008600CE043F67001C4F20201086820F0A7
:1023000001000860086820F004000860FFE7FFE7AC
:10231000FFE704988068F8B1FFE7FFF755FB0390EB
:10232000FFE743F67000C4F20200006800F002010B
:102330000020B0EB510F0ED1FFE7FFF745FB0399EB
:10234000401A41F28931884204D3FFE703208DF817
:10235000170014E1E5E71EE0FFF736FB0390FFE707
:1023600043F67000C4F20200006800F00201002091
:10237000B0EB510F0ED0FFE7FFF726FB0399401A91
:1023800041F28931884204D3FFE703208DF817001A
:10239000F5E0E5E7FFE79DF80700012809D1FFE731
:1023A00043F64001C4F20201086820F08050086042
:1023B000FFE7FFE704988069002800F0DC80FFE772
:1023C00043F60800C4F20200006800F00C00082880
:1023D00000F08580FFE70498806902285CD1FFE760
:1023E0006021C4F2472100200860FFF7EDFA039056
:1023F000FFE743F60000C4F20200006800F000713D
:102400000020B0EB516F0CD0FFE7FFF7DDFA039926
:10241000401A032804D3FFE703208DF81700AEE02D
:10242000E7E70499C869D1F820C04B6A8A6A40EA94
:102430000C0040EA8310D2034FF6FF739A43A2F5D3
:1024400080321043C96A40EA016043F60401C4F2D5
:10245000020108606021C4F2472101200860FFF7F3
:10246000B3FA0390FFE743F60000C4F202000068ED
:1024700000F000710020B0EB516F0CD1FFE7FFF7C7
:10248000A3FA0399401A032804D3FFE703208DF829
:10249000170074E0E7E721E06021C4F24721002043
:1024A0000860FFF791FA0390FFE743F60000C4F2DB
:1024B0000200006800F000710020B0EB516F0CD0FA
:1024C000FFE7FFF781FA0399401A032804D3FFE7D7
:1024D00003208DF8170052E0E7E7FFE74AE0049891
:1024E0008069012804D1FFE701208DF8170046E03C
:1024F00043F60400C4F20200006802900498806968
:10250000012831D0FFE7029800F480000499C969DE
:10251000884229D1FFE7029800F03F000499096A38
:10252000884221D1FFE7029847F6C071084004991C
:10253000496AB0EB811F17D1FFE7029800F44030E1
:102540000499896AC9034FF6FF729143A1F580315E
:10255000884209D1FFE7029800F070600499C96AC7
:10256000B0EB016F04D0FFE701208DF8170006E003
:10257000FFE7FFE7FFE700208DF81700FFE79DF872
:10258000170006B080BD000080B582B001900198B0
:1025900001F07CF802B080BD84B00290019100206F
:1025A0000090FFE7029890F83C00012804D1FFE773
:1025B00002208DF80F0044E00299012081F83C00D0
:1025C000FFE7FFE7009820F0FF000199C968084382
:1025D0000090009820F440700199896808430090A9
:1025E000009820F4806001994968084300900098A1
:1025F00020F400600199096808430090009820F4D5
:1026000080500199096908430090009820F4005017
:102610000199496908430090009820F4804001998D
:10262000C969084300900098029909684864FFE767
:102630000299002081F83C00FFE700208DF80F0090
:10264000FFE79DF80F0004B07047000085B00390CD
:102650000291FFE7039890F83C00012804D1FFE7BE
:1026600002208DF813007EE00399012081F83C00E0
:10267000FFE7FFE70399022081F83D000398006817
:10268000406801900398006880680090019820F0ED
:102690007000019002980168019808430190019828
:1026A000039909684860039800680021C4F2010199
:1026B00088423CD0FFE703980068B0F1804F36D0E5
:1026C000FFE70398006840F20041C4F2000188422D
:1026D0002DD0FFE70398006840F60001C4F2000126
:1026E000884224D0FFE70398006840F60041C4F216
:1026F000000188421BD0FFE70398006840F20041C8
:10270000C4F20101884212D0FFE70398006844F246
:102710000001C4F20101884209D0FFE70398006874
:1027200041F60001C4F2000188420ED1FFE7009893
:1027300020F08000009002984168009808430090C3
:102740000098039909688860FFE70399012081F8E0
:102750003D00FFE70399002081F83C00FFE70020DF
:102760008DF81300FFE79DF8130005B070470000D7
:1027700080B582B00090009820B9FFE701208DF865
:1027800007003FE0009890F83D0040B9FFE700994E
:10279000002081F83C00009800F038F8FFE700992D
:1027A000022081F83D00009951F8040B01F004F873
:1027B0000099012081F84600FFE70099012081F887
:1027C0003E00009981F83F00009981F8400000998F
:1027D00081F84100FFE7FFE70099012081F84200FE
:1027E000009981F84300009981F84400009981F82C
:1027F0004500FFE70099012081F83D0000208DF899
:102800000700FFE79DF8070002B080BD82B001908D
:102810000198006840F20041C4F20101884212D1DF
:10282000FFE7FFE70020009043F64400C4F20200F7
:10283000016841F002010160006800F002000090B0
:102840000098FFE7FFE702B07047000080B586B050
:102850000490039100208DF80B00FFE7049890F896
:102860003C00012804D1FFE702208DF81700ABE0FF
:102870000499012081F83C00FFE7FFE7049902205A
:1028800081F83D000498006880680190019820F06C
:1028900077000190019820F47F40019001980499FD
:1028A00009688860039800680090002872D0FFE7EC
:1028B000009810286ED0FFE7009820286AD0FFE724
:1028C0000098302866D0FFE70098402855D0FFE7F1
:1028D0000098502837D0FFE70098602840D0FFE7E5
:1028E000009870280BD0FFE70098B0F5805F05D006
:1028F000FFE70098B0F5005F16D052E055E004986D
:102900000068039B5A689968DB6801F049F80498ED
:10291000006880680190019840F07700019001986C
:1029200004990968886040E004980068039B5A682D
:102930009968DB6801F034F804980168886840F40D
:102940008040886031E004980068039A5168D2683A
:1029500001F012FA04980068502101F03BF824E0DD
:1029600004980068039A5168D26801F02DFA04981F
:102970000068602101F02EF817E004980068039ABF
:102980005168D26801F0F8F904980068402101F01C
:1029900021F80AE0049800680399096801F01AF820
:1029A00003E001208DF80B00FFE70499012081F876
:1029B0003D00FFE70499002081F83C00FFE79DF807
:1029C0000B008DF81700FFE79DF8170006B080BDDB
:1029D00080B586B004900391049820B9FFE70120E8
:1029E0008DF8170088E0049890F83D0040B9FFE7A3
:1029F0000499002081F83C00049800F081F8FFE77A
:102A00000499022081F83D0004980168886844F226
:102A1000070290438860049951F8040B00F0CCFE43
:102A200004980068806802900498006880690190AA
:102A300004980068006A00900398016802980843AF
:102A40000290019840F2033188430190039988680D
:102A5000896940EA0121019808430190019840F6F4
:102A60000C418843019001984FF2F0018843019096
:102A70000399C868C96940EA012101980843019097
:102A800003990869096A000140EA01310198084385
:102A90000190009820F022000090009820F088001B
:102AA000009003994868496940EA01110098084379
:102AB000009002980499096888600198049909684F
:102AC000886100980499096808620499012081F8D6
:102AD0004600049981F83E00049981F83F0004996A
:102AE00081F84200049981F84300049981F83D007F
:102AF00000208DF81700FFE79DF8170006B080BD95
:102B000080B588B00790002006900590049003904F
:102B10000290079800680021C4F20101884233D175
:102B2000FFE7FFE70020019043F64400C4F20200F3
:102B3000016841F001010160006800F001000190AE
:102B40000198FFE7FFE70020009043F63000C4F251
:102B50000200016841F001010160006800F001001D
:102B600000900098FFE74FF440700290022003901D
:102B7000002004900590012006900020C4F202007D
:102B800002A9FEF72DFDFFE708B080BD80B586B035
:102B900004900391049890F83E008DF80B0004987F
:102BA00090F83F008DF80A00049890F842008DF8E4
:102BB0000900049890F843008DF808000398B8B90C
:102BC000FFE79DF80B00012805D1FFE79DF80900FC
:102BD000012804D0FFE701208DF8170079E004995F
:102BE000022081F83E00049981F84200FFE742E0AC
:102BF0000398042817D1FFE79DF80A00012805D1A2
:102C0000FFE79DF80800012804D0FFE701208DF8B8
:102C100017005EE00499022081F83F00049981F8D2
:102C20004300FFE726E09DF80B0001280FD1FFE7E6
:102C30009DF80A0001280AD1FFE79DF80900012844
:102C400005D1FFE79DF80800012804D0FFE7012027
:102C50008DF817003DE00499022081F83E000499A8
:102C600081F83F00049981F84200049981F84300FB
:102C7000FFE7FFE7FFE70398019020B1FFE7019826
:102C8000042807D00DE0049800680021012200F01C
:102C90006BFE14E0049800680421012200F064FE39
:102CA0000DE00498006800210122009200F05CFE13
:102CB000009A04980068042100F056FEFFE704988B
:102CC0000168086840F00100086000208DF81700D6
:102CD000FFE79DF8170006B080BD000080B588B002
:102CE00007900020069005900490039002900798AA
:102CF000006840F20041C4F20101884222D1FFE79E
:102D0000FFE70020019043F63000C4F202000168A2
:102D100041F004010160006800F004000190019896
:102D2000FFE7C0200290022003900020049005904D
:102D30000320069040F60000C4F2020002A9FEF74C
:102D40004FFCFFE708B080BD80B586B004900391CA
:102D5000029200208DF80700FFE7049890F83C00ED
:102D6000012804D1FFE702208DF8170089E00499BB
:102D7000012081F83C00FFE7FFE7029800900C2853
:102D800000F270800099DFE801F0076D6D6D206D35
:102D90006D6D3A6D6D6D530004980068039900F0F5
:102DA0002FFE04980168886940F008008861049843
:102DB0000168886920F0040088610398026904981A
:102DC000016888691043886150E00498006803999D
:102DD00000F08CFE04980168886940F40060886106
:102DE00004980168886920F480608861039802690A
:102DF00004980168886940EA0220886136E00498F6
:102E00000068039900F0ECFE04980168C86940F07E
:102E10000800C86104980168C86920F00400C8610E
:102E20000398026904980168C8691043C8611DE0ED
:102E300004980068039900F04DFF04980168C86980
:102E400040F40060C86104980168C86920F480609B
:102E5000C8610398026904980168C86940EA0220C1
:102E6000C86103E001208DF80700FFE7FFE7049940
:102E7000002081F83C00FFE79DF807008DF817005F
:102E8000FFE79DF8170006B080BD000080B582B056
:102E90000090009820B9FFE701208DF807003FE07F
:102EA000009890F83D0040B9FFE70099002081F8B4
:102EB0003C00009800F038F8FFE70099022081F804
:102EC0003D00009951F8040B00F076FC00990120B8
:102ED00081F84600FFE70099012081F83E00009943
:102EE00081F83F00009981F84000009981F8410085
:102EF000FFE7FFE70099012081F84200009981F87F
:102F00004300009981F84400009981F84500FFE7EB
:102F10000099012081F83D0000208DF80700FFE7AF
:102F20009DF8070002B080BD81B0009001B07047ED
:102F300080B58CB00A900991099828B9FFE70A98E2
:102F400090F83E0007901CE00998042805D1FFE79F
:102F50000A9890F83F00069010E00998082805D1DB
:102F6000FFE70A9890F84000059004E00A9890F86E
:102F700041000590FFE705980690FFE70698079047
:102F8000FFE70798012804D0FFE701208DF82F0004
:102F9000AFE0099828B9FFE70A99022081F83E00BE
:102FA0001EE00998042806D1FFE70A99022081F85B
:102FB0003F00049012E00998082806D1FFE70A991B
:102FC000022081F84000039005E00A99022081F870
:102FD00041000390FFE703980490FFE70498FFE7A0
:102FE0000A98006809990122019200F0BDFC01983D
:102FF0000A9909680022C4F20102914202900CD0A1
:10300000FFE70A9800684FF60041CBF6FE710844CE
:10301000B0FA80F040090290FFE70298C00738B18B
:10302000FFE70A980168486C40F400404864FFE7F5
:103030000A9800680021C4F2010188423CD0FFE7F1
:103040000A980068B0F1804F36D0FFE70A98006810
:1030500040F20041C4F2000188422DD0FFE70A98F7
:10306000006840F60001C4F20001884224D0FFE766
:103070000A98006840F60041C4F2000188421BD063
:10308000FFE70A98006840F20041C4F2010188425B
:1030900012D0FFE70A98006844F20001C4F201016F
:1030A000884209D0FFE70A98006841F60001C4F29F
:1030B0000001884212D1FFE70A980068806800F09A
:1030C000070008900898062807D0FFE70A980168CB
:1030D000086840F001000860FFE706E00A98016810
:1030E000086840F001000860FFE700208DF82F001D
:1030F000FFE79DF82F000CB080BD000080B582B0C6
:103100000090009820B9FFE701208DF8070040E00B
:103110000098806908B1FFE700E0FFE7009890F8A9
:10312000410040B9FFE70099002081F84000009875
:1031300000F034F8FFE70099242081F8410000985E
:103140000168C86820F40050C860009800F0B0FE24
:1031500000980168086920F49040086100980168AF
:10316000486920F02A00486100980168C86840F466
:103170000050C860009900204864009A202182F81D
:103180004110009A82F84210009948638DF80700B8
:10319000FFE79DF8070002B080BD000080B588B051
:1031A00007900020069005900490039002900798E5
:1031B000006844F20041C4F20001884233D1FFE7C5
:1031C000FFE70020019043F64000C4F202000168CE
:1031D00041F400310160006800F400300190019872
:1031E000FFE7FFE70020009043F63000C4F2020042
:1031F000016841F001010160006800F001000090E9
:103200000098FFE70C200290022003900020049019
:1032100003200590072006900020C4F2020002A9B6
:10322000FEF7DEF9FFE708B080BD000080B58AB088
:1032300008900791ADF81A20059300200290089895
:1032400090F84100202840F08180FFE7079820B1E6
:10325000FFE7BDF81A0020B9FFE701208DF827002D
:1032600078E00899002048640899212081F84100FD
:10327000FEF7AAFB0290BDF81A0008998884BDF8F1
:103280001A000899C88408988068B0F5805F09D151
:10329000FFE70898006928B9FFE700200490079825
:1032A000039004E00798049000200390FFE7FFE7F5
:1032B0000898C08C78B3FFE70898029B05996A4686
:1032C00011608021002200F091FE40B1FFE70899D3
:1032D000202081F8410003208DF827003AE004986F
:1032E00058B9FFE7039800886FF35F2008990968D1
:1032F000486003980230039008E004980078089929
:1033000009684860049801300490FFE70899C88C68
:103310000138C884CCE70898029B05996A46116079
:103320004021002200F062FE40B1FFE70899202012
:1033300081F8410003208DF827000BE00899202038
:1033400081F8410000208DF8270003E002208DF86D
:103350002700FFE79DF827000AB080BDFFE7FEE7E2
:1033600080B58CB000200B900A90099008900790CF
:10337000FFE70020069043F63000C4F20200016827
:1033800041F080010160006800F08000069006981E
:10339000FFE7FFE70020059043F63000C4F202008B
:1033A000016841F004010160006800F0040005902C
:1033B0000598FFE7FFE70020049043F63000C4F2D1
:1033C0000200016841F001010160006800F00100A5
:1033D00004900498FFE740F60000C4F20200039056
:1033E000042100220292FEF7D7FA03980821012255
:1033F0000192FEF7D1FA019A029903980C230793E0
:10340000089209910A9107A9FEF7EAF80CB080BD6D
:1034100080B58EB005A800902421FDF728F800990A
:10342000002201920492039240F28800C2F200004E
:1034300002900023C4F20103036001234360826011
:103440004FF6FF7CC0F80CC00261426182614FF010
:10345000030CCDF814C006920793089209920A92C1
:103460000B930C920D92FFF7B3FA18B1FFE7FEF73A
:1034700091F8FFE700200390049040F28800C2F228
:10348000000003A9FFF7E2F818B1FFE7FEF782F8A2
:10349000FFE70EB080BD000080B598B0002101911B
:1034A00017911691159114911391129111911091F8
:1034B0000F910E910D910C910B910A910991089128
:1034C0000791069105910491039140F2D000C2F258
:1034D0000000029040F20042C4F20102026040F299
:1034E0008F62426081606322C260016141618161DB
:1034F000FFF73EF918B1FFE7FEF74CF8FFE74FF48E
:103500008050149040F2D000C2F2000014A9FFF7DE
:103510009DF918B1FFE7FEF73DF8FFE740F2D00054
:10352000C2F20000FFF7B2FC18B1FFE7FEF732F875
:10353000FFE700201290139040F2D000C2F200008A
:1035400012A9FFF783F818B1FFE7FEF723F8FFE7AA
:1035500060200B9000220C920D920E920F9210920E
:10356000119240F2D000C2F200000BA9FFF7ECFB71
:1035700018B1FFE7FEF70EF8FFE740F2D000C2F205
:1035800000000BA90422FFF7DFFB18B1FFE7FEF7ED
:1035900001F8FFE700200390049005900690079043
:1035A0004FF4005108910A9040F2D000C2F200009E
:1035B00003A9FEF7F1FF18B1FFE7FDF7EBFFFFE707
:1035C00040F2D000C2F20000FFF788FB18B080BDC7
:1035D00080B582B040F21810C2F20000019044F2AF
:1035E0000041C4F2000101604FF4E131416000216B
:1035F0008160C16001610C2242618161C161FFF79C
:103600007DFD18B1FFE7FDF7C5FFFFE702B080BD04
:10361000FFE7FEE7FFE7FEE788B007900691059217
:10362000079800F0070004900498C0F107000528EF
:1036300003D3FFE70420019004E00498C0F10700E1
:103640000190FFE70198039004980430062803D8FE
:10365000FFE70020009003E0049803380090FFE7A4
:103660000098029006980399012202FA01F10139AB
:103670000840029B984005999A40013A114008433E
:1036800008B07047704700007047000080B582B0F6
:10369000009000980138B0F1807F03D3FFE701204C
:1036A000019019E0009801384EF21401CEF20001A9
:1036B00008604FF0FF300F2100F08EFD4EF2180130
:1036C000CEF20001002008604EF21002CEF200029D
:1036D000072111600190FFE7019802B080BD000052
:1036E00080B5FEF777F980BD80B594B008A8302189
:1036F000FCF7BDFE00200790069005900490039013
:10370000FFE70020029043F64000C4F20200016887
:1037100041F080510160006800F0805002900298F2
:10372000FFE7FFE70020019047F20000C4F200002D
:10373000016841F480410160006800F4804001901C
:103740000198FFE70220089001210B9110210C91B4
:103750000E9000210F9108211091A8211191129033
:103760000420139008A8FEF7AFFB18B1FFE7FDF7A0
:1037700011FFFFE70F200390022004900020059026
:103780004FF4A05006904FF48050079003A80521F5
:10379000FEF7CAF918B1FFE7FDF7FCFEFFE714B02A
:1037A00080BD00004EF68851CEF20001086840F45A
:1037B000700008607047000083B002900191029889
:1037C0000068009002980021C4F20101884225D0CF
:1037D000FFE70298B0F1804F20D0FFE7029840F257
:1037E0000041C4F20001884218D0FFE7029840F679
:1037F0000001C4F20001884210D0FFE7029840F6B1
:103800000041C4F20001884208D0FFE7029840F26C
:103810000041C4F2010188420AD1FFE7009820F07C
:103820007000009001984168009808430090FFE7FD
:1038300002980021C4F20101884255D0FFE70298A6
:10384000B0F1804F50D0FFE7029840F20041C4F23F
:103850000001884248D0FFE7029840F60001C4F218
:103860000001884240D0FFE7029840F60041C4F2D0
:103870000001884238D0FFE7029840F20041C4F2CC
:103880000101884230D0FFE7029844F20001C4F2FF
:103890000101884228D0FFE7029844F20041C4F2B7
:1038A0000101884220D0FFE7029844F60001C4F2EB
:1038B0000101884218D0FFE7029841F60001C4F2E6
:1038C0000001884210D0FFE7029841F60041C4F29F
:1038D0000001884208D0FFE7029842F20001C4F2DA
:1038E000000188420AD1FFE7009820F44070009060
:1038F0000198C168009808430090FFE7009820F005
:103900008000019949690843009000980299086075
:10391000019880680299C8620198006802998862DB
:1039200002980021C4F20101884208D0FFE7029802
:1039300040F20041C4F20101884205D1FFE701983D
:10394000006902990863FFE7029901204861029823
:103950000069C00730B1FFE70299086920F0010053
:103960000861FFE703B0704784B0039002910192B1
:10397000029800F01F01012088400090009A0399EE
:10398000086A904308620198029901F01F0100FA49
:1039900001F20399086A1043086204B070470000FE
:1039A00085B004900391029201930498806800907E
:1039B000009820F47F40009003980299019A41EA10
:1039C0000221014300980843009000980499886000
:1039D00005B0704783B00290019102988068009012
:1039E000009820F07000009001980099084340F082
:1039F0000700009000980299886003B070470000AB
:103A000085B0049003910498006A01900499086AB3
:103A100020F00100086204984068009004988069D2
:103A20000290029820F070000290029820F00300AB
:103A3000029003980168029808430290019820F0D0
:103A4000020001900398816801980843019004984E
:103A50000021C4F20101884208D0FFE7049840F237
:103A60000041C4F2010188420ED1FFE7019820F025
:103A7000080001900398C1680198084301900198DB
:103A800020F004000190FFE704980021C4F2010136
:103A9000884208D0FFE7049840F20041C4F20101D7
:103AA000884213D1FFE7009820F4807000900098BE
:103AB00020F400700090039841690098084300903A
:103AC00003988169009808430090FFE700980499E3
:103AD0004860029804998861039840680499486393
:103AE00001980499086205B07047000085B0049001
:103AF00003910498006A01900499086A20F010006C
:103B000008620498406800900498806902900298C6
:103B100020F4E0400290029820F440700290039854
:103B20000168029840EA01200290019820F02000EC
:103B3000019003988168019840EA0110019004986F
:103B40000021C4F20101884208D0FFE7049840F246
:103B50000041C4F2010188420FD1FFE7019820F033
:103B6000800001900398C168019840EA011001901B
:103B7000019820F040000190FFE704980021C4F272
:103B80000101884208D0FFE7049840F20041C4F2E6
:103B90000101884215D1FFE7009820F48060009071
:103BA000009820F40060009003984169009840EA72
:103BB0008100009003988169009840EA810000909C
:103BC000FFE7009804994860029804998861039877
:103BD00040680499886301980499086205B07047A9
:103BE00085B0049003910498006A01900499086AD2
:103BF00020F4807008620498406800900498C069BE
:103C00000290029820F070000290029820F00300C9
:103C1000029003980168029808430290019820F4EA
:103C20000070019003988168019840EA012001909A
:103C300004980021C4F20101884208D0FFE70498EB
:103C400040F20041C4F2010188420FD1FFE7019820
:103C500020F4006001900398C168019840EA0120B7
:103C60000190019820F480600190FFE70498002102
:103C7000C4F20101884208D0FFE7049840F20041F5
:103C8000C4F20101884215D1FFE7009820F480506A
:103C90000090009820F4005000900398416900982B
:103CA00040EA0110009003988169009840EA0110F1
:103CB0000090FFE700980499486002980499C86151
:103CC000039840680499C86301980499086205B094
:103CD0007047000085B0049003910498006A019039
:103CE0000499086A20F480500862049840680090A3
:103CF0000498C0690290029820F4E0400290029873
:103D000020F44070029003980168029840EA012074
:103D10000290019820F40050019003988168019866
:103D200040EA0130019004980021C4F20101884268
:103D300008D0FFE7049840F20041C4F20101884234
:103D40000BD1FFE7009820F4804000900398416970
:103D5000009840EA81100090FFE7009804994860BD
:103D600002980499C861039840680499086401980E
:103D70000499086205B0704785B0049003910292DF
:103D80000498006A00900499086A20F00100086213
:103D9000049880690190019820F0F0000190029948
:103DA000019840EA01100190009820F00A0000906C
:103DB000039900980843009001980499886100983D
:103DC0000499086205B0704785B00490039102928F
:103DD0000498006A00900499086A20F010000862B4
:103DE000049880690190019820F470400190029934
:103DF000019840EA01300190009820F0A000009066
:103E00000399009840EA0110009001980499886194
:103E100000980499086205B07047000084B00390D0
:103E2000FFE7FFE70398006850E8030F20F4907065
:103E30000290FFE702990398026842E80310002805
:103E4000F0D1FFE7FFE7FFE7FFE70398006850E8DE
:103E5000050F20F001000190FFE701990398026827
:103E600042E805100028F0D1FFE7FFE70398006B58
:103E7000012814D1FFE7FFE7FFE70398006850E847
:103E8000030F20F010000090FFE7009903980268EC
:103E900042E803100028F0D1FFE7FFE7FFE70399AE
:103EA000202081F8420003990020086304B0704785
:103EB00080B586B0059005980068006920F44050F0
:103EC000059A1168D26810430861059988680B69E2
:103ED0004A69C9691843104308430490059800686B
:103EE000C06849F20C618843049908430599096840
:103EF000C86005980068406920F44070059A116810
:103F00009269104348610598006841F20001C4F2CB
:103F10000101884209D0FFE70598006841F200419D
:103F2000C4F20101884204D1FFE7FDF747FF039087
:103F300003E0FDF731FF0390FFE70598C069B0F596
:103F4000004F29D1FFE703981921A0FB0101059A31
:103F50001368029353685A00DB0FFCF7DBF90299F0
:103F6000864648F21F53C5F2EB13AEFB032042090D
:103F700010014FF0640C02FB1CEC322202EBCC026D
:103F8000A2FB0332F82303EA521300EB4300C2F30F
:103F900042121044886026E003981921A0FB010119
:103FA000059A1368019353689A009B0FFCF7B2F9C6
:103FB0000199844648F21F52C5F2EB12ACFB023065
:103FC0004309642003FB10CC322000EB0C10A0FB53
:103FD0000202F02000EA521000EB0310C2F3431279
:103FE00010448860FFE706B080BD000080B586B051
:103FF000DDF820C0049003918DF80B200193FFE7BA
:1040000004980068006803990840401AB0FA80F0EC
:1040100040099DF80B1088424DD1FFE70898013008
:10402000002847D0FFE7FDF7CFFC0199401A089917
:10403000884203D8FFE7089820B9FFE703208DF8EE
:1040400017003CE004980068C0684007002830D59D
:10405000FFE7039880282CD0FFE70398402828D05A
:10406000FFE704980068006800F008010120B0EB49
:10407000D10F1DD1FFE7FFE70020009004980068F2
:104080000068009004980068406800900098FFE77E
:104090000498FFF7C3FE049908204864FFE70499D9
:1040A000002081F84000FFE701208DF8170006E0AE
:1040B000FFE7FFE7A4E700208DF81700FFE79DF872
:1040C000170006B080BD0000FFE7FEE780B584B0B2
:1040D00003900399029108684968FEF729FF029846
:1040E000406838B9FFE7029841890068006840F8E5
:1040F000341F26E002984068042808D1FFE70298A0
:1041000041890068006840F8381F019017E0029864
:104110004068082808D1FFE70298418900680068D4
:1041200040F83C1F009007E0029841890068006851
:1041300040F8401F0090FFE700980190FFE70198CA
:10414000FFE704B080BD000083B0029001910092AF
:104150000299019808600098486003B07047000019
:1041600082B001908DED000A01980168C968018153
:104170009DED000A9FED0B1A20EE010A9FED0A1A31
:1041800080EE010A018901EE101AB8EEC11A20EE84
:10419000010ABDEEC00A10EE101A4181408902B03A
:1041A000704700BF0000C84200401C4680B582B086
:1041B0000190009101980099016000683C21FEF790
:1041C000E5FC02B080BD00004EF60C50CEF20000BF
:1041D0000068C0F30220704782B08DF8070000919C
:1041E0009DF9070000280AD4FFE7009800019DF917
:1041F00007104EF20042CEF2000288540BE0009805
:1042000000019DF8071001F00F014EF61452CEF296
:1042100000028854FFE702B07047000083B00290AC
:10422000029800F0070000904EF60C51CEF200010B
:104230000868019001984FF6FF0210400190019824
:10424000009A40EA02200022C0F2FA521043019084
:104250000198086003B0704780B582B000200190DB
:10426000FDF7C6FBFFF740FAFFF77AF8FFF714F9FE
:10427000FFF7CEF8FFF7ACF900F02AF8FFE740F2BD
:104280008800C2F200000068416A40F28400C2F275
:1042900000000180B0F9002040F27000C2F200007E
:1042A000009044F67041C0F60001FCF7ABF80098AE
:1042B000FCF7BEF8009982B240F21810C2F200007A
:1042C0004FF0FF33FEF7B2FF0A20FDF767F9D6E79C
:1042D00080B588B040F28801C2F2000103A8FFF760
:1042E00065FF40F2D001C2F2000105A80190002252
:1042F0000292FFF729FF01989FED040AFFF730FFB4
:104300000198FFF7E3FE029808B080BD0000484224
:104310005FEA400C08BF91F0000F4FEA8C234FEA90
:10432000C12243EA51514FEA1C5018BF00F5F0403A
:104330004FEA300018BF41F000415FEA6C5C00F0CA
:104340002980BCF1FF3F08BF40F080407047130C4C
:1043500006BF12044FF0100C4FF0000C130E04BFF8
:1043600012020CF1080C130F04BF12010CF1040C23
:10437000930F04BF92000CF1020CD30F04BF520044
:104380000CF1010C11464FF00002A0F11F00A0EB50
:104390000C00704711F0004F08BF704731F000412A
:1043A0003FF4D5AF0B0C06BF09044FF0100C4FF0D3
:1043B000000C0B0E04BF09020CF1080C0B0F04BF1C
:1043C00009010CF1040C8B0F04BF89000CF1020CE5
:1043D000CB0F04BF49000CF1010CCCF1200322FAF1
:1043E00003F341EA030102FA0CF2A0EB0C0000F126
:1043F0000100704723F07F4720F07F4C80EA0300E4
:1044000000F00040ACEB070303F57C5303F1FF031E
:104410002DE9804909B44FEA144324EA03484FEADE
:10442000154B25EA0B4E0FF2042606EB13273E78B8
:1044300003FB0667C7F5000707FB06F64FEAD646FB
:1044400006F102064FEA543707FB066CCCF1005C1C
:104450004FEA1C472CEA074C0CFB06F507FB06F459
:1044600004EB15464FEA961649085FEA320234BF5C
:1044700000204FF000404FEAD13706FB07FC4FEA1F
:104480001C4C0CFB0BF7D21B03FB0CF761EB070179
:104490000CFB0EF7B0EB074072EB17420CFB08F772
:1044A00034BFA2EB0742B2EB074261EB17414FEA80
:1044B0000C444FEA910706FB07FC4FEA1C4C0CFB2F
:1044C0000BF7B0EBC74072EB573203FB0CF734BF6E
:1044D000A2EBC742B2EBC74261EB57310CFB0EF7C0
:1044E000B0EBC70072EB57720CFB08F734BFA2EBBE
:1044F000C702B2EBC70261EB57714FEA816141EA33
:1045000092114FEA826242EA90124FEA806004EB15
:10451000CC04039F4FEAD13706FB07FC4FEA1C4C43
:104520000CFB0BF7D21B03FB0CF761EB07010CFB39
:104530000EF7B0EB074072EB17420CFB08F734BFE5
:10454000A2EB0742B2EB074261EB17414FEA8C55F1
:1045500004EB9C244FEA910706FB07FC4FEA1C4C36
:104560000CFB0BF7B0EBC74072EB573203FB0CF7B9
:1045700034BFA2EBC742B2EBC74261EB57310CFB31
:104580000EF7B0EBC70072EB57720CFB08F734BFA5
:10459000A2EBC702B2EBC70261EB57714FEA816130
:1045A00041EA92114FEA826242EA90124FEA806039
:1045B00015EB4C2544F100044FEAD13706FB07FC0C
:1045C0004FEA1C4C0CFB0BF7D21B03FB0CF761EB07
:1045D00007010CFB0EF7B0EB074072EB17420CFB28
:1045E00008F734BFA2EB0742B2EB074261EB174179
:1045F0004FEA813141EA92414FEA823242EA9042E7
:104600004FEA80304FEA0C7615EB1C1544F100049C
:1046100048EA03434EEA0B484FF0000EB2EB080C99
:1046200071EB030724BF624639464EEB0E0E4FF086
:10463000000B0018524149414BEB0B0BB2EB080C3D
:1046400071EB03077BF1000B24BF624639464EEB4A
:104650000E0E4FF0000B0018524149414BEB0B0B73
:10466000B2EB080C71EB03077BF1000B24BF624631
:1046700039464EEB0E0E51EA020718BF46F001060E
:1046800016EB0E7655F1000254F1000103D5BDE89A
:104690008901BDE80088BDE88901BDE80048B61978
:1046A000524141EB0101A3F10103704780807F7EFD
:1046B0007D7C7B7A79787776767574737271717098
:1046C0006F6E6E6D6C6C6B6A6A696868676666654A
:1046D0006464636362616160605F5F5E5E5D5D5CD8
:1046E0005C5B5B5A5A595958585757565655555549
:1046F0005454535352525251515050504F4F4F4EA9
:104700004E4D4D4D4C4C4C4B4B4B4A4A4A494949F6
:104710004848484747474746464645454544444438
:104720004443434343424242424141419C46002B61
:1047300030D477002BD04FEA37071CB503B44FF0C5
:1047400010004FF01001BAF1000F06D0BCF1000FBD
:10475000DCBF40F0080040F008014FF000000FBC43
:10476000BDE810400BF1010BBBF1010F08BF5FEA80
:10477000170722BF12F1010211F101014FF00041B0
:1047800043F1000300F0004043EA00007047F9D312
:104790005708D0E746EA06464FEA164613F1400F9F
:1047A0001FDD13F1200FDFBF16430A46002120331F
:1047B0005B42BED0C3F1200746EA06464FEA1646E2
:1047C00002FA07F746EA070622FA03F2C3F12007C6
:1047D00001FA07F742EA070221FA03F14FF000035A
:1047E000A7E746EA020646EA06464FEA164646EAC2
:1047F0000106BCBF46EA0646360C4FF000034FF0F8
:1048000000024FF0000194E72DE9804C70B49A4605
:10481000934691E8380007C831EA400C48BF34EAB3
:10482000430C03D5FFF7E6FDFFF780FFF0BCBDE8C2
:10483000008C2DE9804C70B49A46934691E838007C
:1048400007C810F0804F08BF13F0804F03D100F06D
:1048500005F8FFF76BFFF0BCBDE8008C20F07F4748
:1048600023F07F4C80EA030000F0004007EB0C03CC
:10487000A3F57C53A3F1FE0392F0000F00F0B38088
:1048800095F0000F00F077802DE901494FEA1140C3
:1048900021EA00484FEA144624EA064700FB06FCDA
:1048A00008FB06F607FB08F818EB06484CEB164C1D
:1048B00000FB07F718EB07484CEB17404FEA124B89
:1048C00022EA0B4E4FEA154625EA06470BFB06FC8B
:1048D0000EFB06F607FB0EFE1EEB064E4CEB164CCF
:1048E0000BFB07F71EEB074E4CEB174B18EB0B08B7
:1048F00040F1000018EB0E0B58EB000840F10000EF
:104900008F1A4FF000014FF000063CBFC943661BF1
:1049100014BFB5EB040C00213CBFC943F61B4FEAA2
:10492000174427EA04454FEA1C472CEA074C04FBCE
:10493000076205FB07F70CFB05F616EB074642EB93
:10494000174204FB0CFC16EB0C4642EB1C421BEB23
:10495000060658EB020241414EEA8E0E46EA9E06DA
:1049600001D5BDE80189B619524141EB0101A3F11E
:104970000103BDE801894FEA144524EA05464FEAE0
:10498000114721EA074C05FB07F406FB07F70CFB70
:1049900006F111EB074144EB174405FB0CFC11EB4E
:1049A0000C4144EB1C444FEA124722EA074C05FB3A
:1049B00007F206FB07F70CFB06F616EB074642EB81
:1049C000174205FB0CFC16EB0C4642EB1C456A1823
:1049D00054F1000148BF7047B619524141EB010143
:1049E000A3F10103704795F0000F37D04FEA114251
:1049F00021EA02464FEA144724EA074C02FB07F17A
:104A000006FB07F70CFB06F414EB074441EB1741D8
:104A100002FB0CFC14EB0C4441EB1C414FEA154724
:104A200025EA074C02FB07F506FB07F70CFB06F629
:104A300016EB074645EB174502FB0CFC16EB0C4644
:104A400045EB1C42121951F1000148BF7047B619DD
:104A5000524141EB0101A3F1010370474FEA1445B4
:104A600024EA05464FEA114721EA074C05FB07F106
:104A700006FB07F70CFB06F212EB074241EB17416E
:104A800005FB0CFC12EB0C4251EB1C414FF00006F5
:104A900048BF7047921841EB0101A3F10103704731
:104AA00003B401984100009850EAC12018BF0420C7
:104AB0004A0D18BF40F0010040F2FF72B2EB515FA7
:104AC00008BF40F00200012808BF052002B070476F
:104AD00030380A2801D201207047002070470000BA
:104AE00010B500290AD00878002807D00548784476
:104AF000FCF706FD002801D0002010BD02487844D4
:104B000010BD0000B6010000AE01000010B5002984
:104B10000AD00878002807D005487844FCF7F0FC54
:104B2000002801D0002010BD0248784410BD0000CC
:104B3000A60100009E010000F1EE100A4FF6FF7181
:104B4000C0F2C03120EA010040F04070E1EE100AEE
:104B50007047FCF7DFB8FCF713BA00000000000054
:104B600000000000303132333435363738394142B5
:104B700043444546403058003031323334353637BF
:104B8000383961626364656640307800040000086B
:104B9000000000000000000200010000103031326F
:104BA000333435363738396162636465667870004E
:104BB0003031323334353637383941424344454653
:104BC0005850000002400000000000A0000000005B
:104BD00005400000000000C8000000000C4000007C
:104BE0000000409C00000000194000000020BCBEF6
:104BF0000000000034400000BFC91B8E000000040C
:104C0000B5400000504BCFD06607E2CF0100000056
:104C10006C4100003E8251AADFEEA7340100000083
:104C2000D9420000DCB5A0E23A301F97FFFFFFFF3A
:104C3000B4450000FD25A0C8E9A3C14FFFFFFFFF59
:104C4000FF3F00000000008000000000FF3F000068
:104C500000000080000000000000000000000000D4
:104C60000102030406070809000000000102030412
:104C7000456E636F64657220436F756E743A2025CC
:104C8000640D0A00D04D0008000000201000000054
:104C9000C4010008E04D0008100000205807000083
:104CA000E00100081C00000043000000F8FFFFFFC7
:104CB0000C0000000E0000000F0000002E0000009D
:104CC0001001000043000000F8FFFFFF00404040DB
:104CD00040404040404041414141414040404040CF
:104CE000404040404040404040404040400502027B
:104CF000020202020202020202020202022020203A
:104D00002020202020202002020202020202909095
:104D10009090909010101010101010101010101093
:104D200010101010101010100202020202028888E7
:104D300088888888080808080808080808080808F3
:104D400008080808080808080202020240000000DB
:104D50000000000000000000000000000000000053
:104D60000000000000000000000000000000000043
:104D70000000000000000000000000000000000033
:104D80000000000000000000000000000000000023
:104D90000000000000000000000000000000000013
:104DA0000000000000000000000000000000000003
:104DB00000000000000000000000000000000000F3
:104DC00000000000000000000000000000000000E3
:104DD0000024F400010000001000000000000000AA
:040000050800018965
:00000001FF
