:020000040800F2
:1000000028080020D50200083D2B0008B52800086C
:10001000392B000835150008ED31000800000000FC
:10002000000000000000000000000000AD2B0008F0
:100030003915000800000000A92B0008252C000835
:10004000EF020008EF020008EF020008EF020008CC
:10005000EF020008EF020008EF020008EF020008BC
:10006000EF020008EF020008EF020008EF020008AC
:10007000EF020008EF020008EF020008EF0200089C
:10008000EF020008EF020008EF020008EF0200088C
:10009000EF020008EF020008EF020008EF0200087C
:1000A000EF020008EF020008EF020008EF0200086C
:1000B000DD2C0008EF020008EF020008EF02000844
:1000C000EF020008EF020008EF020008EF0200084C
:1000D000EF020008EF020008EF020008EF0200083C
:1000E000EF020008EF020008EF020008EF0200082C
:1000F000EF020008EF020008EF020008EF0200081C
:10010000EF020008EF020008EF020008EF0200080B
:10011000EF020008EF020008EF020008EF020008FB
:10012000EF020008EF020008EF020008EF020008EB
:10013000EF0200080000000000000000EF020008CD
:10014000EF020008EF020008EF020008EF020008CB
:10015000EF020008EF020008EF020008EF020008BB
:10016000EF020008EF020008EF020008EF020008AB
:10017000EF020008EF02000800000000000000008D
:10018000EF020008EF02000800F002F800F092F819
:100190000AA090E8000C82448344AAF10107DA45E2
:1001A00001D100F087F8AFF2090EBAE80F0013F0A2
:1001B000010F18BFFB1A43F0010318472C3D000044
:1001C0004C3D0000103A24BF78C878C1FAD85207D5
:1001D00024BF30C830C144BF04680C6070470000C1
:1001E0000023002400250026103A28BF78C1FBD840
:1001F000520728BF30C148BF0B6070476E2900F01E
:10020000D381702900F01583662903F0DF85652905
:1002100003F0DC85672903F0D985612903F0D885CF
:1002200003681B0A28BF41F08001692900F0808122
:10023000642900F07D81752900F07A816F2900F032
:10024000A382782900F0E182E92900F03D82E429C7
:1002500000F03A82F52900F03782EF2900F0A08201
:10026000F82900F0E0820368DB0928BF41F0800133
:10027000632900F0E987732900F0EE87E32900F095
:10028000F987F32900F0FE87002070471FB503F0BF
:1002900098FD01F04DF804000020002103F004FD5A
:1002A000401C60600020002103F0E8FCE0601FBDFE
:1002B00010B510BD01F00FF81146FFF7E7FF03F08E
:1002C000BFF801F0EBF803B4FFF7F2FF03BC00F056
:1002D0007FFB00000948804709480047FEE7FEE72A
:1002E000FEE7FEE7FEE7FEE7FEE7FEE7FEE7FEE7E6
:1002F00004480549054A064B70470000C92C000810
:100300008901000828020020280800202804002075
:100310002804002053EA020C00F069802DE9F04B1C
:100320004FF00006002B1FBFB3FA83F503FA05F464
:1003300024FA05F65E4012BF1643B2FA82F502FABD
:1003400005F4C5F120051EBF22FA05FC44EA0C04A1
:10035000203556EA044C4FEA144418BF641C4FF091
:1003600000084FF00009904271EB030C39D30029CB
:1003700019BFB1FA81F701FA07F6B0FA80F700FA6F
:1003800007F6C7F120071EBF20FA07FC46EA0C0655
:100390002037B6FBF4FCA7EB0507103F07F01F0B57
:1003A000CBF120062CFA06F60CFA0BFB44BFB34641
:1003B0000026202FA4BF5E464FF0000B5BEA060C20
:1003C00008BF4FF0010B19EB0B0948EB0608ABFB1C
:1003D000027C06FB02CC0BFB03CCC01B71EB0C01B7
:1003E000C1E70B46024641464846BDE8F08B13B5CF
:1003F0004FF000004FF00001AFF30080BDE81C405B
:10040000704700001CB50C46064B7B4469460090C3
:10041000204600F0E2F804460020694600F0F0F8BB
:1004200020461CBDF301000010B5431C02E010F88B
:10043000011B71B18107FAD14FF0013202C88C1A49
:100440008C4314EAC211F9D0C01A0A0603D0C01EA8
:1004500010BDC01A10BD0A0401D0801E10BD0902D3
:10046000FCD0401E10BD70477047704770B5044601
:1004700085690068C10601D5302600E02026C00746
:1004800007D070BDD4E9012130469047206A401C56
:1004900020626D1EF6D570BD70B504468569007882
:1004A000C00707D170BDD4E9012120209047206A00
:1004B000401C20626D1EF6D570BD09684A0501D545
:1004C00040B27047C905FCD500B2704709684A05BB
:1004D00001D5C0B27047C905FCD580B2704770B570
:1004E0000C460546012A05D02878800600D5EA6921
:1004F000002302E0012305E05B1C934202D2E05C92
:100500000028F9D1A869E618C01AA861286A184419
:1005100028622846FFF7AAFF04E0D5E9012114F874
:10052000010B9047B442F8D32846FFF7B5FF70BDE2
:100530002DE9F0410646002410687529314616A5BC
:1005400010D0FFF7BAFF002802DA404213A507E0F7
:1005500031688A0701D512A502E0490704D511A523
:10056000012401E0FFF7B2FF00210A2206F124076F
:1005700009E0B0FBF2FCB0FBF2F302FB1C003030F0
:1005800078541846491C0028F3D123462A463046A1
:10059000BDE8F04100F067BA000000002D00000047
:1005A0002B0000002000000011680268006A53055B
:1005B00001D508700AE0D30501D5088006E01306CE
:1005C00003D5C217C1E9000200E0086001207047AE
:1005D00001694A1C02610878704700B58FB0CDE907
:1005E00001310021059105497944CDE903101146F7
:1005F000684600F029F90FB000BD0000E5FFFFFFDD
:100600000A6802F8010B0A60704700002DE9FF5FDD
:1006100015468A460446DFF8AC80F8440027D8E93E
:1006200000103E46CDE9001010E03AF816106A4678
:1006300002A800F02BFE411C07D02178890603D5C3
:10064000E269391891420DD80744761C207880065B
:1006500002D5E069B84205DDAE42E6DB3AF81600A5
:100660000028E2D1A069C01BA0612046FFF7FEFE72
:10067000D8E90010CDE90010002017E03AF8181072
:100680006A4602A800F002FEB0F1FF3F81460BD09F
:1006900000250DF1080B05E0D4E901211BF8050048
:1006A00090476D1C4D45F7D308F10100B0428046DC
:1006B000E4DB206A384420622046FFF7EDFEBDE807
:1006C000FF9F0000B63700002DE9F0418046D21DA3
:1006D00022F007020025D2E90002F52915A614D060
:1006E000011E72F1000106DA0023D0EB030063EB78
:1006F000020211A608E0D8F800108B0701D50FA65A
:1007000002E0490701D50EA601251146002408F193
:10071000240704E000F062F930323A55641C50EAD4
:100720000102F7D12B46324621464046BDE8F04152
:1007300000F099B9000000002D0000002B0000001F
:100740002000000030B4002100F1240408E002F091
:100750000705D208303542EA4372DB086554491C6C
:1007600052EA0305F3D10468002310A2250708D537
:1007700004F020040C4304D0C46901230CA2641EBD
:10078000C46130BC00F06FB910B504462146106852
:10079000FFF79CFE02462046BDE810400023D1E74B
:1007A000D21D22F00701D1E90023CBE700000000B1
:1007B00030000000F0B40D460188090502D5214C37
:1007C0007C4402E01F4C7C440E34002100F12406DE
:1007D00008E002F00F071209E75D42EA03721B0905
:1007E0007754491C52EA0307F3D102780023120719
:1007F00004D5702D06D009B1022311342246F0BC75
:1008000000F031B901231034F8E770B504460D4605
:1008100021461068FFF75AFE024629462046BDE8E9
:1008200070400023C6E7D21D22F00703D3E900235E
:10083000C0E70368126843F0200303600823C36124
:100840000023B7E7183600002DE9F05F894604461B
:100850004FF0000ADFF874B1FB44C0F820A0204636
:10086000E1688847002874D0252806D0D4E9012102
:100870009047206A401C2062F1E700265F46204630
:10088000E16888472028054607DB312D05D2781915
:1008900010F8200C08B10643F1E7B00701D526F0A7
:1008A0000406C4F81CA00027C4F818A02A2D09D0FB
:1008B000284603F0DBF938B304EB8708303DC8F86D
:1008C000185019E059F8041B204604EB8702916187
:1008D000E1688847012F054618D1E069002820DA31
:1008E00026F020061DE0D8F8180000EB800005EB8C
:1008F00040003038C8F818002046E16888470546AF
:1009000003F0B4F90028EED1012F0AD02E2D08D122
:100910002046E16888477F1C0546022F46F02006E6
:10092000C4DBA069002803DA404246F00106A0615A
:10093000F00701D026F010066C2D0BD0682D09D0E1
:100940004C2D39D06A2D35D0742D35D07A2D33D039
:1009500016E038E0E1682F4620468847B842054651
:1009600009D16C2F26D04FF48060E1680643204601
:100970008847054604E06C2F1AD04FF48070064378
:100980000DB3A5F14100192802D8203546F40066C0
:100990004A462946204626604E46FFF72FFC80B186
:1009A00001280BD0F61D26F0070000F1080956E7D4
:1009B0004020E4E78020D8E70020D6E706F10409CC
:1009C0004DE7284652E7206ABDE8F09FA8350000B1
:1009D00001491820ABBEFEE72600020030B5B0F199
:1009E0000A0271F100034FEA900E4EEA817EB0EBED
:1009F0000E0061EB91014FEA101E4EEA017E10EBF2
:100A00000E0041EB11114FEA102E4EEA016E10EB71
:100A10000E0041EB11214FEA104E4EEA014E10EB51
:100A20000E0041EB1141401841F100014FEAD000A6
:100A300040EA41704FEAD1014FEA810444EA9074E0
:100A400010EB800544EB01046D1944EB0404521BC8
:100A5000A3414FF0000348BF0A3200D530BD401C0F
:100A600041F1000130BD2DE9F0470D46994692460F
:100A7000044600F124080168880604D5E06921F0E5
:100A80001001216000E00120A84201DD471B00E0C9
:100A90000027A1697A1902EB0900081AA0612078E1
:100AA000C00602D42046FFF7E1FC002608E0D4E9A6
:100AB00001211AF806009047206A401C761C20622B
:100AC0004E45F4DB2078C0060AD52046FFF7CEFC61
:100AD00006E0D4E9012130209047206A401C2062C2
:100AE000381EA7F10107F4DC07E0D4E9012118F86A
:100AF00005009047206A401C2062281EA5F10105D0
:100B0000F3DC2046FFF7C8FC2078000602D502205F
:100B1000BDE8F0870120FBE770472DE9FF4F0C4649
:100B20001E464FF0FF378BB0D2E90001DDF8608040
:100B30000A908A46C1F30A5505B93D460021084688
:100B40004FF00000BAF1000F00F4400005DA00EBAE
:100B500080004FF4400101EA50004FEA9059B9F18A
:100B6000010F00DDB9460A9850EA4A000ED044F65B
:100B70001050A5F2FF3545432F14B8F1000F1ED0D9
:100B80007542291E1EDDC9F100021CE0B8F1010FFB
:100B90004FF0000001D0302103E0F24305E0215482
:100BA000401CB042FBDB30460022002121540B994F
:100BB000C1F80880C1E900200FB0BDE8F08FBD1B6F
:100BC0006D1CDEE74A4600DA694206A800F0F4FB35
:100BD00006AB93E8070003AB83E8070050460A9989
:100BE00002F064FC8DE80700A0F500501F3800906B
:100BF0000398002D0ADD42F21F014A4608440023F3
:100C000003A90390684602F0CDFE09E0A0F500506C
:100C10004A461F38002303A90390684602F0D7FE16
:100C20008DE807000004000C03D04FF0FF304108AE
:100C300000E01046B8F1000F03D0002200921546E4
:100C40001EE0751E05D4FFF7C9FE303262556D1ED9
:100C5000F9D5B3460122084302D000227F1C04E0EC
:100C60002078302801D100227F1E002A099784D0E5
:100C70001DE0112D07DAFFF7B1FE303262556D1C11
:100C800050EA0102F5D1084302D00098C8B10EE045
:100C90000021681E05E0235C625C63542254401E00
:100CA000491C8142F7DBAB46A81B401E099000207F
:100CB00004F80B000B98099AC0F80880C0E9002BD3
:100CC0007AE711264FF0000857E72DE9F04F8846E4
:100CD0000446D21D22F0070191B0D1E90001CDE90F
:100CE0000A0102F0ABFF02460B98C00F01D02D2085
:100CF00007E02068810701D52B2002E0202101EACE
:100D0000C000032A099001D0072A05DB03464146AB
:100D1000204600F011FB0BE12078800601D5E06948
:100D200000E00620B8F1650F814606D0B8F1660FE5
:100D300018D0B8F1670F70D131E00020B9F1110F70
:100D4000009001DB112301E009F101030AAA01A9C6
:100D50000CA8FFF7E2FEDDE90C70002609F10105A1
:100D6000834647E001204B4600904FF000470AAA17
:100D700001A90CA8FFF7D1FEDDE90DB00C995D4685
:100D8000002610B909F101000D18B9EB050003D4D4
:100D9000C0F1FF3609F10105A5EB09002BE0B9F11F
:100DA000010F01DA4FF001090020B9F1110F009095
:100DB000484601DD112300E003460AAA01A90CA858
:100DC000FFF7ABFEDDE90C704D4600268346207828
:100DD00000070AD4AB4500DA5D4601A8012D04DD09
:100DE000411911F8011C302907D04F4502DA17F1DB
:100DF000040F04DA012082460FE06D1EEEE7002F9B
:100E000002DCED1B3E4403E0781CA84200DD7D1CA3
:100E1000B81B00F1010A4FF000472078000703D407
:100E2000AA4501DB4FF0FF3A0021B7F1004F0DF169
:100E300043088DF8431024D002202B23002F01DA21
:100E40007F422D230A21021EA0F1010000DC5FB1C8
:100E500097FBF1FC97FBF1F201FB1C7C17460CF1B0
:100E6000300C08F801CDEEE7A8F1010003702188ED
:100E7000090501D5452100E06521A0F1010800F830
:100E8000011C09980FA9A1EB0807FF1D00B1012063
:100E9000411901EBEA70A1693844081A401EA061AB
:100EA0002078C00602D42046FFF7E0FA099828B15E
:100EB000D4E901219047206A401C20622078C006B6
:100EC00022D52046FFF7D2FA1EE0002E04DBB34500
:100ED00002DD01A8805D00E03020D4E901219047C7
:100EE000206A401C2062761CAAF101005FEA000A19
:100EF0000AD100F01DFAC0680168405CD4E9012104
:100F00009047206A401C2062281EA5F10105DCDC08
:100F100007E0D4E9012118F8010B9047206A401C32
:100F20002062381EA7F10107F3DC2046FFF7B4FA70
:100F3000032011B041E600002DE9F04F04460D46B4
:100F4000D21D22F0070089B0D0E900974846394603
:100F500002F074FE0246F80F01D02D2307E020684E
:100F6000810701D52B2302E0202101EAC0038DF87F
:100F700020300BB1012000E00020032A824601D07E
:100F8000072A04DB2946204600F0D6F93FE1207805
:100F9000800601D40D2500E0E569C7F30A560D2D42
:100FA00049DA00214FEA175B08464FF00000002F96
:100FB00000F4400007DA00EB80004FF4400100EB42
:100FC000D07001EA60008115012901DD4FF0FF3189
:100FD00000224FEA850CBCF1180F06D31346ACF182
:100FE00018004FF08052C24003E04FF4801323FA00
:100FF0000CF30CF10C0CBCF1200F04D3ACF1200C61
:1010000009FA0CF001E007FA0CF000294FF0004853
:1010100001DD18B90FE00ED140450CD319EB0209E0
:101020005F4121B9404502D19F4329EA0209BBEB48
:10103000175F00D0761C2088000502D57B487844D5
:1010400002E07A487844193808AA302302F80A30B6
:10105000037C0AF10101002E0AF1020A53546A4688
:1010600002DC4FF0300101E04FF031014FF0010898
:101070008DF8001002D0A6F2FF3603E059EA4701CE
:1010800000D06B4E002D02DC2178090704D54FF00B
:1010900002082E218DF80110C44600210BE0C7F391
:1010A00003433F01C35C491C6D1E02F8083005294B
:1010B00008F1010801DA002DF1DC00210CE000EB61
:1010C0001973491C1B786D1E082902F808304FEA75
:1010D000091908F1010801DA002DF0DC21688B06FE
:1010E00002D516E0A8F10108E04505DD02EB080392
:1010F00013F8013C302BF5D0B8F1000F09DD02EBFD
:10110000080313F8013C2E2B03D1090701D4A8F1E1
:101110000108002D05DD3E2102F808106D1E08F1C2
:101120000108407C002E02F8080008F1010804DAEA
:101130002D20764202F8080002E02B2002F8080079
:101140000A214FF47A70864208F101080BDB96FB06
:10115000F0F3303302F8083096FBF0F308F10108A1
:1011600000FB136601E0642E0CDB642096FBF0F3B9
:10117000303302F8083096FBF0F308F1010800FB69
:10118000136601E00A2E06DB96FBF1F0303002F820
:10119000080008F1010896FBF1F001FB1060303007
:1011A00002F80800A16908F1010808EB050202EB4A
:1011B0000A00081AA0612078C00602D42046FFF772
:1011C00055F9216A08AE01EB0A00206204E0D4E977
:1011D000012116F8010B9047BAF1010AF7D22078E5
:1011E000C00602D52046FFF741F96E4609E016F821
:1011F000010B3E280FD0D4E901219047206A401C02
:101200002062B8F10108F2D22046FFF745F909B093
:101210000320BDE8F08F206A2844206203E0D4E96F
:101220000121302090476D1EEBD3F8E7E62D00003A
:1012300002FCFFFF10B5436913B1AFF3008001E07A
:10124000FFF74DF9012010BD127800F124010A705A
:1012500000224A700122EDE711684FF0FF32E9E702
:1012600010B5436913B1AFF3008001E0FFF7CEF989
:10127000012010BD128800F1240182840022C28462
:101280000122EDE711684FF0FF32E9E72DE9F04167
:1012900016460C46054600F043F8036893F8010132
:1012A000012807D0FF2C12D8185D80B101202C70C6
:1012B000BDE8F081D3F807013246214603F2071357
:1012C000C7182846BC46BDE8F041002360474FF0F0
:1012D000FF30EDE77047754600F0EAF8AE460500CE
:1012E0006946534620F00700854618B020B5FEF742
:1012F000FFFFBDE820404FF000064FF000074FF021
:1013000000084FF0000BAC46ACE8C009ACE8C009DF
:10131000ACE8C009ACE8C00921F007018D46704770
:1013200010B500F005F8001D10BD00BF7D290000BC
:1013300000487047C00000202DE9F0411F460446D8
:1013400003260168072A01F4006004DB08B116A532
:1013500005E016A503E008B115A500E015A521F0EC
:1013600010002060A069C01EA0610FB1401EA061E6
:101370002046FFF77BF84FB1D4E90121384690476A
:10138000206A401C2062C01C206206E0206AFAE746
:10139000D4E9012115F8010B9047761EF8D22046BA
:1013A000FFF77AF8BDE8F0814E414E006E616E00A5
:1013B000494E4600696E66002DE9F04781461646A3
:1013C0008AB0354878440DC88DE80D00324878441D
:1013D000801C03AC0DC884E80D0041F69B30084426
:1013E000372190FBF1F290FBF1F5A5F1800501FBAF
:1013F00012041B3C02D56442012000E00020DFF80B
:1014000098A080460027FA44AAF1BE0A0EE0E00741
:101410000AD03246684607EB470101230AEB8101F7
:1014200002F0D5FA8DE8070064107F1C002CEED185
:10143000194F7F44AE3F19E0E80715D007EB0410C1
:101440000DF1180A90E80E008AE80E00C068F0421C
:1014500001D1981908903246012306A903A802F089
:10146000B6FA03AB83E807006D10641C002DE3D1CE
:101470004FF0010332466946B8F1000F03A802D0CD
:1014800002F090FA01E002F0A2FAC9E90001C9F8FD
:1014900008200AB0BDE8F087F02A000010B5044625
:1014A000AFF300802046BDE81040FEF70CBF0000FF
:1014B00000487047A000002030B44FF0013C50F8C5
:1014C000042B51F8043BCCFA52F4D51A20D1FCB9C4
:1014D00050F8042B51F8043BCCFA52F4D51A17D12A
:1014E000B4B950F8042B51F8043BCCFA52F4D51A95
:1014F0000ED16CB950F8042B51F8043BCCFA52F4DD
:10150000D51A05D1002CDAD030BC4FF0000070475E
:1015100029BAB1FA81F111F01801D1F1200084400B
:10152000F2D1CA40CB4012F0FF0213F0FF0330BCEF
:10153000D01A7047FEE700007047000072B600BF87
:10154000FEE700002DE9F04F82B041F60042C4F200
:1015500002020827904208BF072700F13E4202F12D
:10156000FF724FEAB223072B38BF4FEAB22700972A
:101570004FF0010A4FF0030B43F6004EC4F2010E88
:10158000002500244FF000080AE000BF04350234B3
:1015900008F10108B8F1100F04BF02B0BDE8F08FE8
:1015A0000AFA08F90E6816EA090CEFD04E6806F040
:1015B0000306013E012E15D80BFA04F6D0F808B048
:1015C0002BEA06064FF0030BCA68A2403243826042
:1015D000426822EA09024E68C6F3001606FA08F6C7
:1015E000324342604A6802F00302032A08D00BFA31
:1015F00004F2C66826EA02028E68A6403243C26040
:101600004A6802F00302022A13D105F01C020F23DC
:1016100003FA02F64FF6FC73C7F6FF7303EA5803AA
:1016200003441F6A27EA06060F6907FA02F23243EB
:101630001A620BFA04F2036823EA02024B6803F011
:101640000303A3401A4302608A7992079ED00022C6
:10165000019243F64402C4F2020213461A6842F4AD
:1016600080421A601A6802F48042019228F0030254
:101670007244019B4FF60843CFF6FF73994652F828
:10168000093005F00C060F27B740BB43009F07FA4F
:1016900006F6334342F80930DEF8082022EA0C024D
:1016A0004B6813F4801F18BF42EA0C02CEF80820E2
:1016B00043F60C42C4F201021646326822EA0C02DA
:1016C0004B6813F4001F18BF42EA0C023260DEF8C8
:1016D000042022EA0C024B6813F4003F18BF42EAD0
:1016E0000C02CEF80420DEF8002022EA0C024B683F
:1016F00013F4803F18BF42EA0C02CEF8002045E701
:10170000002A08BF090481617047000040F22020D0
:10171000C2F200000068704740F29800C2F2000078
:10172000007840F22021C2F200010A6810440860EB
:101730007047000080B543F60040C4F20200016823
:1017400041F400710160016841F480610160016849
:1017500041F480710160032000F05CF80F2000F07C
:1017600005F800F029F8002080BD0000B0B504465F
:1017700040F29800C2F2000000784FF47A71B1FB99
:10178000F0F040F20001C2F200010968B1FBF0F094
:1017900000F03AFB01250F2C0CD858B900254FF06A
:1017A000FF302146002200F025F840F29C00C2F2F2
:1017B000000004602846B0BD82B00020019043F6CE
:1017C0004001C4F202014A6842F480424A604A6819
:1017D00002F480420192019A0090086840F0805023
:1017E0000860086800F080500090009802B07047D0
:1017F00001F0EABD70B514460D46064601F0F6FD4F
:101800002946224601F09CF901463046BDE8704069
:1018100001F0F4BD01F004BE2DE9F0410D4604468F
:10182000002C00F0AB8043F60808C4F20208D8F898
:10183000F80300F00700A84208D288F8F853D8F857
:10184000F80300F00700A84240F09880206810F0EC
:10185000020F19D0400742BFD8F8000040F4E05012
:10186000C8F800002078000742BFD8F8000040F414
:101870006040C8F80000D8F80000A16820F0F0002F
:1018800040EA0100C8F800002078C00735D0606841
:10189000811E022905D258F8080C10F0007F6DD087
:1018A0000CE0012805D158F8080C10F4003F65D071
:1018B00004E058F8080C10F0020F5FD0D8F80000D0
:1018C000616820F003000843C8F80000FFF71EFF1E
:1018D000064641F2883700BFD8F80000616800F082
:1018E0000C00B0EB810F08D0FFF710FF801BB8424F
:1018F000F2D90320C0B2BDE8F081D8F8F80300F0B7
:101900000700A84207D988F8F853D8F8F80300F080
:101910000700A84232D12078400707D5D8F8000048
:10192000E16820F4E0500843C8F800002078000780
:1019300008D5D8F80000216920F4604040EAC100D1
:10194000C8F8000000F048F8D8F80010C1F30311FF
:1019500043F6D062C0F60002515CC84040F200017C
:10196000C2F20001086040F29C00C2F20000006870
:10197000FFF7FCFE0020C0B2BDE8F0810120C0B23C
:10198000BDE8F08140F20000C2F20000006870473C
:1019900080B5FFF7F7FF43F60801C4F202010968BA
:1019A000C1F3822143F6E062C0F60002515CC840F8
:1019B00080BD000080B5FFF7E5FF43F60801C4F2E3
:1019C00002010968C1F3423143F6E062C0F6000249
:1019D000515CC84080BD000010B543F60404C4F259
:1019E0000204606800F00C0008280BD004281EBF19
:1019F00042F20040C0F2F40010BD47F64000C0F2D1
:101A00007D1010BD2268206847F64001C0F27D11AC
:101A100010F4800F04BF42F20041C0F2F4012068CC
:101A2000C0F38810A1FB000102F03F024FF0000359
:101A3000FEF770FC2168C1F301414FF0020202EB96
:101A40004101B0FBF1F010BD2DE9F04782B0044632
:101A50006CB32078C00743F6000AC4F2020A43F6CA
:101A60007007C4F2020755D057F8680C00F00C005C
:101A700004281ED057F8680C00F00C00082804D188
:101A800057F86C0C10F4800F13D16168B1F5803FEA
:101A900008D0DAF80000B1F5A02F13D140F480206F
:101AA000CAF80000DAF8000040F4803012E00120AB
:101AB0009DE1DAF8000010F4003F2BD0606848BBCD
:101AC000012094E120F48030CAF80000DAF8000028
:101AD00020F48020CAF800006668FFF717FE05466C
:101AE00066B100BFDAF8000010F4003F12D1FFF732
:101AF0000DFE401B6428F5D9032078E1DAF80000D8
:101B000010F4003F06D0FFF701FE411B03206429BB
:101B1000F4D96CE12078800740F20008C4F247282D
:101B200037D557F8680C10F00C0F21D057F8680C17
:101B300000F00C00082804BF57F86C0C10F4800F5C
:101B400016D0E068002800F094800120C8F800005A
:101B5000FFF7DCFD054600BFDAF8000010F0020FC9
:101B60000ED1FFF7D3FD401B0228F5D903203EE13B
:101B7000DAF8000010F0020F1CBFE068012876D1EF
:101B8000DAF80000216920F0F80040EAC100CAF844
:101B900000002078000724D5606980B10120C8F8D2
:101BA000800EFFF7B3FD0546786810F0020F18D1DC
:101BB000FFF7ACFD401B0228F6D9032017E10020F7
:101BC000C8F8800EFFF7A2FD054600BF786810F048
:101BD000020F06D0FFF79AFD401B0228F6D903201A
:101BE00005E12078400740F1898057F8300C4FF02C
:101BF000000910F0805F0FD1CDF8049057F8300C39
:101C000040F0805047F8300C57F8300C00F080500E
:101C1000019001984FF0010943F60006CFF6FE76D9
:101C20005AF8060010F4807F14D15AF8060040F4E8
:101C300080704AF80600FFF769FD05465AF806006D
:101C400010F4807F06D1FFF761FD401B0228F5D913
:101C50000320CCE0A168012905D0386805291CD1F2
:101C600040F004003860386840F001001BE00120BB
:101C7000BDE00020C8F80000FFF748FD054600BFA2
:101C8000DAF8000010F0020F3FF483AFFFF73EFDDB
:101C9000411B03200229F3D9A9E020F0010038609C
:101CA000386820F004003860A668FFF72FFD05466D
:101CB0006EB141F2883600BF386810F0020F14D1BF
:101CC000FFF724FD401BB042F6D903208FE041F21C
:101CD000883600BF386810F0020F06D0FFF716FDF7
:101CE000411B0320B142F5D981E0B9F1010F02BFD8
:101CF00057F8300C20F0805047F8300CA669002EC1
:101D000074D057F8680C00F00C00082803D1012E9D
:101D100022D101206BE00020C8F86000FFF7F6FC3C
:101D20000546022E0CD100BFDAF8000010F0007F4B
:101D300038D0FFF7EBFC411B03200229F4D956E011
:101D4000DAF8000010F0007F50D0FFF7DFFC411BF5
:101D500003200229F4D94AE057F86C0CE16900F439
:101D600080028A4247D1216A00F03F028A4244D170
:101D700047F6C0710140626AB1EB821F3FD1A16A90
:101D8000C9034FF6FF729143A1F5803100F4403250
:101D90008A4236D1E16A00F07060B0EB016F25D065
:101DA000012024E004F11C064FCE084340EA8210D3
:101DB00040EA0660D9034FF6FF729143A1F58031E6
:101DC000084347F86C0C0120C8F86000FFF79EFC40
:101DD000044600BFDAF8000010F0007F06D1FFF7DC
:101DE00095FC011B03200229F4D900E00020C0B2B9
:101DF00002B0BDE8F0870120F9E70120F7E70120F4
:101E0000F5E70120F3E7000000F0F2BE70470000A4
:101E10007047000090F83C20012A02BF0221C8B29E
:101E20007047B0B5D1E900CE01F108053CCD23F4EF
:101E30007C5322F4705242EA03022EF4F04342EA49
:101E400003022CF4E04342EA030224F4C04342EAD2
:101E5000030242EA050222F48042C96941EA020112
:101E6000026851644FF0000180F83C10BDE8B040BA
:101E7000C8B2704790F83C300222012B57D010B501
:101E8000012380F83C3080F83D200368D3F804E05B
:101E9000D3F808C00C682EF0700222435A60036821
:101EA00041F2FF72C4F200029342BDE810400BDC25
:101EB00040F2FF72C4F20002934213DCB3F1804F90
:101EC00029D040F2004215E040F2FF32C4F2010294
:101ED000934214DC41F60002C4F2000293421AD08D
:101EE000002214E040F60002C4F20002934212D035
:101EF00040F60042C4F2000293420CD011E044F2DA
:101F00000002C4F20102934205D040F20042C4F242
:101F10000102934205D149682CF080021143026806
:101F20009160012180F83D10002280F83C20D0B261
:101F30007047000010B50446002C04BF012010BDFE
:101F400094F83D0028B9002084F83C00204600F0B9
:101F50001FF8022084F83D002068211D00F0C4FE17
:101F6000012084F8460084F83E0084F83F0084F89D
:101F7000400084F8410084F8420084F8430084F86B
:101F8000440084F8450084F83D00002010BD0000A6
:101F900080B582B0016843F64000C4F2020040F20E
:101FA0000042C4F20102914218D0B1F1804F20D119
:101FB00000210191016841F001010160006800F019
:101FC0000100019001981C2000210022FFF712FC63
:101FD0001C2002B0BDE88040FFF70ABC0021009140
:101FE000416841F002014160406800F00200009049
:101FF000009802B080BD000090F83D1001291CBF80
:10200000012070474FF0020180F83D100168CA6856
:1020100042F00102CA60016841F2FF72C4F200029C
:1020200091420FDC40F2FF72C4F20002914217DCD1
:10203000B1F1804F2DD040F20042C4F20002914233
:1020400027D02EE040F2FF32C4F20102914214DCAC
:1020500041F60002C4F2000291421AD0002214E0BC
:1020600040F60002C4F20002914212D040F6004253
:10207000C4F2000291420CD013E044F20002C4F218
:102080000102914205D040F20042C4F201029142A5
:1020900007D10168896801F00701062904BF002003
:1020A00070470068016841F001010160002070473D
:1020B00010B5044694F83C200220012A68D0012281
:1020C00084F83C2084F83D00206882684FF67773DE
:1020D0009A4382600A684F2A10DC1F2A26DD202AD4
:1020E00018BF302A26D0402A54D14B68CA682068CD
:1020F000194600F07DFF2068402140E06F2A1CDD7A
:10210000B2F5005F26D0B2F5805F3AD0702A41D197
:10211000D1E9012CCB682068614600F091FE20686F
:102120008068216840F0770088602AE0002A18BFA4
:10213000102A2FD12068114621E0502A17D0602A9A
:1021400028D14B68CA682068194600F063FF2068F0
:10215000602114E0D1E9012CCB682068614600F0D1
:102160006FFE2068816841F48041816009E04B681E
:10217000CA682068194600F03BFF2068502100F033
:1021800069FE0020012184F83D10002184F83C10F4
:10219000C0B210BD0120F5E72DE9F0470D46044619
:1021A000002C04BF0120BDE8F08794F83D0028B959
:1021B000002084F83C00204600F04EF8022084F80D
:1021C0003D002068816844F20702914381602068E5
:1021D000211D00F089FD206880682168D1F81890E1
:1021E0002268D2F820C0D5E9003E05F1080A9AE835
:1021F0004404D5E90581EF6918432B6A2568A86076
:102200004FF6FF7029EA0000304342EA01214FF601
:10221000FC429143084340EA072040EA0A1040EAA2
:102220000330216888612CF0AA0040EA0E0040EAE1
:10223000081021680862012084F8460084F83E00F6
:1022400084F83F0084F8420084F8430084F83D009D
:102250000020BDE8F087000080B586B00021059120
:10226000CDE90311CDE9011102680020C4F201009B
:10227000824201D006B080BD009143F63002C4F224
:102280000202536943F001035361536903F00103F0
:102290000093009B0091136843F0010313601268E0
:1022A00002F001020092009A4FF440720192022261
:1022B000CDE9022104910121059100F5803001A9A9
:1022C000FFF740F906B080BD10B5044694F83E30E3
:1022D00094F83F2094F842E094F843C00120042988
:1022E0000BD0A9B9012B08BFBEF1010F37D10220D5
:1022F00084F83E0084F8420026E0012A08BFBCF1C1
:10230000010F2CD1022084F83F0084F8430018E02C
:10231000012B08BF012A22D1BEF1010F08BFBCF179
:10232000010F1CD1022084F83E0084F83F0084F89D
:10233000420084F8430039B120680021012200F0F6
:102340006FFD2068042101E020680021012200F0D7
:1023500067FD2068016841F001010160002010BDA7
:1023600070470000B0B504462068C168026901EA00
:102370000205A90715D56FF0020101610120207740
:102380002068806910F0030F03D02046FFF7E8FFB4
:1023900005E0204600F0A6F8204600F03BF90020BA
:1023A0002077680716D520686FF0040101610220CC
:1023B00020772068806910F4407F03D02046FFF723
:1023C000CFFF05E0204600F08DF8204600F022F90E
:1023D00000202077280716D520686FF008010161DA
:1023E000042020772068C06910F0030F03D0204636
:1023F000FFF7B6FF05E0204600F074F8204600F035
:1024000009F900202077E80616D520686FF0100142
:102410000161082020772068C06910F4407F03D054
:102420002046FFF79DFF05E0204600F05BF82046C0
:1024300000F0F0F800202077E80706D020686FF061
:1024400001010161204600F069F9280606D52068DF
:102450006FF0800101612046FFF7D8FC680606D5C1
:1024600020686FF040010161204600F059F9A8068C
:1024700058BFB0BD20686FF0200101612046BDE863
:10248000B040FFF7C5BC000080B586B000210591C3
:10249000CDE90311CDE90111026840F20040C4F218
:1024A0000100824201D006B080BD009143F63002A7
:1024B000C4F20202136843F004031360126802F0CE
:1024C00004020092009A402201920222CDE90221E8
:1024D00004910321059100F5823001A9FFF732F83C
:1024E00006B080BD70470000B0B50D46044694F8B4
:1024F0003C00012802BF0220C0B2B0BD4FF0010075
:1025000084F83C004FEAB20103294ED8DFE801F01D
:10251000021425372068294600F0A4FC2068816950
:1025200041F0080181612068816921F00401816125
:1025300029692068183034E02068294600F0C4FC7E
:102540002068816941F4006181612068816921F41A
:10255000806181612068183021E02068294600F000
:10256000E9FC2068C16941F00801C1612068C169C6
:1025700021F00401C161296920681C3011E0206844
:10258000294600F00DFD2068C16941F40061C16178
:102590002068C16921F48061C16120681C3029690B
:1025A00009020268114301600020002184F83C10F8
:1025B000C0B2B0BD10B50446002C04BF012010BD50
:1025C00094F83D0028B9002084F83C00204600F033
:1025D0001FF8022084F83D002068211D00F084FBD4
:1025E000012084F8460084F83E0084F83F0084F817
:1025F000400084F8410084F8420084F8430084F8E5
:10260000440084F8450084F83D00002010BD00001F
:10261000704700007047000010B5044639B1032030
:10262000082908BF0220042908BF012000E000207B
:10263000204490F83E0001281CBF012010BD4FF03F
:10264000020041B1082909D0042914BF84F84100CF
:1026500084F83F0004E084F83E0001E084F8400084
:102660002068012200F0DCFB206840F4806240F228
:102670000041C4F201018A4202BF426C42F40042AE
:102680004264206841F2FF72C4F2000290420FDC03
:1026900040F2FF71C4F2000188421BDCB0F1804FB0
:1026A0002DD040F20041C4F20001884227D02EE034
:1026B00040F2FF32C4F20102904218DC41F6000100
:1026C000C4F2000188421AD00021C4F201018842FC
:1026D00015D01CE040F60001C4F2000188420ED083
:1026E00040F60041C4F20001884208D00FE044F2F5
:1026F0000002C4F20102904201D0884207D1206852
:10270000806800F00700062804BF002010BD206884
:10271000016841F001010160002010BD7047000018
:102720007047000010B50446002C04BF012010BD06
:1027300094F8410028B9002084F84000204600F0B9
:1027400023F8242084F841002068C16821F4005156
:10275000C160204600F098FC2068016921F4904196
:1027600001612068416921F02A0141612068C16846
:1027700041F40051C16000206064202184F84110C0
:1027800084F84210606310BD80B586B000210591C9
:10279000CDE90311CDE90111026844F60040C4F20D
:1027A0000000824201D006B080BD009143F63002A5
:1027B000C4F20202136943F400231361136903F4A2
:1027C00000230093009B0091136843F00103136002
:1027D000126802F001020092009A03220192022381
:1027E000CDE9023104920821059100F5DA3001A902
:1027F000FEF7A8FE06B080BD2DE9F04381B01D466E
:1028000016460F46044694F8410020281EBF0220B9
:1028100001B0BDE8F0834FF00100002F18BF002E7B
:102820003DD04FF00009C4F84490212084F84100C5
:10283000FEF76CFF8046A684E684A068B0F5805F52
:1028400005D12669002E0CBFB9463E4605E03E463E
:1028500003E000BFE08C0138E084E08C98B12046B2
:10286000802142462B4600F07FFCD8B920681EB17B
:1028700016F8011B4160EDE739F8021B6FF35F2189
:1028800041600026E6E72046402142462B4600F004
:102890006BFC202184F84110002818BF032001B0F0
:1028A000BDE8F083202084F84100032001B0BDE89A
:1028B000F0830000FEE7000070B586B000250595A6
:1028C000009543F63000C4F20200016841F0800137
:1028D0000160016801F08001009100990095016894
:1028E00041F004010160016801F0040100910099C8
:1028F0000095016841F001010160006800F00100ED
:102900000090009840F60004C4F20204012620461C
:1029100004210122FEF7F4FE204608210022FEF7E2
:10292000EFFE0C20CDE90106CDE9035501A92046B3
:10293000FEF708FE06B070BD10B58CB00024CDE9DE
:10294000004440F20010C2F200000021C4F2010174
:102950004FF6FF728023C0E90014C0E90242C0E9CB
:10296000044483610321CDE903140121CDE9051459
:10297000CDE90744CDE909140B9403A9FFF70CFC3A
:1029800060B9CDE9004440F20010C2F2000069468F
:10299000FFF770FA002804BF0CB010BDFEF7CEFDA3
:1029A00080B586B00021CDE90411CDE90211CDE951
:1029B000001140F24810C2F200004FF08042A723FD
:1029C00041F2873CC0E90023C0E9021C016180217B
:1029D0008161FFF7AFFAC0B94FF48050029040F226
:1029E0004810C2F2000002A9FFF762FB68B900209C
:1029F000CDE9000040F24810C2F200006946FFF73E
:102A000039FA002804BF06B080BDFEF797FD00002C
:102A100010B596B000211591CDE91311CDE9111132
:102A2000CDE90F11CDE90D11CDE90B11CDE909115A
:102A3000CDE90711CDE90511CDE90311CDE901116A
:102A400040F29010C2F2000040F20042C4F20102D3
:102A5000632340F2E734C0E90023C0E90214C0E96F
:102A600004118161FFF766FA002847D14FF48050C6
:102A7000129040F29010C2F2000012A9FFF718FB6A
:102A8000E0BB40F29010C2F20000FFF793FDA8BB3C
:102A90000024CDE9104440F29010C2F2000010A9C9
:102AA000FFF7E8F950BB60200F94CDE90D44CDE964
:102AB0000B44CDE9090440F29010C2F2000009A9CC
:102AC0000022FFF711FDC8B900200590CDE90300F1
:102AD000CDE901004FF400510691089040F29010AA
:102AE000C2F2000001A9FFF795F938B940F2901041
:102AF000C2F20000FFF7C8FC16B010BDFEF71EFDC5
:102B000080B540F2D810C2F2000044F60041C4F291
:102B100000014FF4E13200234FF00C0C80E80E006E
:102B2000C0E90333C0E905C3C361FFF7FBFD00281B
:102B300008BF80BDFEF702FDFEE70000FEE70000D3
:102B400000F0070000F1040CC31EBCF1070F38BFF2
:102B5000002380F00700042828BF04204FF0010C58
:102B60000CFA00F00138084098400CFA03F10139E2
:102B7000114008437047000010B540F20404C2F24F
:102B80000004B0EE080A204600F0EEFB204600F0FC
:102B900075FB40F22420C2F2000080ED000A2046BE
:102BA000BDE8104000F07CBB70470000704700009B
:102BB00083B010B59BB084461DA80EC01DAA01921B
:102BC00002AC20466146FDF71DFC2046FDF72CFCBB
:102BD00082B240F2D810C2F2000021464FF6FF73D5
:102BE000FFF70AFE1BB0BDE8104003B070470000BD
:102BF000B0B501380024B4EB106F1EBF012420468D
:102C0000B0BD4EF21005CEF2000568604FF0FF3007
:102C10004FF00F0100F0F2FBAC604FF007002860AE
:102C20002046B0BDFEF778BDB0B592B000240B943D
:102C3000CDE90944CDE907440594CDE90344CDE944
:102C40000144009443F64000C4F20200016841F0E0
:102C500080510160006800F080500090009800945E
:102C600047F20000C4F20000016841F480410160B5
:102C7000006800F48040009000980225069501202D
:102C8000099010200A90CDE90C5408200E90A8203D
:102C9000CDE90F050420119006A8FEF7D5FE88B9EE
:102CA0000F20CDE9010503944FF4A05004904FF498
:102CB0008050059001A80521FEF7AEFD002804BF55
:102CC00012B0B0BDFEF73AFC4EF68850CEF20000CE
:102CD000016841F4700101607047000040F2481043
:102CE000C2F20000FFF73EBB026840F6FF3CC4F2B0
:102CF000000C60450FDCB0F1804F1EBF40F2004376
:102D0000C4F20003984217D040F60003C4F2000357
:102D1000984211D014E040F60043C4F200039842F8
:102D20001EBF40F20043C4F20103984204D00023C6
:102D3000C4F20103984203D14B6822F070021A4397
:102D400041F6FF73C4F2000398420DDC60451FDCBE
:102D5000B0F1804F1EBF40F20043C4F2000398421E
:102D60003BD040F6000321E043F6FF73C4F20103B9
:102D7000984220DC42F20003C4F2000398421EBFD6
:102D80000023C4F20103984227D040F2004320E020
:102D900040F60043C4F2000398421EBF41F6000310
:102DA000C4F20003984218D041F60043C4F2000375
:102DB000984212D015E044F20003C4F20103984295
:102DC0001EBF44F60003C4F20103984205D044F24A
:102DD0000043C4F20103984203D1CB6822F440724D
:102DE0001A434B6922F080021A4302608A68C26269
:102DF0000A68826240F4806240F20043C4F2010338
:102E00009A4204BF096901634FF001014161016900
:102E100011F0010F1EBF016921F00101016170472E
:102E200001F01F01012303FA01FC036A23EA0C03EA
:102E3000036202FA01F1026A114301627047000065
:102E4000114341EA0321826822F47F4211438160E9
:102E500070470000826822F07702114341F00701B9
:102E600081607047B0B5026A036A23F00103036210
:102E7000D0F804E084690B688D6822F002021543E3
:102E800024F0730242EA030C40F4806240F20044F2
:102E9000C4F20104A24201BF25F00C03CD6825F065
:102EA00004051D43A24201BFD1E905232EF440745D
:102EB000224342EA030EC0F804E0C0F818C0496893
:102EC00041630562B0BD000070B5026A036A23F079
:102ED00010030362466884690B688D6822F0200243
:102EE00042EA051E24F4E64242EA032C40F48062E2
:102EF00040F20044C4F20104A24201BFCB686FF06B
:102F00004F0505EA03132EF0C00508BF43EA050E7E
:102F1000A24201BFD1E9052326F4406444EA8202BB
:102F200042EA83064660C0F818C049688163C0F869
:102F300020E070BD70B5026A036A23F480730362F7
:102F40004668C4690B688D6822F4007242EA052E57
:102F500024F0730242EA030C40F4806240F2004421
:102F6000C4F20104A24208D1CB681B0240F2FF4523
:102F7000AB432EF4406543EA050EA24201BFD1E9FE
:102F8000052326F4405444EA021242EA031646603E
:102F9000C0F81CC04968C163C0F820E070BD0000E3
:102FA000B0B5D0F820C0036A23F4805303624368AD
:102FB000C569D1F800E08C682CF4005242EA043C68
:102FC00025F4E64242EA0E2240F4806540F20044D5
:102FD000C4F20104A54202BF4D6923F4804343EAD1
:102FE00085134360C26149680164C0F820C0B0BD68
:102FF000D0F820C0036A23F001030362836923F041
:10300000F00343EA021282612CF00A0211430162CA
:1030100070470000D0F820C0036A23F01003036259
:10302000836923F4704343EA023282612CF0A002E8
:1030300042EA011101627047016851E8031F02680A
:1030400021F4907142E80313002BF5D1016851E897
:10305000051F026821F0010142E80513002BF5D19C
:10306000016B01290AD100BF016851E8031F026802
:1030700021F0100142E80313002BF5D1202180F844
:10308000421000210163704710B5044620680169B1
:10309000E26821F44051114301612068A168D4E93C
:1030A000042311431943E2691143C26849F20C63D6
:1030B0009A431143C16020684169A26921F44071BB
:1030C00011434161206840F4806041F20041C4F244
:1030D0000101884202D1FEF76DFC01E0FEF758FCC9
:1030E0001921A0FB01016368E269B2F5004F1CD110
:1030F0005A00DB0FFDF70EF948F21F51C5F2EB1134
:10310000A0FB01235A096FF0630302FB0300322383
:1031100003EBC000A0FB01014FF4F87000EA1110AE
:1031200000EB0210C1F342111AE09A009B0FFDF769
:10313000F1F848F21F51C5F2EB11A0FB01235A0927
:103140006FF0630302FB0300322303EB0010A0FBCC
:103150000101F02000EA511000EB0210C1F343110D
:1031600008432168886010BD2DE9F04182B01D46FA
:1031700090460F460446206800683840B84201D1A6
:1031800000211DE06E1C00BFA6B1FEF7BFFA0321AF
:10319000B5B1A0EB0800A84212D82068C16811F0B0
:1031A000040F18BF802F05D0402F03D0006810F007
:1031B000080F09D1206800683840B842E4D10021E6
:1031C000C8B202B0BDE8F081002501952068006812
:1031D000019020684068019001982046FFF72CFF7D
:1031E0000820606484F840500121E9E7FEE7000010
:1031F00080ED070A012904BF0021C1627047000069
:1032000090ED071A31EE400A80ED090A90ED0B1A95
:1032100030EE011A80ED0B1A90ED081A30EE411ACB
:1032200080ED0A1A80ED080A90ED030A90ED0B1A62
:10323000B4EEC01AF1EE10FA02DD80ED0B0A08E0E0
:10324000B1EE400AB4EEC01AF1EE10FAB8BF80ED4C
:103250000B0A90ED091A90ED0A2A90ED0B0A90EDF9
:10326000003A90ED014A90ED025A24EE000A03EE76
:10327000010A05EE020A80ED060A704790ED030A86
:1032800090ED061A90ED072A90ED083AB8EEC33A91
:1032900020EE020A21EE031A80EE010A70470000B8
:1032A00010B5044604F1340000F086F8B4F9340097
:1032B0009FED0D0A01EE100AB8EEC11A81EE000A68
:1032C000BDEEC01A84ED030AB8EEC10A04F1640031
:1032D000FFF796FFBDEEC00A10EE101A2046BDE8BB
:1032E000104000F003B800BF0AD7A33BB0B50C46AE
:1032F0000546298EE86A012C1ADB0122FEF700FA46
:10330000698EE86A0022FEF7FBF9D5E90901006839
:10331000042904BF8463B0BD002904BF4463B0BD69
:1033200000F14002082908BF00F13C021460B0BD62
:103330000022FEF7E5F9698EE86A0122FEF7E0F95E
:103340006042D5E909120968042A04BF8863B0BD48
:10335000002A04BF4863B0BD01F14003082A08BF3A
:1033600001F13C031860B0BD90ED061A90ED072AFC
:1033700090ED083A21EE000AB8EEC31A20EE010AD9
:1033800080EE020A80ED010A64300021FFF730BFB1
:1033900010B50446D4E90901FFF73EF9E06D3C2180
:1033A000FEF792FF606AC168A4F860100068806A46
:1033B0000130A4F8620010BD816A09684A6A02807F
:1033C00000204862704700000028B8BF704700F036
:1033D0001F014FF0010202FA01F14FEA50104EF2C4
:1033E0000012CEF2000242F8201070474EF60C5048
:1033F000CEF200000068C0F30220704700F1604C7C
:1034000000F00F034EF61452CEF200021A44B0F14F
:10341000FF3FC8BF0CF56442080110707047000000
:103420004EF60C51CEF200010A684FF6FF031A4027
:1034300060F30A2242F0806040F0FD70086070473F
:10344000B0B5FEF777F9FFF7EFFBFFF735FAFFF7B7
:10345000DFFAFFF771FAFFF753FBFFF7A1FA40F22B
:103460004810C2F20000FEF7C7FD00F019F840F264
:103470002425C2F2000506A4FFF77EFB286800F0B1
:103480002FFC024620460B46FFF792FBF4E700BFF5
:1034900050756C73655F763A2025660D0A00000052
:1034A00040F20400C2F20000FFF772BF5FEA400C76
:1034B00008BF91F0000F4FEA8C234FEAC12243EA84
:1034C00051514FEA1C5018BF00F5F0404FEA300050
:1034D00018BF41F000415FEA6C5C00F02980BCF14C
:1034E000FF3F08BF40F080407047130C06BF120436
:1034F0004FF0100C4FF0000C130E04BF12020CF131
:10350000080C130F04BF12010CF1040C930F04BF3D
:1035100092000CF1020CD30F04BF52000CF1010C0D
:1035200011464FF00002A0F11F00A0EB0C00704705
:1035300011F0004F08BF704731F000413FF4D5AFA4
:103540000B0C06BF09044FF0100C4FF0000C0B0ED3
:1035500004BF09020CF1080C0B0F04BF09010CF1A8
:10356000040C8B0F04BF89000CF1020CCB0F04BFBD
:1035700049000CF1010CCCF1200322FA03F341EADB
:10358000030102FA0CF2A0EB0C0000F101007047FD
:1035900023F07F4720F07F4C80EA030000F00040DA
:1035A000ACEB070303F57C5303F1FF032DE98049DE
:1035B00009B44FEA144324EA03484FEA154B25EABD
:1035C0000B4E0FF2042606EB13273E7803FB06672B
:1035D000C7F5000707FB06F64FEAD64606F10206D6
:1035E0004FEA543707FB066CCCF1005C4FEA1C47EE
:1035F0002CEA074C0CFB06F507FB06F404EB15461A
:103600004FEA961649085FEA320234BF00204FF0B5
:1036100000404FEAD13706FB07FC4FEA1C4C0CFB7D
:103620000BF7D21B03FB0CF761EB07010CFB0EF74A
:10363000B0EB074072EB17420CFB08F734BFA2EB6C
:103640000742B2EB074261EB17414FEA0C444FEAE5
:10365000910706FB07FC4FEA1C4C0CFB0BF7B0EB89
:10366000C74072EB573203FB0CF734BFA2EBC742E3
:10367000B2EBC74261EB57310CFB0EF7B0EBC70062
:1036800072EB57720CFB08F734BFA2EBC702B2EB28
:10369000C70261EB57714FEA816141EA92114FEA2B
:1036A000826242EA90124FEA806004EBCC04039FEE
:1036B0004FEAD13706FB07FC4FEA1C4C0CFB0BF71B
:1036C000D21B03FB0CF761EB07010CFB0EF7B0EB11
:1036D000074072EB17420CFB08F734BFA2EB07421E
:1036E000B2EB074261EB17414FEA8C5504EB9C2487
:1036F0004FEA910706FB07FC4FEA1C4C0CFB0BF74B
:10370000B0EBC74072EB573203FB0CF734BFA2EBB0
:10371000C742B2EBC74261EB57310CFB0EF7B0EB7F
:10372000C70072EB57720CFB08F734BFA2EBC7025D
:10373000B2EBC70261EB57714FEA816141EA921126
:103740004FEA826242EA90124FEA806015EB4C2504
:1037500044F100044FEAD13706FB07FC4FEA1C4C4A
:103760000CFB0BF7D21B03FB0CF761EB07010CFB07
:103770000EF7B0EB074072EB17420CFB08F734BFB3
:10378000A2EB0742B2EB074261EB17414FEA8131EE
:1037900041EA92414FEA823242EA90424FEA803057
:1037A0004FEA0C7615EB1C1544F1000448EA03437C
:1037B0004EEA0B484FF0000EB2EB080C71EB03071A
:1037C00024BF624639464EEB0E0E4FF0000B001838
:1037D000524149414BEB0B0BB2EB080C71EB030769
:1037E0007BF1000B24BF624639464EEB0E0E4FF0C4
:1037F000000B0018524149414BEB0B0BB2EB080C8C
:1038000071EB03077BF1000B24BF624639464EEB98
:103810000E0E51EA020718BF46F0010616EB0E76AF
:1038200055F1000254F1000103D5BDE88901BDE85E
:103830000088BDE88901BDE80048B619524141EB56
:103840000101A3F10103704780807F7E7D7C7B7A3C
:103850007978777676757473727171706F6E6E6D3C
:103860006C6C6B6A6A6968686766666564646363E2
:1038700062616160605F5F5E5E5D5D5C5C5B5B5A68
:103880005A595958585757565655555554545353D5
:1038900052525251515050504F4F4F4E4E4D4D4D30
:1038A0004C4C4C4B4B4B4A4A4A494949484848477B
:1038B00047474746464645454544444444434343B9
:1038C00043424242424141419C46002B30D4770062
:1038D0002BD04FEA37071CB503B44FF010004FF060
:1038E0001001BAF1000F06D0BCF1000FDCBF40F0B0
:1038F000080040F008014FF000000FBCBDE8104088
:103900000BF1010BBBF1010F08BF5FEA170722BFE4
:1039100012F1010211F101014FF0004143F10003E6
:1039200000F0004043EA00007047F9D35708D0E7A1
:1039300046EA06464FEA164613F1400F1FDD13F123
:10394000200FDFBF16430A46002120335B42BED062
:10395000C3F1200746EA06464FEA164602FA07F781
:1039600046EA070622FA03F2C3F1200701FA07F735
:1039700042EA070221FA03F14FF00003A7E746EA03
:10398000020646EA06464FEA164646EA0106BCBF6C
:1039900046EA0646360C4FF000034FF000024FF0A7
:1039A000000194E72DE9804C70B49A46934691E863
:1039B000380007C831EA400C48BF34EA430C03D54D
:1039C000FFF7E6FDFFF780FFF0BCBDE8008C2DE9B6
:1039D000804C70B49A46934691E8380007C810F0BE
:1039E000804F08BF13F0804F03D100F005F8FFF7B8
:1039F0006BFFF0BCBDE8008C20F07F4723F07F4CCC
:103A000080EA030000F0004007EB0C03A3F57C53B1
:103A1000A3F1FE0392F0000F00F0B38095F0000FC9
:103A200000F077802DE901494FEA114021EA004872
:103A30004FEA144624EA064700FB06FC08FB06F69C
:103A400007FB08F818EB06484CEB164C00FB07F791
:103A500018EB07484CEB17404FEA124B22EA0B4E8B
:103A60004FEA154625EA06470BFB06FC0EFB06F659
:103A700007FB0EFE1EEB064E4CEB164C0BFB07F73E
:103A80001EEB074E4CEB174B18EB0B0840F10000F8
:103A900018EB0E0B58EB000840F100008F1A4FF0A6
:103AA00000014FF000063CBFC943661B14BFB5EBD5
:103AB000040C00213CBFC943F61B4FEA174427EA18
:103AC00004454FEA1C472CEA074C04FB076205FB40
:103AD00007F70CFB05F616EB074642EB174204FB13
:103AE0000CFC16EB0C4642EB1C421BEB060658EB9B
:103AF000020241414EEA8E0E46EA9E0601D5BDE81D
:103B00000189B619524141EB0101A3F10103BDE85E
:103B100001894FEA144524EA05464FEA114721EA94
:103B2000074C05FB07F406FB07F70CFB06F111EB4E
:103B3000074144EB174405FB0CFC11EB0C4144EB33
:103B40001C444FEA124722EA074C05FB07F206FB2A
:103B500007F70CFB06F616EB074642EB174205FB90
:103B60000CFC16EB0C4642EB1C456A1854F10001A4
:103B700048BF7047B619524141EB0101A3F101035F
:103B8000704795F0000F37D04FEA114221EA024604
:103B90004FEA144724EA074C02FB07F106FB07F73C
:103BA0000CFB06F414EB074441EB174102FB0CFC41
:103BB00014EB0C4441EB1C414FEA154725EA074C36
:103BC00002FB07F506FB07F70CFB06F616EB0746AC
:103BD00045EB174502FB0CFC16EB0C4645EB1C4273
:103BE000121951F1000148BF7047B619524141EB1B
:103BF0000101A3F1010370474FEA144524EA054689
:103C00004FEA114721EA074C05FB07F106FB07F7CE
:103C10000CFB06F212EB074241EB174105FB0CFCD3
:103C200012EB0C4251EB1C414FF0000648BF7047AD
:103C3000921841EB0101A3F10103704703B401980D
:103C40004100009850EAC12018BF04204A0D18BF57
:103C500040F0010040F2FF72B2EB515F08BF40F04C
:103C60000200012808BF052002B0704730380A283A
:103C700001D20120704700207047000010B50029D4
:103C80000AD00878002807D005487844FDF714FCCE
:103C9000002801D0002010BD0248784410BD00006B
:103CA0007E0200007602000010B500290AD00878D4
:103CB000002807D005487844FDF7FEFB002801D016
:103CC000002010BD0248784410BD00006E020000C4
:103CD000660200000808A0F500114FEA31017047A4
:103CE00043004FEAD30C4FEA3C0C43401FBF400750
:103CF0000CF1605113F0FE4F70471CF0006F03D1C0
:103D00000CF00041002070470CF0004343EA507073
:103D100040EACC0010B500F00EF800BF00000092A1
:103D20004FEA0001FFF7D6BF4FF00041A1F5002197
:103D30004FF0000070470EF1020E2EF0030E5EF8F9
:103D4000044B244204D44FEA4102B2F17F4F11D810
:103D50004FEA4003B3F17F4F0CD80ED14FEAD07C2D
:103D60000CEB4C0C0CF1020CB2F17F4F08BF4CEB8A
:103D7000D17C04E04FF0080C01E04FEAD17C0CEB61
:103D80004C0324FA03F404F00704B4F1040C06D243
:103D90000EEB840CBDE810404CF0010C6047DFE8EE
:103DA0000CF0070802024FF00040A0F5800010BDA3
:103DB0000846420018BFD2F1807288BF00F0004070
:103DC00010BD4FF04070E1EE100A7047FCF77DBF68
:103DD000FDF7B2B8000000000000000030313233BF
:103DE000343536373839414243444546403058002F
:103DF0003031323334353637383961626364656661
:103E000040307800040000080000000000000002BC
:103E10000001000010303132333435363738396123
:103E2000626364656678700030313233343536371A
:103E30003839414243444546585000000240000092
:103E4000000000A00000000005400000000000C8C5
:103E5000000000000C4000000000409C000000003A
:103E6000194000000020BCBE0000000034400000EB
:103E7000BFC91B8E00000004B5400000504BCFD0DE
:103E80006607E2CF010000006C4100003E8251AAAB
:103E9000DFEEA73401000000D9420000DCB5A0E24B
:103EA0003A301F97FFFFFFFFB4450000FD25A0C873
:103EB000E9A3C14FFFFFFFFFFF3F000000000080AC
:103EC00000000000FF3F0000000000800000000034
:103ED00000000000000000000102030406070809BA
:103EE0000000000001020304384000080000002028
:103EF000A0000000C4010008D8400008A000002075
:103F000088070000E00100081C00000043000000DA
:103F1000F8FFFFFF0C0000000E0000000F00000083
:103F20002E0000001001000043000000F8FFFFFF1A
:103F300000404040404040404040414141414140BC
:103F40004040404040404040404040404040404071
:103F50004005020202020202020202020202020200
:103F60000220202020202020202020020202020205
:103F7000020290909090909010101010101010105D
:103F80001010101010101010101010100202020269
:103F900002028888888888880808080808080808AD
:103FA00008080808080808080808080802020202A9
:103FB00040000000000000000000000000000000C1
:103FC00000000000000000000000000000000000F1
:103FD00000000000000000000000000000000000E1
:103FE00000000000000000000000000000000000D1
:103FF00000000000000000000000000000000000C1
:1040000000000000000000000000000000000000B0
:1040100000000000000000000000000000000000A0
:104020000000000000000000000000000000000090
:1040300000000000000000000024F4000000000068
:104040000000000000000000000000000000000070
:1040500000000000000098410AD7A33D01000000C5
:104060009001002000000000000802400800040049
:104070000000000000000000000000000000000040
:104080000000000000000000000000000000000030
:1040900000000000000000000001002000000000FF
:1040A0009A99993E000000000000000000002041A5
:1040B0000000A0410000A0C10000000000000000BE
:1040C00000000000000000000000000000000000F0
:0840D0000100000010000000D7
:040000050800018965
:00000001FF
