:020000040800F2
:100000001008002055020008D3200008811E0008B7
:10001000D1200008B10D00082925000800000000CB
:10002000000000000000000000000000F7200008B1
:10003000B30D000800000000F5200008F9200008BA
:100040006F0200086F0200086F0200086F020008CC
:100050006F0200086F0200086F0200086F020008BC
:100060006F0200086F0200086F0200086F020008AC
:100070006F0200086F0200086F0200086F0200089C
:100080006F0200086F0200086F0200086F0200088C
:100090006F0200086F0200086F0200086F0200087C
:1000A0006F0200086F0200086F0200086F0200086C
:1000B000A92100086F0200086F0200086F02000803
:1000C0006F0200086F0200086F0200086F0200084C
:1000D0006F0200086F0200086F0200086F0200083C
:1000E0006F0200086F0200086F0200086F0200082C
:1000F0006F0200086F0200086F0200086F0200081C
:100100006F0200086F0200086F0200086F0200080B
:100110006F0200086F0200086F0200086F020008FB
:100120006F0200086F0200086F0200086F020008EB
:100130006F02000800000000000000006F020008CD
:100140006F0200086F0200086F0200086F020008CB
:100150006F0200086F0200086F0200086F020008BB
:100160006F0200086F0200086F0200086F020008AB
:100170006F0200086F02000800000000000000008D
:100180006F0200086F02000800F002F800F052F859
:100190000AA090E8000C82448344AAF10107DA45E2
:1001A00001D100F047F8AFF2090EBAE80F0013F0E2
:1001B000010F18BFFB1A43F0010318472435000054
:1001C00044350000103A24BF78C878C1FAD85207E5
:1001D00024BF30C830C144BF04680C6070470000C1
:1001E0000023002400250026103A28BF78C1FBD840
:1001F000520728BF30C148BF0B607047662903F023
:100200001682002070471FB503F007FA9DE803002F
:1002100000F0BAFC00F022FB04000020002102F0F4
:10022000BDFEE06000F0DCF81FBD10B5002000F05E
:1002300043FC10BD00F067FC1146FFF7E4FF02F03D
:10024000ADFA00F0FEFC03B4FFF7EFFF03BC00F0D3
:10025000FFFA00000948804709480047FEE7FEE72B
:10026000FEE7FEE7FEE7FEE7FEE7FEE7FEE7FEE766
:1002700004480549054A064B7047000099210008CB
:10028000890100081002002010080020100400203E
:100290001004002053EA020C00F069802DE9F04BB5
:1002A0004FF00006002B1FBFB3FA83F503FA05F4E5
:1002B00024FA05F65E4012BF1643B2FA82F502FA3E
:1002C00005F4C5F120051EBF22FA05FC44EA0C0422
:1002D000203556EA044C4FEA144418BF641C4FF012
:1002E00000084FF00009904271EB030C39D300294C
:1002F00019BFB1FA81F701FA07F6B0FA80F700FAF0
:1003000007F6C7F120071EBF20FA07FC46EA0C06D5
:100310002037B6FBF4FCA7EB0507103F07F01F0BD7
:10032000CBF120062CFA06F60CFA0BFB44BFB346C1
:100330000026202FA4BF5E464FF0000B5BEA060CA0
:1003400008BF4FF0010B19EB0B0948EB0608ABFB9C
:10035000027C06FB02CC0BFB03CCC01B71EB0C0137
:10036000C1E70B46024641464846BDE8F08B13B54F
:100370004FF000004FF00001AFF30080BDE81C40DB
:1003800070470B460146184600F04BBA4FF000028A
:1003900000B5134694469646203922BFA0E80C507B
:1003A000A0E80C50B1F12001BFF4F7AF090728BF56
:1003B000A0E80C5048BF0CC05DF804EB890028BFD2
:1003C00040F8042B08BF704748BF20F8022B11F0FB
:1003D000804F18BF00F8012B704770477047704777
:1003E00070B5064C7C44064D7D4403E020682044F3
:1003F0008047241DAC42F9D170BD000034330000A9
:100400003433000070472DE9FF4F0C461E464FF075
:10041000FF378BB0D2E90001DDF860800A908A4690
:10042000C1F30A5505B93D46002108464FF00000CA
:10043000BAF1000F00F4400005DA00EB80004FF441
:10044000400101EA50004FEA9059B9F1010F00DD77
:10045000B9460A9850EA4A000ED044F61050A5F268
:10046000FF3545432F14B8F1000F1ED07542291EE9
:100470001EDDC9F100021CE0B8F1010F4FF00000D1
:1004800001D0302103E0F24305E02154401CB0428A
:10049000FBDB30460022002121540B99C1F8088073
:1004A000C1E900200FB0BDE8F08FBD1B6D1CDEE779
:1004B0004A4600DA694206A800F08CFA06AB93E8D7
:1004C000070003AB83E8070050460A9902F086F95B
:1004D0008DE80700A0F500501F3800900398002D0C
:1004E0000ADD42F21F014A460844002303A9039093
:1004F000684602F0EFFB09E0A0F500504A461F38BD
:10050000002303A90390684602F0F9FB8DE8070079
:100510000004000C03D04FF0FF30410800E010460B
:10052000B8F1000F03D00022009215461EE0751EA0
:1005300005D400F0CAF9303262556D1EF9D5B346C4
:100540000122084302D000227F1C04E020783028DA
:1005500001D100227F1E002A099784D01DE0112DB1
:1005600007DA00F0B2F9303262556D1C50EA010230
:10057000F5D1084302D00098C8B10EE00021681EF2
:1005800005E0235C625C63542254401E491C814296
:10059000F7DBAB46A81B401E0990002004F80B00B7
:1005A0000B98099AC0F80880C0E9002B7AE7112659
:1005B0004FF0000857E72DE9F04F88460446D21D5A
:1005C00022F0070191B0D1E90001CDE90A0102F062
:1005D000CDFC02460B98C00F01D02D2007E020680B
:1005E000810701D52B2002E0202101EAC000032A67
:1005F000099001D0072A05DB03464146204600F05A
:10060000A9F90BE12078800601D5E06900E0062019
:10061000B8F1650F814606D0B8F1660F18D0B8F171
:10062000670F70D131E00020B9F1110F009001DBAC
:10063000112301E009F101030AAA01A90CA8FFF79F
:10064000E2FEDDE90C70002609F10105834647E072
:1006500001204B4600904FF000470AAA01A90CA8C0
:10066000FFF7D1FEDDE90DB00C995D46002610B90B
:1006700009F101000D18B9EB050003D4C0F1FF36F4
:1006800009F10105A5EB09002BE0B9F1010F01DA31
:100690004FF001090020B9F1110F0090484601DD2B
:1006A000112300E003460AAA01A90CA8FFF7ABFE3C
:1006B000DDE90C704D4600268346207800070AD4F9
:1006C000AB4500DA5D4601A8012D04DD411911F8A2
:1006D000011C302907D04F4502DA17F1040F04DA64
:1006E000012082460FE06D1EEEE7002F02DCED1BBD
:1006F0003E4403E0781CA84200DD7D1CB81B00F1DD
:10070000010A4FF000472078000703D4AA4501DB17
:100710004FF0FF3A0021B7F1004F0DF143088DF87B
:10072000431024D002202B23002F01DA7F422D23F7
:100730000A21021EA0F1010000DC5FB197FBF1FC71
:1007400097FBF1F201FB1C7C17460CF1300C08F80A
:1007500001CDEEE7A8F1010003702188090501D55C
:10076000452100E06521A0F1010800F8011C09986D
:100770000FA9A1EB0807FF1D00B10120411901EBF2
:10078000EA70A1693844081A401EA0612078C006AA
:1007900002D42046AFF30080099828B1D4E90121A2
:1007A0009047206A401C20622078C00622D520464F
:1007B000AFF300801EE0002E04DBB34502DD01A88C
:1007C000805D00E03020D4E901219047206A401C80
:1007D0002062761CAAF101005FEA000A0AD100F04B
:1007E0003DF8C0680168405CD4E901219047206A67
:1007F000401C2062281EA5F10105DCDC07E0D4E9DD
:10080000012118F8010B9047206A401C2062381E15
:10081000A7F10107F3DC2046AFF30080032011B0FD
:1008200041E62DE9F041074615460E46102000F03E
:100830001DF804000AD06760C4E9026500F012F8F0
:100840000168216004600020BDE8F0810120FBE721
:1008500001491820ABBEFEE72600020000487047A1
:1008600030000020004870474800002070B5064660
:1008700000F06EF9056806F10B0020F00704B442A1
:100880009CBF002070BD2B466A68BAB11068A042B8
:1008900010D304F1080188423CBF5068586007D368
:1008A0005168101941601168091B0160586014609B
:1008B000101D70BD13465268002AE7D12146284614
:1008C00000F04EF90028DED170BD30B5B0F10A025B
:1008D00071F100034FEA900E4EEA817EB0EB0E00FC
:1008E00061EB91014FEA101E4EEA017E10EB0E0003
:1008F00041EB11114FEA102E4EEA016E10EB0E0083
:1009000041EB11214FEA104E4EEA014E10EB0E0062
:1009100041EB1141401841F100014FEAD00040EA9B
:1009200041704FEAD1014FEA810444EA907410EB20
:10093000800544EB01046D1944EB0404521BA341F0
:100940004FF0000348BF0A3200D530BD401C41F1D2
:10095000000130BD2DE9F0411F4604460326016821
:10096000072A01F4006004DB08B116A505E016A50E
:1009700003E008B115A500E015A521F010002060E6
:10098000A069C01EA0610FB1401EA0612046AFF358
:1009900000804FB1D4E9012138469047206A401CBD
:1009A0002062C01C206206E0206AFAE7D4E9012137
:1009B00015F8010B9047761EF8D22046AFF3008061
:1009C000BDE8F0814E414E006E616E00494E46001A
:1009D000696E66002DE9F047814616468AB03548B3
:1009E00078440DC88DE80D0032487844801C03AC73
:1009F0000DC884E80D0041F69B300844372190FB78
:100A0000F1F290FBF1F5A5F1800501FB12041B3C0E
:100A100002D56442012000E00020DFF898A0804663
:100A20000027FA44AAF1BE0A0EE0E0070AD03246D7
:100A3000684607EB470101230AEB810102F05FF9E9
:100A40008DE8070064107F1C002CEED1194F7F4405
:100A5000AE3F19E0E80715D007EB04100DF1180AB6
:100A600090E80E008AE80E00C068F04201D19819A3
:100A700008903246012306A903A802F040F903AB0F
:100A800083E807006D10641C002DE3D14FF00103D3
:100A900032466946B8F1000F03A802D002F01AF9F5
:100AA00001E002F02CF9C9E90001C9F808200AB0F8
:100AB000BDE8F087CC2C00002DE9F0410646FFF799
:100AC000D1FE8046454613E016B1E068B0420ED133
:100AD00020682860D4E90101D8F8007088472046D2
:100AE00000F088F8D8F80000B842EBD100E02546C5
:100AF0002C68002CE8D1BDE8F08100000048704768
:100B00001000002070477546FFF7F8FFAE4605005D
:100B10006946534620F00700854618B020B5FFF718
:100B2000A7FBBDE820404FF000064FF000074FF054
:100B300000084FF0000BAC46ACE8C009ACE8C009B7
:100B4000ACE8C009ACE8C00921F007018D46704748
:100B50000048704718000020704770477047704782
:100B600038B504460A4600206946AFF300800028E5
:100B700008BF38BD02460099204600F0AFF80120BA
:100B800038BD012000F0DDB8F8B5AFF300800546B0
:100B900000200C46102000BF0646A819A0420DD91F
:100BA000324669460020AFF30080070008BF00F01E
:100BB000C8F80098A04218BF0546C419FFF7C8FF3F
:100BC00005600746F01D20F007004619284600F092
:100BD0000AF8B44208BFF8BDA21B31463868BDE828
:100BE000F84000F07BB800210160C0E901107047B7
:100BF0001020704770B50446051FFFF7A9FF006875
:100C0000002C14BF446870BD002C18BFAC423CBF20
:100C100020466468F8D301680A18AA4218BF4560E4
:100C200003D12A6805461144016028684119A14290
:100C30001CBF6C6070BD61686960216808442860F1
:100C400070BD10B50446AFF300802046BDE81040EB
:100C5000FFF7F9BA002801D0FFF7FABD704700008E
:100C600030B44FF0013C50F8042B51F8043BCCFA5F
:100C700052F4D51A20D1FCB950F8042B51F8043B9A
:100C8000CCFA52F4D51A17D1B4B950F8042B51F854
:100C9000043BCCFA52F4D51A0ED16CB950F8042B9F
:100CA00051F8043BCCFA52F4D51A05D1002CDAD015
:100CB00030BC4FF00000704729BAB1FA81F111F051
:100CC0001801D1F120008440F2D1CA40CB4012F08B
:100CD000FF0213F0FF0330BCD01A70470346406890
:100CE0008C46002818BF88423CBF03464068F8D3B2
:100CF00018681844884207D00CF1030020F0070060
:100D0000001D411A521A0146081D0A60FFF772BF02
:100D100070B505460C460A2000E06D1C00F018F87E
:100D200035B128780028F8D102E0641C00F010F8F2
:100D300014B120780028F8D1BDE870400A2000F0F6
:100D400007B810B500F00CF8BDE81040FFF782BFFF
:100D500008B569468DF800000320ABBE08BD000051
:100D600010B5012805D0002103A0FFF7D1FF012015
:100D700010BD09A1F8E7000053494752544D454DB5
:100D80003A204F7574206F662068656170206D652C
:100D90006D6F7279000000003A2048656170206D27
:100DA000656D6F727920636F72727570746564001F
:100DB000FEE7704772B6FEE72DE9FC4F5B4A082755
:100DC0004FF0010E4FF0030A4FF0000B4FF00008F8
:100DD000904208BF0727564A02444FEAB223072B26
:100DE00038BF4FEAB22700970027102F08BFBDE891
:100DF000FC8F0A680EFA07F4224200F090804B68DC
:100E000003F00302551E012D15D8D0F808C00AFAC8
:100E100008F52CEA050CCD6805FA08F545EA0C053D
:100E20008560C3F3001505FA07FC4568A54345EA4C
:100E30000C05456001E0032A1DD0C6680AFA08F5D2
:100E4000022A26EA05068D6805FA08F546EA05062F
:100E5000C66010D1374D0BF01C020F23934005EAFA
:100E600057060644356A25EA03030D6905FA02F2BE
:100E70001A4332624B68056803F003020AFA08F667
:100E800013F4403F02FA08F225EA060642EA060297
:100E9000026044D000220192274A136843F4804341
:100EA0001360126802F48042019227F00302234B80
:100EB000019E234D0BF00C0602EB03090F2259F89B
:100EC00005C002FA06FE009A2CEA0E0C02FA06F69B
:100ED0004FF0010E46EA0C0649F805609A684E6824
:100EE000A24316F4801F18BF224316F4001F9A6015
:100EF000144A156825EA040518BF254316F4003F77
:100F000015605A6822EA040218BF224316F4803F93
:100F10005A601A6822EA040218BF22431A600BF1D1
:100F2000040B08F1020801375FE700BF001C024014
:100F30000000FEBFFCFFFF7F44380240003C014040
:100F400008FCFFFF0C3C0140002A08BF0904816136
:100F5000704700001F488068704700BF1D48017837
:100F6000826811448160704780B50B48016841F484
:100F700000710160016841F480610160016841F421
:100F800080710160032000F07DF80F2000F006F86A
:100F900000F022F8002080BD003C024070B50D4EEC
:100FA00004464FF47A713078B1FBF0F09249096849
:100FB000B1FBF0F000F00EFB01250F2C08D838B97A
:100FC0004FF0FF3021460022002500F02FF874601A
:100FD000284670BD0000002082B0002001900B491F
:100FE0004A6842F480424A604A6802F480420192B0
:100FF000019A0090086840F080500860086800F08E
:1010000080500090009802B0704700BF4038024006
:10101000002808DB00F01F010122400902FA01F15B
:10102000014A42F82010704700E100E0B0B5144CCE
:101030001A4D00F00F03B0F1FF3FA3F104032B445E
:1010400003F10C03C8BF03192868C0F30220051D73
:10105000C41E80F00700072D4FF0010538BF0024A3
:10106000042828BF042005FA00F00138084005FADA
:1010700004F10F31A0401140084300011870B0BDC9
:1010800000E400E005494FF6FF030A681A4060F3E8
:101090000A22034810430860704700BF0CED00E0CF
:1010A0000000FA052DE9F04104468846002C00F0C6
:1010B0008480444FD7F8000400F00700404507D271
:1010C00087F80084D7F8000400F00700404574D189
:1010D000206810F0020F11D0410742BFB96841F4F7
:1010E000E051B960010742BFB96841F46041B9609D
:1010F000B968A26821F0F0011143B960C0072BD094
:101100006068811E022904D2396811F0007F0BD17A
:1011100053E0012804D1396811F4003F04D14CE0B8
:10112000396811F0020F48D0B96821F00301084373
:10113000B860FFF70FFF064641F28835B86861686E
:1011400000F00C00B0EB810F06D0FFF703FF801B0F
:10115000A842F3D9032031E0D7F8000400F00700DB
:10116000404507D987F80084D7F8000400F007004D
:10117000404522D1206810F0040F05D0B968E2681C
:1011800021F4E0511143B960000706D5B868216920
:1011900020F4604040EAC100B86000F033F8B9685C
:1011A000094AC1F30311515CC8401349086007485C
:1011B0000068FFF7F3FE002000E00120C0B2BDE8A8
:1011C000F08100BF00380240C8360008040000204B
:1011D00009480B4A006809490968C1F38221515C3A
:1011E000C84070470448064A006804490968C1F3CA
:1011F0004231515CC84070470C0000200838024062
:10120000D836000810B5F04C606800F00C011248A8
:10121000082904D0042904BF104810BD10BD22685D
:1012200020680E49002310F4800F02F03F0204BF33
:1012300042F20041C0F2F4012068C0F38810A1FB23
:101240000001FFF727F821680222C1F3014102EBF8
:101250004101B0FBF1F010BD0024F40040787D01A5
:101260002DE9F84F8246BAF1000F00F064819AF838
:101270000000D44ED44FC0074AD0786800F00C006C
:10128000042807D1306810F4003F41D0DAF8040098
:10129000F0BB50E1786800F00C00082803D13868F2
:1012A00010F4800FEED1DAF80480B8F5803F06D054
:1012B0003068B8F5A02F13D140F48020306030683A
:1012C00040F480303060FFF745FE0546306810F48A
:1012D000003F1DD1FFF73EFE401B6428F6D9C3E056
:1012E00020F480303060306820F480203060FFF7D8
:1012F00031FE0546B8F1000FE8D1306810F4003F28
:1013000006D0FFF727FE411B03206429F5D913E11E
:101310009AF80000AD4C800731D5786810F00C0FBA
:101320001CD0786800F00C00082804BF386810F45E
:10133000800F13D0DAF80C00002800F0978001200D
:101340002060FFF707FE0546306810F0020F0ED14F
:10135000FFF700FE401B0228F6D985E0306810F048
:10136000020F1CBFDAF80C00012840F0E48030685E
:10137000DAF8101020F0F80040EAC10030609AF866
:101380000000000722D5DAF8140078B10120C4F873
:10139000800EFFF7DFFD0546386F10F0020F15D104
:1013A000FFF7D8FD401B0228F6D95DE00020C4F805
:1013B000800EFFF7CFFD0546386F10F0020F05D005
:1013C000FFF7C8FD401B0228F6D94DE09AF800004F
:1013D000A34640077CD5F86B4FF0000810F0805F03
:1013E0000CD1CDF800804FF00108F86B40F0805030
:1013F000F863F86B00F08050009000987448305803
:1014000010F4807F12D17248315841F4807131500C
:10141000FFF7A0FD05466E48305810F4807F05D1D7
:10142000FFF798FD401B0228F5D91DE0DAF8089077
:10143000B9F1010F06D0F86EB9F1050F27D140F0D0
:101440000400F866F86E40F00100F866FFF782FDD0
:10145000054641F28834F86E10F0020F31D1FFF7E3
:1014600079FD401BA042F6D9032065E000202060F2
:10147000FFF770FD0546306810F0020F3FF47FAFB4
:10148000FFF768FD411B03200229F4D954E020F046
:101490000100F866F86E20F00400F866FFF75AFDC8
:1014A0000546B9F1000FD4D141F28839F86E10F039
:1014B000020F06D0FFF74EFD411B03204945F5D929
:1014C0003AE0B8F1010F02BFF86B20F08050F863EA
:1014D000DAF81840002C72D0786800F00C00082868
:1014E0002ED1012C27D03868DAF81C1000F48002C5
:1014F0008A4220D1DAF8201000F03F028A421AD145
:10150000DAF8242047F6C0710140B1EB821F12D1F6
:10151000DAF828104FF6FF72C903914300F4403205
:10152000A1F580318A4206D1DAF82C1000F0706003
:10153000B0EB016F43D00120C0B201B0BDE8F08F25
:101540000020CBF86000FFF705FD0546022C0BD10B
:101550005C46306810F0007F11D0FFF7FBFC411BA8
:1015600003200229F5D9E7E7306810F0007F26D084
:10157000FFF7F0FC411B03200229F5D9DCE70AF153
:101580001C052FCD0843D90340EA82104FF6FF72A5
:10159000914340EA0560A1F580310843386001209D
:1015A0002066FFF7D7FC0446306810F0007F06D1B4
:1015B000FFF7D0FC011B03200229F5D9BCE700206E
:1015C000BAE700BF0038024004380240000047423A
:1015D0000038FEFF411E0020B0EB116F1CBF012040
:1015E0007047044AF023516003490B700721906053
:1015F0001160704710E000E023ED00E07047704795
:1016000090F83C20012A01D102211FE0B0B501F180
:101610000805D1E900CE3CCDC96923F47C5322F4FE
:1016200070521A432EF4F0431A432CF4E0431A4349
:1016300024F4C0431A432A4322F48042114302682F
:101640005164002180F83C10BDE8B040C8B270473A
:1016500090F83C300222012B35D010B5012380F8E0
:101660003C3080F83D200268D2F804E0D2F808C08F
:101670000C68B2F1804F2EF0700343EA040353600C
:10168000BDE8104014D0114B9A421CBF104B9A4237
:101690000ED0104B9A421CBF0F4B9A4208D0C14B40
:1016A0009A421CBF0D4B9A4202D03A4B9A4204D147
:1016B00049682CF08003194391600121002280F8D1
:1016C0003D1080F83C20D0B2704700BF00040040BD
:1016D00000080040000C004000180040004001409D
:1016E00010B5044634B394F83D0028B9002084F8BE
:1016F0003C00204600F020F80220211D84F83D0027
:10170000206800F057FD012084F8460084F83E0070
:1017100084F83F0084F8400084F8410084F84200D7
:1017200084F8430084F8440084F8450084F83D00C0
:10173000002010BD012010BDE0B501681448154A15
:10174000914218D0B1F1804F18BF8CBD002100220A
:101750000191016841F0010101600021006800F081
:101760000100019001981C20FFF760FC1C20BDE8DF
:101770008C40FFF74DBC00210091416841F002010F
:101780004160406800F00200009000988CBD00BFEE
:10179000403802400004014010B50446022094F88D
:1017A0003C20012A70D001224FF6777384F83C2048
:1017B00084F83D00206882689A4382600A6812B308
:1017C000102A20D0202A18BF302A1CD0402A21D02D
:1017D000502A2BD0602A35D0B2F5005F3ED0B2F54A
:1017E000805F4AD0702A51D1D1E90123C9681A43D8
:1017F00042EA0121826822F47F42114381608168BC
:1018000041F0770138E0816821F07701114341F020
:10181000070131E04B68CA68194600F0FBFD2068FB
:10182000816821F0770141F0470125E04B68CA68E3
:10183000194600F0EFFD2068816821F0770141F042
:10184000570119E04B68CA68194600F0F4FD20689A
:10185000816821F0770141F067010DE0D1E90123B2
:10186000C9681A4342EA0121826822F47F42114387
:101870008160816841F4804181600020012184F809
:101880003D10002184F83C10C0B210BD0120F5E7E6
:101890002DE9F84F04460D46002C4DD094F83D003C
:1018A00028B9002084F83C00204600F049F80220C6
:1018B00044F2070284F83D0020688168914381600A
:1018C000211D00F077FC20688168D0F818A0D0F8BE
:1018D00020C0D5E9003ED5E902B7D5E90489D5E9AC
:1018E000062619432B6A4BEA02224FF6FC4581601B
:1018F0004FF6FF71AA432AEA01013943114341EA35
:10190000062141EA081141EA033181612CF0AA0164
:1019100041EA0E0141EA09110162012084F8460002
:1019200084F83E0084F83F0084F8420084F84300C5
:1019300084F83D00002000E0012001B0BDE8F08FF8
:1019400010B586B0044601A81421FEF71FFD2168DA
:101950001448814223D1002100F580300091974A3C
:10196000536943F001035361536903F0010300938A
:10197000009B0091136843F001031360126802F0AA
:1019800001020092009A4FF4407201920222CDE9C6
:10199000022104910121059101A9FFF70DFA06B07A
:1019A00010BD00BF0000014010B590F83E4090F817
:1019B0003F3090F842E090F843C0012204290BD058
:1019C000A9B9012C08BFBEF1010F41D1022180F855
:1019D0003E1080F842102CE0012B08BFBCF1010F33
:1019E00036D1022180F83F1080F843101DE0012C11
:1019F00008BF012B2CD1BEF1010F08BFBCF1010FB4
:101A000026D10222002980F83E2080F83F2080F86D
:101A1000422080F843200CD001680A6A22F00102BB
:101A20000A620A6A42F001020A6210216FF0100293
:101A300002E001216FF001020068036A1A400262AD
:101A4000026A114300220162016841F00101016054
:101A5000104610BD7047B0B504462068C1680269E1
:101A600001EA0205A90714D56FF002010161012105
:101A70002177806910F0030F03D02046FFF7EAFFBB
:101A800005E0204600F09CF8204600F01BF90020FD
:101A90002077680715D520686FF0040101610221E5
:101AA0002177806910F4407F03D02046FFF7D2FFF2
:101AB00005E0204600F084F8204600F003F90020FD
:101AC0002077280715D520686FF0080101610421EF
:101AD0002177C06910F0030F03D02046FFF7BAFF4B
:101AE00005E0204600F06CF8204600F0EBF80020FE
:101AF0002077E80615D520686FF0100101610821F4
:101B00002177C06910F4407F03D02046FFF7A2FF81
:101B100005E0204600F054F8204600F0D3F80020FD
:101B20002077E80706D020686FF0010101612046A8
:101B300000F044F9280606D520686FF080010161A5
:101B40002046FFF75BFD680606D520686FF0400170
:101B50000161204600F033F9A80658BFB0BD2068E7
:101B60006FF0200101612046BDE8B040FFF747BD9E
:101B700010B586B0044601A81421FEF707FC2168C1
:101B80008D48814218D1002100F582300091DA4A57
:101B9000136843F004031360126802F00402009219
:101BA000009AC02201920222CDE902210491032170
:101BB000059101A9FFF700F906B010BD30380240C9
:101BC0000068B0F1804F08BF00F084BA7047000091
:101BD000B0B504460D4694F83C00012801D102201E
:101BE00041E04FEAB2010120032984F83C0037D8D4
:101BF000DFE801F0020A12222068294600F048FBC3
:101C0000206850F8181F0EE02068294600F070FB8D
:101C1000206850F8181F16E02068294600F09CFB49
:101C2000206850F81C1F41F008010160016821F094
:101C30000401016029690FE02068294600F0C2FB19
:101C4000206850F81C1F41F400610160016821F414
:101C50008061016029690902026811430160002066
:101C6000002184F83C10C0B2B0BD10B5044634B3B6
:101C700094F83D0028B9002084F83C00204600F08C
:101C800020F80220211D84F83D00206800F092FA1F
:101C9000012084F8460084F83E0084F83F0084F870
:101CA000400084F8410084F8420084F8430084F83E
:101CB000440084F8450084F83D00002010BD012058
:101CC00010BD70477047000039B10322082908BFD2
:101CD0000222042908BF012200E00022024492F8F7
:101CE0003E20012A1CBF01207047022241B1082971
:101CF00009D0042914BF80F8412080F83F2004E077
:101D000080F83E2001E080F84020006801F01F01CB
:101D1000012202FA01F1026AB0F1804F22EA0102C7
:101D20000262026A41EA0201016230D01D49884222
:101D30001CBF1D4988422AD01C4988421CBF1C492F
:101D4000884224D08549884205D01A4988421ED04D
:101D5000D049884220D1416CB0F1804F41F400411C
:101D6000416414D00F4988421CBF0F4988420ED0ED
:101D70000E4988421CBF0E49884208D077498842E4
:101D80001CBF0C49884202D0C249884204D18168F4
:101D900001F00701062903D0016841F0010101604B
:101DA000002070470004004000080040000C004084
:101DB0000018004000400140000401407047704797
:101DC00010B504464CB394F8410028B9002084F8BB
:101DD0004000204600F024F8242084F841002068C8
:101DE000C16821F40051C160204600F037FB206833
:101DF000016921F490410161416921F02A014161A9
:101E0000C16841F40051C16000202021606484F861
:101E1000411084F84210606310BD012010BD000025
:101E200010B586B0044601A81421FEF7AFFA216868
:101E3000A648814222D1002100F5DA3000912E4AD5
:101E4000136943F400231361136903F4002300931F
:101E5000009B0091136843F0010313600223126892
:101E600002F001020092009A03220192CDE90231B0
:101E700008210492059101A9FEF79EFF06B010BD4E
:101E8000FEE7000070B586B000250022059500959C
:101E90001948016841F080010160016801F080018A
:101EA000009100990095016841F00401016001680A
:101EB00001F00401009100990095016841F00101D1
:101EC00001600421006800F00100009000980B4CB4
:101ED0002046FFF739F82046082101220126FFF7A6
:101EE00033F80C2001A9CDE901062046CDE90355C0
:101EF000FEF762FF06B070BD3038024000080240B5
:101F000010B58CB0002414484FF6FF72CDE90044A0
:101F1000D849C0E900140321C0E90242C0E90444E1
:101F20008461CDE903140121CDE90514CDE907440D
:101F3000CDE9091403A90B94FFF7AAFC08B1FEF739
:101F400039FF05486946CDE90044FFF781FB08B138
:101F5000FEF730FF0CB010BDA400002000000140CF
:101F6000FEB5934800214FF08042A72341F2873C01
:101F7000CDE90411CDE90211CDE90011C0E900233A
:101F8000C0E9021C01618161FFF7AAFB08B1FEF7FD
:101F900011FF4FF4805002A902908548FFF7FCFB27
:101FA00008B1FEF707FF00206946CDE90000804830
:101FB000FFF74EFB08B1FEF7FDFE06B080BD00BF87
:101FC000B0B596B009AC00251C212046CDE91455CA
:101FD000CDE91255CDE91055FEF7D8F901A8202119
:101FE000FEF7D4F92A48F64940F28F62632380E86D
:101FF0002600C0E90335C0E90555FFF771FB08B1BC
:10200000FEF7D8FE4FF4805012A912902048FFF737
:10201000C3FB08B1FEF7CEFE1D48FFF726FE08B150
:10202000FEF7C8FE002010A9CDE910001848FFF700
:102030000FFB08B1FEF7BEFE602018210990201D9D
:10204000FEF7A4F9124821460022FFF7C1FD08B1AE
:10205000FEF7B0FE0E4809A90422FFF7B9FD08B14A
:10206000FEF7A8FE01AC14212046FEF78FF94FF4CD
:10207000005021460690002008900548FFF7C0FA5E
:1020800008B1FEF797FE0248FFF772FD16B0B0BD2B
:10209000340100200004014080B50B480B494FF487
:1020A000E13200234FF00C0C80E80E00C0E903334E
:1020B000C0E905C3C361FFF783FE18B1BDE88040E6
:1020C000FEF778BE80BD00BF7C010020004C0040C0
:1020D000FEE7FEE710B5064C9FED040A204600F02F
:1020E000BFFA2046BDE8104000F090BACDCC4C3F7E
:1020F000C401002070477047FEF730BF70B592B042
:1021000006AC1421201DFEF741F901A81421FEF7A9
:102110003DF90025022600951D48016841F08051D7
:102120000160006800F08050009000980095194808
:10213000016841F480410160006800F48040009033
:10214000009806960120099010200A900820CDE9F9
:102150000C650E90A820CDE90F06042011902046B2
:10216000FFF77EF808B172B6FEE70F200521CDE932
:1021700001064FF4A050039504904FF48050059051
:1021800001A8FEF78FFF08B172B6FEE712B070BD6E
:1021900040380240007000400248016841F470017C
:1021A0000160704788ED00E00148FFF754BC00BFB4
:1021B000EC0000200268B0F1804F0ED02A4B98420C
:1021C0001CBF2A4B984208D0294B98421CBF904B09
:1021D000984202D0274B984203D14B6822F07002FC
:1021E0001A43B0F1804F20D01F4B98421CBF1F4BA9
:1021F00098421AD01E4B98421CBF1F4B984214D0D5
:102200001E4B98421CBF1E4B98420ED0194B984251
:102210001CBF7F4B984208D01A4B98421CBF1A4BE8
:10222000984202D0194B984203D1CB6822F44072F5
:102230001A434B6922F080021A4302608A68C26224
:102240000A68826240F48062714B9A4204BF096955
:10225000016301214161016911F0010F1EBF016994
:1022600021F00101016170470004004000080040B6
:10227000000C00400000014000180040001C00401D
:10228000002000400040014000480140004401405F
:10229000B0B5026A036A23F0010322F0020203626E
:1022A000D0F804E083698D680C68154323F073024D
:1022B000574B42EA040C40F480629A4201BF25F079
:1022C0000C03CC6824F0040444EA0305504B9A4202
:1022D00001BFD1E905232EF44074224342EA030EE4
:1022E000C0F804E0C0F818C0496841630562B0BD99
:1022F00070B5026A036A23F0100322F02002036221
:10230000466883698D680C6842EA051E23F4E6423C
:102310003F4B42EA042C40F480629A4201BFCB68F2
:102320006FF04F0404EA03132EF0C00508BF43EA20
:10233000050E374B9A4201BFD1E9052326F44064CC
:1023400044EA820242EA83064660C0F818C049683F
:102350008163C0F820E070BD70B5026A036A23F49F
:10236000807322F4007203624668C3698D680C684A
:1023700042EA052E23F07302254B42EA040C40F496
:1023800080629A4208D1CB6840F2FF442EF4406547
:102390001B02A34343EA050E1D4B9A4201BFD1E93C
:1023A000052326F4405444EA021242EA031646602A
:1023B000C0F81CC04968C163C0F820E070BD00BF10
:1023C00000040140B0B5D0F820C0036A23F4805364
:1023D0002CF4005203624368C5698C68D1F800E0B0
:1023E00042EA043C0A4C25F4E64240F4806542EAA5
:1023F0000E22A54202BF4D6923F4804343EA8513B0
:102400004360C26149680164C0F820C0B0BD00BF2C
:1024100000040140D0F820C0036A23F001030362E6
:10242000836923F0F00343EA021282612CF00A026E
:10243000114301627047D0F820C0036A23F01003F3
:102440000362836923F4704343EA023282612CF011
:10245000A00242EA0111016270470000B0B50446D3
:1024600049F20C6520680169E26821F4405111438A
:102470000161D4F808C0D4E90423D4F81CE0C16891
:1024800042EA0C02A9431A4342EA0E021143C16018
:102490004169A26921F440711143416140F48060B7
:1024A0002049884202D1FEF79DFE01E0FEF790FE32
:1024B000E26963681921A0FB0101B2F5004F16D152
:1024C0005A00DB0FFDF7E6FE64216FF06303B0FBFB
:1024D000F1F202FB0300322303EBC000B0FBF1F189
:1024E0004FF4F87000EA410001F0070113E09A0090
:1024F0009B0FFDF7CFFE64216FF06303B0FBF1F299
:1025000002FB0300322303EB0010B0FBF1F101F0FA
:10251000F00001F00F0100EB021008432168886011
:10252000B0BD00BF00140140FEE7000010B5AA4C8A
:102530000E490022204600F0CBF80D480D4A2146F6
:10254000FDF71FFF0C49A348CA6801600968426093
:10255000896A816009494162094981620949C16208
:102560006649C161084A0262016310BD340100205E
:102570000927000800000008A40000200000E04136
:10258000000050410000964352B89E3E30EE600A73
:10259000B8EE006A80ED070AF0EE400A90ED064AB8
:1025A00090ED011A90ED0A5A90ED002A90ED023A52
:1025B00080ED0A4A80ED060A30EE447A20EE011AD8
:1025C00045EE060A90ED040A02EE071A34EE202AC0
:1025D00003EE021AB4EEC01AF1EE10FAC8BF70474B
:1025E00090ED052AB0EE410AB4EEC21AF1EE10FAEF
:1025F000B8BFB0EE420A7047D0E900211046FFF79D
:1026000063BB00683C21FFF7CFB90000714A018924
:1026100090ED040A92ED071AB8EEC00A02EE101A05
:10262000B8EE422A80EE010A20EE020ABDEEC00A90
:1026300010EE101AA0F84410D0E900231268042B01
:1026400003D02BB902F1340008E002F1380005E0B4
:1026500002F14000082B08BF02F13C000160704706
:10266000B0B52DED028B5B4D0446B0EE408A286874
:102670000068416AE96000214162284600F048F89C
:10268000D5ED060A04F11400B0EE480AFFF77EFF0C
:1026900084ED030AB6EE002A95ED081A80EE010AD1
:1026A00020EE020A10EE100A00F046FF9FED060B26
:1026B00053EC102B00F0BAFC00F010FE2061BDECD2
:1026C000028BB0BD00BF00BF4AD8124DFB210940AC
:1026D000C0E90012C9680181084941614FF0804199
:1026E00081610021C161064A02F10043C0E908325C
:1026F000044AC0E90A21C0E90C1170470000A0405B
:1027000000409C450000FA447047000000000000B3
:1027100010B52DED028B0446B1EE004A94ED0A3A55
:1027200094ED020A94ED092A94ED031A23EE043A7B
:102730009FED194AB8EE400A23EE022A94ED0C3AB6
:10274000B8EE411A82EE000A81EE000A20EE040A79
:1027500080EE038A38EE080A10EE100A00F0ECFE54
:102760009FED0B0B53EC102B00F0E8FD84ED048A79
:1027700000F02AFC606101EE100A94ED080A20EED8
:10278000010A84ED060ABDEC028B10BD00BF00BF3C
:102790004AD8124DFB21094000007A4480B5FEF76B
:1027A000E3FBFFF7ABFCFFF76DFBFFF709FCFFF75F
:1027B000A7FBFFF771FCFFF7D3FB00F001F8FEE782
:1027C00080B50448FFF71DFF0348FFF715FF002001
:1027D00080BD00BF70000020C40100205FEA400CF3
:1027E00008BF91F0000F4FEA8C234FEAC12243EA61
:1027F00051514FEA1C5018BF00F5F0404FEA30002D
:1028000018BF41F000415FEA6C5C00F02980BCF128
:10281000FF3F08BF40F080407047130C06BF120412
:102820004FF0100C4FF0000C130E04BF12020CF10D
:10283000080C130F04BF12010CF1040C930F04BF1A
:1028400092000CF1020CD30F04BF52000CF1010CEA
:1028500011464FF00002A0F11F00A0EB0C007047E2
:1028600011F0004F08BF704731F000413FF4D5AF81
:102870000B0C06BF09044FF0100C4FF0000C0B0EB0
:1028800004BF09020CF1080C0B0F04BF09010CF185
:10289000040C8B0F04BF89000CF1020CCB0F04BF9A
:1028A00049000CF1010CCCF1200322FA03F341EAB8
:1028B000030102FA0CF2A0EB0C0000F101007047DA
:1028C00023F07F4720F07F4C80EA030000F00040B7
:1028D000ACEB070303F57C5303F1FF032DE98049BB
:1028E00009B44FEA144324EA03484FEA154B25EA9A
:1028F0000B4E0FF2042606EB13273E7803FB066708
:10290000C7F5000707FB06F64FEAD64606F10206B2
:102910004FEA543707FB066CCCF1005C4FEA1C47CA
:102920002CEA074C0CFB06F507FB06F404EB1546F6
:102930004FEA961649085FEA320234BF00204FF092
:1029400000404FEAD13706FB07FC4FEA1C4C0CFB5A
:102950000BF7D21B03FB0CF761EB07010CFB0EF727
:10296000B0EB074072EB17420CFB08F734BFA2EB49
:102970000742B2EB074261EB17414FEA0C444FEAC2
:10298000910706FB07FC4FEA1C4C0CFB0BF7B0EB66
:10299000C74072EB573203FB0CF734BFA2EBC742C0
:1029A000B2EBC74261EB57310CFB0EF7B0EBC7003F
:1029B00072EB57720CFB08F734BFA2EBC702B2EB05
:1029C000C70261EB57714FEA816141EA92114FEA08
:1029D000826242EA90124FEA806004EBCC04039FCB
:1029E0004FEAD13706FB07FC4FEA1C4C0CFB0BF7F8
:1029F000D21B03FB0CF761EB07010CFB0EF7B0EBEE
:102A0000074072EB17420CFB08F734BFA2EB0742FA
:102A1000B2EB074261EB17414FEA8C5504EB9C2463
:102A20004FEA910706FB07FC4FEA1C4C0CFB0BF727
:102A3000B0EBC74072EB573203FB0CF734BFA2EB8D
:102A4000C742B2EBC74261EB57310CFB0EF7B0EB5C
:102A5000C70072EB57720CFB08F734BFA2EBC7023A
:102A6000B2EBC70261EB57714FEA816141EA921103
:102A70004FEA826242EA90124FEA806015EB4C25E1
:102A800044F100044FEAD13706FB07FC4FEA1C4C27
:102A90000CFB0BF7D21B03FB0CF761EB07010CFBE4
:102AA0000EF7B0EB074072EB17420CFB08F734BF90
:102AB000A2EB0742B2EB074261EB17414FEA8131CB
:102AC00041EA92414FEA823242EA90424FEA803034
:102AD0004FEA0C7615EB1C1544F1000448EA034359
:102AE0004EEA0B484FF0000EB2EB080C71EB0307F7
:102AF00024BF624639464EEB0E0E4FF0000B001815
:102B0000524149414BEB0B0BB2EB080C71EB030745
:102B10007BF1000B24BF624639464EEB0E0E4FF0A0
:102B2000000B0018524149414BEB0B0BB2EB080C68
:102B300071EB03077BF1000B24BF624639464EEB75
:102B40000E0E51EA020718BF46F0010616EB0E768C
:102B500055F1000254F1000103D5BDE88901BDE83B
:102B60000088BDE88901BDE80048B619524141EB33
:102B70000101A3F10103704780807F7E7D7C7B7A19
:102B80007978777676757473727171706F6E6E6D19
:102B90006C6C6B6A6A6968686766666564646363BF
:102BA00062616160605F5F5E5E5D5D5C5C5B5B5A45
:102BB0005A595958585757565655555554545353B2
:102BC00052525251515050504F4F4F4E4E4D4D4D0D
:102BD0004C4C4C4B4B4B4A4A4A4949494848484758
:102BE0004747474646464545454444444443434396
:102BF00043424242424141419C46002B30D477003F
:102C00002BD04FEA37071CB503B44FF010004FF03C
:102C10001001BAF1000F06D0BCF1000FDCBF40F08C
:102C2000080040F008014FF000000FBCBDE8104064
:102C30000BF1010BBBF1010F08BF5FEA170722BFC1
:102C400012F1010211F101014FF0004143F10003C3
:102C500000F0004043EA00007047F9D35708D0E77E
:102C600046EA06464FEA164613F1400F1FDD13F100
:102C7000200FDFBF16430A46002120335B42BED03F
:102C8000C3F1200746EA06464FEA164602FA07F75E
:102C900046EA070622FA03F2C3F1200701FA07F712
:102CA00042EA070221FA03F14FF00003A7E746EAE0
:102CB000020646EA06464FEA164646EA0106BCBF49
:102CC00046EA0646360C4FF000034FF000024FF084
:102CD000000194E72DE9804C70B49A46934691E840
:102CE000380007C831EA400C48BF34EA430C03D52A
:102CF000FFF7E6FDFFF780FFF0BCBDE8008C2DE993
:102D0000804C70B49A46934691E8380007C810F09A
:102D1000804F08BF13F0804F03D100F005F8FFF794
:102D20006BFFF0BCBDE8008C20F07F4723F07F4CA8
:102D300080EA030000F0004007EB0C03A3F57C538E
:102D4000A3F1FE0392F0000F00F0B38095F0000FA6
:102D500000F077802DE901494FEA114021EA00484F
:102D60004FEA144624EA064700FB06FC08FB06F679
:102D700007FB08F818EB06484CEB164C00FB07F76E
:102D800018EB07484CEB17404FEA124B22EA0B4E68
:102D90004FEA154625EA06470BFB06FC0EFB06F636
:102DA00007FB0EFE1EEB064E4CEB164C0BFB07F71B
:102DB0001EEB074E4CEB174B18EB0B0840F10000D5
:102DC00018EB0E0B58EB000840F100008F1A4FF083
:102DD00000014FF000063CBFC943661B14BFB5EBB2
:102DE000040C00213CBFC943F61B4FEA174427EAF5
:102DF00004454FEA1C472CEA074C04FB076205FB1D
:102E000007F70CFB05F616EB074642EB174204FBEF
:102E10000CFC16EB0C4642EB1C421BEB060658EB77
:102E2000020241414EEA8E0E46EA9E0601D5BDE8F9
:102E30000189B619524141EB0101A3F10103BDE83B
:102E400001894FEA144524EA05464FEA114721EA71
:102E5000074C05FB07F406FB07F70CFB06F111EB2B
:102E6000074144EB174405FB0CFC11EB0C4144EB10
:102E70001C444FEA124722EA074C05FB07F206FB07
:102E800007F70CFB06F616EB074642EB174205FB6D
:102E90000CFC16EB0C4642EB1C456A1854F1000181
:102EA00048BF7047B619524141EB0101A3F101033C
:102EB000704795F0000F37D04FEA114221EA0246E1
:102EC0004FEA144724EA074C02FB07F106FB07F719
:102ED0000CFB06F414EB074441EB174102FB0CFC1E
:102EE00014EB0C4441EB1C414FEA154725EA074C13
:102EF00002FB07F506FB07F70CFB06F616EB074689
:102F000045EB174502FB0CFC16EB0C4645EB1C424F
:102F1000121951F1000148BF7047B619524141EBF7
:102F20000101A3F1010370474FEA144524EA054665
:102F30004FEA114721EA074C05FB07F106FB07F7AB
:102F40000CFB06F212EB074241EB174105FB0CFCB0
:102F500012EB0C4251EB1C414FF0000648BF70478A
:102F6000921841EB0101A3F10103704703B40198EA
:102F70004100009850EAC12018BF04204A0D18BF34
:102F800040F0010040F2FF72B2EB515F08BF40F029
:102F90000200012808BF052002B0704710B50029C3
:102FA0000AD00878002807D005487844FDF758FE75
:102FB000002801D0002010BD0248784410BD000058
:102FC000560700004E07000021F0004201F00043C8
:102FD000A2F16052B2F5801F28BFD2F17F6C0BD9ED
:102FE0005FEA001C43EAC20242EB507018BF704710
:102FF00028BF20F001007047B2F5801FBCBF184603
:1030000070474FEA410C1CF5001F02D2084600F041
:1030100009BB70B500F03CFA00000089FFF7F6BF6D
:103020004FF00040A0F58000704700002DE9C0413E
:1030300030B4DFF8A0C23CEA111418BF3CEA131404
:1030400000F0EC801CEA111481EA030544EAD5740F
:1030500018BF1CEA131500F0C780A4EB050404F1A7
:103060007F7404F500344FF0004545EAC12145EA7C
:10307000C32341EA505143EA52534FEAC0204FEA7A
:10308000C222994208BF904200F09C804FEA13652B
:103090000FF24016765D4FEA134506FB05F7C7F1C0
:1030A000807706FB07F74FEAD737A7FB036876421E
:1030B000A7FB06CEC8F5803838BFA8F1010807FB8A
:1030C00008E6A6FB028C4FF0000EE6FB03CEDCF117
:1030D000000CCEF1004E38BFAEF1010EA6FB0C582D
:1030E0004FF00007E6FB0E87A1FB08C6A0FB07CE4A
:1030F00016EB0E064FF0000545F10005E1FB0765F4
:1031000015F1E04E7EBFA4F580345FEA46066D41BE
:1031100016F1800745F100054FEA172747EA0567D2
:103120004FEA15254FEA0666A6F1DE46B6F1805F46
:103130001FD9384605EBC47124F0010C01EB0C11CA
:10314000BCF1FE6F02D8F0BCBDE8008124425CBF38
:1031500001F5801E9EEAC47F02D4F0BCBDE8008168
:10316000244238D4A1F1C041F0BCBDE8004100F0D8
:10317000DDB94FEAD02040EA41504FEAD1214FEA71
:10318000D22242EA43524FEAD323A7FB028607FB2F
:10319000036605FB02661EEA0E0F58BFA6EB00563B
:1031A000B6EB00564FEA520E4EEAC37E18EB0E0EF7
:1031B00056EB530EBDD518EB02085E417F1C55F14E
:1031C0000005B6E74FF480154FF000074FF00006FA
:1031D0004FF00008ADE701F1C04101F000414FF0B0
:1031E0000000F0BCBDE800810CEA131511EA0C1FC9
:1031F00000D00CE013EA0C1F00F025804FF0000017
:1032000081EA030101F00041F0BCBDE80081F0BC9F
:10321000BDE8004181EA030100F088B9F0BCBDE8D7
:10322000004170B500F034F9097EFC3E00F007B8AB
:103230004FF0000081EA030101F00041704781EA8C
:10324000030100F073B9F0BCBDE8004122494FF022
:1032500000007047FFFDFBF9F7F5F4F2F0EEEDEB3F
:10326000E9E8E6E4E3E1E0DEDDDBDAD8D7D5D4D384
:10327000D1D0CFCDCCCBCAC8C7C6C5C4C2C1C0BFD0
:10328000BEBDBCBBBAB9B8B7B6B5B4B3B2B1B0AFD6
:10329000AEADACABAAA9A8A8A7A6A5A4A3A3A2A1BA
:1032A000A09F9F9E9D9C9C9B9A9999989797969575
:1032B00095949393929191908F8F8E8E8D8C8C8B11
:1032C0008B8A898988888787868585848483838299
:1032D000828181800000FF070000F87F4FEA4103F0
:1032E0004FEA5353A3F58063D3F11E03C8BFD3F154
:1032F000210C0CDD4FF0004242EAC12242EA50525A
:1033000032FA03FC8CEAE17CACEBE1707047102BE5
:10331000C4BF0020704703F5787CBCF1FF3F04D0A8
:103320006FF0004282EA2100704770B500F0B0F8FB
:103330004992248000207047F2E7000070B5DFF862
:1033400048C11CEA111E1EBF1CEA13159EEA0C0F91
:1033500095EA0C0F00F06F8081EA03044EEAD47EF8
:10336000AE4421EA4C1123EA4C1341F4801143F49A
:103370008013AEF17F7EA1FB024CA0FB03653619E2
:1033800055EB0C05A1FB034C4CF10003A0FB021C08
:1033900016EB0C06654153F10003094218BF46F0D5
:1033A000010613F4007F0BD14FEA03314FEA0530D9
:1033B00041EA155140EA165034036FF003020AE067
:1033C0004FEAC3214FEAC52041EA555140EA565021
:1033D000F4026FF0020202EB2E4201EB025585EA85
:1033E000CE710AD05FEA440C18BF24F0004450F1BB
:1033F000000041F1000120EAD47040F2FE7C6245F9
:1034000000D270BDA84214BF4FF080444FF040443A
:10341000002E08BF0024BEF1806FA8BFA1F1C041FB
:10342000BDE8704080F2828001F1C04101F00041AE
:103430004FF0000070470CEA13159EEA0C0F18BFFE
:1034400095EA0C0F06D081EA030E4FF000000EF053
:10345000004170BD00F01CF88900013E00F007B883
:1034600000F009B84FEA430C5FEA5C5C08D081EADF
:10347000030100F05BB84FEA410C5FEA5C5CF6D1F7
:1034800002494FF0000070470000FF070000F87F7E
:103490000EF1020E2EF0030E5EF8046B364205D4D8
:1034A000012A43EB030515F5001F12D8012841EB53
:1034B000010C1CF5001F0CD80ED14FEAD17C0CEB8F
:1034C0004C0C0CF1020C15F5001F08BF4CEBD37C23
:1034D00004E04FF0080C01E04FEAD37C0CEB4C0504
:1034E00026FA05F606F00706B6F1040C06D20EEB36
:1034F000860CBDE870404CF0010C6047DFE80CF032
:10350000090B02024FF00041A1F500214FF000002D
:1035100070BD19461046012851EB010418BFD4F5BF
:10352000001484BF002001F0004170BD0808A0F520
:1035300000114FEA3101704743004FEAD30C4FEAC4
:103540003C0C43401FBF40070CF1605113F0FE4F8D
:1035500070471CF0006F03D10CF000410020704751
:103560000CF0004343EA507040EACC0010B500F084
:103570000EF800BF000000924FEA0001FFF7D6BF2F
:103580004FF00041A1F500214FF0000070470EF10F
:10359000020E2EF0030E5EF8044B244204D44FEAD0
:1035A0004102B2F17F4F11D84FEA4003B3F17F4F90
:1035B0000CD80ED14FEAD07C0CEB4C0C0CF1020C69
:1035C000B2F17F4F08BF4CEBD17C04E04FF0080C08
:1035D00001E04FEAD17C0CEB4C0324FA03F404F035
:1035E0000704B4F1040C06D20EEB840CBDE81040C5
:1035F0004CF0010C6047DFE80CF0070802024FF0C6
:103600000040A0F5800010BD0846420018BFD2F16E
:10361000807288BF00F0004010BD4FF04070E1EEB6
:10362000100A7047FF2141EAD050C0057047FCF7EF
:10363000C2BF000002400000000000A00000000027
:1036400005400000000000C8000000000C40000021
:103650000000409C00000000194000000020BCBE9B
:103660000000000034400000BFC91B8E00000004B1
:10367000B5400000504BCFD06607E2CF01000000FC
:103680006C4100003E8251AADFEEA7340100000029
:10369000D9420000DCB5A0E23A301F97FFFFFFFFE0
:1036A000B4450000FD25A0C8E9A3C14FFFFFFFFFFF
:1036B000FF3F00000000008000000000FF3F00000E
:1036C000000000800000000000000000000000007A
:1036D00001020304060708090000000001020304B8
:1036E000203700080000002010000000C40100087E
:1036F000303700081000002000080000E00100083A
:103700001C00000043000000F8FFFFFF0C00000059
:103710000E0000000F0000002E00000011EEFFFF61
:103720000100000010000000000000000024F40070
:040000050800018965
:00000001FF
