:020000040800F2
:10000000400A0020F102000815990008A99500088F
:10001000119900089D1B0008F9B4000800000000B9
:10002000000000000000000000000000ED99000842
:10003000091C000800000000E9990008A99A0008BE
:100040000B0300080B0300080B0300080B03000858
:100050000B0300080B0300080B0300080B03000848
:100060000B0300080B0300080B0300080B03000838
:100070000B0300080B0300080B0300080B03000828
:100080000B0300080B0300080B0300080B03000818
:100090000B0300080B0300080B0300080B03000808
:1000A0000B0300080B0300080B0300080B030008F8
:1000B000BD9C00080B0300080B0300080B0300089D
:1000C0000B0300080B0300080B0300080B030008D8
:1000D0000B0300080B0300080B0300080B030008C8
:1000E0000B0300080B0300080B0300080B030008B8
:1000F0000B0300080B0300080B0300080B030008A8
:100100000B0300080B0300080B0300080B03000897
:100110000B0300080B0300080B0300080B03000887
:100120000B0300080B0300080B0300080B03000877
:100130000B03000800000000000000000B03000893
:100140000B0300080B0300080B0300080B03000857
:100150000B0300080B0300080B0300080B03000847
:100160000B0300080B0300080B0300080B03000837
:100170000B0300080B030008000000000000000053
:100180000B0300080B03000800F002F800F09FF8D2
:100190000AA090E8000C82448344AAF10107DA45E2
:1001A00001D100F094F8AFF2090EBAE80F0013F095
:1001B000010F18BFFB1A43F00103184780F5000038
:1001C000A0F50000103A24BF78C878C1FAD85207C9
:1001D00024BF30C830C144BF04680C6070470000C1
:1001E0000023002400250026103A28BF78C1FBD840
:1001F000520728BF30C148BF0B6070476E2900F01E
:100200001F82702900F0618366290EF00A87652934
:100210000EF0078767290EF0048761290EF0038727
:1002200003681B0A28BF41F08001692900F0CC81D6
:10023000642900F0C981752900F0C6816F2900F09A
:10024000EF82782900F02D83E92900F08982E429E2
:1002500000F08682F52900F08382EF2900F0EC821D
:10026000F82900F02C830368DB0928BF41F08001E6
:10027000632901F0A180732901F0A680E32901F030
:10028000B180F32901F0B680002070471FB50EF051
:10029000BEFE9DE8030001F0CBF901F0ADF90400CA
:1002A000002000210EF0FCFC401C606000200021BA
:1002B0000EF0E0FCE06000F019F88DE80F0000F0AF
:1002C0000FF91FBD10B5002001F0BCF810BD01F002
:1002D00062F91146FFF7DAFF0EF006F801F0CCFAEA
:1002E00003B4FFF7EFFF03BC00F0F8FB01F05ABBCB
:1002F0000948804709480047FEE7FEE7FEE7FEE7BA
:10030000FEE7FEE7FEE7FEE7FEE7FEE704480549F5
:10031000054A064B70470000A99C000889010008A7
:1003200040040020400A0020400600204006002033
:1003300053EA020C00F069802DE9F04B4FF0000603
:10034000002B1FBFB3FA83F503FA05F424FA05F670
:100350005E4012BF1643B2FA82F502FA05F4C5F107
:1003600020051EBF22FA05FC44EA0C04203556EA9B
:10037000044C4FEA144418BF641C4FF000084FF0BF
:100380000009904271EB030C39D3002919BFB1FA6F
:1003900081F701FA07F6B0FA80F700FA07F6C7F11D
:1003A00020071EBF20FA07FC46EA0C062037B6FBE2
:1003B000F4FCA7EB0507103F07F01F0BCBF120065D
:1003C0002CFA06F60CFA0BFB44BFB3460026202F8E
:1003D000A4BF5E464FF0000B5BEA060C08BF4FF06F
:1003E000010B19EB0B0948EB0608ABFB027C06FB83
:1003F00002CC0BFB03CCC01B71EB0C01C1E70B461D
:10040000024641464846BDE8F08B13B54FF0000068
:100410004FF00001AFF30080BDE81C4070470000C2
:100420001CB50C46064B7B4469460090204600F004
:1004300020F904460020694600F02EF920461CBD34
:100440006F0200000B460146184600F018BB10B5BD
:10045000431C02E010F8011B71B18107FAD14FF083
:10046000013202C88C1A8C4314EAC211F9D0C01AA6
:100470000A0603D0C01E10BDC01A10BD0A0401D068
:10048000801E10BD0902FCD0401E10BD4FF00002BE
:1004900000B5134694469646203922BFA0E80C507A
:1004A000A0E80C50B1F12001BFF4F7AF090728BF55
:1004B000A0E80C5048BF0CC05DF804EB890028BFD1
:1004C00040F8042B08BF704748BF20F8022B11F0FA
:1004D000804F18BF00F8012B704770477047704776
:1004E00070B5064C7C44064D7D4403E020682044F2
:1004F0008047241DAC42F9D170BD0000A0F300007C
:10050000A0F3000070B5044685690068C10601D5F6
:10051000302600E02026C00707D070BDD4E90121B5
:1005200030469047206A401C20626D1EF6D570BD93
:1005300070B5044685690078C00707D170BDD4E95D
:10054000012120209047206A401C20626D1EF6D5B4
:1005500070BD09684A0501D540B27047C905FCD590
:1005600000B2704709684A0501D5C0B27047C90595
:10057000FCD580B2704770B50C460546012A05D0FF
:100580002878800600D5EA69002302E0012305E00F
:100590005B1C934202D2E05C0028F9D1A869E618FE
:1005A000C01AA861286A184428622846FFF7AAFFE3
:1005B00004E0D5E9012114F8010B9047B442F8D3C7
:1005C0002846FFF7B5FF70BD2DE9F041064600242F
:1005D00010687529314616A510D0FFF7BAFF00281C
:1005E00002DA404213A507E031688A0701D512A557
:1005F00002E0490704D511A5012401E0FFF7B2FF8D
:1006000000210A2206F1240709E0B0FBF2FCB0FB4E
:10061000F2F302FB1C00303078541846491C0028C5
:10062000F3D123462A463046BDE8F04100F0D4BA63
:10063000000000002D0000002B0000002000000042
:1006400011680268006A530501D508700AE0D305F5
:1006500001D5088006E0130603D5C217C1E90002E0
:1006600000E008600120704701694A1C02610878B7
:10067000704700B58FB0CDE90131002105910549E2
:100680007944CDE903101146684600F029F90FB00E
:1006900000BD0000E5FFFFFF0A6802F8010B0A60D9
:1006A000704700002DE9FF5F15468A460446DFF8D3
:1006B000AC80F8440027D8E900103E46CDE9001090
:1006C00010E03AF816106A4602A800F097FE411CA6
:1006D00007D02178890603D5E269391891420DD8EF
:1006E0000744761C2078800602D5E069B84205DD13
:1006F000AE42E6DB3AF816000028E2D1A069C01B42
:10070000A0612046FFF7FEFED8E90010CDE90010F9
:10071000002017E03AF818106A4602A800F06EFEB2
:10072000B0F1FF3F81460BD000250DF1080B05E02D
:10073000D4E901211BF8050090476D1C4D45F7D306
:1007400008F10100B0428046E4DB206A38442062B0
:100750002046FFF7EDFEBDE8FF9F00009AEB00008A
:100760002DE9F0418046D21D22F007020025D2E992
:100770000002F52915A614D0011E72F1000106DA57
:100780000023D0EB030063EB020211A608E0D8F8C7
:1007900000108B0701D50FA602E0490701D50EA670
:1007A00001251146002408F1240704E000F0CFF9E8
:1007B00030323A55641C50EA0102F7D12B463246DA
:1007C00021464046BDE8F04100F006BA00000000B6
:1007D0002D0000002B0000002000000030B400219C
:1007E00000F1240408E002F00705D208303542EA9F
:1007F0004372DB086554491C52EA0305F3D10468CF
:10080000002310A2250708D504F020040C4304D0CF
:10081000C46901230CA2641EC46130BC00F0DCB9C1
:1008200010B5044621461068FFF79CFE024620469C
:10083000BDE810400023D1E7D21D22F00701D1E925
:100840000023CBE70000000030000000F0B40D46AC
:100850000188090502D5214C7C4402E01F4C7C44F0
:100860000E34002100F1240608E002F00F071209FF
:10087000E75D42EA03721B097754491C52EA0307F9
:10088000F3D102780023120704D5702D06D009B1E8
:10089000022311342246F0BC00F09EB9012310342B
:1008A000F8E770B504460D4621461068FFF75AFE7A
:1008B000024629462046BDE870400023C6E7D21D07
:1008C00022F00703D3E90023C0E70368126843F06E
:1008D000200303600823C3610023B7E7FCE900009D
:1008E0002DE9F05F894604464FF0000ADFF874B145
:1008F000FB44C0F820A02046E1688847002874D057
:10090000252806D0D4E901219047206A401C2062A6
:10091000F1E700265F462046E16888472028054623
:1009200007DB312D05D2781910F8200C08B10643E9
:10093000F1E7B00701D526F00406C4F81CA0002793
:10094000C4F818A02A2D09D028460EF08CF938B327
:1009500004EB8708303DC8F8185019E059F8041B1B
:10096000204604EB87029161E1688847012F054624
:1009700018D1E069002820DA26F020061DE0D8F81A
:10098000180000EB800005EB40003038C8F8180074
:100990002046E168884705460EF065F90028EED14B
:1009A000012F0AD02E2D08D12046E16888477F1CF0
:1009B0000546022F46F02006C4DBA069002803DAB2
:1009C000404246F00106A061F00701D026F0100673
:1009D0006C2D0BD0682D09D04C2D39D06A2D35D017
:1009E000742D35D07A2D33D016E038E0E1682F46EB
:1009F00020468847B842054609D16C2F26D04FF4CF
:100A00008060E168064320468847054604E06C2F75
:100A10001AD04FF4807006430DB3A5F14100192898
:100A200002D8203546F400664A462946204626600C
:100A30004E46FFF7E3FB80B101280BD0F61D26F0F0
:100A4000070000F1080956E74020E4E78020D8E7D6
:100A50000020D6E706F104094DE7284652E7206A50
:100A6000BDE8F09F8CE9000010B5002000F00BFD00
:100A7000FFF728FCBDE81040012000F02FB82DE959
:100A8000F041074615460E46102000F031F80400EC
:100A90000AD06760C4E9026500F026F801682160A9
:100AA00004600020BDE8F0810120FBE780E8FF1F23
:100AB000C0F834D0C0F838E0C0F83CE04FF0000097
:100AC000704700BF80EC200B704700BF80EC200B0C
:100AD000704700BFC0EC200B704700000149182090
:100AE000ABBEFEE726000200004870475000002021
:100AF00070B5064600F07CFD056806F10B0020F09D
:100B00000704B4429CBF002070BD2B466A68BAB18E
:100B10001068A04210D304F1080188423CBF50681D
:100B2000586007D35168101941601168091B0160B2
:100B300058601460101D70BD13465268002AE7D13A
:100B40002146284600F060FD0028DED170BD30B59A
:100B5000B0F10A0271F100034FEA900E4EEA817E75
:100B6000B0EB0E0061EB91014FEA101E4EEA017EE0
:100B700010EB0E0041EB11114FEA102E4EEA016E00
:100B800010EB0E0041EB11214FEA104E4EEA014EE0
:100B900010EB0E0041EB1141401841F100014FEA0A
:100BA000D00040EA41704FEAD1014FEA810444EAA3
:100BB000907410EB800544EB01046D1944EB0404C0
:100BC000521BA3414FF0000348BF0A3200D530BD8D
:100BD000401C41F1000130BD2DE9F0470D4699461A
:100BE0009246044600F124080168880604D5E069AD
:100BF00021F01001216000E00120A84201DD471B27
:100C000000E00027A1697A1902EB0900081AA06127
:100C10002078C00602D42046FFF774FC002608E0C6
:100C2000D4E901211AF806009047206A401C761C7E
:100C300020624E45F4DB2078C0060AD52046FFF737
:100C400061FC06E0D4E9012130209047206A401C75
:100C50002062381EA7F10107F4DC07E0D4E9012186
:100C600018F805009047206A401C2062281EA5F154
:100C70000105F3DC2046FFF75BFC2078000602D577
:100C80000220BDE8F0870120FBE770472DE9FF4F08
:100C90000C461E464FF0FF378BB0D2E90001DDF85D
:100CA00060800A908A46C1F30A5505B93D46002185
:100CB00008464FF00000BAF1000F00F4400005DADA
:100CC00000EB80004FF4400101EA50004FEA9059D8
:100CD000B9F1010F00DDB9460A9850EA4A000ED07A
:100CE00044F61050A5F2FF3545432F14B8F1000F1C
:100CF0001ED07542291E1EDDC9F100021CE0B8F1AC
:100D0000010F4FF0000001D0302103E0F24305E075
:100D10002154401CB042FBDB30460022002121540C
:100D20000B99C1F80880C1E900200FB0BDE8F08F31
:100D3000BD1B6D1CDEE74A4600DA694206A800F0DA
:100D400029FD06AB93E8070003AB83E80700504694
:100D50000A990DF0A8FB8DE80700A0F500501F3898
:100D600000900398002D0ADD42F21F014A46084414
:100D7000002303A9039068460DF011FE09E0A0F5D9
:100D800000504A461F38002303A9039068460DF01F
:100D90001BFE8DE807000004000C03D04FF0FF306D
:100DA000410800E01046B8F1000F03D00022009285
:100DB00015461EE0751E05D4FFF7C9FE3032625598
:100DC0006D1EF9D5B3460122084302D000227F1CD4
:100DD00004E02078302801D100227F1E002A0997E4
:100DE00084D01DE0112D07DAFFF7B1FE30326255D5
:100DF0006D1C50EA0102F5D1084302D00098C8B139
:100E00000EE00021681E05E0235C625C63542254FE
:100E1000401E491C8142F7DBAB46A81B401E0990CF
:100E2000002004F80B000B98099AC0F80880C0E96C
:100E3000002B7AE711264FF0000857E72DE9F04F15
:100E400088460446D21D22F0070191B0D1E9000185
:100E5000CDE90A010DF0EFFE02460B98C00F01D05C
:100E60002D2007E02068810701D52B2002E02021FA
:100E700001EAC000032A099001D0072A05DB0346D6
:100E80004146204600F046FC0BE12078800601D563
:100E9000E06900E00620B8F1650F814606D0B8F1A0
:100EA000660F18D0B8F1670F70D131E00020B9F1AA
:100EB000110F009001DB112301E009F101030AAADF
:100EC00001A90CA8FFF7E2FEDDE90C70002609F18C
:100ED0000105834647E001204B4600904FF0004754
:100EE0000AAA01A90CA8FFF7D1FEDDE90DB00C9903
:100EF0005D46002610B909F101000D18B9EB050097
:100F000003D4C0F1FF3609F10105A5EB09002BE080
:100F1000B9F1010F01DA4FF001090020B9F1110F09
:100F20000090484601DD112300E003460AAA01A90A
:100F30000CA8FFF7ABFEDDE90C704D46002683469A
:100F4000207800070AD4AB4500DA5D4601A8012DE0
:100F500004DD411911F8011C302907D04F4502DA90
:100F600017F1040F04DA012082460FE06D1EEEE750
:100F7000002F02DCED1B3E4403E0781CA84200DD9C
:100F80007D1CB81B00F1010A4FF0004720780007D4
:100F900003D4AA4501DB4FF0FF3A0021B7F1004F1F
:100FA0000DF143088DF8431024D002202B23002F8D
:100FB00001DA7F422D230A21021EA0F1010000DC8C
:100FC0005FB197FBF1FC97FBF1F201FB1C7C17462C
:100FD0000CF1300C08F801CDEEE7A8F10100037028
:100FE0002188090501D5452100E06521A0F101080E
:100FF00000F8011C09980FA9A1EB0807FF1D00B11B
:101000000120411901EBEA70A1693844081A401E19
:10101000A0612078C00602D42046FFF773FA099831
:1010200028B1D4E901219047206A401C2062207831
:10103000C00622D52046FFF765FA1EE0002E04DB2D
:10104000B34502DD01A8805D00E03020D4E9012134
:101050009047206A401C2062761CAAF101005FEADA
:10106000000A0AD100F0C8FAC0680168405CD4E9FF
:1010700001219047206A401C2062281EA5F101052D
:10108000DCDC07E0D4E9012118F8010B9047206A65
:10109000401C2062381EA7F10107F3DC2046FFF751
:1010A00047FA032011B041E62DE9F04F04460D4602
:1010B000D21D22F0070089B0D0E900974846394692
:1010C0000DF0B9FD0246F80F01D02D2307E020688E
:1010D000810701D52B2302E0202101EAC0038DF80E
:1010E00020300BB1012000E00020032A824601D00D
:1010F000072A04DB2946204600F00CFB3FE120785C
:10110000800601D40D2500E0E569C7F30A560D2DD0
:1011100049DA00214FEA175B08464FF00000002F24
:1011200000F4400007DA00EB80004FF4400100EBD0
:10113000D07001EA60008115012901DD4FF0FF3117
:1011400000224FEA850CBCF1180F06D31346ACF110
:1011500018004FF08052C24003E04FF4801323FA8E
:101160000CF30CF10C0CBCF1200F04D3ACF1200CEF
:1011700009FA0CF001E007FA0CF000294FF00048E2
:1011800001DD18B90FE00ED140450CD319EB02096F
:101190005F4121B9404502D19F4329EA0209BBEBD7
:1011A000175F00D0761C2088000502D57B48784464
:1011B00002E07A487844193808AA302302F80A3045
:1011C000037C0AF10101002E0AF1020A53546A4617
:1011D00002DC4FF0300101E04FF031014FF0010827
:1011E0008DF8001002D0A6F2FF3603E059EA47015D
:1011F00000D06B4E002D02DC2178090704D54FF09A
:1012000002082E218DF80110C44600210BE0C7F31F
:1012100003433F01C35C491C6D1E02F808300529D9
:1012200008F1010801DA002DF1DC00210CE000EBEF
:101230001973491C1B786D1E082902F808304FEA03
:10124000091908F1010801DA002DF0DC21688B068C
:1012500002D516E0A8F10108E04505DD02EB080320
:1012600013F8013C302BF5D0B8F1000F09DD02EB8B
:10127000080313F8013C2E2B03D1090701D4A8F170
:101280000108002D05DD3E2102F808106D1E08F151
:101290000108407C002E02F8080008F1010804DA79
:1012A0002D20764202F8080002E02B2002F8080008
:1012B0000A214FF47A70864208F101080BDB96FB95
:1012C000F0F3303302F8083096FBF0F308F1010830
:1012D00000FB136601E0642E0CDB642096FBF0F348
:1012E000303302F8083096FBF0F308F1010800FBF8
:1012F000136601E00A2E06DB96FBF1F0303002F8AF
:10130000080008F1010896FBF1F001FB1060303095
:1013100002F80800A16908F1010808EB050202EBD8
:101320000A00081AA0612078C00602D42046FFF700
:10133000E9F8216A08AE01EB0A00206204E0D4E972
:10134000012116F8010B9047BAF1010AF7D2207873
:10135000C00602D52046FFF7D5F86E4609E016F81C
:10136000010B3E280FD0D4E901219047206A401C90
:101370002062B8F10108F2D22046FFF7D9F809B08F
:101380000320BDE8F08F206A2844206203E0D4E9FE
:101390000121302090476D1EEBD3F8E7F2E000000A
:1013A00002FCFFFF10B5436913B1AFF3008001E009
:1013B000FFF7E1F8012010BD127800F124010A7056
:1013C00000224A700122EDE711684FF0FF32E9E791
:1013D00010B5436913B1AFF3008001E0FFF762F984
:1013E000012010BD128800F1240182840022C284F1
:1013F0000122EDE711684FF0FF32E9E72DE9F041F6
:1014000016460C46054600F0EBF8036893F8010118
:10141000012807D0FF2C12D8185D80B101202C7054
:10142000BDE8F081D3F807013246214603F20713E5
:10143000C7182846BC46BDE8F041002360474FF07E
:10144000FF30EDE72DE9F0410646FFF74DFB804602
:10145000454613E016B1E068B0420ED1206828601E
:10146000D4E90101D8F800708847204600F02AF935
:10147000D8F80000B842EBD100E025462C68002CDB
:10148000E8D1BDE8F08110B500F004FABDE81040E5
:1014900000F0FBB9032A40F2308010F0030C00F09A
:1014A000158011F8013BBCF1020F624498BF11F89E
:1014B00001CB00F8013B38BF11F8013BA2F1040257
:1014C00098BF00F801CB38BF00F8013B11F00303CF
:1014D00000F0F881083AC0F0088051F8043B083A5F
:1014E00051F804CBA0E80810F5E7121D5CBF51F8D5
:1014F000043B40F8043BAFF30080D20724BF11F84F
:10150000013B11F801CB48BF11F8012B24BF00F8B3
:10151000013B00F801CB48BF00F8012B70474FF0AA
:1015200000020429C0F0128010F0030C3EF4B0AFAA
:10153000CCF1040CBCF1020F18BF00F8012BA8BFBE
:1015400020F8022BA1EB0C01FEF7A2BF5FEAC17CE1
:1015500024BF00F8012B00F8012B48BF00F8012B35
:101560007047000086469EE8FF1FDEF834D0DEF8A4
:101570003CE0704790EC200B704700BF90EC200BD4
:10158000704700BFD0EC200B704700000048704748
:101590001800002070477546FFF7F8FFAE460500BB
:1015A0006946534620F00700854618B020B5FEF77F
:1015B000ADFEBDE820404FF000064FF000074FF0B1
:1015C00000084FF0000BAC46ACE8C009ACE8C0091D
:1015D000ACE8C009ACE8C00921F007018D467047AE
:1015E00010B500F009F8001D10BD00BFB5D6000011
:1015F0000048704720000020004870473800002055
:10160000704770477047704738B504460A46002057
:101610006946AFF30080002808BF38BD0246009934
:10162000204600F051FA012038BD012000F07FBAB9
:10163000F8B5AFF30080054600200C46102000BF2F
:101640000646A819A0420DD9324669460020AFF3DC
:101650000080070008BF00F06AFA0098A04218BF97
:101660000546C419FFF7C4FF05600746F01D20F0CA
:1016700007004619284600F01EF8B44208BFF8BD1E
:10168000A21B31463868BDE8F84000F01DBA70B5BD
:10169000A0FB0140B4F1805170F1000024BF002094
:1016A00070BD2046FFF724FA05001CBF2146FFF756
:1016B00036FF284670BD00210160C0E90110704767
:1016C0001020704770B50446051FFFF791FF0068B2
:1016D000002C14BF446870BD002C18BFAC423CBF46
:1016E00020466468F8D301680A18AA4218BF45600A
:1016F00003D12A6805461144016028684119A142B6
:101700001CBF6C6070BD6168696021680844286016
:1017100070BD00002DE9F0411F4604460326016814
:10172000072A01F4006004DB08B116A505E016A540
:1017300003E008B115A500E015A521F01000206018
:10174000A069C01EA0610FB1401EA0612046FEF737
:10175000D9FE4FB1D4E9012138469047206A401C98
:101760002062C01C206206E0206AFAE7D4E9012169
:1017700015F8010B9047761EF8D22046FEF7D8FEEA
:10178000BDE8F0814E414E006E616E00494E46004C
:10179000696E66002DE9F047814616468AB03548E5
:1017A00078440DC88DE80D0032487844801C03ACA5
:1017B0000DC884E80D0041F69B300844372190FBAA
:1017C000F1F290FBF1F5A5F1800501FB12041B3C41
:1017D00002D56442012000E00020DFF898A0804696
:1017E0000027FA44AAF1BE0A0EE0E0070AD032460A
:1017F000684607EB470101230AEB81010DF0E4F88D
:101800008DE8070064107F1C002CEED1194F7F4437
:10181000AE3F19E0E80715D007EB04100DF1180AE8
:1018200090E80E008AE80E00C068F04201D19819D5
:1018300008903246012306A903A80DF0C5F803ABB2
:1018400083E807006D10641C002DE3D14FF0010305
:1018500032466946B8F1000F03A802D00DF09FF898
:1018600001E00DF0B1F8C9E90001C9F808200AB09B
:10187000BDE8F08790DB000010B50446AFF30080B0
:101880002046BDE81040FEF72BBD002801D0FFF731
:1018900025B9704710B5002102A000F02FF90120F2
:1018A00010BD0000534947414252543A2041626EF4
:1018B0006F726D616C207465726D696E6174696FB1
:1018C0006E00000010B5203AC0F00B80B1E818504F
:1018D000A0E81850B1E81850A0E81850203ABFF41A
:1018E000F5AF5FEA027C24BFB1E81850A0E81850B9
:1018F00044BF18C918C0BDE810405FEA827C24BF0D
:1019000051F8043B40F8043B08BF7047D20728BF9A
:1019100031F8023B48BF11F8012B28BF20F8023BE9
:1019200048BF00F8012B704730B44FF0013C50F82D
:10193000042B51F8043BCCFA52F4D51A20D1FCB94F
:1019400050F8042B51F8043BCCFA52F4D51A17D1B5
:10195000B4B950F8042B51F8043BCCFA52F4D51A20
:101960000ED16CB950F8042B51F8043BCCFA52F468
:10197000D51A05D1002CDAD030BC4FF000007047EA
:1019800029BAB1FA81F111F01801D1F12000844097
:10199000F2D1CA40CB4012F0FF0213F0FF0330BC7B
:1019A000D01A70472DE9FE4F00274FF48074BA46D5
:1019B00020468DF80070FFF79BF85FEA000801D120
:1019C00000F0B5F82146404600F070F8060009D056
:1019D0004FF0010B4546C14616F8014B8FB15C2C08
:1019E00016D01CE008F108004146C8F800000020AD
:1019F000C8F80400D8F800402070012003B0BDE80A
:101A0000F08F222C01D0272C0FD12746BA462CE08C
:101A10003078222807D05C2805D0272803D0BC4284
:101A200003D1002721E0761C04464CB12FB9202CAD
:101A300006D0A4F10900042802D905F8014BCBE730
:101A40004D4502D1BAF1000F0FD052464946002051
:101A500005F8010B6846AFF300809DF8000068B1FF
:101A60004D464FF0000A0BF1010B002CB4D14FEAA8
:101A70008B00FFF73DF8040002D004E0A946F0E730
:101A8000002000F054F800264046C4F8008005E02D
:101A900010F8011B11B9761C44F82600A842F7D3B0
:101AA0002146002044F826003046A7E71CB504462E
:101AB000CDE9000169461520ABBE08B100201CBD70
:101AC00020461CBD70477047034640688C4600287E
:101AD00018BF88423CBF03464068F8D318681844D2
:101AE000884207D00CF1030020F00700001D411AC6
:101AF000521A0146081D0A60FFF7E4BD70B505469D
:101B00000C460A2000E06D1C00F018F835B128786A
:101B10000028F8D102E0641C00F010F814B120781D
:101B20000028F8D1BDE870400A2000F007B810B5D1
:101B300000F00CF8BDE81040FFF7A7BE08B56946F5
:101B40008DF800000320ABBE08BD000010B50128D1
:101B500005D0002103A0FFF7D1FF012010BD09A18E
:101B6000F8E7000053494752544D454D3A204F7510
:101B700074206F662068656170206D656D6F727985
:101B8000000000003A2048656170206D656D6F723D
:101B90007920636F7272757074656400FFE7FEE709
:101BA000B0B588B09C4696460C460546079006910F
:101BB0000592049307980068016821F48021016070
:101BC0000498079909684860079880684028CDF80C
:101BD0000CC0CDF808E00194009509D1FFE7059805
:101BE000079909688860069807990968C86008E03D
:101BF0000698079909688860059807990968C86078
:101C0000FFE708B0B0BD00007047000072B6FFE704
:101C1000FEE7000080B586B0014604900498806D10
:101C20000390019100F0ACFC0290049890F835000C
:101C300002280DD0FFE7049880214165FFE7049852
:101C4000002180F83410FFE701208DF817005BE0D9
:101C500004980068016821F016010160049800688A
:101C6000416921F0800141610498006C002805D190
:101C7000FFE70498806C002807D0FFE7049800680D
:101C8000016821F008010160FFE70498006801681D
:101C900021F001010160FFE704980068006810F07E
:101CA000010F1BD0FFE700F06BFCDDF808E0A0EBB4
:101CB0000E00062811D3FFE70498202141650498FF
:101CC000032180F83510FFE70498002180F83410D4
:101CD000FFE703208DF8170016E0DDE70498C06DDC
:101CE0003F2101FA00F0039988600498012180F8EF
:101CF0003510FFE70498002180F83410FFE7FFE774
:101D000000208DF81700FFE79DF8170006B080BD92
:101D100083B001460190019890F8350002280091A7
:101D200007D0FFE701988021416501208DF80B0065
:101D30000EE00198052180F83510019800680168CF
:101D400021F001010160FFE700208DF80B00FFE7A3
:101D50009DF80B0003B0704780B58EB013468C46DB
:101D600086460C908DF82F100A9200208DF82700DF
:101D70000493CDF80CC0CDF808E000F001FC07900A
:101D80000C9890F8350002280DD0FFE70C988021C0
:101D90004165FFE70C98002180F83410FFE701202F
:101DA0008DF83700F5E00C980068006810F4807F2B
:101DB00008D0FFE70C984FF48071416501208DF841
:101DC0003700E6E09DF82F00002807D1FFE70C98C8
:101DD000C06D202101FA00F0089006E00C98C06D5B
:101DE000102101FA00F00890FFE70C98806D059033
:101DF000059800680690FFE70698089900220842B7
:101E0000019207D1FFE70C98406D012121EA000003
:101E10000190FFE70198C00700286CD0FFE70A98FF
:101E20000130002821D0FFE70A9800280BD0FFE7F7
:101E300000F0A6FBDDF81CE0A0EB0E00DDF828E0CA
:101E4000704511D9FFE70C98202141650C980121BC
:101E500080F83510FFE70C98002180F83410FFE778
:101E600003208DF8370094E0FFE70598006806909E
:101E700006980C99C96D082202FA01F108420DD0AA
:101E8000FFE70C98416D41F0010141650C98C06D70
:101E9000082101FA00F005998860FFE706980C997F
:101EA000C96D012202FA01F108420DD0FFE70C983A
:101EB000416D41F0020141650C98C06D012101FAAC
:101EC00000F005998860FFE706980C99C96D042217
:101ED00002FA01F108420DD0FFE70C98416D41F084
:101EE000040141650C98C06D042101FA00F00599C8
:101EF0008860FFE780E70C98406D002825D0FFE759
:101F00000C98406D10F0010F1ED0FFE70C98FFF702
:101F100081FEDDF830E0DEF85CE0302101FA0EF100
:101F2000DDF814E0CEF808100C994FF0010E81F89E
:101F300035E00090FFE70C98002180F83410FFE7AF
:101F400001208DF8370024E0FFE79DF82F000028DE
:101F500012D1FFE70C98C06D302101FA00F005990D
:101F600088600C98012180F83510FFE70C9800215B
:101F700080F83410FFE707E00C98C06D102101FADB
:101F800000F005998860FFE79DF827008DF837007D
:101F9000FFE79DF837000EB080BD0000B0B58AB0F5
:101FA0009C4696460C460546089007910692059376
:101FB00000208DF81300CDF80CC0CDF808E0019496
:101FC0000095FFE7089890F83400012804D1FFE756
:101FD00002208DF827002EE00898012180F83410A7
:101FE000FFE7FFE7089890F83500012814D1FFE7D4
:101FF0000898022180F8351008980021416508985A
:102000000799069A059BFFF7CBFD089800680168C1
:1020100041F00101016009E0FFE70898002180F824
:102020003410FFE702208DF81300FFE79DF813003E
:102030008DF82700FFE79DF827000AB0B0BD00002B
:10204000B0B58CB09C4696460C4605460A90099160
:102050000892079300208DF81B000A98806D059068
:10206000CDF810C0CDF80CE002940195FFE70A9876
:1020700090F83400012804D1FFE702208DF82F00EA
:1020800047E00A98012180F83410FFE7FFE70A983B
:1020900090F8350001282DD1FFE70A98022180F839
:1020A00035100A98002141650A980999089A079BFA
:1020B000FFF776FD0A98C06D3F2101FA00F00599FF
:1020C00088600A980068016841F0160101600A986A
:1020D000006C002807D0FFE70A980068016841F00B
:1020E00008010160FFE70A980068016841F00101FA
:1020F000016009E0FFE70A98002180F83410FFE74B
:1021000002208DF81B00FFE79DF81B008DF82F00C3
:10211000FFE79DF82F000CB0B0BD000080B584B083
:1021200001460390009100F02BFA02900398019071
:1021300001980130002809D0FFE740F20C00C2F2FC
:1021400000000078019908440190FFE7FFE700F0E4
:1021500017FADDF808E0A0EB0E00DDF804E07045AA
:1021600001D2FFE7F3E704B080BD000091B00A465A
:10217000034610900F9100200D900C900B900E9044
:1021800009920893FFE70E980F2800F2D581FFE728
:102190000E98012101FA00F00D900F9800680D993A
:1021A00008400C900C980D99884240F0C081FFE7E0
:1021B0000F98406800F00300012807D0FFE70F9850
:1021C000406800F0030002282FD1FFE710988068D4
:1021D0000B900E984000032101FA00F00B9921EAC0
:1021E00000000B900F98C0680E99490088400B9929
:1021F00008430B900B9810998860109840680B90DA
:102200000E98012101FA00F00B9921EA00000B90D1
:102210000F984068C0F300100E9988400B9908434E
:102220000B900B9810994860FFE70F98406800F0FA
:102230000300032818D0FFE71098C0680B900E9891
:102240004000032101FA00F00B9921EA00000B90F5
:102250000F9880680E99490088400B9908430B90AD
:102260000B981099C860FFE70F98406800F00300D2
:10227000022828D1FFE710980E994FF6FC72C7F696
:10228000FF7202EA51010844006A0B900E9800F0B8
:10229000070080000F2101FA00F00B9921EA0000ED
:1022A0000B900F9800690E9901F007018900884092
:1022B0000B9908430B900B9810990E9B02EA53025E
:1022C00011440862FFE7109800680B900E984000D8
:1022D000032101FA00F00B9921EA00000B900F98FE
:1022E000406800F003000E99490088400B990843AC
:1022F0000B900B98109908600F9880798007002840
:1023000000F01481FFE7FFE700200A9043F6440045
:10231000C4F20200016841F480410160006800F4E9
:1023200080400A900A980790FFE70E9820F003007B
:1023300043F60801C4F2010140580B900E9800F0DA
:10234000030080000F2101FA00F00B9921EA000040
:102350000B9010980021C4F20201884203D1FFE7DC
:10236000002006905EE0109840F20041C4F20201A5
:10237000884203D1FFE70120059050E0109840F615
:102380000001C4F20201884203D1FFE70220049059
:1023900042E0109840F60041C4F20201884203D1A5
:1023A000FFE70320039034E0109841F20001C4F2EB
:1023B0000201884203D1FFE70420029026E0109832
:1023C00041F20041C4F20201884203D1FFE7052037
:1023D000019018E0109841F60001C4F20201884211
:1023E00003D1FFE7062000900AE0109841F6004173
:1023F000C4F202010822884208BF07220092FFE7C8
:1024000000980190FFE701980290FFE7029803907F
:10241000FFE703980490FFE704980590FFE705980D
:102420000690FFE70698C0B20E9901F003018900FB
:1024300088400B9908430B900B980E9921F00301EB
:1024400043F60802C4F20102885043F60840C4F281
:10245000010000680B900C980B9921EA00000B908A
:102460000F988079C006002805D5FFE70C980B99D6
:1024700008430B90FFE70B9843F60841C4F20101B3
:10248000086043F60C40C4F2010000680B900C9801
:102490000B9921EA00000B900F98807980060028A4
:1024A00005D5FFE70C980B9908430B90FFE70B98B5
:1024B00043F60C41C4F20101086043F60440C4F243
:1024C000010000680B900C980B9921EA00000B901A
:1024D0000F9880798007002805D5FFE70C980B99A5
:1024E00008430B90FFE70B9843F60441C4F2010147
:1024F000086043F60040C4F2010000680B900C989D
:102500000B9921EA00000B900F988079C0070028F2
:1025100005D0FFE70C980B9908430B90FFE70B9849
:1025200043F60041C4F201010860FFE7FFE7FFE75F
:102530000E9801300E9026E611B0704780B585B038
:1025400013468C4686460490ADF80E108DF80D208B
:102550009DF80D0000280293CDF804C0CDF800E0EE
:1025600005D0FFE7BDF80E000499886105E0BDF8CD
:102570000E00000404998861FFE705B080BD0000EB
:1025800040F23840C2F200000068704740F20C0090
:10259000C2F200000078704740F21000C2F2000062
:1025A0000068704780B584B0014602900298002808
:1025B000019104D1FFE701208DF80F0042E002985D
:1025C00090F84100002808D1FFE70298002180F828
:1025D0004010029806F076FDFFE70298242180F86B
:1025E000411002980068C16821F40051C16002984E
:1025F00008F06CFD02980068016921F490410161C6
:1026000002980068416921F0220141610298006846
:10261000416941F00801416102980068C16841F4D4
:102620000051C16002980021416402984FF0200ED1
:1026300080F841E0029880F842E0029841638DF80A
:102640000F10FFE79DF80F0004B080BD40F20C00B2
:10265000C2F20000007840F23841C2F200010A687C
:10266000104408607047000080B582B043F6004017
:10267000C4F20200016841F400710160016841F494
:1026800080610160016841F480710160032000F005
:102690007BF90F2000F006F8019000F0A5F800206B
:1026A00002B080BD80B584B00146029040F20000C7
:1026B000C2F20000006840F20C02C2F2000212787E
:1026C0004FF47A73B3FBF2F2B0FBF2F0019100F039
:1026D000C3FE002804D0FFE701208DF80F0018E0AA
:1026E00002980F280DD8FFE702994FF0FF30002223
:1026F00000F026F9029840F21001C2F200010860D1
:1027000003E001208DF80F0003E000208DF80F009A
:10271000FFE79DF80F0004B080BD000080B586B0D3
:102720000A460346049003910498002802920193FC
:1027300004D1FFE701208DF8170050E0049890F8CD
:102740004100002808D1FFE70498002180F84010DC
:10275000049806F0B7FCFFE70498242180F84110A4
:1027600004980068C16821F40051C160049808F021
:10277000ADFC04980068016921F4006101610498CE
:102780000068416921F02A014161049800680169EB
:1027900041F48041016104980068016921F0200141
:1027A0000161039804990968D1F810E040EA0E002D
:1027B000086104980068C16841F40051C160049840
:1027C0000021416404984FF0200E80F841E0049805
:1027D00080F842E0049841638DF81710FFE79DF8F8
:1027E000170006B080BD000084B0FFE70020039012
:1027F00043F64400C4F20200016841F480410160E4
:10280000006800F48040039003980190FFE7FFE721
:102810000020029043F64000C4F20200016841F03B
:1028200080510160006800F0805002900298009092
:10283000FFE704B07047000080B588B013468C46AF
:10284000864606908DF81710049206980028039388
:10285000CDF808C0CDF804E004D1FFE701208DF8E1
:102860001F0059E0069890F84100002808D1FFE7C2
:102870000698002180F84010069806F023FCFFE738
:102880000698242180F8411006980068C16821F458
:102890000051C160069808F019FC069800680169AB
:1028A00021F49041016106980068416921F02A01F4
:1028B000416106980068016921F00F0101619DF8EE
:1028C000170006990968D1F810E040EA0E00086187
:1028D00006980068C16821F40061C16004980699F7
:1028E0000968D1F80CE040EA0E00C860069800685C
:1028F000C16841F40051C160069800214164069806
:102900004FF0200E80F841E0069880F842E00698EB
:1029100041638DF81F10FFE79DF81F0008B080BDD0
:1029200080B582B001468DF807009DF9070000913F
:102930000BF0A0F802B080BD80B50BF0B7F880BDF9
:1029400080B58AB013468C4686468DF827000891DC
:102950000792002006900593CDF810C0CDF80CE04A
:102960000BF0A4F8069006980899079A9DF927306D
:10297000029306F0D1FF02990190084601990BF0ED
:102980009DF80AB080BD000080B582B0014601907C
:10299000019800910BF0B8F802B080BD80B588B006
:1029A0000A46034606900591069800280392029372
:1029B00004D1FFE701208DF81F0026E1059843F6BA
:1029C0000041C4F20201096801F00701884212D9EE
:1029D000FFE7059843F60041C4F202010870086859
:1029E00000F007000599884204D0FFE701208DF828
:1029F0001F000AE1FFE706980068800700282AD533
:102A0000FFE7069800684007002809D5FFE743F66E
:102A10000800C4F20200016841F4E0510160FFE7E0
:102A2000069800680007002809D5FFE743F608006C
:102A3000C4F20200016841F460410160FFE743F61F
:102A40000800C4F20200016821F0F001069A9268C1
:102A500011430160FFE706980068C007002870D0A6
:102A6000FFE706984068012811D1FFE743F6000010
:102A7000C4F20200006800F400300021B1EB504FB6
:102A800004D1FFE701208DF81F00BEE02CE006987E
:102A90004068022805D0FFE706984068032811D156
:102AA000FFE743F60000C4F20200006800F0007087
:102AB0000021B1EB506F04D1FFE701208DF81F001A
:102AC000A3E010E043F60000C4F20200006800F04A
:102AD00002000021B1EB500F04D1FFE701208DF877
:102AE0001F0092E0FFE7FFE743F60800C4F2020090
:102AF000016821F00301069A526811430160FFF753
:102B00003FFD0490FFE743F60800C4F202000068AE
:102B100000F00C0006994968B0EB810F10D0FFE778
:102B2000FFF72EFDDDF810E0A0EB0E0041F2893E2C
:102B3000704504D3FFE703208DF81F0065E0E2E74E
:102B4000FFE7059843F60041C4F20201096801F06D
:102B50000701884212D2FFE7059843F60041C4F20C
:102B600002010870086800F007000599884204D047
:102B7000FFE701208DF81F0047E0FFE70698006897
:102B8000400700280CD5FFE743F60800C4F2020016
:102B9000016821F4E051069AD26811430160FFE711
:102BA00006980068000700280DD5FFE743F60800E7
:102BB000C4F20200016821F46041069A126941EAF8
:102BC000C2010160FFE700F053F843F6080EC4F2BB
:102BD000020EDEF800E0CEF3031E4FF24C31C0F6D9
:102BE000000111F80E10C84040F20001C2F20001CD
:102BF000086040F21000C2F200000068FFF752FDCA
:102C000000218DF81F100190FFE79DF81F0008B00C
:102C100080BD000040F20000C2F200000068704772
:102C200080B5FFF7F7FF43F6080EC4F2020EDEF898
:102C300000E0CEF3822E4FF25C31C0F6000111F8B5
:102C40000E10C84080BD000080B5FFF7E3FF43F6DB
:102C5000080EC4F2020EDEF800E0CEF3423E4FF260
:102C60005C31C0F6000111F80E10C84080BD0000B4
:102C700080B586B00020059004900390029043F642
:102C80000800C4F20200006800F00C0001460028B1
:102C9000019108D0FFE7019804280AD0FFE70198C6
:102CA00008280CD04FE042F20040C0F2F40002903D
:102CB0004FE047F64000C0F27D10029049E043F635
:102CC0000400C4F20200016801F03F0105910068B0
:102CD00010F4800F13D0FFE743F60400C4F20200A3
:102CE0000068C0F3881047F64001C0F27D11A0FBD8
:102CF0000101059A0023FDF71BFB049012E043F647
:102D00000400C4F202000068C0F3881042F20041DF
:102D1000C0F2F401A0FB0101059A0023FDF708FBB6
:102D20000490FFE743F60400C4F20200006800F4D8
:102D30004030022101EBD030039004980399B0FB9E
:102D4000F1F0029005E042F20040C0F2F40002907F
:102D5000FFE7029806B080BD80B588B001460690B6
:102D600006980028019104D1FFE701208DF81F008B
:102D70006EE306980068C007002800F0AB80FFE70C
:102D800043F60800C4F20200006800F00C000428BA
:102D900013D0FFE743F60800C4F20200006800F019
:102DA0000C0008281FD1FFE743F60400C4F202001C
:102DB000006810F4800F16D0FFE743F60000C4F25D
:102DC0000200006800F400300021B1EB504F09D040
:102DD000FFE706984068002804D1FFE701208DF83E
:102DE0001F0035E375E0FFE706984068B0F5803FC7
:102DF00009D1FFE743F60000C4F20200016841F484
:102E00008031016020E006984068B0F5A02F0DD118
:102E1000FFE743F60000C4F20200016841F480219C
:102E20000160016841F4803101600CE043F600006C
:102E3000C4F20200016821F480310160016821F4CC
:102E400080210160FFE7FFE7FFE706984068002860
:102E50001FD0FFE7FFF794FB0590FFE743F6000064
:102E6000C4F20200006800F400300021B1EB504FC2
:102E70000ED1FFE7FFF784FBDDF814E0A0EB0E00B6
:102E8000652804D3FFE703208DF81F00E0E2E5E7A3
:102E90001EE0FFF775FB0590FFE743F60000C4F264
:102EA0000200006800F400300021B1EB504F0ED05A
:102EB000FFE7FFF765FBDDF814E0A0EB0E006528E7
:102EC00004D3FFE703208DF81F00C1E2E5E7FFE729
:102ED000FFE7FFE7069800688007002840F19B8025
:102EE000FFE743F60800C4F20200006810F00C0F80
:102EF00013D0FFE743F60800C4F20200006800F0B8
:102F00000C0008282CD1FFE743F60400C4F20200AD
:102F1000006810F4800F23D1FFE743F60000C4F2ED
:102F20000200006800F002000021B1EB500F09D050
:102F3000FFE70698C068012804D0FFE701208DF85C
:102F40001F0085E243F60000C4F20200016821F090
:102F5000F801069A126941EAC2010160FFE759E0EF
:102F60000698C068002830D0FFE70020C4F2472050
:102F700001210160FFF704FB0590FFE743F6000025
:102F8000C4F20200006800F002000021B1EB500F13
:102F90000ED1FFE7FFF7F4FADDF814E0A0EB0E0026
:102FA000032804D3FFE703208DF81F0050E2E5E774
:102FB00043F60000C4F20200016821F0F801069A0D
:102FC000126941EAC201016023E00020C4F24720F7
:102FD00000210160FFF7D4FA0590FFE743F60000F7
:102FE000C4F20200006800F002000021B1EB500FB3
:102FF0000ED0FFE7FFF7C4FADDF814E0A0EB0E00F7
:10300000032804D3FFE703208DF81F0020E2E5E743
:10301000FFE7FFE7FFE7069800680007002850D5A4
:10302000FFE706984069002825D0FFE740F680605A
:10303000C4F2472001210160FFF7A2FA0590FFE7E3
:1030400043F67400C4F20200006800F002000021A0
:10305000B1EB500F0ED1FFE7FFF792FADDF814E065
:10306000A0EB0E00032804D3FFE703208DF81F0018
:10307000EEE1E5E724E040F68060C4F2472000215D
:103080000160FFF77DFA0590FFE743F67400C4F294
:103090000200006800F002000021B1EB500F0ED0DA
:1030A000FFE7FFF76DFADDF814E0A0EB0E00032850
:1030B00004D3FFE703208DF81F00C9E1E5E7FFE730
:1030C000FFE7069800684007002840F1D680FFE738
:1030D00000208DF80F0043F64000C4F202000068A3
:1030E00010F0805F16D1FFE7FFE70020029043F663
:1030F0004000C4F20200016841F0805101600068A4
:1031000000F08050029002980090FFE701208DF8B7
:103110000F00FFE747F20000C4F20000006810F45F
:10312000807F24D1FFE747F20000C4F2000001686D
:1031300041F480710160FFF723FA0590FFE747F241
:103140000000C4F20000006810F4807F0ED1FFE799
:10315000FFF716FADDF814E0A0EB0E00032804D305
:10316000FFE703208DF81F0072E1E8E7FFE7FFE7C4
:1031700006988068012809D1FFE743F67000C4F281
:103180000200016841F0010101601FE006988068BB
:1031900005280DD1FFE743F67000C4F20200016874
:1031A00041F004010160016841F0010101600CE09F
:1031B00043F67000C4F20200016821F001010160D1
:1031C000016821F004010160FFE7FFE7FFE70698CF
:1031D0008068002821D0FFE7FFF7D2F90590FFE7CC
:1031E00043F67000C4F20200006800F00200002103
:1031F000B1EB500F10D1FFE7FFF7C2F9DDF814E093
:10320000A0EB0E0041F2893E704504D3FFE7032096
:103210008DF81F001CE1E3E720E0FFF7B1F905900E
:10322000FFE743F67000C4F20200006800F00200FD
:103230000021B1EB500F10D0FFE7FFF7A1F9DDF847
:1032400014E0A0EB0E0041F2893E704504D3FFE785
:1032500003208DF81F00FBE0E3E7FFE79DF80F0078
:10326000012809D1FFE743F64000C4F202000168DB
:1032700021F080510160FFE7FFE706988069002890
:1032800000F0E280FFE743F60800C4F202000068A5
:1032900000F00C00082800F08B80FFE7069880699A
:1032A000022860D1FFE76020C4F2472000210160BE
:1032B000FFF766F90590FFE743F60000C4F202004D
:1032C000006800F000700021B1EB506F0ED0FFE7F6
:1032D000FFF756F9DDF814E0A0EB0E00032804D345
:1032E000FFE703208DF81F00B2E0E5E70698C1690B
:1032F000026A436AD0F828C0114341EA83114FEAB9
:10330000CC324FF6FF739A43A2F580321143C06A64
:1033100041EA006043F60401C4F202010860602043
:10332000C4F2472001210160FFF72AF90590FFE769
:1033300043F60000C4F20200006800F000700021B3
:10334000B1EB506F0ED1FFE7FFF71AF9DDF814E08B
:10335000A0EB0E00032804D3FFE703208DF81F0025
:1033600076E0E5E723E06020C4F247200021016019
:10337000FFF706F90590FFE743F60000C4F20200EC
:10338000006800F000700021B1EB506F0ED0FFE735
:10339000FFF7F6F8DDF814E0A0EB0E00032804D3E5
:1033A000FFE703208DF81F0052E0E5E7FFE74AE062
:1033B00006988069012804D1FFE701208DF81F00DD
:1033C00046E043F60400C4F2020000680490069848
:1033D0008069012831D0FFE7049800F48000069945
:1033E000C969884229D1FFE7049800F03F00069997
:1033F000096A884221D1FFE7049847F6C071084066
:103400000699496AB0EB811F17D1FFE7049800F4D1
:1034100040300699896AC9034FF6FF729143A1F5BE
:103420008031884209D1FFE7049800F07060069966
:10343000C96AB0EB016F04D0FFE701208DF81F00CF
:1034400006E0FFE7FFE7FFE700208DF81F00FFE73A
:103450009DF81F0008B080BD80B582B00146019084
:103460000198009106F0F2FA02B080BD80B582B0FA
:1034700001468DF8070000208DF8060040F20C0090
:10348000C2F2000000789DF807209042009121D000
:10349000FFE740F20C00C2F2000001788DF8051041
:1034A0009DF80710017040F21000C2F200000068A1
:1034B000FFF7F8F88DF806009DF80600002808D000
:1034C000FFE79DF8050040F20C01C2F20001087010
:1034D000FFE7FFE79DF8060002B080BD82B001461D
:1034E0000190009102B0704782B0014601900091B6
:1034F00002B0704782B001460190009102B070475F
:1035000086B00A460346049003910020029001927F
:103510000093FFE7049890F83C00012804D1FFE7EE
:1035200002208DF8170044E00498012180F83C1037
:10353000FFE7FFE7029820F0FF000399C9680843FE
:103540000290029820F44070039989680843029021
:10355000029820F480600399496808430290029819
:1035600020F400600399096808430290029820F44F
:1035700080500399096908430290029820F4005092
:103580000399496908430290029820F48040039906
:10359000C969084302900298049909684864FFE7E2
:1035A0000498002180F83C10FFE700208DF81700F8
:1035B000FFE79DF8170006B07047000080B587B0A0
:1035C00013468C4686460590049103920293CDF8EB
:1035D00004C0CDF800E0FFE7059890F83C00012812
:1035E00004D1FFE702208DF81B005FE00598012160
:1035F00080F83C10FFE7FFE7049800280CD0FFE7B5
:103600000498102808D0FFE70498202804D0FFE78A
:10361000049830280DD1FFE705980068816821F0F3
:10362000700181600498059909688A681043886070
:10363000FFE705980068416841F001014160059885
:103640000068416821F00401416003980599096808
:103650004A68104348600598406B49F6CD41C0F672
:103660000001C1630598406B49F6F141C0F60001C5
:1036700001640598406B4AF2C511C0F60001C164AF
:1036800005980068C16821F02001C16005980068B4
:10369000C16841F40051C160FFE70598002180F83E
:1036A0003C10FFE700208DF81B00FFE79DF81B0092
:1036B00007B080BD87B00A46034605900491019289
:1036C0000093FFE7059890F83C00012804D1FFE73C
:1036D00002208DF81B007EE00598012180F83C1047
:1036E000FFE7FFE70598022180F83D100598006884
:1036F000406803900598006880680290039820F065
:10370000700003900498006803990843039003989D
:10371000059909684860059800680021C4F2010114
:1037200088423CD0FFE705980068B0F1804F36D062
:10373000FFE70598006840F20041C4F200018842AA
:103740002DD0FFE70598006840F60001C4F20001A3
:10375000884224D0FFE70598006840F60041C4F293
:10376000000188421BD0FFE70598006840F2004145
:10377000C4F20101884212D0FFE70598006844F2C4
:103780000001C4F20101884209D0FFE705980068F2
:1037900041F60001C4F2000188420ED1FFE7029811
:1037A00020F080000290049840680299084302903B
:1037B0000298059909688860FFE70598012180F85B
:1037C0003D10FFE70598002180F83C10FFE700203E
:1037D0008DF81B00FFE79DF81B0007B07047000045
:1037E00080B584B00146029002980028019104D16E
:1037F000FFE701208DF80F0043E0029890F83D00AC
:10380000002808D1FFE70298002180F83C100298B8
:1038100000F03CF8FFE70298022180F83D10029882
:1038200050F8041B00900846009906F073FA0298BD
:10383000012180F84610FFE70298012180F83E1030
:10384000029880F83F10029880F84010029880F8A3
:103850004110FFE7FFE70298012180F8421002982B
:1038600080F84310029880F84410029880F84510C0
:10387000FFE70298012180F83D1000208DF80F002D
:10388000FFE79DF80F0004B080BD000080B588B050
:103890000146079007980068B0F1804F04911DD150
:1038A000FFE7FFE70020069043F64000C4F2020065
:1038B000016841F001010160006800F0010006901C
:1038C00006980390FFE71C20002102900191019AC5
:1038D000FFF736F80298FFF723F81CE00798006816
:1038E00040F20041C4F20101884213D1FFE7FFE733
:1038F0000020059043F64400C4F20200016841F044
:1039000002010160006800F0020005900598009037
:10391000FFE7FFE7FFE708B080BD000080B58AB091
:1039200013468C46864608900791ADF81A200898F1
:1039300090F83D0002280493CDF80CC0CDF808E0C3
:1039400004D1FFE702208DF82700ACE0089890F83A
:103950003D00012813D1FFE70798002805D0FFE7B5
:10396000BDF81A00002804D1FFE701208DF82700D8
:1039700099E00898022180F83D10FFE703E001205C
:103980008DF827008FE0FFE70898006A4AF2692166
:10399000C0F60001C1630898006A4AF29921C0F696
:1039A000000101640898006A4AF2C511C0F60001DE
:1039B000C16408980168006A079A2C31BDF81A3072
:1039C00001911146019AFEF73BFB002804D0FFE766
:1039D00001208DF8270066E008980068C16841F46E
:1039E0008071C160089800680021C4F2010188421A
:1039F0003CD0FFE708980068B0F1804F36D0FFE771
:103A00000898006840F20041C4F2000188422DD0BD
:103A1000FFE70898006840F60001C4F20001884200
:103A200024D0FFE70898006840F60041C4F2000186
:103A300088421BD0FFE70898006840F20041C4F2BA
:103A40000101884212D0FFE70898006844F20001A3
:103A5000C4F20101884209D0FFE70898006841F6E6
:103A60000001C4F20001884212D1FFE70898006803
:103A7000806800F0070005900598062807D0FFE74A
:103A800008980068016841F001010160FFE706E065
:103A900008980068016841F001010160FFE700201B
:103AA0008DF82700FFE79DF827000AB080BD0000D1
:103AB00084B001460290029890F83D0001280091E0
:103AC00004D0FFE701208DF80F006AE00298022180
:103AD00080F83D1002980068C16841F00101C160A2
:103AE000029800680021C4F2010188423CD0FFE73F
:103AF00002980068B0F1804F36D0FFE70298006866
:103B000040F20041C4F2000188422DD0FFE7029844
:103B1000006840F60001C4F20001884224D0FFE7AB
:103B20000298006840F60041C4F2000188421BD0B0
:103B3000FFE70298006840F20041C4F201018842A8
:103B400012D0FFE70298006844F20001C4F20101BC
:103B5000884209D0FFE70298006841F60001C4F2EC
:103B60000001884212D1FFE702980068806800F0E7
:103B7000070001900198062807D0FFE70298006827
:103B8000016841F001010160FFE706E0029800686A
:103B9000016841F001010160FFE700208DF80F008E
:103BA000FFE79DF80F0004B07047000080B58EB0AD
:103BB0000A4603460C900B9100208DF82B000892CA
:103BC0000793FFE70C9890F83C00012804D1FFE729
:103BD00002208DF83700BBE00C98012180F83C10E2
:103BE000FFE7FFE70C98022180F83D100C98006871
:103BF00080680990099820F077000990099820F4CE
:103C00007F40099009980C99096888600B980068B2
:103C10000028069000F08280FFE7069810287DD0EB
:103C2000FFE70698202879D0FFE70698302875D05E
:103C3000FFE70698402861D0FFE7069850283DD05E
:103C4000FFE70698602849D0FFE7069870280BD058
:103C5000FFE70698B0F5805F05D0FFE70698B0F55E
:103C6000005F19D061E064E00C9800680B994A6825
:103C70008B68C96805911946059B06F041FB0C98B5
:103C8000006880680990099840F0770009900998C9
:103C90000C99096888604CE00C9800680B994A6898
:103CA0008B68C96804911946049B06F029FB0C989F
:103CB0000068816841F4804181603AE00C980068B6
:103CC0000B994A68C96803911146039A06F0C6FD2C
:103CD0000C980068502106F039FB2AE00C98006827
:103CE0000B994A68C96802911146029A06F080FE53
:103CF0000C980068602106F029FB1AE00C98006817
:103D00000B994A68C96801911146019A06F0A6FD0F
:103D10000C980068402106F019FB0AE00C98006836
:103D20000B99096806F012FB03E001208DF82B00C7
:103D3000FFE70C98012180F83D10FFE70C98002167
:103D400080F83C10FFE79DF82B008DF83700FFE767
:103D50009DF837000EB080BD80B58CB013468C4600
:103D600086460A900991089200208DF81F0006935C
:103D7000CDF814C0CDF810E0FFE70A9890F83C00A9
:103D8000012804D1FFE702208DF82F00B1E00A9846
:103D9000012180F83C10FFE7FFE70A98022180F834
:103DA0003D10099840680028039004D0FFE703986D
:103DB000012807D025E00A980068816821F47F4136
:103DC000816022E00998C06800280ED0FFE70A98B9
:103DD000012180F83D10FFE70A98002180F83C108F
:103DE000FFE701208DF82F0083E00A980068099909
:103DF0008A68CB68096902911946029B06F080FA2D
:103E000003E001208DF81F00FFE79DF81F00002848
:103E100060D1FFE708980C28019059D80199DFE894
:103E200001F0075757571B5757572F5757574300FE
:103E300009980068002807D0FFE70A9800688169A0
:103E400041F08001816106E00A980068816921F0F3
:103E500080018161FFE73CE009980068002807D0F5
:103E6000FFE70A980068816941F40041816106E03A
:103E70000A980068816921F400418161FFE728E028
:103E800009980068002807D0FFE70A980068C16910
:103E900041F08001C16106E00A980068C16921F023
:103EA0008001C161FFE714E009980068002807D08D
:103EB000FFE70A980068C16941F40041C16106E06A
:103EC0000A980068C16921F40041C161FFE700E080
:103ED000FFE7FFE70A98012180F83D10FFE70A9805
:103EE000002180F83C10FFE79DF81F008DF82F009F
:103EF000FFE79DF82F000CB080BD0000F0B58DB03D
:103F0000DDF84CC0DDF848E01C4615460E46074675
:103F10000B900A910992089300208DF81F000B98CE
:103F200090F8460002280694059504960397CDF86C
:103F300008C0CDF804E004D1FFE702208DF833007B
:103F40005FE10B9890F84600012812D1FFE708982E
:103F5000002808D1FFE71298002804D0FFE70120CD
:103F60008DF833004DE10B98022180F84610FFE7F1
:103F700000E0FFE7FFE70998B0F5807F009022D0CE
:103F8000FFE70098B0F5007F42D0FFE70098B0F55A
:103F9000806F62D0FFE70098B0F5006F00F082807C
:103FA000FFE70098B0F5805F00F0A180FFE7009880
:103FB000B0F5005F00F0C080FFE70098B0F5804FDB
:103FC00000F0DF8002E10B98006A4AF26921C0F636
:103FD0000001C1630B98006A4AF29921C0F6000102
:103FE00001640B98006A4AF2C511C0F60001C16471
:103FF0000B980168006A4C31089A139BFEF720F871
:10400000002804D0FFE701208DF83300F9E0E1E05B
:104010000B98406A49F61D71C0F60001C1630B9808
:10402000406A4AF20101C0F6000101640B98406A3F
:104030004AF2C511C0F60001C1640B980168406ADC
:104040004C31089A139BFDF7FBFF002804D0FFE7D3
:1040500001208DF83300D4E0BCE00B98806A49F66B
:104060001D71C0F60001C1630B98806A4AF201011C
:10407000C0F6000101640B98806A4AF2C511C0F6CF
:104080000001C1640B980168806A4C31089A139B47
:10409000FDF7D6FF002804D0FFE701208DF833009C
:1040A000AFE097E00B98C06A49F61D71C0F60001B9
:1040B000C1630B98C06A4AF20101C0F600010164B5
:1040C0000B98C06A4AF2C511C0F60001C1640B9892
:1040D0000168C06A4C31089A139BFDF7B1FF0028B4
:1040E00004D0FFE701208DF833008AE072E00B98DE
:1040F000006B49F61D71C0F60001C1630B98006B9F
:104100004AF20101C0F6000101640B98006B4AF20B
:10411000C511C0F60001C1640B980168006B4C31F9
:10412000089A139BFDF78CFF002804D0FFE70120BD
:104130008DF8330065E04DE00B98406B49F6CD41BA
:10414000C0F60001C1630B98406B49F6F141C0F61F
:10415000000101640B98406B4AF2C511C0F60001E2
:10416000C1640B980168406B4C31089A139BFDF7B2
:1041700067FF002804D0FFE701208DF8330040E0FE
:1041800028E00B98806B4AF2B521C0F60001C163AC
:104190000B98806B4AF2E521C0F6000101640B9890
:1041A000806B4AF2C511C0F60001C1640B9801682A
:1041B000806B4C31089A139BFDF742FF002804D016
:1041C000FFE701208DF833001BE003E001208DF8AC
:1041D0001F00FFE79DF81F0000280DD1FFE70A9898
:1041E000129908430B990968886409980B99096822
:1041F000CA681043C860FFE79DF81F008DF83300C0
:10420000FFE79DF833000DB0F0BD0000F0B595B0AC
:10421000DDF86CC0DDF868E01C4615460E46074622
:10422000139012911192109300208DF83F00139873
:1042300090F8460002280E940D950C960B97CDF839
:1042400028C0CDF824E004D1FFE702208DF8530008
:1042500074E1139890F84600012812D1FFE71098F6
:10426000002808D1FFE71A98002804D0FFE70120B2
:104270008DF8530062E11398022180F84610FFE7A1
:1042800000E0FFE7FFE71198B0F5807F089022D0AB
:10429000FFE70898B0F5007F45D0FFE70898B0F534
:1042A000806F68D0FFE70898B0F5006F00F08B8052
:1042B000FFE70898B0F5805F00F0AD80FFE7089851
:1042C000B0F5005F00F0CF80FFE70898B0F5804FB1
:1042D00000F0F18017E11398006A4AF26921C0F6F4
:1042E0000001C1631398006A4AF29921C0F60001E7
:1042F00001641398006A4AF2C511C0F60001C16456
:1043000013980168006A109A4C311B9B0791114663
:10431000079AFDF795FE002804D0FFE701208DF8ED
:1043200053000BE1F3E01398406A4AF27D01C0F6B6
:104330000001C1631398406A4AF24911C0F60001B6
:1043400001641398406A4AF2C511C0F60001C164C5
:1043500013980168406A109A4C311B9B06911146D4
:10436000069AFDF76DFE002804D0FFE701208DF8C6
:104370005300E3E0CBE01398806A4AF27D01C0F677
:104380000001C1631398806A4AF24911C0F6000126
:1043900001641398806A4AF2C511C0F60001C16435
:1043A00013980168806A109A4C311B9B0591114645
:1043B000059AFDF745FE002804D0FFE701208DF89F
:1043C0005300BBE0A3E01398C06A4AF27D01C0F637
:1043D0000001C1631398C06A4AF24911C0F6000196
:1043E00001641398C06A4AF2C511C0F60001C164A5
:1043F00013980168C06A109A4C311B9B04911146B6
:10440000049AFDF71DFE002804D0FFE701208DF877
:10441000530093E07BE01398006B4AF27D01C0F6F5
:104420000001C1631398006B4AF24911C0F6000104
:1044300001641398006B4AF2C511C0F60001C16413
:1044400013980168006B109A4C311B9B0391114625
:10445000039AFDF7F5FD002804D0FFE701208DF851
:1044600053006BE053E01398406B49F6CD41C0F622
:104470000001C1631398406B49F6F141C0F6000199
:1044800001641398406B4AF2C511C0F60001C16483
:1044900013980168406B109A4C311B9B0291114696
:1044A000029AFDF7CDFD002804D0FFE701208DF82A
:1044B000530043E02BE01398806B4AF2B521C0F61D
:1044C0000001C1631398806B4AF2E521C0F6000138
:1044D00001641398806B4AF2C511C0F60001C164F3
:1044E00013980168806B109A4C311B9B0191114607
:1044F000019AFDF7A5FD002804D0FFE701208DF803
:1045000053001BE003E001208DF83F00FFE79DF81A
:104510003F0000280DD1FFE712981A99084313991C
:1045200009688864119813990968CA681043C860BB
:10453000FFE79DF83F008DF85300FFE79DF853001B
:1045400015B0F0BD2DE9F0438DB0DDF850C09E46AA
:1045500014460D4606460C900B910A9209930C984E
:104560000B990A9A099B149F4FF0010808EB172832
:10457000E946C9F80480C9F80070CDF81CE006943B
:1045800005950496CDF80CC0FFF7B8FC8DF8230014
:104590009DF823000DB0BDE8F08300002DE9F04345
:1045A0008DB0DDF850C09E4614460D4606460C9070
:1045B0000B910A9209930C980B990A9A099B149FE4
:1045C0004FF0010808EB1728E946C9F80480C9F83C
:1045D0000070CDF81CE0069405950496CDF80CC04B
:1045E000FFF714FE8DF823009DF823000DB0BDE801
:1045F000F083000080B58AB00A4603460890079110
:10460000089800280392029304D1FFE701208DF857
:1046100027008CE0089890F83D00002808D1FFE7BB
:104620000898002180F83C10089800F085F8FFE712
:104630000898022180F83D1008980068816844F2CB
:10464000070291438160089850F8041B01900846C6
:10465000019905F05FFB089800688068069008984B
:1046600000688069059008980068006A04900798BF
:104670000068069908430690059840F20331884384
:10468000059007988168806941EA002005990843F0
:104690000590059840F60C418843059005984FF227
:1046A000F001884305900798C168C06941EA00207D
:1046B00005990843059007980169006A090141EAD4
:1046C0000030059908430590049820F022000490DA
:1046D000049820F08800049007984168406941EAF6
:1046E00000100499084304900698089909688860A6
:1046F000059808990968886104980899096808620A
:104700000898012180F84610089880F83E10089813
:1047100080F83F10089880F84210089880F84310FD
:10472000089880F83D1000208DF82700FFE79DF8DD
:1047300027000AB080BD000080B58CB001460B9008
:1047400000200A9009900890079006900B98006846
:104750000022C4F201029042039135D1FFE7FFE746
:104760000020059043F64400C4F20200016841F0C5
:1047700001010160006800F00100059005980290B9
:10478000FFE7FFE70020049043F63000C4F2020088
:10479000016841F001010160006800F0010004902F
:1047A00004980190FFE74FF44070069002200790B4
:1047B00000200890099001200A900020C4F2020015
:1047C00006A9FDF7D3FCFFE70CB080BD80B588B02B
:1047D0000A46034606900591069890F83E008DF82B
:1047E0001300069890F83F008DF81200069890F894
:1047F00042008DF81100069890F843008DF81000E3
:10480000059800280392029317D1FFE79DF8130043
:10481000012805D1FFE79DF81100012804D0FFE72A
:1048200001208DF81F007AE00698022180F83E10E2
:10483000069880F84210FFE742E00598042817D157
:10484000FFE79DF81200012805D1FFE79DF8100051
:10485000012804D0FFE701208DF81F005FE00698D3
:10486000022180F83F10069880F84310FFE726E009
:104870009DF8130001280FD1FFE79DF812000128D1
:104880000AD1FFE79DF81100012805D1FFE79DF847
:104890001000012804D0FFE701208DF81F003EE042
:1048A0000698022180F83E10069880F83F1006987E
:1048B00080F84210069880F84310FFE7FFE7FFE713
:1048C00005980028019004D0FFE70198042807D03C
:1048D0000DE0069800680021012205F0F9FA14E0C5
:1048E000069800680421012205F0F2FA0DE006980E
:1048F000006800210122009205F0EAFA069800689B
:104900000421009A05F0E4FAFFE7069800680168C0
:1049100041F00101016000208DF81F00FFE79DF8C4
:104920001F0008B080BD000070B58EB0DDF848C033
:104930009E4614460D4606460C900B910A9209932A
:10494000ADF822C00C9890F83E008DF821000C982C
:1049500090F83F008DF820000C9890F842008DF8F8
:104960001F000C9890F843008DF81E000B9800284B
:10497000CDF818E005940495039634D1FFE79DF82F
:104980002100022805D0FFE79DF81F00022804D16E
:10499000FFE702208DF8370097E19DF821000128FC
:1049A0001BD1FFE79DF81F00012816D1FFE70A98E9
:1049B000002805D0FFE7BDF82200002804D1FFE75A
:1049C00001208DF8370080E10C98022180F83E101C
:1049D0000C9880F84210FFE703E001208DF83700C3
:1049E00073E1FFE78AE00B98042834D1FFE79DF8D4
:1049F0002000022805D0FFE79DF81E00022804D100
:104A0000FFE702208DF837005FE19DF820000128C4
:104A10001BD1FFE79DF81E00012816D1FFE709987A
:104A2000002805D0FFE7BDF82200002804D1FFE7E9
:104A300001208DF8370048E10C98022180F83F10E2
:104A40000C9880F84310FFE703E001208DF8370051
:104A50003BE1FFE751E09DF8210002280FD0FFE77E
:104A60009DF8200002280AD0FFE79DF81F000228C9
:104A700005D0FFE79DF81E00022804D1FFE70220C1
:104A80008DF8370021E19DF8210001282FD1FFE7A3
:104A90009DF8200001282AD1FFE79DF81F0001287A
:104AA00025D1FFE79DF81E00012820D1FFE70A98D5
:104AB000002809D0FFE70998002805D0FFE7BDF8D6
:104AC0002200002804D1FFE701208DF83700FCE028
:104AD0000C98022180F83E100C9880F83F100C983A
:104AE00080F842100C9880F84310FFE703E00120A3
:104AF0008DF83700E9E0FFE7FFE7FFE70B980028B4
:104B0000029004D0FFE70298042838D06FE00C9898
:104B1000406A49F61D71C0F60001C1630C98406AF5
:104B20004AF20101C0F6000101640C98406A4AF2A1
:104B3000C511C0F60001C1640C980168406A3431A7
:104B40000A9ABDF82230FDF77BFA002804D0FFE76F
:104B500001208DF83700B8E00C980068C16841F476
:104B60000071C1600C9800680021012205F0B0F9C5
:104B70000C980068016841F001010160A1E00C9807
:104B8000806A49F61D71C0F60001C1630C98806A05
:104B90004AF20101C0F6000101640C98806A4AF2F1
:104BA000C511C0F60001C1640C980168806A3831F3
:104BB000099ABDF82230FDF743FA002804D0FFE738
:104BC00001208DF8370080E00C980068C16841F43E
:104BD0008061C1600C9800680421012205F078F919
:104BE0000C980068016841F00101016069E00C98CF
:104BF000406A49F61D71C0F60001C1630C98406A15
:104C00004AF20101C0F6000101640C98406A4AF2C0
:104C1000C511C0F60001C1640C980168406A3431C6
:104C20000A9ABDF82230FDF70BFA002804D0FFE7FE
:104C300001208DF8370048E00C98806A49F61D7114
:104C4000C0F60001C1630C98806A4AF20101C0F607
:104C5000000101640C98806A4AF2C511C0F6000197
:104C6000C1640C980168806A3831099ABDF8223015
:104C7000FDF7E6F9002804D0FFE701208DF83700A2
:104C800023E00C980068C16841F40071C1600C9881
:104C90000068C16841F48061C1600C98006800211F
:104CA0000122019205F014F90C9800680421019A80
:104CB00005F00EF90C980068016841F001010160EF
:104CC000FFE700208DF83700FFE79DF837000EB0B2
:104CD00070BD000080B588B00A4603460690059175
:104CE000069890F83E008DF81300069890F83F0063
:104CF0008DF81200069890F842008DF81100069881
:104D000090F843008DF81000059800280392029354
:104D100017D1FFE79DF81300012805D1FFE79DF8A3
:104D20001100012804D0FFE701208DF81F0092E058
:104D30000698022180F83E10069880F84210FFE79E
:104D400042E00598042817D1FFE79DF812000128DA
:104D500005D1FFE79DF81000012804D0FFE70120EE
:104D60008DF81F0077E00698022180F83F10069822
:104D700080F84310FFE726E09DF8130001280FD1CB
:104D8000FFE79DF8120001280AD1FFE79DF8110006
:104D9000012805D1FFE79DF81000012804D0FFE7A6
:104DA00001208DF81F0056E00698022180F83E1081
:104DB000069880F83F10069880F84210069880F810
:104DC0004310FFE7FFE7FFE705980028019004D0B4
:104DD000FFE7019804280DD019E00698006800212B
:104DE000012205F075F806980068C16841F00201DB
:104DF000C16026E0069800680421012205F068F8E9
:104E000006980068C16841F00401C16019E0069885
:104E1000006800210122009205F05AF80698006807
:104E20000421009A05F054F806980068C16841F022
:104E30000201C16006980068C16841F00401C160C8
:104E4000FFE706980068016841F001010160002059
:104E50008DF81F00FFE79DF81F0008B080BD00001F
:104E600080B58EB00A4603460D900C910C98002830
:104E70000B920A93099004D0FFE70998042808D000
:104E80000EE00D98006800210891089A05F020F8BE
:104E900014E00D9800680421002205F019F80DE0D7
:104EA0000D98006800210791079A05F011F80D98F8
:104EB00000680421079A05F00BF8FFE7FFE70D985B
:104EC0000068006A41F21111084210D1FFE70D9805
:104ED0000068006A40F24441084207D1FFE70D989C
:104EE0000068016821F001010160FFE7FFE7FFE7CB
:104EF0000C98002804D0FFE70C98042853D1FFE752
:104F00000C98002805D1FFE70D98012180F83E108C
:104F10001FE00C98042806D1FFE70D98012180F8C6
:104F20003F10069112E00C98082806D1FFE70D9873
:104F3000012180F84010059105E00D98012180F8CD
:104F400041100591FFE705980690FFE70698049049
:104F5000FFE70C98002805D1FFE70D98012180F8A4
:104F600042101FE00C98042806D1FFE70D9801219C
:104F700080F84310039112E00C98082806D1FFE74F
:104F80000D98012180F84410029105E00D9801214F
:104F900080F845100291FFE702980390FFE703981D
:104FA0000190FFE70DE00D98012180F83E100D986B
:104FB00080F83F100D9880F842100D9880F843104B
:104FC000FFE700200EB080BD80B590B00A460346D2
:104FD0000F900E910E9800280D920C9313D1FFE7BD
:104FE0000F98006800210B910B9A04F071FF0F9845
:104FF0000068C16821F40071C1600F98406AFCF735
:1050000087FE0A903BE00E98042812D1FFE70F9824
:1050100000680421002204F05BFF0F980068C1685B
:1050200021F48061C1600F98806AFCF771FE0990DD
:1050300024E00F98006800210891089A04F048FFC6
:105040000F9800680421089A04F042FF0F98006846
:10505000C16821F40071C1600F980068C16821F433
:105060008061C1600F98406AFCF752FE0F99896A0F
:1050700007900846FCF74CFE0690FFE7FFE7FFE7C6
:105080000F980068006A41F21111084210D1FFE741
:105090000F980068006A40F24441084207D1FFE7D8
:1050A0000F980068016821F001010160FFE7FFE748
:1050B000FFE70E98002804D0FFE70E98042853D18C
:1050C000FFE70E98002805D1FFE70F98012180F82F
:1050D0003E101FE00E98042806D1FFE70F9801212B
:1050E00080F83F10059112E00E98082806D1FFE7DE
:1050F0000F98012180F84010049105E00F980121DC
:1051000080F841100491FFE704980590FFE70598A7
:105110000390FFE70E98002805D1FFE70F980121C3
:1051200080F842101FE00E98042806D1FFE70F9880
:10513000012180F84310029112E00E98082806D150
:10514000FFE70F98012180F84410019105E00F98C6
:10515000012180F845100191FFE701980290FFE7D7
:1051600002980090FFE70DE00F98012180F83E10B3
:105170000F9880F83F100F9880F842100F9880F831
:105180004310FFE7002010B080BD000080B58CB058
:105190000A4603460B900A910A9800280992089340
:1051A0000ED1FFE70B98006800210791079A04F0E1
:1051B0008FFE0B980068C16821F00201C1602BE0EE
:1051C0000A9804280DD1FFE70B98006804210022FB
:1051D00004F07EFE0B980068C16821F00401C160F4
:1051E00019E00B98006800210691069A04F070FE01
:1051F0000B9800680421069A04F06AFE0B98006878
:10520000C16821F00201C1600B980068C16821F0FB
:105210000401C160FFE7FFE7FFE70B980068006A41
:1052200041F21111084210D1FFE70B980068006AA3
:1052300040F24441084207D1FFE70B98006801683B
:1052400021F001010160FFE7FFE7FFE70A9800286E
:1052500004D0FFE70A98042853D1FFE70A980028F2
:1052600005D1FFE70B98012180F83E101FE00A9856
:10527000042806D1FFE70B98012180F83F10059123
:1052800012E00A98082806D1FFE70B98012180F860
:105290004010049105E00B98012180F84110049121
:1052A000FFE704980590FFE705980390FFE70A9849
:1052B000002805D1FFE70B98012180F842101FE07C
:1052C0000A98042806D1FFE70B98012180F84310C3
:1052D000029112E00A98082806D1FFE70B980121F5
:1052E00080F84410019105E00B98012180F84510E9
:1052F0000191FFE701980290FFE702980090FFE715
:105300000DE00B98012180F83E100B9880F83F10BB
:105310000B9880F842100B9880F84310FFE70020AC
:105320000CB080BD82B001460190009102B0704780
:1053300082B001460190009102B0704782B00146F0
:105340000190009102B0704780B58CB013468C4636
:1053500086460A900991089200208DF81F00069356
:10536000CDF814C0CDF810E0FFE70A9890F83C00A3
:10537000012804D1FFE702208DF82F0091E00A9860
:10538000012180F83C10FFE7FFE7089800281AD1B8
:10539000FFE70A98006809990A684B68C968039191
:1053A00011461A46039B05F08BFA0A98006881693A
:1053B00021F00C018161099880680A9909688A695D
:1053C0001043886162E0089804281BD1FFE70A981F
:1053D000006809990A684B68C968029111461A4623
:1053E000029B05F037FB0A980068816921F440614F
:1053F0008161099880680A9909688A6942EA0020EF
:10540000886142E0089808281AD1FFE70A980068E6
:1054100009990A684B68C968019111461A46019BAF
:1054200005F05AFB0A980068C16921F00C01C161BE
:10543000099880680A990968CA691043C86123E01D
:1054400008980C281BD1FFE70A98006809990A6898
:105450004B68C968009111461A46009B05F07EFB17
:105460000A980068C16921F44061C16109988068A7
:105470000A990968CA6942EA0020C86103E001206C
:105480008DF81F00FFE7FFE7FFE7FFE7FFE70A9858
:10549000002180F83C10FFE79DF81F008DF82F00D9
:1054A000FFE79DF82F000CB080BD000080B584B0F0
:1054B0000146029002980028019104D1FFE70120E3
:1054C0008DF80F0043E0029890F83D00002808D1C5
:1054D000FFE70298002180F83C10029800F03CF8A9
:1054E000FFE70298022180F83D10029850F8041B53
:1054F00000900846009904F00DFC0298012180F804
:105500004610FFE70298012180F83E10029880F8CB
:105510003F10029880F84010029880F84110FFE791
:10552000FFE70298012180F84210029880F84310AA
:10553000029880F84410029880F84510FFE702981E
:10554000012180F83D1000208DF80F00FFE79DF845
:105550000F0004B080BD000082B0014601900091B0
:1055600002B0704780B594B00A460346129011917C
:10557000119800280E920D9305D1FFE7129890F82C
:105580003E000C901CE01198042805D1FFE712980A
:1055900090F83F000B9010E01198082805D1FFE724
:1055A000129890F840000A9004E0129890F8410098
:1055B0000A90FFE70A980B90FFE70B980C90FFE723
:1055C0000C988DF83F001198002805D1FFE712983C
:1055D00090F8420009901CE01198042805D1FFE7DB
:1055E000129890F84300089010E01198082805D10F
:1055F000FFE7129890F84400079004E0129890F8A2
:1056000045000790FFE707980890FFE70898099082
:10561000FFE709988DF83E009DF83F00012805D16D
:10562000FFE79DF83E00012804D0FFE701208DF838
:105630004F00B8E01198002805D1FFE71298022129
:1056400080F83E101FE01198042806D1FFE7129859
:10565000022180F83F10069112E01198082806D127
:10566000FFE71298022180F84010059105E012989A
:10567000022180F841100591FFE705980690FFE7A9
:1056800006980490FFE71198002805D1FFE71298CB
:10569000022180F842101FE01198042806D1FFE78C
:1056A0001298022180F84310039112E01198082803
:1056B00006D1FFE71298022180F84410029105E01C
:1056C0001298022180F845100291FFE7029803909A
:1056D000FFE703980190FFE71298006811990122F3
:1056E00004F0F6FB129800680021C4F20101884220
:1056F0003CD0FFE712980068B0F1804F36D0FFE74A
:105700001298006840F20041C4F2000188422DD096
:10571000FFE71298006840F60001C4F200018842D9
:1057200024D0FFE71298006840F60041C4F200015F
:1057300088421BD0FFE71298006840F20041C4F293
:105740000101884212D0FFE71298006844F200017C
:10575000C4F20101884209D0FFE71298006841F6BF
:105760000001C4F20001884212D1FFE712980068DC
:10577000806800F0070010901098062807D0FFE717
:1057800012980068016841F001010160FFE706E03E
:1057900012980068016841F001010160FFE70020F4
:1057A0008DF84F00FFE79DF84F0014B080BD00005A
:1057B000B0B598B09C4696460C4605461690159195
:1057C0001492ADF84E3000208DF84D001598002849
:1057D000CDF840C0CDF83CE00E940D9505D1FFE723
:1057E000169890F83E000C901CE01598042805D1FE
:1057F000FFE7169890F83F000B9010E015980828E6
:1058000005D1FFE7169890F840000A9004E016983A
:1058100090F841000A90FFE70A980B90FFE70B9879
:105820000C90FFE70C988DF847001598002805D1DB
:10583000FFE7169890F8420009901CE0159804289C
:1058400005D1FFE7169890F84300089010E01598EE
:10585000082805D1FFE7169890F84400079004E067
:10586000169890F845000790FFE707980890FFE723
:1058700008980990FFE709988DF846009DF84700C1
:10588000022805D0FFE79DF84600022804D1FFE773
:1058900002208DF85F009AE19DF84700012866D14B
:1058A000FFE79DF84600012861D1FFE71498002822
:1058B00005D0FFE7BDF84E00002804D1FFE7012026
:1058C0008DF85F0083E11598002805D1FFE7169851
:1058D000022180F83E101FE01598042806D1FFE74A
:1058E0001698022180F83F10069112E015980828BA
:1058F00006D1FFE71698022180F84010059105E0D7
:105900001698022180F841100591FFE7059806904E
:10591000FFE706980490FFE71598002805D1FFE7F8
:105920001698022180F842101FE01598042806D12D
:10593000FFE71698022180F84310039112E01598B2
:10594000082806D1FFE71698022180F8441002913A
:1059500005E01698022180F845100291FFE70298B1
:105960000390FFE703980190FFE7FFE703E00120C2
:105970008DF85F002BE1FFE716980068159901226A
:1059800004F0A6FA15980C28009000F2BA8000994D
:10599000DFE801F007B7B7B733B7B7B75FB7B7B747
:1059A0008B001698406A49F61D71C0F60001C1636C
:1059B0001698406A4AF20101C0F600010164169887
:1059C000406A4AF2C511C0F60001C1641698016828
:1059D000406A3431149ABDF84E30FCF731FB002890
:1059E00004D0FFE701208DF85F00F0E01698006812
:1059F000C16841F40071C16087E01698806A49F679
:105A00001D71C0F60001C1631698806A4AF2010157
:105A1000C0F6000101641698806A4AF2C511C0F60A
:105A20000001C16416980168806A3831149ABDF883
:105A30004E30FCF705FB002804D0FFE701208DF86D
:105A40005F00C4E016980068C16841F48061C160DD
:105A50005BE01698C06A49F61D71C0F60001C1638B
:105A60001698C06A4AF20101C0F600010164169856
:105A7000C06A4AF2C511C0F60001C16416980168F7
:105A8000C06A3C31149ABDF84E30FCF7D9FA0028B0
:105A900004D0FFE701208DF85F0098E016980068B9
:105AA000C16841F40061C1602FE01698006B49F6AF
:105AB0001D71C0F60001C1631698006B4AF2010126
:105AC000C0F6000101641698006B4AF2C511C0F6D9
:105AD0000001C16416980168006B4031149ABDF84A
