:020000040800F2
:1000000000080020290200082528000859240008BB
:100010009127000821040008913100080000000029
:100020000000000000000000000000009928000807
:100030002504000800000000952800080929000890
:10004000430200084302000843020008430200087C
:10005000430200084302000843020008430200086C
:10006000430200084302000843020008430200085C
:10007000430200084302000843020008430200084C
:10008000430200084302000843020008430200083C
:10009000430200084302000843020008430200082C
:1000A000430200084302000843020008430200081C
:1000B000E129000843020008430200084302000847
:1000C00043020008430200084302000843020008FC
:1000D00043020008430200084302000843020008EC
:1000E00043020008430200084302000843020008DC
:1000F00043020008430200084302000843020008CC
:1001000043020008430200084302000843020008BB
:1001100043020008430200084302000843020008AB
:10012000430200084302000843020008430200089B
:100130004302000800000000000000004302000825
:10014000430200084302000843020008430200087B
:10015000430200084302000843020008430200086B
:10016000430200084302000843020008430200085B
:1001700043020008430200080000000000000000E5
:10018000430200084302000800F002F800F03CF8C7
:100190000AA090E8000C82448344AAF10107DA45E2
:1001A00001D100F031F8AFF2090EBAE80F0013F0F8
:1001B000010F18BFFB1A43F0010318470C3500006C
:1001C0002C350000103A24BF78C878C1FAD85207FD
:1001D00024BF30C830C144BF04680C6070470000C1
:1001E0000023002400250026103A28BF78C1FBD840
:1001F000520728BF30C148BF0B6070471FB503F0DE
:1002000049FA1FBD10B510BD00F0D0F81146FFF738
:10021000F5FF03F0CFF800F0EEF803B4FFF7F2FFBC
:1002200003BC00F0F5F80000094880470948004782
:10023000FEE7FEE7FEE7FEE7FEE7FEE7FEE7FEE796
:10024000FEE7FEE704480549054A064B70470000F3
:10025000CD290008890100080002002000080020C4
:10026000000400200004002053EA020C00F0698022
:100270002DE9F04B4FF00006002B1FBFB3FA83F5BA
:1002800003FA05F424FA05F65E4012BF1643B2FAEB
:1002900082F502FA05F4C5F120051EBF22FA05FC1D
:1002A00044EA0C04203556EA044C4FEA144418BFC3
:1002B000641C4FF000084FF00009904271EB030CF2
:1002C00039D3002919BFB1FA81F701FA07F6B0FA5C
:1002D00080F700FA07F6C7F120071EBF20FA07FCD7
:1002E00046EA0C062037B6FBF4FCA7EB0507103FE7
:1002F00007F01F0BCBF120062CFA06F60CFA0BFBCD
:1003000044BFB3460026202FA4BF5E464FF0000B2B
:100310005BEA060C08BF4FF0010B19EB0B0948EB29
:100320000608ABFB027C06FB02CC0BFB03CCC01B1C
:1003300071EB0C01C1E70B46024641464846BDE859
:10034000F08B13B5084318BF4FF0FF300146AFF3F1
:100350000080BDE81C4070474FF0000200B5134616
:1003600094469646203922BFA0E80C50A0E80C50D5
:10037000B1F12001BFF4F7AF090728BFA0E80C5086
:1003800048BF0CC05DF804EB890028BF40F8042B7F
:1003900008BF704748BF20F8022B11F0804F18BFEC
:1003A00000F8012B7047704770477047754600F0A2
:1003B0002BF8AE4605006946534620F007008546F7
:1003C00018B020B5FFF73EFFBDE820404FF0000613
:1003D0004FF000074FF000084FF0000BAC46ACE8C0
:1003E000C009ACE8C009ACE8C009ACE8C00921F01C
:1003F00007018D46704710B50446AFF300802046D4
:10040000BDE81040FFF709BF004870471800002002
:1004100001491820ABBEFEE726000200704700002D
:10042000FFE7FEE77047000040F21411C2F200013E
:100430000868426A40F28000C2F2000002800A6846
:1004400000215162B0F900007047000072B6FFE76A
:10045000FEE700008EB00D900C9100200A900990EC
:1004600008900B90FFE70B980F2800F2CC81FFE774
:100470000B99012088400A900C9800680A9908405E
:10048000099009980A99884240F0B881FFE70C98D2
:10049000406800F00300012807D0FFE70C9840688F
:1004A00000F0030002282FD1FFE70D988068089024
:1004B0000B984100032000FA01F108988843089046
:1004C0000C98C0680B99490000FA01F1089808439C
:1004D000089008980D9988600D98406808900B99CD
:1004E000012000FA01F10898884308900C984068B0
:1004F000C0F300100B9900FA01F108980843089026
:1005000008980D994860FFE70C98406800F00300D8
:10051000032818D0FFE70D98C06808900B98410099
:10052000032000FA01F10898884308900C9880682D
:100530000B99490000FA01F10898084308900898BF
:100540000D99C860FFE70C98406800F0030002288E
:1005500026D1FFE70D980B996FF0030202EA5101D3
:100560000844006A08900B9800F0070081000F20F3
:1005700000FA01F10898884308900C9800690B99DB
:1005800001F00701890000FA01F10898084308907A
:1005900008980D990B9B02EA530211440862FFE789
:1005A0000D98006808900B984100032000FA01F1B3
:1005B0000898884308900C98406800F003000B9955
:1005C000490000FA01F108980843089008980D992D
:1005D00008600C9880798007002800F00E81FFE702
:1005E000FFE70020079043F64400C4F202000168D0
:1005F00041F480410160006800F480400790079852
:10060000FFE70B9820F0030043F60801C4F2010154
:10061000405808900B9800F0030081000F2000FA6A
:1006200001F10898884308900D980021C4F2020156
:10063000884203D1FFE7002006905EE00D9840F26B
:100640000041C4F20201884203D1FFE70120059076
:1006500050E00D9840F60001C4F20201884203D137
:10066000FFE70220049042E00D9840F60041C4F2FA
:100670000201884203D1FFE70320039034E00D9884
:1006800041F20001C4F20201884203D1FFE70420D5
:10069000029026E00D9841F20041C4F20201884226
:1006A00003D1FFE70520019018E00D9841F6000105
:1006B000C4F20201884203D1FFE7062000900AE05D
:1006C0000D9941F60042C4F202020820914208BF8F
:1006D00007200090FFE700980190FFE70198029043
:1006E000FFE702980390FFE703980490FFE7049860
:1006F0000590FFE705980690FFE70698C0B20B99B2
:1007000001F00301890000FA01F1089808430890FC
:1007100008980B9921F0030143F60802C4F2010284
:10072000885043F60840C4F2010000680890099917
:100730000898884308900C988079C006002805D551
:10074000FFE70999089808430890FFE7089843F6DF
:100750000841C4F20101086043F60C40C4F20100F4
:100760000068089009990898884308900C98807947
:100770008006002805D5FFE70999089808430890E6
:10078000FFE7089843F60C41C4F20101086043F604
:100790000440C4F201000068089009990898884351
:1007A00008900C9880798007002805D5FFE7099903
:1007B000089808430890FFE7089843F60441C4F2FC
:1007C0000101086043F60040C4F20100006808908F
:1007D00009990898884308900C988079C00728B137
:1007E000FFE70999089808430890FFE7089843F63F
:1007F0000041C4F201010860FFE7FFE7FFE70B9843
:1008000001300B902FE60EB07047000082B00190CF
:10081000ADF802108DF801209DF8010028B1FFE726
:10082000BDF802000199886105E0BDF802000004EE
:1008300001998861FFE702B07047000040F2FC10A8
:10084000C2F200000068704740F20C00C2F20000E3
:10085000027840F2FC11C2F20001086810440860FE
:100860007047000080B543F60041C4F202010868F9
:1008700040F400700860086840F480600860086810
:1008800040F480700860032000F08AF80F2000F028
:1008900005F800F03BF8002080BD000080B582B074
:1008A000009040F20400C2F20000006840F20C0127
:1008B000C2F200010A784FF47A71B1FBF2F1B0FB99
:1008C000F1F000F0A5FD20B1FFE701208DF8070051
:1008D00018E000980F280DD8FFE700994FF0FF307F
:1008E000002200F043F8009840F21001C2F200012B
:1008F000086003E001208DF8070003E000208DF878
:100900000700FFE79DF8070002B080BD82B0FFE757
:100910000020019043F64400C4F20200016841F453
:1009200080410160006800F4804001900198FFE779
:10093000FFE70020009043F64000C4F20200016887
:1009400041F080510160006800F0805000900098F4
:10095000FFE702B07047000080B582B08DF8070055
:100960009DF9070002F06EFC02B080BD80B586B034
:100970008DF81700049103920020029002F07AFC97
:1009800002909DF91700019002980499039A01F0D2
:100990004BFF0146019802F075FC06B080BD0000D7
:1009A00080B582B00190019802F08EFC02B080BD4B
:1009B00080B584B002900191029820B9FFE7012030
:1009C0008DF80F0021E1019843F60041C4F20201C5
:1009D000096801F00701884212D9FFE7019943F63F
:1009E0000040C4F202000170006800F007000199A5
:1009F000884204D0FFE701208DF80F0005E1FFE7F2
:100A000002980078800700282AD5FFE7029800782E
:100A10004007002809D5FFE743F60801C4F20201A8
:100A2000086840F4E0500860FFE70298007800078B
:100A3000002809D5FFE743F60801C4F2020108685F
:100A400040F460400860FFE743F60801C4F2020189
:100A5000086820F0F000029A926810430860FFE7EF
:100A600002980078C00700286ED0FFE7029840681F
:100A7000012811D1FFE743F60000C4F2020000682C
:100A800000F400310020B0EB514F04D1FFE701200A
:100A90008DF80F00B9E02CE002984068022805D0DC
:100AA000FFE702984068032811D1FFE743F60000F2
:100AB000C4F20200006800F000710020B0EB516F3A
:100AC00004D1FFE701208DF80F009EE010E043F60F
:100AD0000000C4F20200006800F002010020B0EB48
:100AE000510F04D1FFE701208DF80F008DE0FFE7E3
:100AF000FFE743F60801C4F20201086820F0030092
:100B0000029A526810430860FFF798FE0090FFE7D2
:100B100043F60800C4F20200006800F00C000299DD
:100B20004968B0EB810F0ED0FFE7FFF787FE009911
:100B3000401A41F28931884204D3FFE703208DF83F
:100B40000F0062E0E4E7FFE7019843F60041C4F2DA
:100B50000201096801F00701884212D2FFE70199FA
:100B600043F60040C4F202000170006800F0070084
:100B70000199884204D0FFE701208DF80F0044E07E
:100B8000FFE702980078400700280CD5FFE743F6FE
:100B90000801C4F20201086820F4E050029AD26809
:100BA00010430860FFE702980078000700280DD581
:100BB000FFE743F60801C4F20201086820F4604030
:100BC000029A126940EAC2000860FFE700F04CF8A0
:100BD00043F60801C4F202010968C9B20A0943F2E6
:100BE000AE61C0F60001895CC84040F20401C2F267
:100BF0000001086040F21000C2F200000068FFF738
:100C00004DFE00208DF80F00FFE79DF80F0004B0A7
:100C100080BD000040F20400C2F20000006870478E
:100C200080B5FFF7F7FF43F60801C4F20201096837
:100C3000C1F3822243F2BE61C0F60001895CC84064
:100C400080BD000080B5FFF7E5FF43F60801C4F260
:100C50000201096889B24A0B43F2BE61C0F6000185
:100C6000895CC84080BD000080B586B0002005903A
:100C700004900390029043F60800C4F2020000685A
:100C800000F00C000146019140B1FFE701980428F3
:100C90000AD0FFE7019808280CD04FE042F200404C
:100CA000C0F2F40002904FE047F64000C0F27D1021
:100CB000029049E043F60400C4F20200016801F02A
:100CC0003F01059100684002002813D5FFE743F675
:100CD0000400C4F202000068C0F3881047F6400127
:100CE000C0F27D11A0FB0101059A0023FFF7BCFAB9
:100CF000049012E043F60400C4F202000068C0F35E
:100D0000881042F20041C0F2F401A0FB0101059AF3
:100D10000023FFF7A9FA0490FFE743F60400C4F2AA
:100D20000200006800F44031022000EBD130039053
:100D300004980399B0FBF1F0029005E042F2004004
:100D4000C0F2F4000290FFE7029806B080BD0000F8
:100D500080B586B00490049820B9FFE701208DF893
:100D6000170050E304980078C007002800F0A58021
:100D7000FFE743F60800C4F20200006800F00C0030
:100D8000042813D0FFE743F60800C4F2020000680D
:100D900000F00C0008281ED1FFE743F60400C4F25F
:100DA000020000684002002815D5FFE743F6000066
:100DB000C4F20200006800F400310020B0EB514F93
:100DC00008D0FFE70498406820B9FFE701208DF8BC
:100DD000170018E370E0FFE704984068B0F5803F23
:100DE00009D1FFE743F60001C4F20201086840F4AC
:100DF0008030086020E004984068B0F5A02F0DD145
:100E0000FFE743F60001C4F20201086840F48020C5
:100E10000860086840F4803008600CE043F6000188
:100E2000C4F20201086820F480300860086820F4E9
:100E300080200860FFE7FFE7FFE704984068E8B11B
:100E4000FFE7FFF7FBFC0390FFE743F60000C4F267
:100E50000200006800F400310020B0EB514F0CD1CB
:100E6000FFE7FFF7EBFC0399401A652804D3FFE77F
:100E700003208DF81700C6E2E7E71CE0FFF7DEFC71
:100E80000390FFE743F60000C4F20200006800F49C
:100E900000310020B0EB514F0CD0FFE7FFF7CEFC44
:100EA0000399401A652804D3FFE703208DF8170043
:100EB000A9E2E7E7FFE7FFE7FFE70498007880078C
:100EC000002840F19680FFE743F60800C4F20200D4
:100ED000006810F00C0F13D0FFE743F60800C4F2CF
:100EE0000200006800F00C0008282CD1FFE743F650
:100EF0000400C4F2020000684002002823D4FFE787
:100F000043F60000C4F20200006800F00201002075
:100F1000B0EB510F09D0FFE70498C068012804D056
:100F2000FFE701208DF817006DE243F60001C4F2DF
:100F30000201086820F0F800049A126940EAC20031
:100F40000860FFE754E00498C06870B3FFE7002131
:100F5000C4F2472101200860FFF770FC0390FFE70F
:100F600043F60000C4F20200006800F00201002015
:100F7000B0EB510F0CD1FFE7FFF760FC0399401A6B
:100F8000032804D3FFE703208DF817003BE2E7E7CF
:100F900043F60001C4F20201086820F0F800049A48
:100FA000126940EAC200086021E00021C4F2472132
:100FB00000200860FFF742FC0390FFE743F60000C3
:100FC000C4F20200006800F002010020B0EB510FF3
:100FD0000CD0FFE7FFF732FC0399401A032804D333
:100FE000FFE703208DF817000DE2E7E7FFE7FFE7D3
:100FF000FFE704980078000700284BD5FFE7049826
:10100000406918B3FFE740F68061C4F24721012030
:101010000860FFF713FC0390FFE743F67400C4F287
:101020000200006800F002010020B0EB510F0CD16B
:10103000FFE7FFF703FC0399401A032804D3FFE7F7
:1010400003208DF81700DEE1E7E722E040F680613B
:10105000C4F2472100200860FFF7F0FB0390FFE790
:1010600043F67400C4F20200006800F002010020A0
:10107000B0EB510F0CD0FFE7FFF7E0FB0399401AEC
:10108000032804D3FFE703208DF81700BBE1E7E74F
:10109000FFE7FFE7049800784007002840F1CE8082
:1010A000FFE700208DF8070043F64000C4F202007D
:1010B0000068C000002815D4FFE7FFE7002000907B
:1010C00043F64000C4F20200016841F08051016023
:1010D000006800F0805000900098FFE701208DF834
:1010E0000700FFE747F20000C4F200000068C005F7
:1010F000002822D4FFE747F20001C4F2000108688B
:1011000040F480700860FFF799FB0390FFE747F217
:101110000000C4F200000068C00500280CD4FFE7FE
:10112000FFF78CFB0399401A032804D3FFE7032041
:101130008DF8170067E1EAE7FFE7FFE704988068AA
:10114000012809D1FFE743F67001C4F202010868E3
:1011500040F0010008601FE00498806805280DD168
:10116000FFE743F67001C4F20201086840F0040092
:101170000860086840F0010008600CE043F6700168
:10118000C4F20201086820F001000860086820F03D
:1011900004000860FFE7FFE7FFE704988068F8B104
:1011A000FFE7FFF74BFB0390FFE743F67000C4F245
:1011B0000200006800F002010020B0EB510F0ED1D8
:1011C000FFE7FFF73BFB0399401A41F28931884260
:1011D00004D3FFE703208DF8170014E1E5E71EE0D4
:1011E000FFF72CFB0390FFE743F67000C4F2020008
:1011F000006800F002010020B0EB510F0ED0FFE7B5
:10120000FFF71CFB0399401A41F28931884204D34D
:10121000FFE703208DF81700F5E0E5E7FFE79DF80D
:101220000700012809D1FFE743F64001C4F202019B
:10123000086820F080500860FFE7FFE704988069A5
:10124000002800F0DC80FFE743F60800C4F202004B
:10125000006800F00C00082800F08580FFE7049883
:10126000806902285CD1FFE76021C4F24721002099
:101270000860FFF7E3FA0390FFE743F60000C4F2CB
:101280000200006800F000710020B0EB516F0CD03C
:10129000FFE7FFF7D3FA0399401A032804D3FFE7C7
:1012A00003208DF81700AEE0E7E70499C869D1F88C
:1012B00020C04B6A8A6A40EA0C0040EA8310D203DD
:1012C0004FF6FF739A43A2F580321043C96A40EA91
:1012D000016043F60401C4F2020108606021C4F217
:1012E000472101200860FFF7A9FA0390FFE743F6C2
:1012F0000000C4F20200006800F000710020B0EBB2
:10130000516F0CD1FFE7FFF799FA0399401A0328B0
:1013100004D3FFE703208DF8170074E0E7E721E02E
:101320006021C4F2472100200860FFF787FA03908C
:10133000FFE743F60000C4F20200006800F000710D
:101340000020B0EB516F0CD0FFE7FFF777FA03995D
:10135000401A032804D3FFE703208DF8170052E05A
:10136000E7E7FFE74AE004988069012804D1FFE736
:1013700001208DF8170046E043F60400C4F2020095
:101380000068029004988069012831D0FFE7029834
:1013900000F480000499C969884229D1FFE70298C6
:1013A00000F03F000499096A884221D1FFE70298C2
:1013B00047F6C07108400499496AB0EB811F17D104
:1013C000FFE7029800F440300499896AC9034FF698
:1013D000FF729143A1F58031884209D1FFE702985D
:1013E00000F070600499C96AB0EB016F04D0FFE7A8
:1013F00001208DF8170006E0FFE7FFE7FFE7002078
:101400008DF81700FFE79DF8170006B080BD0000BB
:1014100080B582B00190019801F04CFA02B080BD15
:1014200081B0009001B0704781B0009001B070476A
:1014300084B00290019100200090FFE7029890F89C
:101440003C00012804D1FFE702208DF80F0044E0A2
:101450000299012081F83C00FFE7FFE7009820F0A7
:10146000FF000199C96808430090009820F440707B
:101470000199896808430090009820F480600199E0
:10148000496808430090009820F4006001990968B9
:1014900008430090009820F480500199096908439E
:1014A0000090009820F40050019949690843009089
:1014B000009820F480400199C96908430090009881
:1014C000029909684864FFE70299002081F83C000E
:1014D000FFE700208DF80F00FFE79DF80F0004B034
:1014E0007047000085B003900291FFE7039890F8E1
:1014F0003C00012804D1FFE702208DF813007EE0B4
:101500000399012081F83C00FFE7FFE703990220DF
:1015100081F83D00039800684068019003980068D6
:1015200080680090019820F0700001900298016896
:10153000019808430190019803990968486003984D
:1015400000680021C4F2010188423CD0FFE7039803
:101550000068B0F1804F36D0FFE70398006840F292
:101560000041C4F2000188422DD0FFE703980068D3
:1015700040F60001C4F20001884224D0FFE703983E
:10158000006840F60041C4F2000188421BD0FFE72A
:101590000398006840F20041C4F20101884212D071
:1015A000FFE70398006844F20001C4F20101884299
:1015B00009D0FFE70398006841F60001C4F200017A
:1015C00088420ED1FFE7009820F08000009002983A
:1015D0004168009808430090009803990968886062
:1015E000FFE70399012081F83D00FFE70399002000
:1015F00081F83C00FFE700208DF81300FFE79DF81D
:10160000130005B07047000080B582B000900098CC
:1016100020B9FFE701208DF807003FE0009890F81F
:101620003D0040B9FFE70099002081F83C00009898
:1016300000F038F8FFE70099022081F83D0000999A
:1016400051F8040B01F0D4F90099012081F846000B
:10165000FFE70099012081F83E00009981F83F00E2
:10166000009981F84000009981F84100FFE7FFE709
:101670000099012081F84200009981F84300009907
:1016800081F84400009981F84500FFE700990120A6
:1016900081F83D0000208DF80700FFE79DF8070066
:1016A00002B080BD80B584B0039003980068B0F1AB
:1016B000804F1BD1FFE7FFE70020029043F6400078
:1016C000C4F20200016841F001010160006800F00D
:1016D000010002900298FFE71C20009000221146B2
:1016E000FFF744F90098FFF737F91BE0039800680B
:1016F00040F20041C4F20101884212D1FFE7FFE746
:101700000020019043F64400C4F20200016841F059
:1017100002010160006800F0020001900198FFE7FB
:10172000FFE7FFE704B080BD83B00190019890F817
:101730003D00012804D0FFE701208DF80B006AE08E
:101740000199022081F83D0001980168C86840F0C5
:101750000100C860019800680021C4F201018842BC
:101760003CD0FFE701980068B0F1804F36D0FFE72A
:101770000198006840F20041C4F2000188422DD077
:10178000FFE70198006840F60001C4F200018842BA
:1017900024D0FFE70198006840F60041C4F2000140
:1017A00088421BD0FFE70198006840F20041C4F274
:1017B0000101884212D0FFE70198006844F200015D
:1017C000C4F20101884209D0FFE70198006841F6A0
:1017D0000001C4F20001884212D1FFE701980068BD
:1017E000806800F0070000900098062807D0FFE707
:1017F00001980168086840F001000860FFE706E012
:1018000001980168086840F001000860FFE70020C7
:101810008DF80B00FFE79DF80B0003B07047000048
:1018200080B586B00490039100208DF80B00FFE78F
:10183000049890F83C00012804D1FFE702208DF8BD
:101840001700ABE00499012081F83C00FFE7FFE7B7
:101850000499022081F83D00049800688068019096
:10186000019820F077000190019820F47F400190CA
:10187000019804990968886003980068009000281E
:1018800072D0FFE7009810286ED0FFE7009820285C
:101890006AD0FFE70098302866D0FFE7009840281C
:1018A00055D0FFE70098502837D0FFE70098602810
:1018B00040D0FFE7009870280BD0FFE70098B0F504
:1018C000805F05D0FFE70098B0F5005F16D052E0CA
:1018D00055E004980068039B5A689968DB6801F03A
:1018E0007BF90498006880680190019840F07700C7
:1018F0000190019804990968886040E004980068A4
:10190000039B5A689968DB6801F066F904980168DE
:10191000886840F48040886031E004980068039A49
:101920005168D26801F044FB04980068502101F02E
:101930006DF924E004980068039A5168D26801F0B8
:101940005FFB04980068602101F060F917E00498DB
:101950000068039A5168D26801F02AFB0498006875
:10196000402101F053F90AE00498006803990968DE
:1019700001F04CF903E001208DF80B00FFE704991A
:10198000012081F83D00FFE70499002081F83C0028
:10199000FFE79DF80B008DF81700FFE79DF8170093
:1019A00006B080BD80B586B004900391049820B93C
:1019B000FFE701208DF8170088E0049890F83D00BB
:1019C00040B9FFE70499002081F83C00049800F03A
:1019D00081F8FFE70499022081F83D00049801682E
:1019E000886844F2070290438860049951F8040B18
:1019F00000F0FEFF04980068806802900498006878
:101A00008069019004980068006A0090039801685A
:101A1000029808430290019840F2033188430190F4
:101A200003998868896940EA012101980843019077
:101A3000019840F60C418843019001984FF2F00163
:101A4000884301900399C868C96940EA0121019857
:101A50000843019003990869096A000140EA0131CD
:101A6000019808430190009820F02200009000980F
:101A700020F08800009003994868496940EA011104
:101A800000980843009002980499096888600198BA
:101A900004990968886100980499096808620499A2
:101AA000012081F84600049981F83E00049981F8EC
:101AB0003F00049981F84200049981F84300049999
:101AC00081F83D0000208DF81700FFE79DF8170012
:101AD00006B080BD80B588B00790002006900590C4
:101AE000049003900290079800680021C4F201015D
:101AF000884233D1FFE7FFE70020019043F644001E
:101B0000C4F20200016841F001010160006800F0C8
:101B1000010001900198FFE7FFE70020009043F6E5
:101B20003000C4F20200016841F001010160006868
:101B300000F0010000900098FFE74FF44070029021
:101B400002200390002004900590012006900020C0
:101B5000C4F2020002A9FEF77DFCFFE708B080BDD9
:101B600080B586B004900391049890F83E008DF8FB
:101B70000B00049890F83F008DF80A00049890F844
:101B800042008DF80900049890F843008DF8080091
:101B90000398B8B9FFE79DF80B00012805D1FFE7CE
:101BA0009DF80900012804D0FFE701208DF81700F7
:101BB00079E00499022081F83E00049981F84200FE
:101BC000FFE742E00398042817D1FFE79DF80A00D9
:101BD000012805D1FFE79DF80800012804D0FFE7A0
:101BE00001208DF817005EE00499022081F83F0083
:101BF000049981F84300FFE726E09DF80B000128D7
:101C00000FD1FFE79DF80A0001280AD1FFE79DF8F0
:101C10000900012805D1FFE79DF80800012804D03C
:101C2000FFE701208DF817003DE00499022081F8BC
:101C30003E00049981F83F00049981F8420004991C
:101C400081F84300FFE7FFE7FFE70398019020B129
:101C5000FFE70198042807D00DE0049800680021F0
:101C6000012200F09DFF14E0049800680421012285
:101C700000F096FF0DE00498006800210122009218
:101C800000F08EFF009A04980068042100F088FF9D
:101C9000FFE704980168086840F001000860002030
:101CA0008DF81700FFE79DF8170006B080BD000013
:101CB00081B0009001B0704780B584B00390039864
:101CC0000068C068029003980068006901909DF860
:101CD00004008007002824D5FFE79DF8080080074E
:101CE00000281DD5FFE7039801686FF00200086126
:101CF000039901200877039800688069800720B164
:101D0000FFE70398FFF7D4FF06E0039800F018F907
:101D1000039800F00DFAFFE7039900200877FFE72A
:101D2000FFE79DF804004007002825D5FFE79DF850
:101D30000800400700281ED5FFE7039801686FF0F0
:101D400004000861039902200877039800688069FD
:101D500010F4407F04D0FFE70398FFF7A9FF06E0E7
:101D6000039800F0EDF8039800F0E2F9FFE703991B
:101D700000200877FFE7FFE79DF804000007002830
:101D800024D5FFE79DF80800000700281DD5FFE7D0
:101D9000039801686FF00800086103990420087730
:101DA00003980068C069800720B1FFE70398FFF738
:101DB0007FFF06E0039800F0C3F8039800F0B8F93D
:101DC000FFE7039900200877FFE7FFE79DF804008D
:101DD000C006002825D5FFE79DF80800C0060028AA
:101DE0001ED5FFE7039801686FF0100008610399A2
:101DF0000820087703980068C06910F4407F04D079
:101E0000FFE70398FFF754FF06E0039800F098F807
:101E1000039800F08DF9FFE7039900200877FFE7AA
:101E2000FFE79DF80400C00778B1FFE79DF80800C0
:101E3000C00748B1FFE7039801686FF0010008612F
:101E4000039800F05FFAFFE7FFE79DF80400000643
:101E5000002810D5FFE79DF808000006002809D5E6
:101E6000FFE7039801686FF0800008610398FFF7AF
:101E7000D7FAFFE7FFE79DF804004006002810D5D9
:101E8000FFE79DF808004006002809D5FFE7039802
:101E900001686FF040000861039800F041FAFFE725
:101EA000FFE79DF804008006002810D5FFE79DF8A5
:101EB00008008006002809D5FFE7039801686FF045
:101EC000200008610398FFF7AFFAFFE7FFE704B0CF
:101ED00080BD000080B588B0079000200690059076
:101EE0000490039002900798006840F20041C4F209
:101EF0000101884222D1FFE7FFE70020019043F66D
:101F00003000C4F20200016841F004010160006881
:101F100000F0040001900198FFE7C0200290022029
:101F200003900020049005900320069040F60000E6
:101F3000C4F2020002A9FEF78DFAFFE708B080BDE7
:101F400081B0009001B0704780B586B004900391D5
:101F5000029200208DF80700FFE7049890F83C00FB
:101F6000012804D1FFE702208DF8170089E00499C9
:101F7000012081F83C00FFE7FFE7029800900C2861
:101F800000F270800099DFE801F0076D6D6D206D43
:101F90006D6D3A6D6D6D530004980068039900F003
:101FA0004BFE04980168886940F008008861049835
:101FB0000168886920F00400886103980269049828
:101FC000016888691043886150E0049800680399AB
:101FD00000F0A8FE04980168886940F400608861F8
:101FE00004980168886920F4806088610398026918
:101FF00004980168886940EA0220886136E0049804
:102000000068039900F008FF04980168C86940F06F
:102010000800C86104980168C86920F00400C8611C
:102020000398026904980168C8691043C8611DE0FB
:1020300004980068039900F069FF04980168C86972
:1020400040F40060C86104980168C86920F48060A9
:10205000C8610398026904980168C86940EA0220CF
:10206000C86103E001208DF80700FFE7FFE704994E
:10207000002081F83C00FFE79DF807008DF817006D
:10208000FFE79DF8170006B080BD000080B582B064
:102090000090009820B9FFE701208DF807003FE08D
:1020A000009890F83D0040B9FFE70099002081F8C2
:1020B0003C00009800F038F8FFE70099022081F812
:1020C0003D00009951F8040B00F092FC00990120AA
:1020D00081F84600FFE70099012081F83E00009951
:1020E00081F83F00009981F84000009981F8410093
:1020F000FFE7FFE70099012081F84200009981F88D
:102100004300009981F84400009981F84500FFE7F9
:102110000099012081F83D0000208DF80700FFE7BD
:102120009DF8070002B080BD81B0009001B07047FB
:1021300081B0009001B0704780B58CB00A900991D1
:10214000099828B9FFE70A9890F83E0007901CE02C
:102150000998042805D1FFE70A9890F83F000690F7
:1021600010E00998082805D1FFE70A9890F8400088
:10217000059004E00A9890F841000590FFE7059863
:102180000690FFE706980790FFE70798012804D01C
:10219000FFE701208DF82F00AFE0099828B9FFE78D
:1021A0000A99022081F83E001EE00998042806D111
:1021B000FFE70A99022081F83F00049012E0099895
:1021C000082806D1FFE70A99022081F84000039011
:1021D00005E00A99022081F841000390FFE7039887
:1021E0000490FFE70498FFE70A9800680999012224
:1021F000019200F0D5FC01980A9909680022C4F206
:102200000102914202900CD0FFE70A9800684FF655
:102210000041CBF6FE710844B0FA80F0400902900C
:10222000FFE70298C00738B1FFE70A980168486CD9
:1022300040F400404864FFE70A9800680021C4F2B7
:10224000010188423CD0FFE70A980068B0F1804F56
:1022500036D0FFE70A98006840F20041C4F200015E
:1022600088422DD0FFE70A98006840F60001C4F2CA
:102270000001884224D0FFE70A98006840F6004138
:10228000C4F2000188421BD0FFE70A98006840F2C0
:102290000041C4F20101884212D0FFE70A980068A9
:1022A00044F20001C4F20101884209D0FFE70A9814
:1022B000006841F60001C4F20001884212D1FFE734
:1022C0000A980068806800F00700089008980628BF
:1022D00007D0FFE70A980168086840F0010008602D
:1022E000FFE706E00A980168086840F0010008600E
:1022F000FFE700208DF82F00FFE79DF82F000CB0BE
:1023000080BD000080B582B0019001980068B0F1F6
:10231000804F03D1FFE700F03DFAFFE702B080BD38
:1023200081B0009001B0704780B582B000900098F5
:1023300020B9FFE701208DF8070040E00098806990
:1023400008B1FFE700E0FFE7009890F8410040B9CE
:10235000FFE70099002081F84000009800F034F871
:10236000FFE70099242081F8410000980168C868BF
:1023700020F40050C860009800F06CFE00980168DE
:10238000086920F49040086100980168486920F0CD
:102390002A00486100980168C86840F40050C8608D
:1023A000009900204864009A202182F84110009A88
:1023B00082F84210009948638DF80700FFE79DF806
:1023C000070002B080BD000080B588B007900020F3
:1023D000069005900490039002900798006844F2DC
:1023E0000041C4F20001884233D1FFE7FFE700203B
:1023F000019043F64000C4F20200016841F400314C
:102400000160006800F4003001900198FFE7FFE7E9
:102410000020009043F63000C4F20200016841F051
:1024200001010160006800F0010000900098FFE7E2
:102430000C200290022003900020049003200590BD
:10244000072006900020C4F2020002A9FEF702F85D
:10245000FFE708B080BD0000FFE7FEE780B58CB065
:1024600000200B900A90099008900790FFE7002049
:10247000069043F63000C4F20200016841F080018A
:102480000160006800F0800006900698FFE7FFE713
:102490000020059043F63000C4F20200016841F0CC
:1024A00004010160006800F0040005900598FFE752
:1024B000FFE70020049043F63000C4F202000168F8
:1024C00041F001010160006800F0010004900498EF
:1024D000FFE740F60000C4F202000390042100224E
:1024E0000292FEF793F90398082101220192FEF768
:1024F0008DF9019A029903980C2307930892099188
:102500000A9107A9FDF7A6FF0CB080BD80B58EB07B
:1025100005A800902421FDF71FFF009900220192D9
:102520000492039240F28400C2F200000290002361
:10253000C4F2010303600123436082604FF6FF7C15
:10254000C0F80CC00261426182614FF0030CCDF80B
:1025500014C006920793089209920A920B930C9268
:102560000D92FFF71FFA18B1FFE7FDF76FFFFFE7C6
:1025700000200390049040F28400C2F2000003A9FE
:10258000FEF7B0FF18B1FFE7FDF760FFFFE70EB001
:1025900080BD000080B588B00021019107910691AF
:1025A000059104910391029140F2CC00C2F2000027
:1025B0004FF080420260A7224260816044F23F22D5
:1025C000C0F20F02C26001618161FFF71DF818B10E
:1025D000FFE7FDF73BFFFFE74FF48050049040F228
:1025E000CC00C2F2000004A9FFF71AF918B1FFE706
:1025F000FDF72CFFFFE700200290039040F2CC0093
:10260000C2F2000002A9FEF76DFF18B1FFE7FDF767
:102610001DFFFFE708B080BD80B598B00021019193
:102620001791169115911491139112911191109186
:102630000F910E910D910C910B910A9109910891B6
:102640000791069105910491039140F21410C2F292
:102650000000029040F20042C4F20102026040F227
:102660008F62426081606322C26001614161816169
:10267000FEF7CAFF18B1FFE7FDF7E8FEFFE74FF4EA
:102680008050149040F21410C2F2000014A9FFF719
:10269000C7F818B1FFE7FDF7D9FEFFE740F21410C5
:1026A000C2F20000FFF7F2FC18B1FFE7FDF7CEFE23
:1026B000FFE700201290139040F21410C2F20000C5
:1026C00012A9FEF70FFF18B1FFE7FDF7BFFEFFE706
:1026D00060200B9000220C920D920E920F9210929D
:1026E000119240F21410C2F200000BA9FFF72CFC6B
:1026F00018B1FFE7FDF7AAFEFFE740F21410C2F29F
:1027000000000BA90422FFF71FFC18B1FFE7FDF73B
:102710009DFEFFE70020039004900590069007902F
:102720004FF4005108910A9040F21410C2F20000D8
:1027300003A9FEF77DFE18B1FFE7FDF787FEFFE76F
:1027400040F21410C2F20000FFF7C4FB18B080BDC5
:1027500080B582B040F25C10C2F20000019044F2F9
:102760000041C4F2000101604FF4E13141600021F9
:102770008160C16001610C2242618161C161FFF72A
:10278000D3FD18B1FFE7FDF761FEFFE702B080BDA2
:10279000FFE7FEE780B582B0FDF746FE00EE100AC7
:1027A000B8EEC00A40F27800C2F20000009080ED5E
:1027B000000A90ED001A40F27C00C2F2000090ED99
:1027C000000A30EE010A80ED000A40F20801C2F270
:1027D000000191ED000AD0ED000A40F2A410C2F20F
:1027E000000000F00DFF009840F20001C2F200016D
:1027F000019181ED000A91ED000AD0ED000A40F24E
:10280000D010C2F2000000F04BFE019880ED000AEB
:1028100090ED000ABDEEC00A10EE100A00F03EF87E
:1028200002B080BDFFE7FEE788B0079006910592F1
:10283000079800F0070004900498C0F107000528ED
:1028400003D3FFE70420019004E00498C0F10700DF
:102850000190FFE70198039004980430062803D8FC
:10286000FFE70020009003E0049803380090FFE7A2
:102870000098029006980399012202FA01F10139A9
:102880000840029B984005999A40013A114008433C
:1028900008B07047704700007047000081B000909A
:1028A000009840F21411C2F200010968486301B0B7
:1028B0007047000080B582B0009000980138B0F1F8
:1028C000807F03D3FFE70120019019E000980138D1
:1028D0004EF21401CEF2000108604FF0FF300F21DC
:1028E00000F0D0FC4EF21801CEF20001002008608A
:1028F0004EF21002CEF20002072111600190FFE7B4
:10290000019802B080BD000080B5FDF79DFF80BD3D
:1029100080B594B008A83021FDF71EFD0020079077
:102920000690059004900390FFE70020029043F684
:102930004000C4F20200016841F08051016000686B
:1029400000F0805002900298FFE7FFE7002001901E
:1029500047F20000C4F20000016841F480410160C8
:10296000006800F4804001900198FFE70220089081
:1029700001210B9110210C910E9000210F91082143
:102980001091A821119112900420139008A8FEF72D
:10299000DFF918B1FFE7FDF759FDFFE70F200390BE
:1029A00002200490002005904FF4A05006904FF4B0
:1029B0008050079003A80521FDF7FAFF18B1FFE743
:1029C000FDF744FDFFE714B080BD00004EF68851CE
:1029D000CEF20001086840F4700008607047000003
:1029E00080B540F2CC00C2F20000FFF765F980BD6F
:1029F00083B0029001910298006800900298002133
:102A0000C4F20101884225D0FFE70298B0F1804F5F
:102A100020D0FFE7029840F20041C4F20001884252
:102A200018D0FFE7029840F60001C4F20001884286
:102A300010D0FFE7029840F60041C4F2000188423E
:102A400008D0FFE7029840F20041C4F20101884239
:102A50000AD1FFE7009820F07000009001984168CB
:102A6000009808430090FFE702980021C4F201019A
:102A7000884255D0FFE70298B0F1804F50D0FFE771
:102A8000029840F20041C4F20001884248D0FFE7BA
:102A9000029840F60001C4F20001884240D0FFE7EE
:102AA000029840F60041C4F20001884238D0FFE7A6
:102AB000029840F20041C4F20101884230D0FFE7A1
:102AC000029844F20001C4F20101884228D0FFE7D5
:102AD000029844F20041C4F20101884220D0FFE78D
:102AE000029844F60001C4F20101884218D0FFE7C1
:102AF000029841F60001C4F20001884210D0FFE7BD
:102B0000029841F60041C4F20001884208D0FFE774
:102B1000029842F20001C4F2000188420AD1FFE7A4
:102B2000009820F4407000900198C1680098084314
:102B30000090FFE7009820F0800001994969084360
:102B40000090009802990860019880680299C86214
:102B5000019800680299886202980021C4F201017C
:102B6000884208D0FFE7029840F20041C4F2010118
:102B7000884205D1FFE70198006902990863FFE7E1
:102B800002990120486102980069C00730B1FFE74F
:102B90000299086920F001000861FFE703B070475F
:102BA00084B0039002910192029800F01F0101206D
:102BB00088400090009A0399086A9043086201983F
:102BC000029901F01F0100FA01F20399086A10430B
:102BD000086204B07047000085B00490039102922F
:102BE0000193049880680090009820F47F40009042
:102BF00003980299019A41EA02210143009808438F
:102C0000009000980499886005B0704783B00290E6
:102C10000191029880680090009820F07000009068
:102C200001980099084340F007000090009802992D
:102C3000886003B07047000085B004900391049849
:102C4000006A01900499086A20F001000862049863
:102C500040680090049880690290029820F070000B
:102C60000290029820F003000290039801680298F5
:102C700008430290019820F00200019003988168B7
:102C800001980843019004980021C4F20101884290
:102C900008D0FFE7049840F20041C4F201018842E5
:102CA0000ED1FFE7019820F0080001900398C16859
:102CB000019808430190019820F004000190FFE77B
:102CC00004980021C4F20101884208D0FFE704986B
:102CD00040F20041C4F20101884213D1FFE700989D
:102CE00020F480700090009820F400700090039809
:102CF000416900980843009003988169009808434F
:102D00000090FFE700980499486002980499886150
:102D1000039840680499486301980499086205B0D3
:102D20007047000085B0049003910498006A0190F8
:102D30000499086A20F01000086204984068009026
:102D4000049880690290029820F4E0400290029872
:102D500020F44070029003980168029840EA012034
:102D60000290019820F0200001900398816801985A
:102D700040EA0110019004980021C4F20101884248
:102D800008D0FFE7049840F20041C4F201018842F4
:102D90000FD1FFE7019820F0800001900398C168EF
:102DA000019840EA01100190019820F04000019044
:102DB000FFE704980021C4F20101884208D0FFE730
:102DC000049840F20041C4F20101884215D1FFE7A6
:102DD000009820F480600090009820F4006000903B
:102DE00003984169009840EA810000900398816946
:102DF000009840EA81000090FFE70098049948603D
:102E0000029804998861039840680499886301983E
:102E10000499086205B0704785B004900391049846
:102E2000006A01900499086A20F48070086204988E
:102E3000406800900498C0690290029820F07000E9
:102E40000290029820F00300029003980168029813
:102E500008430290019820F4007001900398816863
:102E6000019840EA0120019004980021C4F2010178
:102E7000884208D0FFE7049840F20041C4F2010103
:102E800088420FD1FFE7019820F400600190039879
:102E9000C168019840EA01200190019820F4806007
:102EA0000190FFE704980021C4F20101884208D094
:102EB000FFE7049840F20041C4F20101884215D1B5
:102EC000FFE7009820F480500090009820F4005014
:102ED000009003984169009840EA0110009003981F
:102EE0008169009840EA01100090FFE7009804997A
:102EF000486002980499C861039840680499C863BF
:102F000001980499086205B07047000085B00490EC
:102F100003910498006A01900499086A20F4805093
:102F200008620498406800900498C0690290029872
:102F300020F4E0400290029820F440700290039840
:102F40000168029840EA01200290019820F40050A4
:102F5000019003988168019840EA0130019004983B
:102F60000021C4F20101884208D0FFE7049840F232
:102F70000041C4F2010188420BD1FFE7009820F420
:102F80008040009003984169009840EA81100090C9
:102F9000FFE700980499486002980499C861039873
:102FA00040680499086401980499086205B0704764
:102FB00085B00490039102920498006A00900499ED
:102FC000086A20F001000862049880690190019865
:102FD00020F0F00001900299019840EA0110019060
:102FE000009820F00A000090039900980843009090
:102FF00001980499886100980499086205B07047A7
:1030000085B00490039102920498006A009004999C
:10301000086A20F010000862049880690190019805
:1030200020F4704001900299019840EA013001902B
:10303000009820F0A00000900399009840EA011049
:10304000009001980499886100980499086205B07D
:103050007047000080B586B005900598006800694B
:1030600020F44050059A1168D26810430861059910
:1030700088680B694A69C96918431043084304907A
:1030800005980068C06849F20C61884304990843B8
:1030900005990968C86005980068406920F4407087
:1030A000059A11689269104348610598006841F2D9
:1030B0000001C4F20101884209D0FFE705980068C9
:1030C00041F20041C4F20101884204D1FFE7FDF75B
:1030D000B9FD039003E0FDF7A3FD0390FFE705981A
:1030E000C069B0F5004F29D1FFE703981921A0FB73
:1030F0000101059A1368029353685A00DB0FFDF72C
:10310000B3F80299864648F21F53C5F2EB13AEFBA3
:103110000320420910014FF0640C02FB1CEC322228
:1031200002EBCC02A2FB0332F82303EA521300EBBA
:103130004300C2F342121044886026E0039819212C
:10314000A0FB0101059A1368019353689A009B0F35
:10315000FDF78AF80199844648F21F52C5F2EB1236
:10316000ACFB02304309642003FB10CC322000EB9F
:103170000C10A0FB0202F02000EA521000EB03103A
:10318000C2F3431210448860FFE706B080BD000020
:10319000FFE7FEE780B584B00390039902910868C9
:1031A0004968FEF7C9FF0298406838B9FFE70298FE
:1031B00041890068006840F8341F26E002984068A2
:1031C000042808D1FFE7029841890068006840F8A8
:1031D000381F019017E002984068082808D1FFE7DF
:1031E000029841890068006840F83C1F009007E0A1
:1031F000029841890068006840F8401F0090FFE78E
:1032000000980190FFE70198FFE704B080BD00003F
:1032100083B0029001910092029901980860009891
:10322000486003B07047000080B582B00190009103
:1032300001980099016000683C21FEF791FC02B002
:1032400080BD000081B08DF803009DF903000028C7
:103250000ED4FFE79DF9031001F01F0201209040FA
:103260004A094EF20011CEF2000141F82200FFE7B8
:1032700001B070474EF60C50CEF200000068C0F36B
:103280000220704782B08DF8070000919DF9070079
:1032900000280AD4FFE7009800019DF907104EF2BC
:1032A0000042CEF2000288540BE0009800019DF825
:1032B000071001F00F014EF61452CEF200028854AE
:1032C000FFE702B07047000083B00290029800F060
:1032D000070000904EF60C51CEF2000108680190F4
:1032E00001984FF6FF02104001900198009A40EAC1
:1032F00002200022C0F2FA521043019001980860A7
:1033000003B0704783B08DED010ACDED000A9DED4D
:10331000010A9DED001AB4EE410AF1EE10FA03DD48
:10332000FFE70098029015E09DED010A9DED001A5F
:10333000B1EE411AB4EE410AF1EE10FA07DAFFE7F6
:103340009DED000AB1EE400A8DED020A02E00198FF
:103350000290FFE79DED020A03B0704783B08DED48
:10336000010ACDED000A9DED010A9DED001AB4EEB3
:10337000410AF1EE10FA03DDFFE70098029015E034
:103380009DED010A9DED001AB1EE411AB4EE410A1D
:10339000F1EE10FA07DAFFE79DED000AB1EE400A00
:1033A0008DED020A02E001980290FFE79DED020A0E
:1033B00003B0704780B588B0002000900790FDF7FB
:1033C00051FAFFF7A5FAFFF749F8FFF725F9FFF7DC
:1033D0009DF8FFF7BDF9FFF7DDF800F047F8009919
:1033E00040F21410C2F200000190FEF7A5FE019811
:1033F0003C21FEF7B5FB40F2CC00C2F20000FEF724
:1034000093F940F2A410C2F20000B7EE000A8DED6D
:10341000020ADFED120ACDED030A9FED111A8DEDC0
:10342000041ADFED101ACDED051A9FED0F2A8DED70
:10343000062A00F0C7F89DED020ADDED030A9DEDB6
:10344000041ADDED051A9DED062A40F2D010C2F2F5
:10345000000000F091F8FFE7FEE700BFCDCCCC3DC7
:103460000AD7233C000096430000484380B588B04B
:1034700040F28401C2F2000103A8FFF7D5FE40F23A
:103480001411C2F2000105A8019000220292FFF778
:10349000BFFE0198FFF77EFE029808B080BD0000D5
:1034A00080B584B003908DED020ACDED010A9DED4B
:1034B000020A9DED011A30EE410A039880ED050ADB
:1034C000039890ED052A90ED044A32EE446A90ED9F
:1034D000001A90ED015A90ED020A90ED033A25EEA4
:1034E000025A21EE061A31EE051A34EE044A32EE83
:1034F000442A32EE032A20EE020A30EE010A80ED61
:10350000080A039890ED080AD0ED0A0AFFF7FAFEC0
:10351000039880ED080A03990869C860039948690F
:103520000861039890ED080A90ED0A1AB4EE410A7A
:10353000F1EE10FA04DDFFE70399886A086215E0EE
:10354000039890ED080A90ED0A1AB1EE411AB4EE14
:10355000410AF1EE10FA08DAFFE7039890ED0A0A43
:10356000B1EE400A80ED080AFFE7FFE7039890ED0F
:10357000080A04B080BD000086B005908DED040AF5
:10358000CDED030A8DED021ACDED011A8DED002A65
:103590000498059908600398059948600298059970
:1035A0008860059900204861059908610599C860FF
:1035B0009DED000A8DED010A059880ED0A0A06B01E
:1035C0007047000086B005908DED040ACDED030A2A
:1035D0008DED021ACDED011A8DED002A04980599A2
:1035E00008600398059948600298059988600198D9
:1035F0000599486200980599886206B070470000F6
:1036000080B584B003908DED020ACDED010A9DEDE9
:10361000020A9DED011A30EE410A039880ED050A79
:10362000039890ED051A90ED070A30EE010A80ED3F
:10363000070A039890ED041A90ED050A30EE410A4E
:1036400080ED060A039890ED001A90ED012A90EDA6
:10365000020A90ED053A90ED074A22EE042A21EE87
:10366000031A31EE021A90ED062A20EE020A30EE1D
:10367000010A80ED080A039890ED080AD0ED0A0AC5
:10368000FFF76CFE039880ED080A039890ED080A96
:1036900004B080BDF1EE100A4FF6FF71C0F2C031E8
:1036A00020EA010040F04070E1EE100A704700008F
:1036B00000000000000001020304060708090000E2
:1036C0000000010203040000E836000800000020AA
:1036D00018000000C401000800370008180000208E
:1036E000E8070000E00100080000F0410024F400B9
:1036F0000000FA430100000010000000000000007C
:040000050800018965
:00000001FF
