:020000040800F2
:10000000700C0020E5020008B15D0008295B0008C3
:10001000AD5D0008711A0008ED6B000800000000DB
:10002000000000000000000000000000FD5D00086E
:10003000AD1A000800000000F95D0008755E0008B8
:10004000FF020008FF020008FF020008FF0200088C
:10005000FF020008FF020008FF020008FF0200087C
:10006000FF020008FF020008FF020008FF0200086C
:10007000FF020008FF020008FF020008FF0200085C
:10008000FF020008FF020008FF020008FF0200084C
:10009000FF020008FF020008FF020008FF0200083C
:1000A000FF020008FF020008FF020008FF0200082C
:1000B000A95F0008FF020008FF020008FF02000815
:1000C000FF020008FF020008FF020008FF0200080C
:1000D000FF020008FF020008FF020008FF020008FC
:1000E000FF020008FF020008FF020008FF020008EC
:1000F000FF020008FF020008FF020008FF020008DC
:10010000FF020008FF020008FF020008FF020008CB
:10011000FF020008FF020008FF020008FF020008BB
:10012000FF020008FF020008FF020008FF020008AB
:10013000FF0200080000000000000000FF020008AD
:10014000FF020008FF020008FF020008FF0200088B
:10015000FF020008FF020008FF020008FF0200087B
:10016000FF020008FF020008FF020008FF0200086B
:10017000FF020008FF02000800000000000000006D
:10018000FF020008FF02000800F002F800F09BF8F0
:100190000AA090E8000C82448344AAF10107DA45E2
:1001A00001D100F090F8AFF2090EBAE80F0013F099
:1001B000010F18BFFB1A43F00103184788B0000075
:1001C000A8B00000103A24BF78C878C1FAD8520706
:1001D00024BF30C830C144BF04680C6070470000C1
:1001E0000023002400250026103A28BF78C1FBD840
:1001F000520728BF30C148BF0B6070476E2900F01E
:10020000F381702900F0358366290AF0708465292E
:100210000AF06D8467290AF06A8461290AF069840A
:1002200003681B0A28BF41F08001692900F0A08102
:10023000642900F09D81752900F09A816F2900F0F2
:10024000C382782900F00183E92900F05D82E42966
:1002500000F05A82F52900F05782EF2900F0C082A1
:10026000F82900F000830368DB0928BF41F0800112
:10027000632901F09D80732901F0A280E32901F038
:10028000AD80F32901F0B280002070471FB50AF05D
:1002900024FC9DE8030001F0C7F901F0A9F904006E
:1002A000002000210AF00AF9401C606000200021B3
:1002B0000AF0EEF8E06000F0E7F81FBD10B500208E
:1002C00001F0BCF810BD01F062F91146FFF7DEFF46
:1002D00009F006FC01F0CCFA03B4FFF7EFFF03BC12
:1002E00000F0F8FB0948804709480047FEE7FEE7B1
:1002F000FEE7FEE7FEE7FEE7FEE7FEE7FEE7FEE7D6
:1003000004480549054A064B70470000955F000800
:100310008901000870060020700C00207008002081
:100320007008002053EA020C00F069802DE9F04BC0
:100330004FF00006002B1FBFB3FA83F503FA05F454
:1003400024FA05F65E4012BF1643B2FA82F502FAAD
:1003500005F4C5F120051EBF22FA05FC44EA0C0491
:10036000203556EA044C4FEA144418BF641C4FF081
:1003700000084FF00009904271EB030C39D30029BB
:1003800019BFB1FA81F701FA07F6B0FA80F700FA5F
:1003900007F6C7F120071EBF20FA07FC46EA0C0645
:1003A0002037B6FBF4FCA7EB0507103F07F01F0B47
:1003B000CBF120062CFA06F60CFA0BFB44BFB34631
:1003C0000026202FA4BF5E464FF0000B5BEA060C10
:1003D00008BF4FF0010B19EB0B0948EB0608ABFB0C
:1003E000027C06FB02CC0BFB03CCC01B71EB0C01A7
:1003F000C1E70B46024641464846BDE8F08B13B5BF
:100400004FF000004FF00001AFF30080BDE81C404A
:10041000704700001CB50C46064B7B4469460090B3
:10042000204600F0FAF804460020694600F008F97A
:1004300020461CBD230200000B460146184600F072
:10044000F2BA10B5431C02E010F8011B71B181072C
:10045000FAD14FF0013202C88C1A8C4314EAC2114F
:10046000F9D0C01A0A0603D0C01E10BDC01A10BDB4
:100470000A0401D0801E10BD0902FCD0401E10BD30
:10048000704770477047000070B5064C7C44064DBD
:100490007D4403E0206820448047241DAC42F9D10C
:1004A00070BD000000AF000000AF000070B5044652
:1004B00085690068C10601D5302600E02026C00706
:1004C00007D070BDD4E9012130469047206A401C16
:1004D00020626D1EF6D570BD70B504468569007842
:1004E000C00707D170BDD4E9012120209047206AC0
:1004F000401C20626D1EF6D570BD09684A0501D505
:1005000040B27047C905FCD500B2704709684A057A
:1005100001D5C0B27047C905FCD580B2704770B52F
:100520000C460546012A05D02878800600D5EA69E0
:10053000002302E0012305E05B1C934202D2E05C51
:100540000028F9D1A869E618C01AA861286A1844D9
:1005500028622846FFF7AAFF04E0D5E9012114F834
:10056000010B9047B442F8D32846FFF7B5FF70BDA2
:100570002DE9F0410646002410687529314616A57C
:1005800010D0FFF7BAFF002802DA404213A507E0B7
:1005900031688A0701D512A502E0490704D511A5E3
:1005A000012401E0FFF7B2FF00210A2206F124072F
:1005B00009E0B0FBF2FCB0FBF2F302FB1C003030B0
:1005C00078541846491C0028F3D123462A46304661
:1005D000BDE8F04100F0FCBA000000002D00000072
:1005E0002B0000002000000011680268006A53051B
:1005F00001D508700AE0D30501D5088006E013068E
:1006000003D5C217C1E9000200E00860012070476D
:1006100001694A1C02610878704700B58FB0CDE9C6
:1006200001310021059105497944CDE903101146B6
:10063000684600F029F90FB000BD0000E5FFFFFF9C
:100640000A6802F8010B0A60704700002DE9FF5F9D
:1006500015468A460446DFF8AC80F8440027D8E9FE
:1006600000103E46CDE9001010E03AF816106A4638
:1006700002A800F0BFFE411C07D02178890603D5EF
:10068000E269391891420DD80744761C207880061B
:1006900002D5E069B84205DDAE42E6DB3AF8160065
:1006A0000028E2D1A069C01BA0612046FFF7FEFE32
:1006B000D8E90010CDE90010002017E03AF8181032
:1006C0006A4602A800F096FEB0F1FF3F81460BD0CB
:1006D00000250DF1080B05E0D4E901211BF8050008
:1006E00090476D1C4D45F7D308F10100B04280469C
:1006F000E4DB206A384420622046FFF7EDFEBDE8C7
:10070000FF9F000002A700002DE9F0418046D21DA6
:1007100022F007020025D2E90002F52915A614D01F
:10072000011E72F1000106DA0023D0EB030063EB37
:10073000020211A608E0D8F800108B0701D50FA619
:1007400002E0490701D50EA601251146002408F153
:10075000240704E000F0F7F930323A55641C50EAFF
:100760000102F7D12B46324621464046BDE8F04112
:1007700000F02EBA000000002D0000002B00000049
:100780002000000030B4002100F1240408E002F051
:100790000705D208303542EA4372DB086554491C2C
:1007A00052EA0305F3D10468002310A2250708D5F7
:1007B00004F020040C4304D0C46901230CA2641E7D
:1007C000C46130BC00F004BA10B50446214610687C
:1007D000FFF79CFE02462046BDE810400023D1E70B
:1007E000D21D22F00701D1E90023CBE70000000071
:1007F00030000000F0B40D460188090502D5214CF7
:100800007C4402E01F4C7C440E34002100F124069D
:1008100008E002F00F071209E75D42EA03721B09C4
:100820007754491C52EA0307F3D1027800231207D8
:1008300004D5702D06D009B1022311342246F0BC34
:1008400000F0C6B901231034F8E770B504460D4630
:1008500021461068FFF75AFE024629462046BDE8A9
:1008600070400023C6E7D21D22F00703D3E900231E
:10087000C0E70368126843F0200303600823C361E4
:100880000023B7E764A500002DE9F05F8946044620
:100890004FF0000ADFF874B1FB44C0F820A02046F6
:1008A000E1688847002874D0252806D0D4E90121C2
:1008B0009047206A401C2062F1E700265F462046F0
:1008C000E16888472028054607DB312D05D27819D5
:1008D00010F8200C08B10643F1E7B00701D526F067
:1008E0000406C4F81CA00027C4F818A02A2D09D0BB
:1008F000284609F0C5FD38B304EB8708303DC8F839
:10090000185019E059F8041B204604EB8702916146
:10091000E1688847012F054618D1E069002820DAF0
:1009200026F020061DE0D8F8180000EB800005EB4B
:1009300040003038C8F818002046E168884705466E
:1009400009F09EFD0028EED1012F0AD02E2D08D1EE
:100950002046E16888477F1C0546022F46F02006A6
:10096000C4DBA069002803DA404246F00106A0611A
:10097000F00701D026F010066C2D0BD0682D09D0A1
:100980004C2D39D06A2D35D0742D35D07A2D33D0F9
:1009900016E038E0E1682F4620468847B842054611
:1009A00009D16C2F26D04FF48060E16806432046C1
:1009B0008847054604E06C2F1AD04FF48070064338
:1009C0000DB3A5F14100192802D8203546F4006680
:1009D0004A462946204626604E46FFF70FFC80B166
:1009E00001280BD0F61D26F0070000F1080956E794
:1009F0004020E4E78020D8E70020D6E706F104098C
:100A00004DE7284652E7206ABDE8F09FF4A40000B5
:100A100010B5002000F033FDFFF750FCBDE810409A
:100A2000012000F057B82DE9F041074615460E4663
:100A3000102000F059F804000AD06760C4E902658C
:100A400000F04EF80168216004600020BDE8F081EC
:100A50000120FBE74FF0000200B51346944696468E
:100A6000203922BFA0E80C50A0E80C50B1F12001C1
:100A7000BFF4F7AF090728BFA0E80C5048BF0CC06F
:100A80005DF804EB890028BF40F8042B08BF7047CD
:100A900048BF20F8022B11F0804F18BF00F8012B3F
:100AA0007047000080E8FF1FC0F834D0C0F838E07D
:100AB000C0F83CE04FF00000704700BF80EC200B16
:100AC000704700BF80EC200B704700BFC0EC200BCC
:100AD0007047000001491820ABBEFEE72600020067
:100AE000004870475000002070B5064600F07CFDBD
:100AF000056806F10B0020F00704B4429CBF0020FB
:100B000070BD2B466A68BAB11068A04210D304F1D8
:100B1000080188423CBF5068586007D351681019DB
:100B200041601168091B016058601460101D70BDA0
:100B300013465268002AE7D12146284600F060FD9E
:100B40000028DED170BD30B5B0F10A0271F10003AA
:100B50004FEA900E4EEA817EB0EB0E0061EB910100
:100B60004FEA101E4EEA017E10EB0E0041EB111110
:100B70004FEA102E4EEA016E10EB0E0041EB1121F0
:100B80004FEA104E4EEA014E10EB0E0041EB1141C0
:100B9000401841F100014FEAD00040EA41704FEAAD
:100BA000D1014FEA810444EA907410EB800544EBD4
:100BB00001046D1944EB0404521BA3414FF00003E0
:100BC00048BF0A3200D530BD401C41F1000130BDA4
:100BD0002DE9F0470D4699469246044600F1240857
:100BE0000168880604D5E06921F01001216000E069
:100BF0000120A84201DD471B00E00027A1697A1906
:100C000002EB0900081AA0612078C00602D4204631
:100C1000FFF74CFC002608E0D4E901211AF8060091
:100C20009047206A401C761C20624E45F4DB2078F9
:100C3000C0060AD52046FFF739FC06E0D4E90121B9
:100C400030209047206A401C2062381EA7F101071F
:100C5000F4DC07E0D4E9012118F805009047206A88
:100C6000401C2062281EA5F10105F3DC2046FFF799
:100C700033FC2078000602D50220BDE8F087012071
:100C8000FBE770472DE9FF4F0C461E464FF0FF373C
:100C90008BB0D2E90001DDF860800A908A46C1F38A
:100CA0000A5505B93D46002108464FF00000BAF14B
:100CB000000F00F4400005DA00EB80004FF4400123
:100CC00001EA50004FEA9059B9F1010F00DDB94631
:100CD0000A9850EA4A000ED044F61050A5F2FF35AB
:100CE00045432F14B8F1000F1ED07542291E1EDD9A
:100CF000C9F100021CE0B8F1010F4FF0000001D073
:100D0000302103E0F24305E02154401CB042FBDBFC
:100D100030460022002121540B99C1F80880C1E916
:100D200000200FB0BDE8F08FBD1B6D1CDEE74A460A
:100D300000DA694206A800F029FD06AB93E8070037
:100D400003AB83E8070050460A9908F0B9FF8DE825
:100D50000700A0F500501F3800900398002D0ADD11
:100D600042F21F014A460844002303A90390684643
:100D700009F022FA09E0A0F500504A461F38002386
:100D800003A90390684609F02CFA8DE807000004D7
:100D9000000C03D04FF0FF30410800E01046B8F1DE
:100DA000000F03D00022009215461EE0751E05D4E8
:100DB000FFF7C9FE303262556D1EF9D5B3460122E8
:100DC000084302D000227F1C04E02078302801D1A3
:100DD00000227F1E002A099784D01DE0112D07DA1A
:100DE000FFF7B1FE303262556D1C50EA0102F5D1B9
:100DF000084302D00098C8B10EE00021681E05E04B
:100E0000235C625C63542254401E491C8142F7DB20
:100E1000AB46A81B401E0990002004F80B000B985D
:100E2000099AC0F80880C0E9002B7AE711264FF034
:100E3000000857E72DE9F04F88460446D21D22F0FE
:100E4000070191B0D1E90001CDE90A0109F000FBE9
:100E500002460B98C00F01D02D2007E020688107C3
:100E600001D52B2002E0202101EAC000032A0990CD
:100E700001D0072A05DB03464146204600F046FC28
:100E80000BE12078800601D5E06900E00620B8F18A
:100E9000650F814606D0B8F1660F18D0B8F1670F1C
:100EA00070D131E00020B9F1110F009001DB112366
:100EB00001E009F101030AAA01A90CA8FFF7E2FE6B
:100EC000DDE90C70002609F10105834647E00120A9
:100ED0004B4600904FF000470AAA01A90CA8FFF763
:100EE000D1FEDDE90DB00C995D46002610B909F17F
:100EF00001000D18B9EB050003D4C0F1FF3609F16C
:100F00000105A5EB09002BE0B9F1010F01DA4FF063
:100F100001090020B9F1110F0090484601DD1123AD
:100F200000E003460AAA01A90CA8FFF7ABFEDDE921
:100F30000C704D4600268346207800070AD4AB4546
:100F400000DA5D4601A8012D04DD411911F8011CEC
:100F5000302907D04F4502DA17F1040F04DA0120D7
:100F600082460FE06D1EEEE7002F02DCED1B3E44D3
:100F700003E0781CA84200DD7D1CB81B00F1010ACB
:100F80004FF000472078000703D4AA4501DB4FF05B
:100F9000FF3A0021B7F1004F0DF143088DF84310DF
:100FA00024D002202B23002F01DA7F422D230A2197
:100FB000021EA0F1010000DC5FB197FBF1FC97FB82
:100FC000F1F201FB1C7C17460CF1300C08F801CD46
:100FD000EEE7A8F1010003702188090501D545213C
:100FE00000E06521A0F1010800F8011C09980FA993
:100FF000A1EB0807FF1D00B10120411901EBEA70C8
:10100000A1693844081A401EA0612078C00602D4A5
:101010002046FFF74BFA099828B1D4E901219047FF
:10102000206A401C20622078C00622D52046FFF7A7
:101030003DFA1EE0002E04DBB34502DD01A8805D11
:1010400000E03020D4E901219047206A401C206252
:10105000761CAAF101005FEA000A0AD100F0C8FA82
:10106000C0680168405CD4E901219047206A401CB7
:101070002062281EA5F10105DCDC07E0D4E901218E
:1010800018F8010B9047206A401C2062381EA7F117
:101090000107F3DC2046FFF71FFA032011B041E6F9
:1010A0002DE9F04F04460D46D21D22F0070089B00D
:1010B000D0E900974846394609F0CAF90246F80FC8
:1010C00001D02D2307E02068810701D52B2302E002
:1010D000202101EAC0038DF820300BB1012000E08F
:1010E0000020032A824601D0072A04DB2946204635
:1010F00000F00CFB3FE12078800601D40D2500E0D4
:10110000E569C7F30A560D2D49DA00214FEA175B4E
:1011100008464FF00000002F00F4400007DA00EB13
:1011200080004FF4400100EBD07001EA60008115AF
:10113000012901DD4FF0FF3100224FEA850CBCF19F
:10114000180F06D31346ACF118004FF08052C2407E
:1011500003E04FF4801323FA0CF30CF10C0CBCF1F8
:10116000200F04D3ACF1200C09FA0CF001E007FACF
:101170000CF000294FF0004801DD18B90FE00ED146
:1011800040450CD319EB02095F4121B9404502D11A
:101190009F4329EA0209BBEB175F00D0761C208829
:1011A000000502D57B48784402E07A487844193833
:1011B00008AA302302F80A30037C0AF10101002E4C
:1011C0000AF1020A53546A4602DC4FF0300101E092
:1011D0004FF031014FF001088DF8001002D0A6F257
:1011E000FF3603E059EA470100D06B4E002D02DCC8
:1011F0002178090704D54FF002082E218DF801103F
:10120000C44600210BE0C7F303433F01C35C491C04
:101210006D1E02F80830052908F1010801DA002DD9
:10122000F1DC00210CE000EB1973491C1B786D1EEA
:10123000082902F808304FEA091908F1010801DA13
:10124000002DF0DC21688B0602D516E0A8F101081C
:10125000E04505DD02EB080313F8013C302BF5D027
:10126000B8F1000F09DD02EB080313F8013C2E2B47
:1012700003D1090701D4A8F10108002D05DD3E21A5
:1012800002F808106D1E08F10108407C002E02F8DB
:10129000080008F1010804DA2D20764202F808005F
:1012A00002E02B2002F808000A214FF47A708642EF
:1012B00008F101080BDB96FBF0F3303302F808303D
:1012C00096FBF0F308F1010800FB136601E0642EC1
:1012D0000CDB642096FBF0F3303302F8083096FB09
:1012E000F0F308F1010800FB136601E00A2E06DBAB
:1012F00096FBF1F0303002F8080008F1010896FB87
:10130000F1F001FB1060303002F80800A16908F12B
:10131000010808EB050202EB0A00081AA061207818
:10132000C00602D42046FFF7C1F8216A08AE01EBDF
:101330000A00206204E0D4E9012116F8010B90476D
:10134000BAF1010AF7D22078C00602D52046FFF78D
:10135000ADF86E4609E016F8010B3E280FD0D4E92F
:1013600001219047206A401C2062B8F10108F2D2A6
:101370002046FFF7B1F809B00320BDE8F08F206ADE
:101380002844206203E0D4E90121302090476D1EFB
:10139000EBD3F8E70A9C000002FCFFFF10B543699D
:1013A00013B1AFF3008001E0FFF7B9F8012010BDE1
:1013B000127800F124010A7000224A700122EDE740
:1013C00011684FF0FF32E9E710B5436913B1AFF38D
:1013D000008001E0FFF73AF9012010BD128800F10A
:1013E000240182840022C2840122EDE711684FF0BB
:1013F000FF32E9E72DE9F04116460C46054600F0BC
:10140000EBF8036893F80101012807D0FF2C12D8EC
:10141000185D80B101202C70BDE8F081D3F8070180
:101420003246214603F20713C7182846BC46BDE8DA
:10143000F041002360474FF0FF30EDE72DE9F04128
:101440000646FFF74DFB8046454613E016B1E068BF
:10145000B0420ED120682860D4E90101D8F80070AC
:101460008847204600F02AF9D8F80000B842EBD1AE
:1014700000E025462C68002CE8D1BDE8F08110B5CD
:1014800000F004FABDE8104000F0FBB9032A40F276
:10149000308010F0030C00F0158011F8013BBCF116
:1014A000020F624498BF11F801CB00F8013B38BF2E
:1014B00011F8013BA2F1040298BF00F801CB38BF3C
:1014C00000F8013B11F0030300F0F881083AC0F086
:1014D000088051F8043B083A51F804CBA0E8081002
:1014E000F5E7121D5CBF51F8043B40F8043BAFF335
:1014F0000080D20724BF11F8013B11F801CB48BF8F
:1015000011F8012B24BF00F8013B00F801CB48BFC4
:1015100000F8012B70474FF000020429C0F0128040
:1015200010F0030C3FF498AACCF1040CBCF1020FAC
:1015300018BF00F8012BA8BF20F8022BA1EB0C016B
:10154000FFF78ABA5FEAC17C24BF00F8012B00F8DC
:10155000012B48BF00F8012B7047000086469EE82B
:10156000FF1FDEF834D0DEF83CE0704790EC200B33
:10157000704700BF90EC200B704700BFD0EC200BF1
:1015800070470000004870471800002070477546FB
:10159000FFF7F8FFAE4605006946534620F0070006
:1015A000854618B020B5FEF7ABFEBDE820404FF0F1
:1015B00000064FF000074FF000084FF0000BAC465C
:1015C000ACE8C009ACE8C009ACE8C009ACE8C009A7
:1015D00021F007018D46704710B500F009F8001D95
:1015E00010BD00BFD98E00000048704720000020C9
:1015F00000487047380000207047704770477047B8
:1016000038B504460A4600206946AFF3008000283A
:1016100008BF38BD02460099204600F0BFF90120FE
:1016200038BD012000F0EDB9F8B5AFF300800546F4
:1016300000200C46102000BF0646A819A0420DD974
:10164000324669460020AFF30080070008BF00F073
:10165000D8F90098A04218BF0546C419FFF7C4FF87
:1016600005600746F01D20F007004619284600F0E7
:101670001EF8B44208BFF8BDA21B31463868BDE869
:10168000F84000F08BB970B5A0FB0140B4F1805177
:1016900070F1000024BF002070BD2046FFF724FA3F
:1016A00005001CBF2146FFF736FF284670BD00210C
:1016B0000160C0E9011070471020704770B5044602
:1016C000051FFFF791FF0068002C14BF446870BD30
:1016D000002C18BFAC423CBF20466468F8D30168B8
:1016E0000A18AA4218BF456003D12A68054611446A
:1016F000016028684119A1421CBF6C6070BD61681F
:10170000696021680844286070BD00002DE9F0413F
:101710001F46044603260168072A01F4006004DB23
:1017200008B116A505E016A503E008B115A500E06F
:1017300015A521F010002060A069C01EA0610FB1A6
:10174000401EA0612046FEF7B1FE4FB1D4E9012151
:1017500038469047206A401C2062C01C206206E088
:10176000206AFAE7D4E9012115F8010B9047761EAB
:10177000F8D22046FEF7B0FEBDE8F0814E414E00A3
:101780006E616E00494E4600696E66002DE9F047B5
:10179000814616468AB0354878440DC88DE80D005C
:1017A00032487844801C03AC0DC884E80D0041F633
:1017B0009B300844372190FBF1F290FBF1F5A5F145
:1017C000800501FB12041B3C02D56442012000E0AD
:1017D0000020DFF898A080460027FA44AAF1BE0A4C
:1017E0000EE0E0070AD03246684607EB47010123C6
:1017F0000AEB810108F0F5FC8DE8070064107F1CFE
:10180000002CEED1194F7F44AE3F19E0E80715D008
:1018100007EB04100DF1180A90E80E008AE80E009C
:10182000C068F04201D1981908903246012306A9F8
:1018300003A808F0D6FC03AB83E807006D10641C16
:10184000002DE3D14FF0010332466946B8F1000F95
:1018500003A802D008F0B0FC01E008F0C2FCC9E91E
:101860000001C9F808200AB0BDE8F087A89600007A
:1018700010B50446AFF300802046BDE81040FEF7E7
:101880002BBD002801D0FFF725B9704710B5002106
:1018900002A000F09DF8012010BD0000534947410F
:1018A0004252543A2041626E6F726D616C207465D1
:1018B000726D696E6174696F6E00000010B5203A38
:1018C000C0F00B80B1E81850A0E81850B1E81850EB
:1018D000A0E81850203ABFF4F5AF5FEA027C24BFBD
:1018E000B1E81850A0E8185044BF18C918C0BDE8A6
:1018F00010405FEA827C24BF51F8043B40F8043B6F
:1019000008BF7047D20728BF31F8023B48BF11F823
:10191000012B28BF20F8023B48BF00F8012B70477D
:1019200030B44FF0013C50F8042B51F8043BCCFA92
:1019300052F4D51A20D1FCB950F8042B51F8043BCD
:10194000CCFA52F4D51A17D1B4B950F8042B51F887
:10195000043BCCFA52F4D51A0ED16CB950F8042BD2
:1019600051F8043BCCFA52F4D51A05D1002CDAD048
:1019700030BC4FF00000704729BAB1FA81F111F084
:101980001801D1F120008440F2D1CA40CB4012F0BE
:10199000FF0213F0FF0330BCD01A704703464068C3
:1019A0008C46002818BF88423CBF03464068F8D3E5
:1019B00018681844884207D00CF1030020F0070093
:1019C000001D411A521A0146081D0A60FFF776BE33
:1019D00070B505460C460A2000E06D1C00F018F8B2
:1019E00035B128780028F8D102E0641C00F010F826
:1019F00014B120780028F8D1BDE870400A2000F02A
:101A000007B810B500F00CF8BDE81040FFF739BF7B
:101A100008B569468DF800000320ABBE08BD000084
:101A200010B5012805D0002103A0FFF7D1FF012048
:101A300010BD09A1F8E7000053494752544D454DE8
:101A40003A204F7574206F662068656170206D655F
:101A50006D6F7279000000003A2048656170206D5A
:101A6000656D6F727920636F727275707465640052
:101A7000FEE7000080B5D0F800C0DCF800E02EF4EE
:101A8000802ECCF800E0D0F800C0CCF80430D0F8BC
:101A900000C08368402B0B4608BF1346CCF80830C3
:101AA00008BF0A460068C26080BD000070470000A1
:101AB00072B600BFFEE7000070B50446A66D00F0E8
:101AC0004BFA054694F83500022827D120680168B2
:101AD00021F0160101602068416921F08001416117
:101AE000206C08B9A06C20B12068016821F00801C1
:101AF00001602068016821F0010101602068006830
:101B000010F0010F0ED000F027FA401B0628F5D385
:101B100020206065032084F835000CE0802060659B
:101B2000012008E0E06D3F2101FA00F0B0600120E3
:101B300084F835000020002184F83410C0B270BD54
:101B400090F8351002291FBF8021416501207047A0
:101B50004FF0050180F835100068016821F001019F
:101B600001604FF0000070472DE9F04F81B016463C
:101B70008846044600F0F0F9814694F835000228C2
:101B800021D12068006810F4807F23D11020B8F1A3
:101B9000000F08BF2020D4E9165100FA01F7286889
:101BA00038422BD0606D00281CBF606D10F0010F13
:101BB00015D1E06DB8F1000F61D0102101FA00F0ED
:101BC000A86000206FE080206065002084F8340069
:101BD000012068E04FF480706065012063E02046DA
:101BE000FFF76AFFE06D302101FA00F0A8600120E4
:101BF00084F83500002184F8341054E006F1010A1D
:101C0000082201234FF0040B606D10F0010FC9D1C1
:101C1000BAF1000F08D0EEB300F09EF901230822BC
:101C2000A0EB0900B04235D82868E16D02FA01F155
:101C3000014207D0616D41F001016165E16D02FA79
:101C400001F1A960E16D03FA01F1014207D0616D74
:101C500041F002016165E16D03FA01F1A960E16DF6
:101C60000BFA01F1014207D0616D41F00401616599
:101C7000E16D0BFA01F1A9603842C5D092E730213D
:101C800001FA00F0A860012084F83500002084F8F3
:101C9000340008E020206065012084F83500002031
:101CA00084F834000320C0B201B0BDE8F08F00001A
:101CB000B0B5044694F83400012818D0012084F807
:101CC000340094F8350001280ED1022084F8350044
:101CD000002565652046FFF7CDFE2068016841F0CC
:101CE00001010160E8B2B0BD002084F83400022593
:101CF000E8B2B0BDB0B5044694F8340001282DD048
:101D0000A56D012084F8340094F83500012822D113
:101D1000022084F83500002060652046FFF7AAFE07
:101D2000E06D3F2101FA00F0A8602068016841F0F1
:101D300016010160206C00281FBF2068016841F077
:101D4000080101602068016841F0010101604FF065
:101D50000000C0B2B0BD002084F834000220C0B240
:101D6000B0BD000070B505466E1C00F0F5F80446E5
:101D700036B140F20C00C2F200000078054401E0E8
:101D80004FF0FF3500F0E8F8001BA842FAD370BD11
:101D90002DE9F04F82B041F60042C4F2020208275A
:101DA000904208BF072700F13E4202F1FF724FEA5E
:101DB000B223072B38BF4FEAB22700974FF0010A32
:101DC0004FF0030B43F6004EC4F2010E0025002431
:101DD0004FF000080AE000BF0435023408F10108A2
:101DE000B8F1100F04BF02B0BDE8F08F0AFA08F98D
:101DF0000E6816EA090CEFD04E6806F00306013EA5
:101E0000012E15D80BFA04F6D0F808B02BEA060616
:101E10004FF0030BCA68A24032438260426822EA54
:101E200009024E68C6F3001606FA08F6324342600D
:101E30004A6802F00302032A08D00BFA04F2C668CB
:101E400026EA02028E68A6403243C2604A6802F067
:101E50000302022A13D105F01C020F2303FA02F633
:101E60004FF6FC73C7F6FF7303EA580303441F6A77
:101E700027EA06060F6907FA02F232431A620BFAE2
:101E800004F2036823EA02024B6803F00303A34051
:101E90001A4302608A7992079ED00022019243F68B
:101EA0004402C4F2020213461A6842F480421A60E5
:101EB0001A6802F48042019228F003027244019BE6
:101EC0004FF60843CFF6FF73994652F8093005F0F4
:101ED0000C060F27B740BB43009F07FA06F63343B3
:101EE00042F80930DEF8082022EA0C024B6813F4AD
:101EF000801F18BF42EA0C02CEF8082043F60C42BD
:101F0000C4F201021646326822EA0C024B6813F44E
:101F1000001F18BF42EA0C023260DEF8042022EAF9
:101F20000C024B6813F4003F18BF42EA0C02CEF8D3
:101F30000420DEF8002022EA0C024B6813F4803FF4
:101F400018BF42EA0C02CEF8002045E7002A08BF7D
:101F5000090481617047000040F26860C2F200002D
:101F60000068704740F20C00C2F200000078704731
:101F700040F21000C2F200000068704710B504463D
:101F8000002C04BF012010BD94F8410028B90020A6
:101F900084F84000204603F077FC242084F84100B8
:101FA0002068C16821F40051C160204604F0F0FCB3
:101FB0002068016921F4904101612068416921F0A4
:101FC000220141612068416941F0080141612068B6
:101FD000C16841F40051C16000206064202184F890
:101FE000411084F84210606310BD000040F20C0004
:101FF000C2F20000007840F26861C2F200010A6893
:10200000104408607047000080B543F60040C4F2F9
:102010000200016841F400710160016841F48061CF
:102020000160016841F480710160032000F0E6F86E
:102030000F2000F005F800F06BF8002080BD0000D4
:10204000B0B5044640F20C00C2F2000000784FF434
:102050007A71B1FBF0F040F20001C2F200010968B0
:10206000B1FBF0F000F0C4FB01250F2C0CD858B9DF
:1020700000254FF0FF302146002200F0AFF840F27B
:102080001000C2F2000004602846B0BDB0B50D4695
:102090000446002C04BF0120B0BD94F8410028B9CB
:1020A000002084F84000204603F0EEFB242084F852
:1020B00041002068C16821F40051C160204604F04D
:1020C00067FC2068016921F40061016120684169B1
:1020D00021F02A0141612068016941F480410161D8
:1020E0002068016921F0200101612068016929430C
:1020F00001612068C16841F40051C1600020606442
:10210000202184F8411084F842106063B0BD0000C3
:1021100082B00020019043F64001C4F202014A68F7
:1021200042F480424A604A6802F480420192019A75
:102130000090086840F080500860086800F0805007
:102140000090009802B0704770B515460E460446E0
:10215000002C04BF012070BD94F8410028B9002074
:1021600084F84000204603F08FFB242084F84100CF
:102170002068C16821F40051C160204604F008FCC9
:102180002068016921F4904101612068416921F0D2
:102190002A0141612068016921F00F010161206875
:1021A0000169314301612068C16821F40061C160A7
:1021B0002068C1682943C1602068C16841F40051AA
:1021C000C16000206064202184F8411084F842102E
:1021D000606370BD07F088B807F098B870B5144612
:1021E0000D46064607F092F82946224603F0E2FD26
:1021F00001463046BDE8704007F090B807F0A0B83F
:102200002DE9F0410D460446002C00F0AB8043F66A
:102210000808C4F20208D8F8F80300F00700A84242
:1022200008D288F8F853D8F8F80300F00700A8425D
:1022300040F09880206810F0020F19D0400742BF8C
:10224000D8F8000040F4E050C8F8000020780007FB
:1022500042BFD8F8000040F46040C8F80000D8F849
:102260000000A16820F0F00040EA0100C8F800007A
:102270002078C00735D06068811E022905D258F841
:10228000080C10F0007F6DD00CE0012805D158F843
:10229000080C10F4003F65D004E058F8080C10F06A
:1022A000020F5FD0D8F80000616820F003000843F7
:1022B000C8F80000FFF750FE064641F2883700BF1D
:1022C000D8F80000616800F00C00B0EB810F08D076
:1022D000FFF742FE801BB842F2D90320C0B2BDE82E
:1022E000F081D8F8F80300F00700A84207D988F871
:1022F000F853D8F8F80300F00700A84232D120784C
:10230000400707D5D8F80000E16820F4E050084302
:10231000C8F800002078000708D5D8F80000216927
:1023200020F4604040EAC100C8F8000000F048F81E
:10233000D8F80010C1F303114AF65C62C0F600023F
:10234000515CC84040F20001C2F20001086040F256
:102350001000C2F200000068FFF772FE0020C0B259
:10236000BDE8F0810120C0B2BDE8F08140F200007C
:10237000C2F200000068704780B5FFF7F7FF43F630
:102380000801C4F202010968C1F382214AF66C62B5
:10239000C0F60002515CC84080BD000080B5FFF768
:1023A000E5FF43F60801C4F202010968C1F34231B6
:1023B0004AF66C62C0F60002515CC84080BD000065
:1023C00010B543F60404C4F20204606800F00C0087
:1023D00008280BD004281EBF42F20040C0F2F400CF
:1023E00010BD47F64000C0F27D1010BD2268206885
:1023F00047F64001C0F27D1110F4800F04BF42F295
:102400000041C0F2F4012068C0F38810A1FB000174
:1024100002F03F024FF00003FDF784FF2168C1F393
:1024200001414FF0020202EB4101B0FBF1F010BD9F
:102430002DE9F04782B004466CB32078C00743F61C
:10244000000AC4F2020A43F67007C4F2020755D02C
:1024500057F8680C00F00C0004281ED057F8680CE0
:1024600000F00C00082804D157F86C0C10F4800F11
:1024700013D16168B1F5803F08D0DAF80000B1F5FA
:10248000A02F13D140F48020CAF80000DAF8000031
:1024900040F4803012E001209DE1DAF8000010F4F1
:1024A000003F2BD0606848BB012094E120F48030CD
:1024B000CAF80000DAF8000020F48020CAF8000012
:1024C0006668FFF749FD054666B100BFDAF800000F
:1024D00010F4003F12D1FFF73FFD401B6428F5D9EF
:1024E000032078E1DAF8000010F4003F06D0FFF78F
:1024F00033FD411B03206429F4D96CE12078800767
:1025000040F20008C4F2472837D557F8680C10F09D
:102510000C0F21D057F8680C00F00C00082804BFFD
:1025200057F86C0C10F4800F16D0E068002800F00B
:1025300094800120C8F80000FFF70EFD054600BF9B
:10254000DAF8000010F0020F0ED1FFF705FD401B76
:102550000228F5D903203EE1DAF8000010F0020F5E
:102560001CBFE068012876D1DAF80000216920F06C
:10257000F80040EAC100CAF800002078000724D51E
:10258000606980B10120C8F8800EFFF7E5FC0546C0
:10259000786810F0020F18D1FFF7DEFC401B02280C
:1025A000F6D9032017E10020C8F8800EFFF7D4FC0D
:1025B000054600BF786810F0020F06D0FFF7CCFC8C
:1025C000401B0228F6D9032005E12078400740F19E
:1025D000898057F8300C4FF0000910F0805F0FD160
:1025E000CDF8049057F8300C40F0805047F8300C8C
:1025F00057F8300C00F08050019001984FF001091D
:1026000043F60006CFF6FE765AF8060010F4807FF7
:1026100014D15AF8060040F480704AF80600FFF71B
:102620009BFC05465AF8060010F4807F06D1FFF7A0
:1026300093FC401B0228F5D90320CCE0A1680129B6
:1026400005D0386805291CD140F00400386038688E
:1026500040F001001BE00120BDE00020C8F80000B0
:10266000FFF77AFC054600BFDAF8000010F0020F11
:102670003FF483AFFFF770FC411B03200229F3D91D
:10268000A9E020F001003860386820F004003860CC
:10269000A668FFF761FC05466EB141F2883600BFBF
:1026A000386810F0020F14D1FFF756FC401BB042FF
:1026B000F6D903208FE041F2883600BF386810F069
:1026C000020F06D0FFF748FC411B0320B142F5D9A9
:1026D00081E0B9F1010F02BF57F8300C20F08050B3
:1026E00047F8300CA669002E74D057F8680C00F03B
:1026F0000C00082803D1012E22D101206BE000201C
:10270000C8F86000FFF728FC0546022E0CD100BF78
:10271000DAF8000010F0007F38D0FFF71DFC411BF5
:1027200003200229F4D956E0DAF8000010F0007F07
:1027300050D0FFF711FC411B03200229F4D94AE0D5
:1027400057F86C0CE16900F480028A4247D1216A93
:1027500000F03F028A4244D147F6C0710140626AEC
:10276000B1EB821F3FD1A16AC9034FF6FF729143BB
:10277000A1F5803100F440328A4236D1E16A00F09E
:102780007060B0EB016F25D0012024E004F11C063D
:102790004FCE084340EA821040EA0660D9034FF664
:1027A000FF729143A1F58031084347F86C0C01207A
:1027B000C8F86000FFF7D0FB044600BFDAF800005D
:1027C00010F0007F06D1FFF7C7FB011B0320022991
:1027D000F4D900E00020C0B202B0BDE8F0870120CB
:1027E000F9E70120F7E70120F5E70120F3E7000012
:1027F00003F026BBB0B540F20C04C2F20004257809
:1028000085420BD0207040F21000C2F20000006838
:10281000FFF716FC00281CBF2570B0BD0020B0BD1E
:1028200070470000704700007047000090F83C209F
:10283000012A02BF0221C8B27047B0B5D1E900CE6B
:1028400001F108053CCD23F47C5322F4705242EA96
:1028500003022EF4F04342EA03022CF4E04342EA7E
:10286000030224F4C04342EA030242EA050222F4CE
:102870008042C96941EA0201026851644FF00001D7
:1028800080F83C10BDE8B040C8B2704790F83C30CA
:10289000012B02BF0221C8B270474FF0010380F83C
:1028A0003C304FEA3113032B0ED8D0F800C0DCF8CF
:1028B000083023F07003CCF80830D0F800C0DCF802
:1028C00008301943CCF8081001684B6843F0010345
:1028D0004B6001684B6823F004034B6001684B6850
:1028E0001A434A60416B45F6B572C0F60002CA63EE
:1028F000416B45F6C172C0F600020A64416B46F2B4
:102900007922C0F60002CA640168CA6822F0200277
:10291000CA600168CA6842F40052CA60002180F8A7
:102920003C10C8B27047000090F83C300222012BE6
:1029300057D010B5012380F83C3080F83D20036863
:10294000D3F804E0D3F808C00C682EF070022243DC
:102950005A60036841F2FF72C4F200029342BDE87C
:1029600010400BDC40F2FF72C4F20002934213DC11
:10297000B3F1804F29D040F2004215E040F2FF321F
:10298000C4F20102934214DC41F60002C4F20002D8
:1029900093421AD0002214E040F60002C4F2000272
:1029A000934212D040F60042C4F2000293420CD08F
:1029B00011E044F20002C4F20102934205D040F259
:1029C0000042C4F20102934205D149682CF0800212
:1029D000114302689160012180F83D10002280F8C7
:1029E0003C20D0B27047000010B50446002C04BF54
:1029F000012010BD94F83D0028B9002084F83C0067
:102A0000204600F01FF8022084F83D002068211DB8
:102A100003F0DCFA012084F8460084F83E0084F8D4
:102A20003F0084F8400084F8410084F8420084F8B4
:102A3000430084F8440084F8450084F83D000020F9
:102A400010BD000080B582B0016843F64000C4F2BA
:102A5000020040F20042C4F20102914218D0B1F1EA
:102A6000804F20D100210191016841F001010160F6
:102A7000006800F00100019001981C200021002254
:102A8000FFF7ACFB1C2002B0BDE88040FFF7A2BB03
:102A900000210091416841F002014160406800F06E
:102AA00002000090009802B080BD000010B51346EF
:102AB000044694F83D00022802BF0220C0B210BDB7
:102AC00094F83D0001281FD10120002918BF002BD8
:102AD0006BD0022084F83D00206A46F2D522C0F671
:102AE0000002C263206A46F2E922C0F600020264D4
:102AF000206A46F27922C0F60002C2642268206A87
:102B00002C32FFF7F7F810B10120C0B210BD2068D9
:102B1000C16841F48071C160206841F2FF71C4F264
:102B2000000188420BDC40F2FF71C4F200018842D0
:102B300013DCB0F1804F29D040F2004115E040F2A3
:102B4000FF31C4F20101884214DC41F60001C4F2F5
:102B5000000188421AD0002114E040F60001C4F2BE
:102B60000001884212D040F60041C4F200018842C0
:102B70000CD014E044F20001C4F20101884205D0F7
:102B800040F20041C4F20101884208D12068806807
:102B900000F00700062802BF0020C0B210BD206868
:102BA000016841F0010101600020C0B210BD0000C9
:102BB00090F83D1001291CBF012070474FF0020121
:102BC00080F83D100168CA6842F00102CA600168DD
:102BD00041F2FF72C4F2000291420FDC40F2FF7238
:102BE000C4F20002914217DCB1F1804F2DD040F2C7
:102BF0000042C4F20002914227D02EE040F2FF32A0
:102C0000C4F20102914214DC41F60002C4F2000257
:102C100091421AD0002214E040F60002C4F20002F1
:102C2000914212D040F60042C4F2000291420CD010
:102C300013E044F20002C4F20102914205D040F2D6
:102C40000042C4F20102914207D10168896801F093
:102C50000701062904BF002070470068016841F0A1
:102C6000010101600020704710B5044694F83C2033
:102C70000220012A68D0012284F83C2084F83D001B
:102C8000206882684FF677739A4382600A684F2AF9
:102C900010DC1F2A26DD202A18BF302A26D0402A21
:102CA00054D14B68CA682068194603F05BFC206861
:102CB000402140E06F2A1CDDB2F5005F26D0B2F55E
:102CC000805F3AD0702A41D1D1E9012CCB682068CD
:102CD000614603F01BFB20688068216840F07700A4
:102CE00088602AE0002A18BF102A2FD120681146D8
:102CF00021E0502A17D0602A28D14B68CA68206882
:102D0000194603F095FC2068602114E0D1E9012CFC
:102D1000CB682068614603F0F9FA2068816841F4C5
:102D20008041816009E04B68CA682068194603F059
:102D300019FC2068502103F0F3FA0020012184F8E7
:102D40003D10002184F83C10C0B210BD0120F5E711
:102D500070B516460D46044694F83C000221012841
:102D60004FF0020051D0012084F83C0084F83D105F
:102D70006968012907D0002941D12068816821F4C0
:102D80007F41816008E0E96809B1012037E0AA6865
:102D90002B69206803F0BAFA4FEAB60003282DD851
:102DA000DFE800F0020D1822286821688A6922F005
:102DB0008003002818BF42F080038B611EE0286862
:102DC00021688A6922F40043002818BF42F40043B6
:102DD0008B6113E028682168CA6922F0800300280B
:102DE00018BF42F0800308E028682168CA6922F40D
:102DF0000043002818BF42F40043CB6100200121AA
:102E000084F83D10002184F83C10C0B270BD000071
:102E1000F0B581B014460E46054695F846000228E6
:102E200001D10220FDE0069F95F84600012806D159
:102E300013B90FB10120F4E0022085F84600DDF857
:102E40001CC00120B4F5006F27DBB4F5005F4CDA3D
:102E5000B4F5006F6BD0B4F5805F40F0E280286B72
:102E600046F22511C0F60001C163286B46F29D11A0
:102E7000C0F600010164286B46F27921C0F600011A
:102E8000C1642968286B4C311A466346FEF732FF4D
:102E9000002800F0BD800120C3E0B4F5807F63D03E
:102EA000B4F5007F7CD0B4F5806F40F0BA80A86A9A
:102EB00046F22511C0F60001C163A86A46F29D11D1
:102EC000C0F600010164A86A46F27921C0F600014B
:102ED000C1642968A86A4C311A466346FEF70AFFA6
:102EE000002800F0958001209BE075D0B4F5804F5C
:102EF00040F09780A86B46F2F121C0F60001C16353
:102F0000A86B46F20531C0F600010164A86B46F2D9
:102F10007921C0F60001C1642968A86B4C311A46BA
:102F20006346FEF7E7FE002872D0012079E0E86AE8
:102F300046F22511C0F60001C163E86A46F29D1110
:102F4000C0F600010164E86A46F27921C0F600018A
:102F5000C1642968E86A4C311A466346FEF7CAFE26
:102F6000002855D001205CE0286A46F2D521C0F641
:102F70000001C163286A46F2E921C0F6000101643C
:102F8000286A46F27921C0F60001C1642968286ADE
:102F90004C311A466346FEF7ADFEC8B3012040E04F
:102FA000686A46F22511C0F60001C163686A46F2FC
:102FB0009D11C0F600010164686A46F27921C0F6ED
:102FC0000001C1642968686A4C311A466346FEF7FD
:102FD00091FEE8B1012024E0686B45F6B571C0F6BA
:102FE0000001C163686B45F6C171C0F60001016460
:102FF000686B46F27921C0F60001C1642968686BEC
:103000004C311A466346FEF775FE08B1012008E010
:1030100047EA0600296888642868C1682143C160BE
:103020000020C0B201B0F0BDF0B581B014460E462C
:10303000054695F84600022801D1022005E1069FC9
:1030400095F84600012806D113B90FB10120FCE024
:10305000022085F84600DDF81CC00120B4F5006FA1
:1030600028DBB4F5005F4FDAB4F5006F6FD0B4F52C
:10307000805F40F0EA80286B46F2D511C0F600016F
:10308000C163286B46F24121C0F600010164286B40
:1030900046F27921C0F60001C1642968286B01F16C
:1030A0004C0219466346FEF725FE002800F0C48056
:1030B0000120CAE0B4F5807F67D0B4F5007F00F04E
:1030C0008180B4F5806F40F0C080A86A46F2D511C7
:1030D000C0F60001C163A86A46F24121C0F60001B2
:1030E0000164A86A46F27921C0F60001C16429682A
:1030F000A86A01F14C0219466346FEF7FBFD002861
:1031000000F09A800120A0E079D0B4F5804F40F023
:103110009C80A86B46F2F121C0F60001C163A86B48
:1031200046F20531C0F600010164A86B46F2792130
:10313000C0F60001C1642968A86B01F14C02194670
:103140006346FEF7D7FD002876D001207DE0E86ACF
:1031500046F2D511C0F60001C163E86A46F241218A
:10316000C0F600010164E86A46F27921C0F6000168
:10317000C1642968E86A01F14C0219466346FEF70A
:10318000B9FD002858D001205FE0286A46F2D52119
:10319000C0F60001C163286A46F2E921C0F60001C9
:1031A0000164286A46F27921C0F60001C1642968E9
:1031B000286A01F14C0219466346FEF79BFDD8B31D
:1031C000012042E0686A46F2D511C0F60001C163F1
:1031D000686A46F24121C0F600010164686A46F25D
:1031E0007921C0F60001C1642968686A01F14C02C6
:1031F00019466346FEF77EFDF0B1012025E0686BBD
:1032000045F6B571C0F60001C163686B45F6C17142
:10321000C0F600010164686B46F27921C0F6000136
:10322000C1642968686B01F14C0219466346FEF7D8
:1032300061FD08B1012008E047EA060029688864BA
:103240002868C1682143C1600020C0B201B0F0BD50
:1032500080B582B0DDF810C04FF0010E0EEB1C2ED1
:10326000CDE900CEFFF7D4FD02B080BD80B582B0BD
:10327000DDF810C04FF0010E0EEB1C2ECDE900CE94
:10328000FFF7D2FE02B080BD2DE9F0470D4604469F
:10329000002C04BF0120BDE8F08794F83D0028B958
:1032A000002084F83C00204600F04EF8022084F80C
:1032B0003D002068816844F20702914381602068E4
:1032C000211D02F083FE206880682168D1F81890E3
:1032D0002268D2F820C0D5E9003E05F1080A9AE834
:1032E0004404D5E90581EF6918432B6A2568A86075
:1032F0004FF6FF7029EA0000304342EA01214FF601
:10330000FC429143084340EA072040EA0A1040EAA1
:103310000330216888612CF0AA0040EA0E0040EAE0
:10332000081021680862012084F8460084F83E00F5
:1033300084F83F0084F8420084F8430084F83D009C
:103340000020BDE8F087000080B586B0002105911F
:10335000CDE90311CDE9011102680020C4F201009A
:10336000824201D006B080BD009143F63002C4F223
:103370000202536943F001035361536903F00103EF
:103380000093009B0091136843F0010313601268DF
:1033900002F001020092009A4FF440720192022260
:1033A000CDE9022104910121059100F5803001A9A8
:1033B000FEF7EEFC06B080BD10B5044694F83E3032
:1033C00094F83F2094F842E094F843C00120042987
:1033D0000BD0A9B9012B08BFBEF1010F37D10220D4
:1033E00084F83E0084F8420026E0012A08BFBCF1C0
:1033F000010F2CD1022084F83F0084F8430018E02C
:10340000012B08BF012A22D1BEF1010F08BFBCF178
:10341000010F1CD1022084F83E0084F83F0084F89C
:10342000420084F8430039B120680021012202F0F3
:1034300069FE2068042101E020680021012202F0D9
:1034400061FE2068016841F001010160002010BDAB
:103450002DE9F04381B09946044694F83E6094F813
:103460003F7094F8425094F84330DDF820800220F9
:10347000042919D000294CD1022E18BF022D00F0CA
:10348000DE800120012E08BF012D40F0D8800120F0
:10349000002A18BFB8F1000F00F0D180022084F894
:1034A0003E0084F8420077E0022F18BF022B00F0A4
:1034B000C6800120012F08BF012B40F0C0800120F1
:1034C000B9F1000F18BFB8F1000F00F0B88002206A
:1034D00084F83F0084F84300A06A46F22511C0F644
:1034E0000001C163A06A46F29D11C0F600010164AB
:1034F000A06A46F27921C0F60001C1642168A06A81
:1035000038314A464346FEF7F5FB002867D00120D4
:1035100095E0022E18BF022F00F09180022D18BFF7
:10352000022B00F08C800120012E08BF012F40F0FB
:103530008680012D08BF012B40F081800120002AE8
:103540007DD0B9F1000F18BFB8F1000F77D002207D
:1035500084F83E0084F83F0084F8420084F8430079
:10356000D1B1606A46F22515C0F60005C563606AF0
:1035700046F29D16C0F600060664606A46F2792798
:10358000C0F60007C7642168606A34314346FEF71D
:10359000B1FB50B3012052E0606A46F22511C0F63B
:1035A0000001C163606A46F29D11C0F6000101642A
:1035B000606A46F27921C0F60001C1642168606A40
:1035C00034314346FEF796FB08B1012037E020680E
:1035D000C16841F40071C1602068002126E02068C4
:1035E000C16841F48061C1601EE0A06AC563A06A41
:1035F0000664A06AC7642168A06A38314A46434617
:10360000FEF778FB08B1012019E02068C16841F499
:103610000071C1602068C16841F48061C1602068A8
:103620000021012202F06EFD20680421012202F037
:1036300069FD2068016841F0010101600020C0B20D
:1036400001B0BDE8F0830000B0B5044694F83E2018
:1036500094F83F5094F8423094F843C00120042974
:103660000AD0D1B9012A08BF012B4AD1022084F81F
:103670003E0084F8420034E0012D08BFBCF1010F88
:103680003FD1022084F83F0084F8430020680425DD
:103690000421012202F036FD29E0012A08BF012D94
:1036A0002FD1012B08BFBCF1010F2AD1022084F8D1
:1036B0003E0084F83F0084F8420084F8430081B162
:1036C00020680021012202F01DFD2068042504214C
:1036D000012202F017FD2068C16841F00201C160BB
:1036E00005E020680021012202F00CFD022520687F
:1036F000C1682943C1602068016841F0010101608F
:103700000020B0BDB0B50D460446042D08D015B953
:103710002068002106E020680021002202F0F2FC6F
:1037200020680421002202F0EDFC2068016A41F2C9
:103730001112114208D1016A40F24442114202BF03
:10374000016821F00101016045F00400042811D155
:103750000120082D16D0042D1AD0002D19BF84F891
:10376000410084F8450084F83E0084F842004FF0A0
:103770000000B0BD012084F83E0084F83F0084F8CA
:10378000420007E084F8400084F844000020B0BD07
:1037900084F83F0084F843000020B0BDB0B50D466A
:1037A000044665B12068042D15D10421002202F0E1
:1037B000A9FC2068C16821F48061C16021E0206813
:1037C0000021002202F09EFC2068C16821F40071F3
:1037D000C160606A16E00021002202F093FC2068BC
:1037E0000421002202F08EFC2068C16821F40071DF
:1037F000C1602068C16821F48061C160606AFEF721
:103800009FF9A06AFEF79CF92068016A41F2111243
:10381000114208D1016A40F24442114202BF0168DC
:1038200021F00101016045F00400042812D10120BB
:10383000DDB1042D1FD0082D01BF84F8400084F8AD
:1038400044000020B0BD84F8410084F845004FF0EA
:103850000000B0BD012084F83E0084F83F0084F8E9
:10386000420084F843000020B0BD84F83E0084F894
:1038700042000020B0BD84F83F00F2E7B0B50D462D
:1038800004463DB12068042D0CD10421002202F031
:1038900039FC15E020680021002202F033FC6FF0B3
:1038A00002000FE00021002202F02CFC206804211D
:1038B000002202F027FC2068C16821F00201C160EB
:1038C0006FF004002168CA681040C8602068016A6F
:1038D00041F21112114208D1016A40F244421142F0
:1038E00002BF016821F00101016045F004000428D5
:1038F00012D10120DDB1042D1FD0082D01BF84F8A5
:10390000400084F844000020B0BD84F8410084F8F1
:1039100045004FF00000B0BD012084F83E0084F85F
:103920003F0084F8420084F843000020B0BD84F8D2
:103930003E0084F842000020B0BD84F83F00F2E76A
:10394000704700007047000070470000B0B50D469A
:10395000044694F83C00012802BF0220C0B2B0BD6A
:103960004FF0010084F83C004FEAB201032942D82D
:10397000DFE801F002111F2ED5E90012EB68206884
:1039800002F002FE2068816921F00C018161A968C2
:10399000206818302BE0D5E90012EB68206802F0AF
:1039A00059FE2068816921F44061816120681830E6
:1039B0001BE0D5E90012EB68206802F069FE206880
:1039C000C16921F00C01C161A96820681C300EE0BA
:1039D000D5E90012EB68206802F074FE2068C16926
:1039E00021F44061C16120681C30A96809020268A5
:1039F000114301600020002184F83C10C0B2B0BD2A
:103A000010B50446002C04BF012010BD94F83D0001
:103A100028B9002084F83C00204600F01FF802205E
:103A200084F83D002068211D02F0D0FA012084F8BE
:103A3000460084F83E0084F83F0084F8400084F893
:103A4000410084F8420084F8430084F8440084F87C
:103A5000450084F83D00002010BD000070470000C4
:103A600010B5044649B10320082908BF02200429E3
:103A700008BF012022183E3202E004F13E0200207D
:103A80002044137890F842200120012B08BF012A1E
:103A900064D1022041B108290BD004290ED184F849
:103AA0003F0084F843000DE084F83E0084F84200B3
:103AB00008E084F8400084F8440003E084F8410002
:103AC00084F845002068012202F01CFB206841F2C6
:103AD000FF71C4F2000188420BDC40F2FF71C4F2B6
:103AE0000001884213DCB0F1804F29D040F2004140
:103AF00015E040F2FF31C4F20101884214DC41F6C6
:103B00000001C4F2000188421AD0002114E040F6FE
:103B10000001C4F20001884212D040F60041C4F214
:103B2000000188420CD013E044F20001C4F201010C
:103B3000884205D040F20041C4F20101884207D119
:103B40002068806800F00700062804BF002010BD30
:103B50002068016841F001010160002010BD0000F3
:103B60002DE9F041984616460F4604464FB1032012
:103B7000082F08BF0220042F08BF012021183E3162
:103B800002E004F13E0100202044097890F8420050
:103B90000225022900F0F98002281CBF0125002E11
:103BA00000F0F380012908BF012840F0EE80B8F151
:103BB000000F00F09A80022047B1082F0BD0042F8D
:103BC0000ED184F83F0084F843000DE084F83E00F5
:103BD00084F8420008E084F8400084F8440003E0E0
:103BE00084F8410084F84500206801253946012207
:103BF00002F088FA4FEAB700032800F28180DFE87C
:103C000000F002203D5A606A46F22511C0F600011C
:103C1000C163606A46F29D11C0F600010164606AEA
:103C200046F27921C0F60001C1642168606A34312E
:103C300032464346FEF75EF8002856D14FF4007036
:103C400059E0A06A46F22511C0F60001C163A06ADE
:103C500046F29D11C0F600010164A06A46F2792186
:103C6000C0F60001C1642168A06A3831324643467B
:103C7000FEF740F8C8BB4FF480603CE0E06A46F2D3
:103C80002511C0F60001C163E06A46F29D11C0F63D
:103C900000010164E06A46F27921C0F60001C164C6
:103CA0002168E06A3C3132464346FEF723F8E0B92A
:103CB0004FF400601FE0206B46F22511C0F60001B2
:103CC000C163206B46F29D11C0F600010164206BB8
:103CD00046F27921C0F60001C1642168206B4031B1
:103CE00032464346FEF706F818B10125E8B2BDE8B2
:103CF000F0814FF480502168CA681043C8600025E5
:103D0000206841F2FF71C4F2000188420BDC40F2EE
:103D1000FF71C4F20001884213DCB0F1804F29D05A
:103D200040F2004115E040F2FF31C4F20101884247
:103D300014DC41F60001C4F2000188421AD00021CF
:103D400014E040F60001C4F20001884212D040F6AF
:103D50000041C4F2000188420CD011E044F200019D
:103D6000C4F20101884205D040F20041C4F20101D1
:103D7000884205D12068806800F00700062804D03A
:103D80002068016841F001010160E8B2BDE8F081FE
:103D900010B5044649B10320082908BF02200429B0
:103DA00008BF012022183E3202E004F13E0200204A
:103DB0002044137890F842200120012B08BF012AEB
:103DC00073D1022041B108290BD004290ED184F807
:103DD0003F0084F843000DE084F83E0084F8420080
:103DE00008E084F8400084F8440003E084F84100CF
:103DF00084F845004FEAB100032884BF012010BDBC
:103E00002AA252F820002268D36840EA0300D0605A
:103E100020684FF0010202F075F9206841F2FF714D
:103E2000C4F2000188420BDC40F2FF71C4F20001D1
:103E3000884213DCB0F1804F29D040F2004115E0F8
:103E400040F2FF31C4F20101884214DC41F6000166
:103E5000C4F2000188421AD0002114E040F60001AB
:103E6000C4F20001884212D040F60041C4F20001C1
:103E700088420CD013E044F20001C4F201018842F0
:103E800005D040F20041C4F20101884207D1206808
:103E9000806800F00700062804BF002010BD2068DD
:103EA000016841F001010160002010BD0200000026
:103EB000040000000800000010000000B0B50D462E
:103EC00004462068002202F01DF92068006A41F2D1
:103ED0001111084209D12068016A40F2444211429E
:103EE00002BF016821F001010160012075B1082DB8
:103EF00012D0042D19BF84F8410084F8450084F8DD
:103F00003F0084F843004FF00000B0BD84F83E004D
:103F100084F842000020B0BD84F8400084F84400DA
:103F20000020B0BDB0B50D4604462068002202F066
:103F3000E9F84FEAB500032884BF0120B0BDDFE8EF
:103F400000F0021709102068C16821F40071C160F7
:103F5000606A13E02068C16821F40061C160E06A12
:103F60000CE02068C16821F48051C160206B05E03D
:103F70002068C16821F48061C160A06AFDF7E0FD9E
:103F80002068016A41F21112114208D1016A40F21F
:103F90004442114202BF016821F001010160012089
:103FA00075B1082D12D0042D19BF84F8410084F892
:103FB000450084F83F0084F843004FF00000B0BD96
:103FC00084F83E0084F842000020B0BD84F8400030
:103FD00084F844000020B0BDB0B50D4604464FEA59
:103FE000B500032884BF0120B0BD1DA151F82000F9
:103FF0002168CA6800EA0200C860206829464FF0BC
:10400000000202F07FF82068006A41F211110842B4
:1040100009D12068016A40F24442114202BF01689E
:1040200021F001010160012075B1082D12D0042D8D
:1040300019BF84F8410084F8450084F83F0084F8F3
:1040400043004FF00000B0BD84F83E0084F8420009
:104050000020B0BD84F8400084F844000020B0BDCA
:10406000FDFFFFFFFBFFFFFFF7FFFFFFEFFFFFFF7E
:10407000B0B504462068C168026901EA0205A907D3
:1040800015D56FF002010161012020772068806959
:1040900010F0030F03D02046FFF754FC05E0204644
:1040A00000F0D0F8204600F07DFE00202077680761
:1040B00016D520686FF00401016102202077206886
:1040C000806910F4407F03D02046FFF73BFC05E0F9
:1040D000204600F0B7F8204600F064FE002020776C
:1040E000280716D520686FF00801016104202077A9
:1040F0002068C06910F0030F03D02046FFF722FCB0
:1041000005E0204600F09EF8204600F04BFE00201F
:104110002077E80616D520686FF0100101610820AD
:1041200020772068C06910F4407F03D02046FFF755
:1041300009FC05E0204600F085F8204600F032FE3C
:1041400000202077E80706D020686FF001010161A8
:10415000204601F06FF9280606D520686FF080012F
:1041600001612046FEF75CFB680606D520686FF00B
:1041700040010161204601F0ADF9A80658BFB0BD6D
:1041800020686FF0200101612046BDE8B040FEF7D5
:1041900049BB000080B586B000210591CDE903112F
:1041A000CDE90111026840F20040C4F201008242F0
:1041B00001D006B080BD009143F63002C4F2020285
:1041C000136843F004031360126802F004020092C3
:1041D000009A402201920222CDE90221049103219A
:1041E000059100F5823001A9FDF7D2FD06B080BD32
:1041F00010B5044694F83C00012802BF0220C0B26A
:1042000010BD4FF0010084F83C004FEAB202032ACF
:1042100013D8DFE802F002060A0E206802F088F8E0
:104220000AE0206802F0B6F806E0206802F0E8F83C
:1042300002E0206802F01AF90020002184F83C1006
:10424000C0B210BD7047000010B50446002C04BF7A
:10425000012010BD94F83D0028B9002084F83C00EE
:10426000204600F01FF8022084F83D002068211D40
:1042700001F0ACFE012084F8460084F83E0084F88A
:104280003F0084F8400084F8410084F8420084F83C
:10429000430084F8440084F8450084F83D00002081
:1042A00010BD00007047000010B5044639B103206E
:1042B000082908BF0220042908BF012000E00020CF
:1042C000204490F83E0001281CBF012010BD4FF093
:1042D000020041B1082909D0042914BF84F8410023
:1042E00084F83F0004E084F83E0001E084F84000D8
:1042F0002068012201F006FF206840F4806240F24D
:104300000041C4F201018A4202BF426C42F4004201
:104310004264206841F2FF72C4F2000290420FDC56
:1043200040F2FF71C4F2000188421BDCB0F1804F03
:104330002DD040F20041C4F20001884227D02EE087
:1043400040F2FF32C4F20102904218DC41F6000153
:10435000C4F2000188421AD00021C4F2010188424F
:1043600015D01CE040F60001C4F2000188420ED0D6
:1043700040F60041C4F20001884208D00FE044F248
:104380000002C4F20102904201D0884207D12068A5
:10439000806800F00700062804BF002010BD2068D8
:1043A000016841F001010160002010BDB0B50D466B
:1043B00004463DB10320082D08BF0220042D08BF8C
:1043C000012000E00020204490F83E00022802BFB7
:1043D0000220C0B2B0BD3DB10320082D08BF0220AD
:1043E000042D08BF012000E00020204490F83E107A
:1043F0000120002A00F0F980012940F0F680002B0E
:1044000000F08F80022045B1082D09D0042D14BF83
:1044100084F8410084F83F0004E084F83E0001E0A5
:1044200084F840004FEAB500032800F27A80DFE804
:1044300000F002213F5D606A46F2D511C0F600012E
:10444000C163606A46F24121C0F600010164606AFE
:1044500046F27921C0F60001C1642168606A01F169
:10446000340C11466246FDF745FC002859D14FF443
:1044700000705BE0A06A46F2D511C0F60001C1638E
:10448000A06A46F24121C0F600010164A06A46F22A
:104490007921C0F60001C1642168A06A01F1380CDD
:1044A00011466246FDF726FCD8BB4FF480603DE024
:1044B000E06A46F2D511C0F60001C163E06A46F237
:1044C0004121C0F600010164E06A46F27921C0F69C
:1044D0000001C1642168E06A01F13C0C11466246AA
:1044E000FDF708FCE8B94FF400601FE0206B46F2CE
:1044F000D511C0F60001C163206B46F24121C0F620
:1045000000010164206B46F27921C0F60001C1640C
:104510002168206B01F1400C11466246FDF7EAFB71
:1045200010B10120C0B2B0BD4FF480502168CA68FC
:104530001043C86020682946012201F0E3FD20688D
:1045400040F4806240F20041C4F201018A4202BF9D
:10455000426C42F400424264206841F2FF72C4F2AD
:10456000000290420BDC40F2FF71C4F2000188426D
:1045700017DCB0F1804F29D040F2004119E040F241
:10458000FF32C4F20102904218DC41F60001C4F28D
:10459000000188421AD00021C4F20101884215D0DE
:1045A0001DE040F60001C4F2000188420ED040F642
:1045B0000041C4F20001884208D010E044F2000239
:1045C000C4F20102904201D0884208D1206880687C
:1045D00000F00700062802BF0020C0B2B0BD20686E
:1045E000016841F0010101600020C0B2B0BD0000CF
:1045F00010B5044639B10320082908BF0220042958
:1046000008BF012000E00020204490F83E0001286F
:1046100042D1022041B1082909D0042914BF84F8ED
:10462000410084F83F0004E084F83E0001E084F893
:1046300040004FEAB10003282ED833A252F82000E0
:104640002268D3681843D0602068012201F05AFD27
:10465000206840F4806240F20041C4F201018A42C5
:1046600002BF426C42F400424264206841F2FF7291
:10467000C4F20002904211DC40F2FF71C4F200016A
:1046800088421DDCB0F1804F2FD040F20041C4F2CF
:104690000001884229D030E0012010BD40F2FF32F5
:1046A000C4F20102904218DC41F60001C4F200019C
:1046B00088421AD00021C4F20101884215D01CE0C2
:1046C00040F60001C4F2000188420ED040F60041DD
:1046D000C4F20001884208D00FE044F20002C4F2A4
:1046E0000102904201D0884207D12068806800F022
:1046F0000700062804BF002010BD2068016841F0B3
:1047000001010160002010BD020000000400000053
:104710000800000010000000B0B50D4604462068F7
:10472000002201F0EFFC206840F4806140F200427A
:10473000C4F2010291420DD1016A41F211121142FB
:1047400008D1016A40F24442114202BF416C21F497
:10475000004141642068016A41F21112114208D1FE
:10476000016A40F24442114202BF016821F0010196
:1047700001600120082D0AD0042D0CD0002D14BF9B
:1047800084F8410084F83E004FF00000B0BD84F88A
:1047900040000020B0BD84F83F000020B0BD000004
:1047A000B0B50D4604464FEAB500032884BF01208A
:1047B000B0BDDFE800F0020910172068C16821F4DD
:1047C0000071C160606A13E02068C16821F48061F3
:1047D000C160A06A0CE02068C16821F40061C1607A
:1047E000E06A05E02068C16821F48051C160206B57
:1047F000FDF7A6F920682946002201F083FC206815
:1048000040F4806140F20042C4F2010291420DD1B5
:10481000016A41F21112114208D1016A40F2444288
:10482000114202BF416C21F4004141642068016AD9
:1048300041F21112114208D1016A40F24442114280
:1048400002BF016821F0010101600120082D0AD09A
:10485000042D0CD0002D14BF84F8410084F83E00D4
:104860004FF00000B0BD84F840000020B0BD84F8D7
:104870003F000020B0BD0000B0B50D4604464FEA31
:10488000B500032884BF0120B0BD25A151F8200048
:104890002168CA6800EA0200C860206829464FF013
:1048A000000201F02FFC206840F4806140F20042D9
:1048B000C4F2010291420DD1016A41F2111211427A
:1048C00008D1016A40F24442114202BF416C21F416
:1048D000004141642068016A41F21112114208D17D
:1048E000016A40F24442114202BF016821F0010115
:1048F00001600120082D0AD0042D0CD0002D14BF1A
:1049000084F8410084F83E004FF00000B0BD84F808
:1049100040000020B0BD84F83F000020B0BD00BFC3
:10492000FDFFFFFFFBFFFFFFF7FFFFFFEFFFFFFFB5
:1049300070B588B01E460D460446B24201D1012032
:1049400065E094F83C100220012960D0012184F830
:104950003C1084F83D002868019068680290A868BF
:104960000390E86804902869069068690790042A13
:104970001FD0002A4FF0010043D1206801A901F0A7
:10498000D7FC042E1BD0DEBB05F118030ECB20682C
:1049900001F0FAFD2068816921F00C018161206835
:1049A000816821F0700181602068816841F05001C8
:1049B00019E0206801A901F0EDFC042EE3D105F116
:1049C00018030ECB206801F045FE2068816921F4B0
:1049D000406181612068816821F0700181602068F8
:1049E000816841F0600181602068816821F00701E1
:1049F00081602068816841F006018160002000E04C
:104A00000120012184F83D10002184F83C10C0B23F
:104A100008B070BDB0B50D460446002C04BF01209F
:104A2000B0BD94F83D0028B9002084F83C00204631
:104A300000F020F8022084F83D002068211D01F0DC
:104A4000C5FA2068016821F008010160206801684A
:104A500029430160012084F8460084F83E0084F870
:104A60003F0084F8420084F8430084F83D000020B1
:104A7000B0BD000070470000B0B5054695F83E3067
:104A800095F83F2095F8421095F843000124012B3A
:104A900008BF012A25D1012908BF012821D1022000
:104AA00085F83E0085F83F0085F8420085F8430010
:104AB000286800240021012201F024FB2868042139
:104AC000012201F01FFB286840F4806140F200429F
:104AD000C4F20102914201BF416C41F400414164C2
:104AE00000242046B0BD0000B0B5054695F83E3024
:104AF00095F83F2095F8421095F843000124012BCA
:104B000008BF012A2FD1012908BF01282BD102207B
:104B100085F83E0085F83F0085F8420085F843009F
:104B20002868C16841F00201C1602868C16841F08D
:104B30000401C160286800240021012201F0E2FA8A
:104B400028680421012201F0DDFA286840F4806120
:104B500040F20042C4F20102914201BF416C41F4B3
:104B60000041416400242046B0BD000010B5044659
:104B700020680021002201F0C5FA206804210022EB
:104B800001F0C0FA206840F4806140F20042C4F2B3
:104B9000010291420DD1016A41F21112114208D174
:104BA000016A40F24442114202BF416C21F40041CB
:104BB00041642068016A41F21112114208D1016A70
:104BC00040F24442114202BF016821F0010101603C
:104BD000012084F83E0084F83F0084F8420084F805
:104BE0004300002010BD000010B504462068C168D5
:104BF00021F00201C1602068C16821F00401C16098
:104C000020680021002201F07DFA206804210022A2
:104C100001F078FA206840F4806140F20042C4F26A
:104C2000010291420DD1016A41F21112114208D1E3
:104C3000016A40F24442114202BF416C21F400413A
:104C400041642068016A41F21112114208D1016ADF
:104C500040F24442114202BF016821F001010160AB
:104C6000012084F83E0084F83F0084F8420084F874
:104C70004300002010BD0000B0B50D46044694F876
:104C80003C00012802BF0220C0B2B0BD4FF00100BD
:104C900084F83C004FEAB20103294ED8DFE801F066
:104CA000021425372068294601F042FB20688169FB
:104CB00041F0080181612068816921F0040181616E
:104CC00029692068183034E02068294601F062FB29
:104CD0002068816941F4006181612068816921F463
:104CE000806181612068183021E02068294601F048
:104CF00087FB2068C16941F00801C1612068C16972
:104D000021F00401C161296920681C3011E020688C
:104D1000294601F0ABFB2068C16941F40061C16123
:104D20002068C16921F48061C16120681C30296953
:104D300009020268114301600020002184F83C1040
:104D4000C0B2B0BD10B50446002C04BF012010BD98
:104D500094F83D0028B9002084F83C00204600F07B
:104D60001FF8022084F83D002068211D01F02EF973
:104D7000012084F8460084F83E0084F83F0084F85F
:104D8000400084F8410084F8420084F8430084F82D
:104D9000440084F8450084F83D00002010BD000068
:104DA00070470000704700007047000010B50446CF
:104DB00039B10320082908BF0220042908BF0120B7
:104DC00000E00020204490F83E0001281CBF012094
:104DD00010BD4FF0020041B1082909D0042914BFC9
:104DE00084F8410084F83F0004E084F83E0001E0CC
:104DF00084F840002068012201F084F9206840F422
:104E0000806240F20041C4F201018A4202BF426C5A
:104E100042F400424264206841F2FF72C4F2000290
:104E200090420FDC40F2FF71C4F2000188421BDCAB
:104E3000B0F1804F2DD040F20041C4F20001884211
:104E400027D02EE040F2FF32C4F20102904218DC7B
:104E500041F60001C4F2000188421AD00021C4F2D8
:104E60000101884215D01CE040F60001C4F20001A7
:104E700088420ED040F60041C4F20001884208D0BA
:104E80000FE044F20002C4F20102904201D08842D5
:104E900007D12068806800F00700062804BF0020C2
:104EA00010BD2068016841F001010160002010BDC3
:104EB000B0B50D4604463DB10320082D08BF0220C1
:104EC000042D08BF012000E00020204490F83E009F
:104ED000022802BF0220C0B2B0BD3DB10320082DA0
:104EE00008BF0220042D08BF012000E0002020445C
:104EF00090F83E100120002A00F0F980012940F0CE
:104F0000F680002B00F08F80022045B1082D09D0DB
:104F1000042D14BF84F8410084F83F0004E084F8B5
:104F20003E0001E084F840004FEAB500032800F29B
:104F30007A80DFE800F002213F5D606A46F2D51119
:104F4000C0F60001C163606A46F24121C0F600016B
:104F50000164606A46F27921C0F60001C1642168EB
:104F6000606A01F1340C11466246FCF7C3FE00286A
:104F700059D14FF400705BE0A06A46F2D511C0F63B
:104F80000001C163A06A46F24121C0F6000101643C
:104F9000A06A46F27921C0F60001C1642168A06AC6
:104FA00001F1380C11466246FCF7A4FED8BB4FF461
:104FB00080603DE0E06A46F2D511C0F60001C163B1
:104FC000E06A46F24121C0F600010164E06A46F25F
:104FD0007921C0F60001C1642168E06A01F13C0C4E
:104FE00011466246FCF786FEE8B94FF400601FE008
:104FF000206B46F2D511C0F60001C163206B46F26A
:105000004121C0F600010164206B46F27921C0F60F
:105010000001C1642168206B01F1400C1146624619
:10502000FCF768FE10B10120C0B2B0BD4FF4805053
:105030002168CA681043C86020682946012201F02F
:1050400061F8206840F4806240F20041C4F201013E
:105050008A4202BF426C42F400424264206841F23C
:10506000FF72C4F2000290420BDC40F2FF71C4F206
:105070000001884217DCB0F1804F29D040F2004196
:1050800019E040F2FF32C4F20102904218DC41F60E
:105090000001C4F2000188421AD00021C4F20101CB
:1050A000884215D01DE040F60001C4F2000188429C
:1050B0000ED040F60041C4F20001884208D010E052
:1050C00044F20002C4F20102904201D0884208D1A9
:1050D0002068806800F00700062802BF0020C0B2E8
:1050E000B0BD2068016841F0010101600020C0B23C
:1050F000B0BD000010B5044639B10320082908BF2F
:105100000220042908BF012000E00020204490F87C
:105110003E00012842D1022041B1082909D00429CA
:1051200014BF84F8410084F83F0004E084F83E0096
:1051300001E084F840004FEAB10003282ED833A2E2
:1051400052F820002268D3681843D06020680122FA
:1051500000F0D8FF206840F4806240F20041C4F2C1
:1051600001018A4202BF426C42F40042426420685C
:1051700041F2FF72C4F20002904211DC40F2FF7172
:10518000C4F2000188421DDCB0F1804F2FD040F204
:105190000041C4F20001884229D030E0012010BD56
:1051A00040F2FF32C4F20102904218DC41F60001E5
:1051B000C4F2000188421AD00021C4F201018842E1
:1051C00015D01CE040F60001C4F2000188420ED068
:1051D00040F60041C4F20001884208D00FE044F2DA
:1051E0000002C4F20102904201D0884207D1206837
:1051F000806800F00700062804BF002010BD20686A
:10520000016841F001010160002010BD02000000B2
:10521000040000000800000010000000B0B50D46BA
:1052200004462068002200F06DFF206840F4806191
:1052300040F20042C4F2010291420DD1016A41F2F2
:105240001112114208D1016A40F24442114202BFD8
:10525000416C21F4004141642068016A41F211125D
:10526000114208D1016A40F24442114202BF016872
:1052700021F0010101600120082D0AD0042D0CD07D
:10528000002D14BF84F8410084F83E004FF0000068
:10529000B0BD84F840000020B0BD84F83F0000207D
:1052A000B0BD0000B0B50D4604464FEAB500032876
:1052B00084BF0120B0BDDFE800F0020910172068AC
:1052C000C16821F40071C160606A13E02068C168A0
:1052D00021F48061C160A06A0CE02068C16821F4FB
:1052E0000061C160E06A05E02068C16821F4805176
:1052F000C160206BFCF724FC20682946002200F0E6
:1053000001FF206840F4806140F20042C4F20102D3
:1053100091420DD1016A41F21112114208D1016A84
:1053200040F24442114202BF416C21F40041416409
:105330002068016A41F21112114208D1016A40F25B
:105340004442114202BF016821F0010101600120C5
:10535000082D0AD0042D0CD0002D14BF84F8410074
:1053600084F83E004FF00000B0BD84F840000020FB
:10537000B0BD84F83F000020B0BD0000B0B50D46C0
:1053800004464FEAB500032884BF0120B0BD25A123
:1053900051F820002168CA6800EA0200C86020684D
:1053A00029464FF0000200F0ADFE206840F4806115
:1053B00040F20042C4F2010291420DD1016A41F271
:1053C0001112114208D1016A40F24442114202BF57
:1053D000416C21F4004141642068016A41F21112DC
:1053E000114208D1016A40F24442114202BF0168F1
:1053F00021F0010101600120082D0AD0042D0CD0FC
:10540000002D14BF84F8410084F83E004FF00000E6
:10541000B0BD84F840000020B0BD84F83F000020FB
:10542000B0BD00BFFDFFFFFFFBFFFFFFF7FFFFFF6A
:10543000EFFFFFFF7047000070470000B0B5044663
:1054400094F83C200220012A1BD0012584F83C500E
:1054500084F83D00204601F031F800284FF00100AB
:105460000AD12068C16821F04001C1602068C1688C
:1054700021F48041C160002084F83D50002184F86F
:105480003C10C0B2B0BD0000B0B5044694F83C205A
:105490000220012A1BD0012584F83C5084F83D00ED
:1054A000204601F00BF800284FF001000AD12068D7
:1054B000C16841F04001C1602068C16821F48041A9
:1054C000C160002084F83D50002184F83C10C0B237
:1054D000B0BD0000704700007047000070B582B09A
:1054E000044694F84200202822D10125002918BF43
:1054F000002A1ED00125256300266663204601F0A0
:10550000B7FA206B012814D1019620680068019039
:105510002068406801900198206850E8030F2168D6
:1055200040F0100041E80302002AF5D1002500E018
:105530000225E8B202B070BD7047000010B5044605
:105540002068406994F84110212915D110F080009D
:1055500012D000BF206850E8050F216820F08000BD
:1055600041E80502002AF5D1A06B002818BFFCF71E
:10557000A3FA204601F09AF92068406994F8421095
:10558000222915D110F0400012D000BF206850E849
:10559000050F216820F0400041E80502002AF5D1FE
:1055A000E06B002818BFFCF787FA204601F04CF9A1
:1055B000002010BD7047000070B582B0044622681C
:1055C0001068D168536901F0200200F02F05202DEA
:1055D00006D12AB1204602B0BDE8704001F074B98E
:1055E0005FEA007C08D003F0010E8EF0010311F495
:1055F000907F51D1002B4FD00840C106216B42D57E
:10560000012940D1002001902068006801902068A5
:105610004068019001982068406910F0400F40F008
:105620009F80A08DE18DE28D002A1EBF401A81B2BD
:10563000002900F0F58000BF206850E8030F2268C1
:1056400020F4907042E80303002BF5D1206850E865
:10565000050F226820F0010042E80503002BF5D178
:10566000202084F842000020206300BF206850E81A
:10567000030F226820F0100042E80303002BF5D14D
:1056800002206063B3E0010640F1B780204602B01B
:10569000BDE8704001F03ABAC50706D011F4807534
:1056A0001EBF656C45F00105656400F00406012528
:1056B00085EA96061E4302BF666C46F002066664E3
:1056C00000F0020685EA56052B4302BF636C43F0E7
:1056D0000403636452EA0E0218BF0122BCF1000FFA
:1056E00005D5012A02BF626C42F008026264626C56
:1056F000002A00F095800840800644BF204601F053
:10570000E3F82068406900F04000616C01F0080196
:10571000084300F08080204601F096F82068406938
:1057200010F0400F71D000BF206850E8050F2168CD
:1057300020F0400041E80502002AF5D1E06B002886
:1057400063D046F20571C0F600010165FCF7F8F977
:10575000002865D0E06B016D02B0BDE870400847DD
:10576000E06B0068406881B2002959D0A28D914257
:1057700056D2E085E06BC069B0F5807F31D000BFC4
:10578000206850E8030F216820F4807041E803028C
:10579000002AF5D1206850E8050F216820F00100AB
:1057A00041E80502002AF5D1206850E8050F21687C
:1057B00020F0400041E80502002AF5D1202084F8BD
:1057C00042000020206300BF206850E8030F2168DA
:1057D00020F0100041E80302002AF5D1E06BFCF74D
:1057E0006BF902206063A08DE18D401A81B22046E2
:1057F00002B0BDE87040FFF79FBE400610D52046BE
:1058000002B0BDE8704001F047B8204602B0BDE8E4
:105810007040FFF7CFBE2046FFF7CCFE002060644B
:1058200002B070BD10B50446002C04BF012010BDAD
:1058300094F8410028B9002084F84000204600F088
:1058400023F8242084F841002068C16821F4005125
:10585000C160204601F09CF82068016921F4904164
:1058600001612068416921F02A0141612068C16815
:1058700041F40051C16000206064202184F841108F
:1058800084F84210606310BD80B586B00021059198
:10589000CDE90311CDE90111026844F60040C4F2DC
:1058A0000000824201D006B080BD009143F6300274
:1058B000C4F20202136943F400231361136903F471
:1058C00000230093009B0091136843F001031360D1
:1058D000126802F001020092009A03220192022350
:1058E000CDE9023104920821059100F5DA3001A9D1
:1058F000FCF74EFA06B080BD2DE9F04381B01D469D
:1059000016460F46044694F8420020281CD1012078
:10591000002F18BF002E49D04FF00009C4F8449062
:10592000222084F84200C4F83090FCF715FB804632
:10593000A685E685A068B0F5805F07D12669002EB0
:105940000CBFB9463E4606E002202FE03E4602E08C
:10595000E08D0138E085E08DF8B1204620214246F7
:105960002B4601F001F9E8B946B1A068B0F5805FB7
:105970000CD008B9206948B17F2008E02068406851
:105980006FF35F2029F8020B0026E1E7FF20216872
:105990004968084006F8010BDAE7202084F8420045
:1059A000002003E0202084F842000320C0B201B0B0
:1059B000BDE8F08310B590F84230202B1EBF0224C2
:1059C000E0B210BD4FF00104002918BF002A03D037
:1059D0000024046301F04CF8E0B210BD70470000F1
:1059E000704700002DE9F04381B01D4616460F4672
:1059F000044694F8410020281EBF022001B0BDE8F3
:105A0000F0834FF00100002F18BF002E3DD04FF063
:105A10000009C4F84490212084F84100FCF79CFA66
:105A20008046A684E684A068B0F5805F05D126692B
:105A3000002E0CBFB9463E4605E03E4603E000BFDF
:105A4000E08C0138E084E08C98B120468021424609
:105A50002B4601F089F8D8B920681EB116F8011B51
:105A60004160EDE739F8021B6FF35F2141600026CA
:105A7000E6E72046402142462B4601F075F82021FA
:105A800084F84110002818BF032001B0BDE8F0835E
:105A9000202084F84100032001B0BDE8F08300001D
:105AA000B0B51346044694F8410020281EBF0220DA
:105AB000C0B2B0BD4FF00100002918BF002B2CD0A0
:105AC0002162A384E38400256564212084F84100D9
:105AD000A06B46F2FD7CC0F6000C46F6410EC0F607
