:020000040800F2
:10000000B806002029020008FB110008A110000812
:10001000F9110008210400085B1500080000000029
:10002000000000000000000000000000FF110008B8
:100030002304000800000000FD1100080112000860
:10004000430200084302000843020008430200087C
:10005000430200084302000843020008430200086C
:10006000430200084302000843020008430200085C
:10007000430200084302000843020008430200084C
:10008000430200084302000843020008430200083C
:10009000430200084302000843020008430200082C
:1000A000430200084302000843020008430200081C
:1000B000430200084302000843020008430200080C
:1000C00043020008430200084302000843020008FC
:1000D00043020008430200084302000843020008EC
:1000E00043020008430200084302000843020008DC
:1000F00043020008430200084302000843020008CC
:1001000043020008430200084302000843020008BB
:1001100043020008430200084302000843020008AB
:10012000430200084302000843020008430200089B
:100130004302000800000000000000004302000825
:10014000430200084302000843020008430200087B
:10015000430200084302000843020008430200086B
:10016000430200084302000843020008430200085B
:1001700043020008430200080000000000000000E5
:10018000430200084302000800F002F800F03CF8C7
:100190000AA090E8000C82448344AAF10107DA45E2
:1001A00001D100F031F8AFF2090EBAE80F0013F0F8
:1001B000010F18BFFB1A43F0010318471C1400007D
:1001C0003C140000103A24BF78C878C1FAD852070E
:1001D00024BF30C830C144BF04680C6070470000C1
:1001E0000023002400250026103A28BF78C1FBD840
:1001F000520728BF30C148BF0B6070471FB501F0E0
:10020000DEF91FBD10B510BD00F0D7F81146FFF79D
:10021000F5FF01F0BEF900F0F5F803B4FFF7F2FFC7
:1002200003BC00F0C3F800000948804709480047B4
:10023000FEE7FEE7FEE7FEE7FEE7FEE7FEE7FEE796
:10024000FEE7FEE704480549054A064B70470000F3
:10025000A112000889010008B8000020B80600209B
:10026000B8020020B802002053EA020C00F06980B6
:100270002DE9F04B4FF00006002B1FBFB3FA83F5BA
:1002800003FA05F424FA05F65E4012BF1643B2FAEB
:1002900082F502FA05F4C5F120051EBF22FA05FC1D
:1002A00044EA0C04203556EA044C4FEA144418BFC3
:1002B000641C4FF000084FF00009904271EB030CF2
:1002C00039D3002919BFB1FA81F701FA07F6B0FA5C
:1002D00080F700FA07F6C7F120071EBF20FA07FCD7
:1002E00046EA0C062037B6FBF4FCA7EB0507103FE7
:1002F00007F01F0BCBF120062CFA06F60CFA0BFBCD
:1003000044BFB3460026202FA4BF5E464FF0000B2B
:100310005BEA060C08BF4FF0010B19EB0B0948EB29
:100320000608ABFB027C06FB02CC0BFB03CCC01B1C
:1003300071EB0C01C1E70B46024641464846BDE859
:10034000F08B13B54FF000004FF00001AFF30080C9
:10035000BDE81C4070474FF0000200B513469446BC
:100360009646203922BFA0E80C50A0E80C50B1F10D
:100370002001BFF4F7AF090728BFA0E80C5048BF21
:100380000CC05DF804EB890028BF40F8042B08BFBF
:10039000704748BF20F8022B11F0804F18BF00F8BB
:1003A000012B7047704770477047000001491820C3
:1003B000ABBEFEE7260002007047754600F02CF841
:1003C000AE4605006946534620F00700854618B042
:1003D00020B5FFF737FFBDE820404FF000064FF093
:1003E00000074FF000084FF0000BAC46ACE8C00926
:1003F000ACE8C009ACE8C009ACE8C00921F00701CD
:100400008D46704710B50446AFF300802046BDE826
:100410001040FFF702BF00000048704710000020A6
:10042000FEE7704772B6FEE72DE9FC4F5B4A0827EE
:100430004FF0010E4FF0030A4FF0000B4FF0000891
:10044000904208BF0727564A02444FEAB223072BBF
:1004500038BF4FEAB22700970027102F08BFBDE82A
:10046000FC8F0A680EFA07F4224200F090804B6875
:1004700003F00302551E012D15D8D0F808C00AFA62
:1004800008F52CEA050CCD6805FA08F545EA0C05D7
:100490008560C3F3001505FA07FC4568A54345EAE6
:1004A0000C05456001E0032A1DD0C6680AFA08F56C
:1004B000022A26EA05068D6805FA08F546EA0506C9
:1004C000C66010D1374D0BF01C020F23934005EA94
:1004D00057060644356A25EA03030D6905FA02F258
:1004E0001A4332624B68056803F003020AFA08F601
:1004F00013F4403F02FA08F225EA060642EA060231
:10050000026044D000220192274A136843F48043DA
:100510001360126802F48042019227F00302234B19
:10052000019E234D0BF00C0602EB03090F2259F834
:1005300005C002FA06FE009A2CEA0E0C02FA06F634
:100540004FF0010E46EA0C0649F805609A684E68BD
:10055000A24316F4801F18BF224316F4001F9A60AE
:10056000144A156825EA040518BF254316F4003F10
:1005700015605A6822EA040218BF224316F4803F2D
:100580005A601A6822EA040218BF22431A600BF16B
:10059000040B08F1020801375FE700BF001C0240AE
:1005A0000000FEBFFCFFFF7F44380240003C0140DA
:1005B00008FCFFFF0C3C0140002A08BF09048161D0
:1005C000704700001F488068704700BF1D480178D1
:1005D000826811448160704780B50B48016841F41E
:1005E00000710160016841F480610160016841F4BB
:1005F00080710160032000F06FF80F2000F006F812
:1006000000F022F8002080BD003C024070B50D4E85
:1006100004464FF47A713078B1FBF0F080490968F4
:10062000B1FBF0F000F0E8FA01250F2C08D838B93A
:100630004FF0FF3021460022002500F021F87460C1
:10064000284670BD0000002082B0002001900B49B8
:100650004A6842F480424A604A6802F48042019249
:10066000019A0090086840F080500860086800F027
:1006700080500090009802B0704700BF40380240A0
:10068000B0B5144C1A4D00F00F03B0F1FF3FA3F1C9
:1006900004032B4403F10C03C8BF03192868C0F3FB
:1006A0000220051DC41E80F00700072D4FF0010534
:1006B00038BF0024042828BF042005FA00F00138C0
:1006C000084005FA04F10F31A04011400843000131
:1006D0001870B0BD00E400E005494FF6FF030A685A
:1006E0001A4060F30A22034810430860704700BFB5
:1006F0000CED00E00000FA052DE9F04104468846C3
:10070000002C00F08480444FD7F8000400F007006C
:10071000404507D287F80084D7F8000400F00700AE
:10072000404574D1206810F0020F11D0410742BF3C
:10073000B96841F4E051B960010742BFB96841F4BA
:100740006041B960B968A26821F0F0011143B96055
:10075000C0072BD06068811E022904D2396811F0CD
:10076000007F0BD153E0012804D1396811F4003F18
:1007700004D14CE0396811F0020F48D0B96821F07B
:1007800003010843B860FFF71DFF064641F28835B4
:10079000B868616800F00C00B0EB810F06D0FFF77D
:1007A00011FF801BA842F3D9032031E0D7F80004E1
:1007B00000F00700404507D987F80084D7F8000407
:1007C00000F00700404522D1206810F0040F05D04A
:1007D000B968E26821F4E0511143B960000706D519
:1007E000B868216920F4604040EAC100B86000F0B8
:1007F0001BF8B968094AC1F30311515CC8400849A4
:10080000086008480068FFF701FF002000E00120B1
:10081000C0B2BDE8F08100BF00380240C815000832
:100820000C0000200400002010B5F04C606800F0BF
:100830000C011248082904D0042904BF104810BD37
:1008400010BD226820680E49002310F4800F02F0CA
:100850003F0204BF42F20041C0F2F4012068C0F33D
:100860008810A1FB0001FFF7FFFC21680222C1F301
:10087000014102EB4101B0FBF1F010BD0024F40096
:1008800040787D012DE9F84F8246BAF1000F00F063
:1008900064819AF80000D44ED44FC0074AD07868DB
:1008A00000F00C00042807D1306810F4003F41D05C
:1008B000DAF80400F0BB50E1786800F00C0008287A
:1008C00003D1386810F4800FEED1DAF80480B8F55F
:1008D000803F06D03068B8F5A02F13D140F48020B7
:1008E0003060306840F480303060FFF76BFE0546C2
:1008F000306810F4003F1DD1FFF764FE401B6428F0
:10090000F6D9C3E020F480303060306820F48020D5
:100910003060FFF757FE0546B8F1000FE8D13068A8
:1009200010F4003F06D0FFF74DFE411B0320642961
:10093000F5D913E19AF80000AD4C800731D57868FD
:1009400010F00C0F1CD0786800F00C00082804BFD1
:10095000386810F4800F13D0DAF80C00002800F08B
:10096000978001202060FFF72DFE0546306810F0CB
:10097000020F0ED1FFF726FE401B0228F6D985E0B4
:10098000306810F0020F1CBFDAF80C00012840F0AC
:10099000E4803068DAF8101020F0F80040EAC10076
:1009A00030609AF80000000722D5DAF8140078B118
:1009B0000120C4F8800EFFF705FE0546386F10F0E1
:1009C000020F15D1FFF7FEFD401B0228F6D95DE0AE
:1009D0000020C4F8800EFFF7F5FD0546386F10F0D3
:1009E000020F05D0FFF7EEFD401B0228F6D94DE0BF
:1009F0009AF80000A34640077CD5F86B4FF000083A
:100A000010F0805F0CD1CDF800804FF00108F86B3A
:100A100040F08050F863F86B00F080500090009830
:100A20007448305810F4807F12D17248315841F424
:100A300080713150FFF7C6FD05466E48305810F4FE
:100A4000807F05D1FFF7BEFD401B0228F5D91DE0D0
:100A5000DAF80890B9F1010F06D0F86EB9F1050F78
:100A600027D140F00400F866F86E40F00100F86607
:100A7000FFF7A8FD054641F28834F86E10F0020F2A
:100A800031D1FFF79FFD401BA042F6D9032065E05E
:100A900000202060FFF796FD0546306810F0020F39
:100AA0003FF47FAFFFF78EFD411B03200229F4D9ED
:100AB00054E020F00100F866F86E20F00400F866BB
:100AC000FFF780FD0546B9F1000FD4D141F2883916
:100AD000F86E10F0020F06D0FFF774FD411B0320E3
:100AE0004945F5D93AE0B8F1010F02BFF86B20F0A3
:100AF0008050F863DAF81840002C72D0786800F063
:100B00000C0008282ED1012C27D03868DAF81C10E8
:100B100000F480028A4220D1DAF8201000F03F026F
:100B20008A421AD1DAF8242047F6C0710140B1EBAD
:100B3000821F12D1DAF828104FF6FF72C9039143D1
:100B400000F44032A1F580318A4206D1DAF82C1047
:100B500000F07060B0EB016F43D00120C0B201B073
:100B6000BDE8F08F0020CBF86000FFF72BFD0546B5
:100B7000022C0BD15C46306810F0007F11D0FFF7DB
:100B800021FD411B03200229F5D9E7E7306810F069
:100B9000007F26D0FFF716FD411B03200229F5D95F
:100BA000DCE70AF11C052FCD0843D90340EA821087
:100BB0004FF6FF72914340EA0560A1F5803108438A
:100BC000386001202066FFF7FDFC0446306810F015
:100BD000007F06D1FFF7F6FC011B03200229F5D99F
:100BE000BCE70020BAE700BF0038024004380240EA
:100BF000000047420038FEFF411E0020B0EB116F9D
:100C00001CBF01207047044AF023516003490B7058
:100C1000072190601160704710E000E023ED00E0D4
:100C200090F83C20012A01D102211FE0B0B501F16A
:100C30000805D1E900CE3CCDC96923F47C5322F4E8
:100C400070521A432EF4F0431A432CF4E0431A4333
:100C500024F4C0431A432A4322F480421143026819
:100C60005164002180F83C10BDE8B040C8B2704724
:100C700090F83C300222012B35D010B5012380F8CA
:100C80003C3080F83D200268D2F804E0D2F808C079
:100C90000C68B2F1804F2EF0700343EA04035360F6
:100CA000BDE8104014D0114B9A421CBF104B9A4221
:100CB0000ED0104B9A421CBF0F4B9A4208D0F54BF6
:100CC0009A421CBFF44B9A4202D0F44B9A4204D190
:100CD00049682CF08003194391600121002280F8BB
:100CE0003D1080F83C20D0B2704700BF00040040A7
:100CF00000080040000C00400018004010B50446F9
:100D000034B394F83D0028B9002084F83C00204614
:100D100000F020F80220211D84F83D00206800F03A
:100D2000C7FA012084F8460084F83E0084F83F00AA
:100D300084F8400084F8410084F8420084F84300BD
:100D400084F8440084F8450084F83D00002010BD7C
:100D5000012010BD0068D149884218BF704781B09A
:100D6000002000900548016841F002010160006820
:100D700000F002000090009801B070474438024033
:100D800010B50446022094F83C20012A70D00122BC
:100D90004FF6777384F83C2084F83D002068826821
:100DA0009A4382600A6812B3102A20D0202A18BF02
:100DB000302A1CD0402A21D0502A2BD0602A35D08E
:100DC000B2F5005F3ED0B2F5805F4AD0702A51D1B3
:100DD000D1E90123C9681A4342EA0121826822F459
:100DE0007F4211438160816841F0770138E081687A
:100DF00021F07701114341F0070131E04B68CA68E7
:100E0000194600F087FB2068816821F0770141F0E6
:100E1000470125E04B68CA68194600F07BFB206853
:100E2000816821F0770141F0570119E04B68CA68E9
:100E3000194600F080FB2068816821F0770141F0BD
:100E400067010DE0D1E90123C9681A4342EA012193
:100E5000826822F47F4211438160816841F48041BD
:100E600081600020012184F83D10002184F83C10AD
:100E7000C0B210BD0120F5E710B586B0044601A848
:100E80001421FFF768FA2168DA48814218D100215D
:100E900000F582300091A04A136843F00403136008
:100EA000126802F004020092009AC022019202220B
:100EB000CDE9022104910321059101A9FFF7B4FABC
:100EC00006B010BDB0B504460D4694F83C000128AC
:100ED00001D1022041E04FEAB2010120032984F848
:100EE0003C0037D8DFE801F0020A122220682946C8
:100EF00000F04CFA206850F8181F0EE020682946D0
:100F000000F076FA206850F8181F16E0206829468D
:100F100000F0A4FA206850F81C1F41F0080101609D
:100F2000016821F00401016029690FE02068294669
:100F300000F0C8FA206850F81C1F41F400610160FD
:100F4000016821F480610160296909020268114386
:100F500001600020002184F83C10C0B2B0BD10B583
:100F6000044634B394F83D0028B9002084F83C00CE
:100F7000204600F020F80220211D84F83D00206862
:100F800000F096F9012084F8460084F83E0084F8C9
:100F90003F0084F8400084F8410084F8420084F85F
:100FA000430084F8440084F8450084F83D000020A4
:100FB00010BD012010BD704739B10322082908BFB8
:100FC0000222042908BF012200E00022024492F814
:100FD0003E20012A1CBF01207047022241B108298E
:100FE00009D0042914BF80F8412080F83F2004E094
:100FF00080F83E2001E080F84020006801F01F01E9
:10100000012202FA01F1026AB0F1804F22EA0102E4
:101010000262026A41EA0201016230D0D14988428B
:101020001CBFD14988422AD0D04988421CBFD1492F
:10103000884224D0CE49884205D0D14988421ED06A
:10104000EA49884220D1416CB0F1804F41F400411F
:10105000416414D0C34988421CBFC34988420ED0A2
:10106000C24988421CBFC349884208D0C04988424F
:101070001CBFC349884202D0F749884204D1816825
:1010800001F00701062903D0016841F00101016068
:101090000020704700000140004001400004014072
:1010A000FEE7000070B586B000250022059500958A
:1010B0001948016841F080010160016801F0800178
:1010C000009100990095016841F0040101600168F8
:1010D00001F00401009100990095016841F00101BF
:1010E00001600421006800F00100009000980B4CA2
:1010F0002046FFF761FA2046082101220126FFF76A
:101100005BFA0C2001A9CDE901062046CDE9035583
:10111000FFF78AF906B070BD30380240000802407F
:10112000B0B596B009AC00251C212046CDE9145578
:10113000CDE91255CDE91055FFF70DF901A8202191
:10114000FFF709F92A48F24940F28F62632380E8E9
:101150002600C0E90335C0E90555FFF7CFFD08B10A
:10116000FFF760F94FF4805012A912902048FFF762
:1011700007FE08B1FFF756F91D48FFF7F0FE08B16A
:10118000FFF750F9002010A9CDE910001848FFF72B
:101190006FFD08B1FFF746F9602018210990201D66
:1011A000FFF7D9F8124821460022FFF78BFE08B15D
:1011B000FFF738F90E4809A90422FFF783FE08B1AA
:1011C000FFF730F901AC14212046FFF7C4F84FF4C3
:1011D000005021460690002008900548FFF720FDAA
:1011E00008B1FFF71FF90248FFF746FE16B0B0BD81
:1011F0007000002000040140FEE7FEE770477047E2
:10120000FFF7E4B970B592B006AC1421201DFFF7CA
:10121000A2F801A81421FFF79EF8002502260095E8
:101220001D48016841F080510160006800F0805065
:101230000090009800951948016841F480410160D0
:10124000006800F480400090009806960120099004
:1012500010200A900820CDE90C650E90A820CDE959
:101260000F06042011902046FFF70CFB08B172B660
:10127000FEE70F200521CDE901064FF4A0500395AC
:1012800004904FF48050059001A8FFF735FA08B19B
:1012900072B6FEE712B070BD4038024000700040E8
:1012A0000248016841F470010160704788ED00E078
:1012B0000268B0F1804F0ED02A4B98421CBF2A4BD7
:1012C000984208D0294B98421CBF914B984202D0BB
:1012D000274B984203D14B6822F070021A43B0F1B9
:1012E000804F20D01F4B98421CBF1F4B98421AD0F2
:1012F0001E4B98421CBF1F4B984214D01E4B984265
:101300001CBF1E4B98420ED0194B98421CBF804BFD
:10131000984208D01A4B98421CBF1A4B984202D0F0
:10132000194B984203D1CB6822F440721A434B699F
:1013300022F080021A4302608A68C2620A688262EE
:1013400040F48062724B9A4204BF09690163012133
:101350004161016911F0010F1EBF016921F0010116
:10136000016170470004004000080040000C00408C
:101370000000014000180040001C00400020004018
:10138000004001400048014000440140B0B5026AFD
:10139000036A23F0010322F002020362D0F804E0A2
:1013A00083698D680C68154323F07302584B42EA39
:1013B000040C40F480629A4201BF25F00C03CC6813
:1013C00024F0040444EA0305514B9A4201BFD1E9D9
:1013D00005232EF44074224342EA030EC0F804E0D1
:1013E000C0F818C0496841630562B0BD00040140FF
:1013F00070B5026A036A23F0100322F02002036230
:10140000466883698D680C6842EA051E23F4E6424B
:101410003F4B42EA042C40F480629A4201BFCB6801
:101420006FF04F0404EA03132EF0C00508BF43EA2F
:10143000050E374B9A4201BFD1E9052326F44064DB
:1014400044EA820242EA83064660C0F818C049684E
:101450008163C0F820E070BD0004014070B5026AED
:10146000036A23F4807322F4007203624668C3693E
:101470008D680C6842EA052E23F07302244B42EA81
:10148000040C40F480629A4208D1CB6840F2FF44D9
:101490002EF440651B02A34343EA050E1C4B9A42FF
:1014A00001BFD1E9052326F4405444EA021242EA7E
:1014B00003164660C0F81CC04968C163C0F820E04C
:1014C00070BD00BFB0B5D0F820C0036A23F48053CC
:1014D0002CF4005203624368C5698C68D1F800E0BF
:1014E00042EA043C0A4C25F4E64240F4806542EAB4
:1014F0000E22A54202BF4D6923F4804343EA8513BF
:101500004360C26149680164C0F820C0B0BD00BF3B
:1015100000040140D0F820C0036A23F001030362F5
:10152000836923F0F00343EA021282612CF00A027D
:10153000114301627047D0F820C0036A23F0100302
:101540000362836923F4704343EA023282612CF020
:10155000A00242EA011101627047FEE710B504469D
:10156000D4E90001FFF728FD6089D4E900130A6877
:10157000042B03D02BB902F1340108E002F1380149
:1015800005E002F14001082B08BF02F13C010860B0
:1015900010BD80B5FFF720F8FFF734FEFFF782FD9E
:1015A000FFF7BEFD00F001F8FEE7F8B50020ADF84A
:1015B0000E0001A8FFF7D2FF002004B080BD4FF05D
:1015C0004070E1EE100A70470000000000000000CB
:1015D0000102030406070809F815000800000020AE
:1015E00010000000C40100080816000810000020C8
:1015F000A8060000E0010008010000001000000043
:08160000000000000024F400CA
:040000050800018965
:00000001FF
