:020000040800F2
:10000000500D00203902000829480008ED4300087F
:10001000254800088909000839520008000000003E
:1000200000000000000000000000000091480008EF
:10003000C5090008000000008D480008C9480008F4
:10004000530200085302000853020008530200083C
:10005000530200085302000853020008530200082C
:10006000530200085302000853020008530200081C
:10007000530200085302000853020008530200080C
:1000800053020008530200085302000853020008FC
:1000900053020008530200085302000853020008EC
:1000A00053020008530200085302000853020008DC
:1000B000FD490008530200085302000853020008DB
:1000C00053020008530200085302000853020008BC
:1000D00053020008530200085302000853020008AC
:1000E000530200085302000853020008530200089C
:1000F000530200085302000853020008530200088C
:10010000530200085302000853020008530200087B
:10011000530200085302000853020008530200086B
:10012000530200085302000853020008530200085B
:100130005302000800000000000000005302000805
:10014000530200085302000853020008530200083B
:10015000530200085302000853020008530200082B
:10016000530200085302000853020008530200081B
:1001700053020008530200080000000000000000C5
:10018000530200085302000800F002F800F045F89E
:100190000AA090E8000C82448344AAF10107DA45E2
:1001A00001D100F03AF8AFF2090EBAE80F0013F0EF
:1001B000010F18BFFB1A43F001031847A88D000078
:1001C000C88D0000103A24BF78C878C1FAD8520709
:1001D00024BF30C830C144BF04680C6070470000C1
:1001E0000023002400250026103A28BF78C1FBD840
:1001F000520728BF30C148BF0B6070471FB508F0D9
:1002000082FB9DE8030000F04DFA00F0B5F81FBD39
:1002100010B5002000F05DF910BD00F002FA1146A3
:10022000FFF7ECFF07F094FF00F0ADFA03B4FFF71F
:10023000EFFF03BC00F014F9094880470948004764
:10024000FEE7FEE7FEE7FEE7FEE7FEE7FEE7FEE786
:10025000FEE7FEE704480549054A064B70470000E3
:10026000E94900088901000850070020500D0020CE
:10027000500900205009002053EA020C00F0698068
:100280002DE9F04B4FF00006002B1FBFB3FA83F5AA
:1002900003FA05F424FA05F65E4012BF1643B2FADB
:1002A00082F502FA05F4C5F120051EBF22FA05FC0D
:1002B00044EA0C04203556EA044C4FEA144418BFB3
:1002C000641C4FF000084FF00009904271EB030CE2
:1002D00039D3002919BFB1FA81F701FA07F6B0FA4C
:1002E00080F700FA07F6C7F120071EBF20FA07FCC7
:1002F00046EA0C062037B6FBF4FCA7EB0507103FD7
:1003000007F01F0BCBF120062CFA06F60CFA0BFBBC
:1003100044BFB3460026202FA4BF5E464FF0000B1B
:100320005BEA060C08BF4FF0010B19EB0B0948EB19
:100330000608ABFB027C06FB02CC0BFB03CCC01B0C
:1003400071EB0C01C1E70B46024641464846BDE849
:10035000F08B13B54FF000004FF00001AFF30080B9
:10036000BDE81C4070470B460146184600F021B816
:10037000704770477047000070B5064C7C44064DCE
:100380007D4403E0206820448047241DAC42F9D11D
:1003900070BD0000048C0000048C000010B500202B
:1003A00000F0B8F8FFF734FFBDE81040012000F07E
:1003B00057B82DE9F041074615460E46102000F0CB
:1003C00059F804000AD06760C4E9026500F04EF8ED
:1003D0000168216004600020BDE8F0810120FBE796
:1003E0004FF0000200B5134694469646203922BFCE
:1003F000A0E80C50A0E80C50B1F12001BFF4F7AF19
:10040000090728BFA0E80C5048BF0CC05DF804EBFA
:10041000890028BF40F8042B08BF704748BF20F868
:10042000022B11F0804F18BF00F8012B704700001D
:1004300080E8FF1FC0F834D0C0F838E0C0F83CE0D6
:100440004FF00000704700BF80EC200B704700BFEA
:1004500080EC200B704700BFC0EC200B7047000001
:1004600001491820ABBEFEE7260002000048704795
:100470005000002070B5064600F0F8F8056806F157
:100480000B0020F00704B4429CBF002070BD2B4637
:100490006A68BAB11068A04210D304F1080188421A
:1004A0003CBF5068586007D351681019416011680B
:1004B000091B016058601460101D70BD134652681E
:1004C000002AE7D12146284600F0D8F80028DED1DE
:1004D00070BD2DE9F0410646FFF7C8FF804645464E
:1004E00013E016B1E068B0420ED120682860D4E96C
:1004F0000101D8F800708847204600F01DF9D8F8AF
:100500000000B842EBD100E025462C68002CE8D171
:10051000BDE8F08110B500F045F9BDE8104000F0ED
:100520003BB9032A40F2308010F0030C00F0158034
:1005300011F8013BBCF1020F624498BF11F801CBE6
:1005400000F8013B38BF11F8013BA2F1040298BF4B
:1005500000F801CB38BF00F8013B11F0030300F0B5
:100560003981083AC0F0088051F8043B083A51F844
:1005700004CBA0E80810F5E7121D5CBF51F8043B5E
:1005800040F8043BAFF30080D20724BF11F8013BD1
:1005900011F801CB48BF11F8012B24BF00F8013B33
:1005A00000F801CB48BF00F8012B70474FF0000264
:1005B0000429C0F0128010F0030C3FF413AFCCF10B
:1005C000040CBCF1020F18BF00F8012BA8BF20F8E3
:1005D000022BA1EB0C01FFF705BF5FEAC17C24BF32
:1005E00000F8012B00F8012B48BF00F8012B7047E1
:1005F00086469EE8FF1FDEF834D0DEF83CE0704708
:1006000090EC200B704700BF90EC200B704700BFB0
:10061000D0EC200B70470000004870471800002005
:1006200070477546FFF7F8FFAE460500694653462A
:1006300020F00700854618B020B5FFF70BFEBDE897
:1006400020404FF000064FF000074FF000084FF039
:10065000000BAC46ACE8C009ACE8C009ACE8C00986
:10066000ACE8C00921F007018D467047004870478B
:1006700020000020704770477047704738B5044627
:100680000A4600206946AFF30080002808BF38BD45
:1006900002460099204600F00DF9012038BD0120E6
:1006A00000F03BB9F8B5AFF30080054600200C46DA
:1006B000102000BF0646A819A0420DD9324669464F
:1006C0000020AFF30080070008BF00F026F9009873
:1006D000A04218BF0546C419FFF7C8FF05600746CA
:1006E000F01D20F007004619284600F01EF8B4421D
:1006F00008BFF8BDA21B31463868BDE8F84000F0DD
:10070000D9B870B5A0FB0140B4F1805170F1000080
:1007100024BF002070BD2046FFF7ACFE05001CBFC3
:100720002146FFF743FF284670BD00210160C0E964
:10073000011070471020704770B50446051FFFF781
:1007400095FF0068002C14BF446870BD002C18BFD2
:10075000AC423CBF20466468F8D301680A18AA423C
:1007600018BF456003D12A68054611440160286816
:100770004119A1421CBF6C6070BD6168696021684D
:100780000844286070BD10B50446AFF300802046D1
:10079000BDE81040FFF74ABD002801D0FFF760BE5A
:1007A0007047000010B5002102A000F09DF8012064
:1007B00010BD0000534947414252543A2041626EF5
:1007C0006F726D616C207465726D696E6174696FB2
:1007D0006E00000010B5203AC0F00B80B1E8185050
:1007E000A0E81850B1E81850A0E81850203ABFF41B
:1007F000F5AF5FEA027C24BFB1E81850A0E81850BA
:1008000044BF18C918C0BDE810405FEA827C24BF0D
:1008100051F8043B40F8043B08BF7047D20728BF9B
:1008200031F8023B48BF11F8012B28BF20F8023BEA
:1008300048BF00F8012B704730B44FF0013C50F82E
:10084000042B51F8043BCCFA52F4D51A20D1FCB950
:1008500050F8042B51F8043BCCFA52F4D51A17D1B6
:10086000B4B950F8042B51F8043BCCFA52F4D51A21
:100870000ED16CB950F8042B51F8043BCCFA52F469
:10088000D51A05D1002CDAD030BC4FF000007047EB
:1008900029BAB1FA81F111F01801D1F12000844098
:1008A000F2D1CA40CB4012F0FF0213F0FF0330BC7C
:1008B000D01A7047034640688C46002818BF88420B
:1008C0003CBF03464068F8D318681844884207D0F4
:1008D0000CF1030020F00700001D411A521A0146D6
:1008E000081D0A60FFF728BF70B505460C460A20B0
:1008F00000E06D1C00F018F835B128780028F8D118
:1009000002E0641C00F010F814B120780028F8D13F
:10091000BDE870400A2000F007B810B500F00CF8F0
:10092000BDE81040FFF738BF08B569468DF80000F4
:100930000320ABBE08BD000010B5012805D0002182
:1009400003A0FFF7D1FF012010BD09A1F8E70000C7
:1009500053494752544D454D3A204F7574206F66A8
:100960002068656170206D656D6F72790000000010
:100970003A2048656170206D656D6F727920636FF4
:100980007272757074656400FEE7000080B5D0F87F
:1009900000C0DCF800E02EF4802ECCF800E0D0F8A7
:1009A00000C0CCF80430D0F800C08368402B0B4660
:1009B00008BF1346CCF8083008BF0A460068C2607A
:1009C00080BD00007047000072B600BFFEE7000067
:1009D00090F8351002291FBF802141650120704722
:1009E0004FF0050180F835100068016821F0010121
:1009F00001604FF000007047B0B5044694F8340031
:100A0000012818D0012084F8340094F8350001281A
:100A10000ED1022084F83500002565652046FFF7D9
:100A2000B5FF2068016841F001010160E8B2B0BD86
:100A3000002084F834000225E8B2B0BDB0B5044609
:100A400094F8340001282DD0A56D012084F83400DD
:100A500094F83500012822D1022084F835000020C6
:100A600060652046FFF792FFE06D3F2101FA00F03C
:100A7000A8602068016841F016010160206C002820
:100A80001FBF2068016841F008010160206801680B
:100A900041F0010101604FF00000C0B2B0BD002084
:100AA00084F834000220C0B2B0BD000070B5054625
:100AB0006E1C00F0F5F8044636B140F20C00C2F2AC
:100AC00000000078054401E04FF0FF3500F0E8F841
:100AD000001BA842FAD370BD2DE9F04F82B041F659
:100AE0000042C4F202020827904208BF072700F123
:100AF0003E4202F1FF724FEAB223072B38BF4FEAA2
:100B0000B22700974FF0010A4FF0030B43F6004E57
:100B1000C4F2010E002500244FF000080AE000BFD7
:100B20000435023408F10108B8F1100F04BF02B017
:100B3000BDE8F08F0AFA08F90E6816EA090CEFD042
:100B40004E6806F00306013E012E15D80BFA04F696
:100B5000D0F808B02BEA06064FF0030BCA68A24093
:100B600032438260426822EA09024E68C6F30016E8
:100B700006FA08F6324342604A6802F00302032A8A
:100B800008D00BFA04F2C66826EA02028E68A64074
:100B90003243C2604A6802F00302022A13D105F010
:100BA0001C020F2303FA02F64FF6FC73C7F6FF731D
:100BB00003EA580303441F6A27EA06060F6907FA87
:100BC00002F232431A620BFA04F2036823EA0202C9
:100BD0004B6803F00303A3401A4302608A7992072B
:100BE0009ED00022019243F64402C4F20202134650
:100BF0001A6842F480421A601A6802F48042019234
:100C000028F003027244019B4FF60843CFF6FF73AE
:100C1000994652F8093005F00C060F27B740BB4340
:100C2000009F07FA06F6334342F80930DEF8082041
:100C300022EA0C024B6813F4801F18BF42EA0C0230
:100C4000CEF8082043F60C42C4F201021646326880
:100C500022EA0C024B6813F4001F18BF42EA0C0290
:100C60003260DEF8042022EA0C024B6813F4003FE5
:100C700018BF42EA0C02CEF80420DEF8002022EA77
:100C80000C024B6813F4803F18BF42EA0C02CEF806
:100C9000002045E7002A08BF090481617047000071
:100CA00040F24C70C2F200000068704740F20C0045
:100CB000C2F200000078704740F21000C2F200005B
:100CC0000068704710B50446002C04BF012010BD19
:100CD00094F8410028B9002084F84000204603F031
:100CE0004BFB242084F841002068C16821F40051A6
:100CF000C160204604F030FA2068016921F4904177
:100D000001612068416921F0220141612068416947
:100D100041F0080141612068C16841F40051C1609F
:100D200000206064202184F8411084F84210606340
:100D300010BD000040F20C00C2F20000007840F24A
:100D40004C71C2F200010A6810440860704700004C
:100D500080B543F60040C4F20200016841F400711E
:100D60000160016841F480610160016841F48071B3
:100D70000160032000F0E6F80F2000F005F800F015
:100D80006BF8002080BD0000B0B5044640F20C00B6
:100D9000C2F2000000784FF47A71B1FBF0F040F23B
:100DA0000001C2F200010968B1FBF0F000F0C4FBE1
:100DB00001250F2C0CD858B900254FF0FF302146E3
:100DC000002200F0AFF840F21000C2F20000046010
:100DD0002846B0BDB0B50D460446002C04BF012026
:100DE000B0BD94F8410028B9002084F840002046A6
:100DF00003F0C2FA242084F841002068C16821F47D
:100E00000051C160204604F0A7F92068016921F46F
:100E1000006101612068416921F02A014161206877
:100E2000016941F4804101612068016921F02001DC
:100E3000016120680169294301612068C16841F4AA
:100E40000051C16000206064202184F8411084F8C2
:100E500042106063B0BD000082B00020019043F6F4
:100E60004001C4F202014A6842F480424A604A6882
:100E700002F480420192019A0090086840F080508C
:100E80000860086800F080500090009802B0704739
:100E900070B515460E460446002C04BF012070BDF7
:100EA00094F8410028B9002084F84000204603F05F
:100EB00063FA242084F841002068C16821F40051BD
:100EC000C160204604F048F92068016921F490418E
:100ED00001612068416921F02A01416120680169AE
:100EE00021F00F010161206801693143016120682F
:100EF000C16821F40061C1602068C1682943C160F4
:100F00002068C16841F40051C16000206064202164
:100F100084F8411084F84210606370BD06F01CBD77
:100F200006F02CBD70B514460D46064606F026FDAB
:100F30002946224603F07AFC01463046BDE870405F
:100F400006F024BD06F034BD2DE9F0410D460446FF
:100F5000002C00F0AB8043F60808C4F20208D8F871
:100F6000F80300F00700A84208D288F8F853D8F830
:100F7000F80300F00700A84240F09880206810F0C5
:100F8000020F19D0400742BFD8F8000040F4E050EB
:100F9000C8F800002078000742BFD8F8000040F4ED
:100FA0006040C8F80000D8F80000A16820F0F00008
:100FB00040EA0100C8F800002078C00735D060681A
:100FC000811E022905D258F8080C10F0007F6DD060
:100FD0000CE0012805D158F8080C10F4003F65D04A
:100FE00004E058F8080C10F0020F5FD0D8F80000A9
:100FF000616820F003000843C8F80000FFF750FEC6
:10100000064641F2883700BFD8F80000616800F05A
:101010000C00B0EB810F08D0FFF742FE801BB842F6
:10102000F2D90320C0B2BDE8F081D8F8F80300F08F
:101030000700A84207D988F8F853D8F8F80300F059
:101040000700A84232D12078400707D5D8F8000021
:10105000E16820F4E0500843C8F800002078000759
:1010600008D5D8F80000216920F4604040EAC100AA
:10107000C8F8000000F048F8D8F80010C1F30311D8
:1010800048F68432C0F60002515CC84040F20001CC
:10109000C2F20001086040F21000C2F200000068D5
:1010A000FFF772FE0020C0B2BDE8F0810120C0B29F
:1010B000BDE8F08140F20000C2F200000068704715
:1010C00080B5FFF7F7FF43F60801C4F20201096893
:1010D000C1F3822148F69432C0F60002515CC84048
:1010E00080BD000080B5FFF7E5FF43F60801C4F2BC
:1010F00002010968C1F3423148F69432C0F6000299
:10110000515CC84080BD000010B543F60404C4F231
:101110000204606800F00C0008280BD004281EBFF1
:1011200042F20040C0F2F40010BD47F64000C0F2A9
:101130007D1010BD2268206847F64001C0F27D1185
:1011400010F4800F04BF42F20041C0F2F4012068A5
:10115000C0F38810A1FB000102F03F024FF0000332
:10116000FFF78AF82168C1F301414FF0020202EB58
:101170004101B0FBF1F010BD2DE9F04782B004460B
:101180006CB32078C00743F6000AC4F2020A43F6A3
:101190007007C4F2020755D057F8680C00F00C0035
:1011A00004281ED057F8680C00F00C00082804D161
:1011B00057F86C0C10F4800F13D16168B1F5803FC3
:1011C00008D0DAF80000B1F5A02F13D140F4802048
:1011D000CAF80000DAF8000040F4803012E0012084
:1011E0009DE1DAF8000010F4003F2BD0606848BBA6
:1011F000012094E120F48030CAF80000DAF8000001
:1012000020F48020CAF800006668FFF749FD054613
:1012100066B100BFDAF8000010F4003F12D1FFF70A
:101220003FFD401B6428F5D9032078E1DAF800007F
:1012300010F4003F06D0FFF733FD411B0320642963
:10124000F4D96CE12078800740F20008C4F2472806
:1012500037D557F8680C10F00C0F21D057F8680CF0
:1012600000F00C00082804BF57F86C0C10F4800F35
:1012700016D0E068002800F094800120C8F8000033
:10128000FFF70EFD054600BFDAF8000010F0020F70
:101290000ED1FFF705FD401B0228F5D903203EE1E2
:1012A000DAF8000010F0020F1CBFE068012876D1C8
:1012B000DAF80000216920F0F80040EAC100CAF81D
:1012C00000002078000724D5606980B10120C8F8AB
:1012D000800EFFF7E5FC0546786810F0020F18D184
:1012E000FFF7DEFC401B0228F6D9032017E100209F
:1012F000C8F8800EFFF7D4FC054600BF786810F0F0
:10130000020F06D0FFF7CCFC401B0228F6D90320C1
:1013100005E12078400740F1898057F8300C4FF004
:10132000000910F0805F0FD1CDF8049057F8300C11
:1013300040F0805047F8300C57F8300C00F08050E7
:10134000019001984FF0010943F60006CFF6FE76B2
:101350005AF8060010F4807F14D15AF8060040F4C1
:1013600080704AF80600FFF79BFC05465AF8060015
:1013700010F4807F06D1FFF793FC401B0228F5D9BB
:101380000320CCE0A168012905D0386805291CD1CB
:1013900040F004003860386840F001001BE0012094
:1013A000BDE00020C8F80000FFF77AFC054600BF4A
:1013B000DAF8000010F0020F3FF483AFFFF770FC83
:1013C000411B03200229F3D9A9E020F00100386075
:1013D000386820F004003860A668FFF761FC054615
:1013E0006EB141F2883600BF386810F0020F14D198
:1013F000FFF756FC401BB042F6D903208FE041F2C4
:10140000883600BF386810F0020F06D0FFF748FC9E
:10141000411B0320B142F5D981E0B9F1010F02BFB0
:1014200057F8300C20F0805047F8300CA669002E99
:1014300074D057F8680C00F00C00082803D1012E76
:1014400022D101206BE00020C8F86000FFF728FCE3
:101450000546022E0CD100BFDAF8000010F0007F24
:1014600038D0FFF71DFC411B03200229F4D956E0B8
:10147000DAF8000010F0007F50D0FFF711FC411B9C
:1014800003200229F4D94AE057F86C0CE16900F412
:1014900080028A4247D1216A00F03F028A4244D149
:1014A00047F6C0710140626AB1EB821F3FD1A16A69
:1014B000C9034FF6FF729143A1F5803100F4403229
:1014C0008A4236D1E16A00F07060B0EB016F25D03E
:1014D000012024E004F11C064FCE084340EA8210AC
:1014E00040EA0660D9034FF6FF729143A1F58031BF
:1014F000084347F86C0C0120C8F86000FFF7D0FBE8
:10150000044600BFDAF8000010F0007F06D1FFF7B4
:10151000C7FB011B03200229F4D900E00020C0B260
:1015200002B0BDE8F0870120F9E70120F7E70120CC
:10153000F5E70120F3E7000003F0ACB9B0B540F2E5
:101540000C04C2F20004257885420BD0207040F2D2
:101550001000C2F200000068FFF716FC00281CBF54
:101560002570B0BD0020B0BD70470000704700007E
:101570007047000090F83C20012A02BF0221C8B247
:101580007047B0B5D1E900CE01F108053CCD23F498
:101590007C5322F4705242EA03022EF4F04342EAF2
:1015A00003022CF4E04342EA030224F4C04342EA7B
:1015B000030242EA050222F48042C96941EA0201BB
:1015C000026851644FF0000180F83C10BDE8B04063
:1015D000C8B2704790F83C30012B02BF0221C8B25C
:1015E00070474FF0010380F83C304FEA3113032B72
:1015F0000ED8D0F800C0DCF8083023F07003CCF827
:101600000830D0F800C0DCF808301943CCF80810D6
:1016100001684B6843F001034B6001684B6823F09D
:1016200004034B6001684B681A434A60416B44F6FF
:101630000922C0F60002CA63416B44F61522C0F6C7
:1016400000020A64416B44F6CD42C0F60002CA644F
:101650000168CA6822F02002CA600168CA6842F4C0
:101660000052CA60002180F83C10C8B270470000E8
:1016700090F83C300222012B57D010B5012380F89E
:101680003C3080F83D200368D3F804E0D3F808C06C
:101690000C682EF0700222435A60036841F2FF7218
:1016A000C4F200029342BDE810400BDC40F2FF722E
:1016B000C4F20002934213DCB3F1804F29D040F210
:1016C000004215E040F2FF32C4F20102934214DC02
:1016D00041F60002C4F2000293421AD0002214E044
:1016E00040F60002C4F20002934212D040F60042DB
:1016F000C4F2000293420CD011E044F20002C4F2A2
:101700000102934205D040F20042C4F2010293422A
:1017100005D149682CF080021143026891600121D3
:1017200080F83D10002280F83C20D0B270470000C5
:1017300010B50446002C04BF012010BD94F83D00F4
:1017400028B9002084F83C00204600F01FF8022051
:1017500084F83D002068211D03F062F9012084F81F
:10176000460084F83E0084F83F0084F8400084F886
:10177000410084F8420084F8430084F8440084F86F
:10178000450084F83D00002010BD000080B582B007
:10179000016843F64000C4F2020040F20042C4F285
:1017A0000102914218D0B1F1804F20D10021019166
:1017B000016841F001010160006800F00100019042
:1017C00001981C2000210022FFF7ACFB1C2002B076
:1017D000BDE88040FFF7A2BB00210091416841F0C5
:1017E00002014160406800F002000090009802B0E1
:1017F00080BD000010B51346044694F83D00022851
:1018000002BF0220C0B210BD94F83D0001281FD1D4
:101810000120002918BF002B6BD0022084F83D0066
:10182000206A44F62952C0F60002C263206A44F6D8
:101830003D52C0F600020264206A44F6CD42C0F672
:101840000002C2642268206A2C32FFF7F7F810B158
:101850000120C0B210BD2068C16841F48071C16030
:10186000206841F2FF71C4F2000188420BDC40F2B3
:10187000FF71C4F20001884213DCB0F1804F29D01F
:1018800040F2004115E040F2FF31C4F2010188420C
:1018900014DC41F60001C4F2000188421AD0002194
:1018A00014E040F60001C4F20001884212D040F674
:1018B0000041C4F2000188420CD014E044F200015F
:1018C000C4F20101884205D040F20041C4F2010196
:1018D000884208D12068806800F00700062802BF0F
:1018E0000020C0B210BD2068016841F00101016014
:1018F0000020C0B210BD000090F83D1001291CBFAF
:10190000012070474FF0020180F83D100168CA685D
:1019100042F00102CA60016841F2FF72C4F20002A3
:1019200091420FDC40F2FF72C4F20002914217DCD8
:10193000B1F1804F2DD040F20042C4F2000291423A
:1019400027D02EE040F2FF32C4F20102914214DCB3
:1019500041F60002C4F2000291421AD0002214E0C3
:1019600040F60002C4F20002914212D040F600425A
:10197000C4F2000291420CD013E044F20002C4F21F
:101980000102914205D040F20042C4F201029142AC
:1019900007D10168896801F00701062904BF00200A
:1019A00070470068016841F0010101600020704744
:1019B00010B5044694F83C200220012A68D0012288
:1019C00084F83C2084F83D00206882684FF67773E5
:1019D0009A4382600A684F2A10DC1F2A26DD202ADB
:1019E00018BF302A26D0402A54D14B68CA682068D4
:1019F000194603F0E1FA2068402140E06F2A1CDD1F
:101A0000B2F5005F26D0B2F5805F3AD0702A41D19E
:101A1000D1E9012CCB682068614603F0A1F9206868
:101A20008068216840F0770088602AE0002A18BFAB
:101A3000102A2FD12068114621E0502A17D0602AA1
:101A400028D14B68CA682068194603F01BFB206840
:101A5000602114E0D1E9012CCB682068614603F0D5
:101A60007FF92068816841F48041816009E04B681A
:101A7000CA682068194603F09FFA2068502103F0D5
:101A800079F90020012184F83D10002184F83C10F0
:101A9000C0B210BD0120F5E770B516460D460446EC
:101AA00094F83C00022101284FF0020051D001209F
:101AB00084F83C0084F83D106968012907D00029AA
:101AC00041D12068816821F47F41816008E0E968A4
:101AD00009B1012037E0AA682B69206803F040F9BA
:101AE0004FEAB60003282DD8DFE800F0020D1822D7
:101AF000286821688A6922F08003002818BF42F014
:101B000080038B611EE0286821688A6922F4004303
:101B1000002818BF42F400438B6113E02868216855
:101B2000CA6922F08003002818BF42F0800308E051
:101B300028682168CA6922F40043002818BF42F4CB
:101B40000043CB610020012184F83D10002184F87E
:101B50003C10C0B270BD0000F0B581B014460E4616
:101B6000054695F84600022801D10220FDE0069FB7
:101B700095F84600012806D113B90FB10120F4E011
:101B8000022085F84600DDF81CC00120B4F5006F86
:101B900027DBB4F5005F4CDAB4F5006F6BD0B4F519
:101BA000805F40F0E280286B44F67931C0F6000196
:101BB000C163286B44F6F131C0F600010164286B63
:101BC00044F6CD41C0F60001C1642968286B4C3150
:101BD0001A466346FEF732FF002800F0BD80012060
:101BE000C3E0B4F5807F63D0B4F5007F7CD0B4F55A
:101BF000806F40F0BA80A86A44F67931C0F60001DF
:101C0000C163A86A44F6F131C0F600010164A86A14
:101C100044F6CD41C0F60001C1642968A86A4C3180
:101C20001A466346FEF70AFF002800F0958001205F
:101C30009BE075D0B4F5804F40F09780A86B44F6D8
:101C40004551C0F60001C163A86B44F65951C0F676
:101C500000010164A86B44F6CD41C0F60001C164E7
:101C60002968A86B4C311A466346FEF7E7FE002848
:101C700072D0012079E0E86A44F67931C0F60001BB
:101C8000C163E86A44F6F131C0F600010164E86A14
:101C900044F6CD41C0F60001C1642968E86A4C31C0
:101CA0001A466346FEF7CAFE002855D001205CE0C4
:101CB000286A44F62951C0F60001C163286A44F637
:101CC0003D51C0F600010164286A44F6CD41C0F6DA
:101CD0000001C1642968286A4C311A466346FEF740
:101CE000ADFEC8B3012040E0686A44F67931C0F621
:101CF0000001C163686A44F6F131C0F60001016475
:101D0000686A44F6CD41C0F60001C1642968686A7A
:101D10004C311A466346FEF791FEE8B1012024E0FB
:101D2000686B44F60921C0F60001C163686B44F694
:101D30001521C0F600010164686B44F6CD41C0F680
:101D40000001C1642968686B4C311A466346FEF78E
:101D500075FE08B1012008E047EA0600296888649A
:101D60002868C1682143C1600020C0B201B0F0BD45
:101D7000F0B581B014460E46054695F84600022897
:101D800001D1022005E1069F95F84600012806D101
:101D900013B90FB10120FCE0022085F84600DDF800
:101DA0001CC00120B4F5006F28DBB4F5005F4FDAEA
:101DB000B4F5006F6FD0B4F5805F40F0EA80286B17
:101DC00044F62941C0F60001C163286B44F69541F1
:101DD000C0F600010164286B44F6CD41C0F6000155
:101DE000C1642968286B01F14C0219466346FEF76D
:101DF00025FE002800F0C4800120CAE0B4F5807FF1
:101E000067D0B4F5007F00F08180B4F5806F40F0BA
:101E1000C080A86A44F62941C0F60001C163A86ADF
:101E200044F69541C0F600010164A86A44F6CD412C
:101E3000C0F60001C1642968A86A01F14C02194684
:101E40006346FEF7FBFD002800F09A800120A0E029
:101E500079D0B4F5804F40F09C80A86B44F6455192
:101E6000C0F60001C163A86B44F65951C0F60001E9
:101E70000164A86B44F6CD41C0F60001C164296835
:101E8000A86B01F14C0219466346FEF7D7FD002806
:101E900076D001207DE0E86A44F62941C0F60001D1
:101EA000C163E86A44F69541C0F600010164E86A3E
:101EB00044F6CD41C0F60001C1642968E86A01F129
:101EC0004C0219466346FEF7B9FD002858D00120A0
:101ED0005FE0286A44F62951C0F60001C163286A10
:101EE00044F63D51C0F600010164286A44F6CD4134
:101EF000C0F60001C1642968286A01F14C02194644
:101F00006346FEF79BFDD8B3012042E0686A44F6C1
:101F10002941C0F60001C163686A44F69541C0F6E4
:101F200000010164686A44F6CD41C0F60001C16455
:101F30002968686A01F14C0219466346FEF77EFD86
:101F4000F0B1012025E0686B44F60921C0F60001DC
:101F5000C163686B44F61521C0F600010164686B2B
:101F600044F6CD41C0F60001C1642968686B01F1F7
:101F70004C0219466346FEF761FD08B1012008E0F6
:101F800047EA0600296888642868C1682143C1605F
:101F90000020C0B201B0F0BD80B582B0DDF810C045
:101FA0004FF0010E0EEB1C2ECDE900CEFFF7D4FD55
:101FB00002B080BD80B582B0DDF810C04FF0010ED8
:101FC0000EEB1C2ECDE900CEFFF7D2FE02B080BD95
:101FD0002DE9F0470D460446002C04BF0120BDE862
:101FE000F08794F83D0028B9002084F83C00204692
:101FF00000F04EF8022084F83D002068816844F229
:102000000702914381602068211D02F009FD2068CC
:1020100080682168D1F818902268D2F820C0D5E9EC
:10202000003E05F1080A9AE84404D5E90581EF6904
:1020300018432B6A2568A8604FF6FF7029EA000054
:10204000304342EA01214FF6FC429143084340EA03
:10205000072040EA0A1040EA0330216888612CF02A
:10206000AA0040EA0E0040EA081021680862012038
:1020700084F8460084F83E0084F83F0084F842006B
:1020800084F8430084F83D000020BDE8F08700009C
:1020900080B586B000210591CDE90311CDE901118C
:1020A00002680020C4F2020043F63001C4F20201CB
:1020B00040F6FF33C4F200039A422BDC40F20043A7
:1020C000C4F200039A424FD040F60003C4F200036A
:1020D0009A4240F08980002200920B6943F0040389
:1020E0000B610B6903F004030093009B00920B68E3
:1020F00043F002030B60096801F0020100910099AE
:10210000C02101910221CDE90212CDE9042100F59F
:10211000806045E040F60043C4F200039A4244D098
:102120000023C4F201039A425ED1002200924B695F
:1021300043F001034B614B6903F001030093009BE3
:1021400000920B6843F001030B60096801F0010184
:10215000009100994FF4407101910221CDE90212E2
:102160000492012105911BE0002200920B6943F0CB
:1021700002030B610B6903F002030093009B0092C2
:102180000B6843F001030B60096801F00101009145
:102190000099C02101910221CDE90212CDE904216B
:1021A00001A9FEF799FC06B080BD002200920B69E0
:1021B00043F008030B610B6903F008030093009BD5
:1021C00000920B6843F001030B60096801F0010104
:1021D00000910099032101910221CDE90212CDE97C
:1021E000042101A9FEF778FC06B080BD10B50446B5
:1021F00094F83E3094F83F2094F842E094F843C0BD
:10220000012004290BD0A9B9012B08BFBEF1010F91
:1022100037D1022084F83E0084F8420026E0012AEB
:1022200008BFBCF1010F2CD1022084F83F0084F8D4
:10223000430018E0012B08BF012A22D1BEF1010F93
:1022400008BFBCF1010F1CD1022084F83E0084F8C5
:102250003F0084F8420084F8430039B1206800212F
:10226000012202F079FC2068042101E020680021AD
:10227000012202F071FC2068016841F00101016057
:10228000002010BD2DE9F04381B09946044694F832
:102290003E6094F83F7094F8425094F84330DDF873
:1022A00020800220042919D000294CD1022E18BF09
:1022B000022D00F0DE800120012E08BF012D40F02C
:1022C000D8800120002A18BFB8F1000F00F0D1809B
:1022D000022084F83E0084F8420077E0022F18BF05
:1022E000022B00F0C6800120012F08BF012B40F017
:1022F000C0800120B9F1000F18BFB8F1000F00F045
:10230000B880022084F83F0084F84300A06A44F6B5
:102310007931C0F60001C163A06A44F6F131C0F61C
:1023200000010164A06A44F6CD41C0F60001C16419
:102330002168A06A38314A464346FEF77FFB0028F1
:1023400067D0012095E0022E18BF022F00F0918087
:10235000022D18BF022B00F08C800120012E08BF37
:10236000012F40F08680012D08BF012B40F08180B5
:102370000120002A7DD0B9F1000F18BFB8F1000F7D
:1023800077D0022084F83E0084F83F0084F84200B1
:1023900084F84300D1B1606A44F67935C0F600058F
:1023A000C563606A44F6F136C0F600060664606AEA
:1023B00044F6CD47C0F60007C7642168606A34312F
:1023C0004346FEF73BFB50B3012052E0606A44F6FF
:1023D0007931C0F60001C163606A44F6F131C0F69C
:1023E00000010164606A44F6CD41C0F60001C16499
:1023F0002168606A34314346FEF720FB08B10120B2
:1024000037E02068C16841F40071C1602068002194
:1024100026E02068C16841F48061C1601EE0A06AC6
:10242000C563A06A0664A06AC7642168A06A3831DF
:102430004A464346FEF702FB08B1012019E0206836
:10244000C16841F40071C1602068C16841F48061D5
:10245000C16020680021012202F07EFB2068042177
:10246000012202F079FB2068016841F0010101605E
:102470000020C0B201B0BDE8F0830000B0B5044652
:1024800094F83E2094F83F5094F8423094F843C0BA
:10249000012004290AD0D1B9012A08BF012B4AD151
:1024A000022084F83E0084F8420034E0012D08BF89
:1024B000BCF1010F3FD1022084F83F0084F84300B3
:1024C000206804250421012202F046FB29E0012AAC
:1024D00008BF012D2FD1012B08BFBCF1010F2AD15C
:1024E000022084F83E0084F83F0084F8420084F81B
:1024F000430081B120680021012202F02DFB2068F9
:1025000004250421012202F027FB2068C16841F064
:102510000201C16005E020680021012202F01CFBDD
:1025200002252068C1682943C1602068016841F024
:10253000010101600020B0BDB0B50D460446042D78
:1025400008D015B92068002106E02068002100228B
:1025500002F002FB20680421002202F0FDFA20684C
:10256000016A41F21112114208D1016A40F244425B
:10257000114202BF016821F00101016045F0040031
:10258000042811D10120082D16D0042D1AD0002DB9
:1025900019BF84F8410084F8450084F83E0084F8AF
:1025A00042004FF00000B0BD012084F83E0084F8E6
:1025B0003F0084F8420007E084F8400084F84400BB
:1025C0000020B0BD84F83F0084F843000020B0BD77
:1025D000B0B50D46044665B12068042D15D104211F
:1025E000002202F0B9FA2068C16821F48061C1605C
:1025F00021E020680021002202F0AEFA2068C168C4
:1026000021F40071C160606A16E00021002202F02E
:10261000A3FA20680421002202F09EFA2068C16813
:1026200021F40071C1602068C16821F48061C1603B
:10263000606AFEF7CDF9A06AFEF7CAF92068016A60
:1026400041F21112114208D1016A40F24442114292
:1026500002BF016821F00101016045F00400042877
:1026600012D10120DDB1042D1FD0082D01BF84F847
:10267000400084F844000020B0BD84F8410084F894
:1026800045004FF00000B0BD012084F83E0084F802
:102690003F0084F8420084F843000020B0BD84F875
:1026A0003E0084F842000020B0BD84F83F00F2E70D
:1026B000B0B50D4604463DB12068042D0CD104216F
:1026C000002202F049FA15E020680021002202F001
:1026D00043FA6FF002000FE00021002202F03CFA02
:1026E00020680421002202F037FA2068C16821F036
:1026F0000201C1606FF004002168CA681040C86020
:102700002068016A41F21112114208D1016A40F2B7
:102710004442114202BF016821F00101016045F00D
:102720000400042812D10120DDB1042D1FD0082D92
:1027300001BF84F8400084F844000020B0BD84F854
:10274000410084F845004FF00000B0BD012084F83E
:102750003E0084F83F0084F8420084F843000020E3
:10276000B0BD84F83E0084F842000020B0BD84F87B
:102770003F00F2E77047000070470000704700001C
:10278000B0B50D46044694F83C00012802BF022073
:10279000C0B2B0BD4FF0010084F83C004FEAB20176
:1027A000032942D8DFE801F002111F2ED5E90012FB
:1027B000EB68206802F012FC2068816921F00C01AE
:1027C0008161A968206818302BE0D5E90012EB6818
:1027D000206802F069FC2068816921F44061816110
:1027E000206818301BE0D5E90012EB68206802F081
:1027F00079FC2068C16921F00C01C161A9682068D9
:102800001C300EE0D5E90012EB68206802F084FC71
:102810002068C16921F44061C16120681C30A96849
:1028200009020268114301600020002184F83C1075
:10283000C0B2B0BD10B50446002C04BF012010BDCD
:1028400094F83D0028B9002084F83C00204600F0B0
:102850001FF8022084F83D002068211D02F0E0F8F6
:10286000012084F8460084F83E0084F83F0084F894
:10287000400084F8410084F8420084F8430084F862
:10288000440084F8450084F83D00002010BD00009D
:102890007047000010B5044649B10320082908BF5D
:1028A0000220042908BF012022183E3202E004F170
:1028B0003E0200202044137890F842200120012B92
:1028C00008BF012A64D1022041B108290BD0042994
:1028D0000ED184F83F0084F843000DE084F83E00F8
:1028E00084F8420008E084F8400084F8440003E0E3
:1028F00084F8410084F845002068012202F02CF998
:10290000206841F2FF71C4F2000188420BDC40F202
:10291000FF71C4F20001884213DCB0F1804F29D06E
:1029200040F2004115E040F2FF31C4F2010188425B
:1029300014DC41F60001C4F2000188421AD00021E3
:1029400014E040F60001C4F20001884212D040F6C3
:102950000041C4F2000188420CD013E044F20001AF
:10296000C4F20101884205D040F20041C4F20101E5
:10297000884207D12068806800F00700062804BF5D
:10298000002010BD2068016841F0010101600020B5
:1029900010BD00002DE9F041984616460F4604464A
:1029A0004FB10320082F08BF0220042F08BF0120C9
:1029B00021183E3102E004F13E0100202044097854
:1029C00090F842000225022900F0F98002281CBF7D
:1029D0000125002E00F0F380012908BF012840F0F6
:1029E000EE80B8F1000F00F09A80022047B1082F66
:1029F0000BD0042F0ED184F83F0084F843000DE083
:102A000084F83E0084F8420008E084F8400084F82E
:102A1000440003E084F8410084F845002068012563
:102A20003946012202F098F84FEAB700032800F275
:102A30008180DFE800F002203D5A606A44F6793177
:102A4000C0F60001C163606A44F6F131C0F60001CE
:102A50000164606A44F6CD41C0F60001C16421689A
:102A6000606A343132464346FDF7E8FF002856D10C
:102A70004FF4007059E0A06A44F67931C0F60001C5
:102A8000C163A06A44F6F131C0F600010164A06A96
:102A900044F6CD41C0F60001C1642168A06A383116
:102AA00032464346FDF7CAFFC8BB4FF480603CE0A6
:102AB000E06A44F67931C0F60001C163E06A44F689
:102AC000F131C0F600010164E06A44F6CD41C0F680
:102AD0000001C1642168E06A3C3132464346FDF79B
:102AE000ADFFE0B94FF400601FE0206B44F6793190
:102AF000C0F60001C163206B44F6F131C0F600015D
:102B00000164206B44F6CD41C0F60001C164216828
:102B1000206B403132464346FDF790FF18B1012546
:102B2000E8B2BDE8F0814FF480502168CA681043D4
:102B3000C8600025206841F2FF71C4F2000188429C
:102B40000BDC40F2FF71C4F20001884213DCB0F1EB
:102B5000804F29D040F2004115E040F2FF31C4F22D
:102B60000101884214DC41F60001C4F200018842F0
:102B70001AD0002114E040F60001C4F2000188429E
:102B800012D040F60041C4F2000188420CD011E09E
:102B900044F20001C4F20101884205D040F2004134
:102BA000C4F20101884205D12068806800F0070066
:102BB000062804D02068016841F001010160E8B2F4
:102BC000BDE8F08110B5044649B10320082908BFCB
:102BD0000220042908BF012022183E3202E004F13D
:102BE0003E0200202044137890F842200120012B5F
:102BF00008BF012A73D1022041B108290BD0042952
:102C00000ED184F83F0084F843000DE084F83E00C4
:102C100084F8420008E084F8400084F8440003E0AF
:102C200084F8410084F845004FEAB100032884BFCE
:102C3000012010BD2AA252F820002268D36840EA81
:102C40000300D06020684FF0010201F085FF20688A
:102C500041F2FF71C4F2000188420BDC40F2FF71C7
:102C6000C4F20001884213DCB0F1804F29D040F259
:102C7000004115E040F2FF31C4F20101884214DC4A
:102C800041F60001C4F2000188421AD0002114E08C
:102C900040F60001C4F20001884212D040F6004123
:102CA000C4F2000188420CD013E044F20001C4F2E7
:102CB0000101884205D040F20041C4F2010188427E
:102CC00007D12068806800F00700062804BF0020B4
:102CD00010BD2068016841F001010160002010BDB5
:102CE00002000000040000000800000010000000C6
:102CF000B0B50D4604462068002201F02DFF206883
:102D0000006A41F21111084209D12068016A40F2BB
:102D10004442114202BF016821F00101016001201B
:102D200075B1082D12D0042D19BF84F8410084F824
:102D3000450084F83F0084F843004FF00000B0BD28
:102D400084F83E0084F842000020B0BD84F84000C2
:102D500084F844000020B0BDB0B50D46044620689C
:102D6000002201F0F9FE4FEAB500032884BF0120DC
:102D7000B0BDDFE800F0021709102068C16821F437
:102D80000071C160606A13E02068C16821F40061CD
:102D9000C160E06A0CE02068C16821F48051C16024
:102DA000206B05E02068C16821F48061C160A06AE1
:102DB000FDF70EFE2068016A41F21112114208D19E
:102DC000016A40F24442114202BF016821F0010150
:102DD0000160012075B1082D12D0042D19BF84F8AF
:102DE000410084F8450084F83F0084F843004FF028
:102DF0000000B0BD84F83E0084F842000020B0BD61
:102E000084F8400084F844000020B0BDB0B50D4601
:102E100004464FEAB500032884BF0120B0BD1DA1C0
:102E200051F820002168CA6800EA0200C8602068E2
:102E300029464FF0000201F08FFE2068006A41F23F
:102E40001111084209D12068016A40F2444211423E
:102E500002BF016821F001010160012075B1082D58
:102E600012D0042D19BF84F8410084F8450084F87D
:102E70003F0084F843004FF00000B0BD84F83E00EE
:102E800084F842000020B0BD84F8400084F844007B
:102E90000020B0BDFDFFFFFFFBFFFFFFF7FFFFFFBF
:102EA000EFFFFFFFB0B504462068C168026901EA80
:102EB0000205A90715D56FF00201016101202077F5
:102EC0002068806910F0030F03D02046FFF754FC00
:102ED00005E0204600F0D2F8204600F07FFE0020FA
:102EE0002077680716D520686FF004010161022081
:102EF00020772068806910F4407F03D02046FFF7D8
:102F00003BFC05E0204600F0B9F8204600F066FEE4
:102F100000202077280716D520686FF0080101618E
:102F2000042020772068C06910F0030F03D02046EA
:102F3000FFF722FC05E0204600F0A0F8204600F054
:102F40004DFE00202077E80616D520686FF01001AE
:102F50000161082020772068C06910F4407F03D009
:102F60002046FFF709FC05E0204600F087F82046E0
:102F700000F034FE00202077E80706D020686FF0CC
:102F800001010161204601F071F9280606D520688B
:102F90006FF0800101612046FEF7E6FA680606D56B
:102FA00020686FF040010161204601F0AFF9A806EA
:102FB00058BFB0BD20686FF0200101612046BDE818
:102FC000B040FEF7D3BA000080B586B0002105916D
:102FD000CDE90311CDE90111026840F20040C4F2CD
:102FE0000100824201D006B080BD009143F630025C
:102FF000C4F20202136843F004031360126802F083
:1030000004020092009A4FF4707201920222CDE9FC
:10301000022104910321059100F5823001A9FDF7F9
:103020005BFD06B080BD000010B5044694F83C007E
:10303000012802BF0220C0B210BD4FF0010084F889
:103040003C004FEAB202032A13D8DFE802F002067E
:103050000A0E206801F096FE0AE0206801F0C4FE26
:1030600006E0206801F0F6FE02E0206801F028FF8B
:103070000020002184F83C10C0B210BD7047000051
:1030800010B50446002C04BF012010BD94F83D008B
:1030900028B9002084F83C00204600F01FF80220E8
:1030A00084F83D002068211D01F0BAFC012084F85D
:1030B000460084F83E0084F83F0084F8400084F81D
:1030C000410084F8420084F8430084F8440084F806
:1030D000450084F83D00002010BD0000704700004E
:1030E00010B5044639B10320082908BF022004297D
:1030F00008BF012000E00020204490F83E00012895
:103100001CBF012010BD4FF0020041B1082909D0B9
:10311000042914BF84F8410084F83F0004E084F8D7
:103120003E0001E084F840002068012201F014FD17
:10313000206840F4806240F20041C4F201018A42FA
:1031400002BF426C42F400424264206841F2FF72C6
:10315000C4F2000290420FDC40F2FF71C4F20001A1
:1031600088421BDCB0F1804F2DD040F20041C4F208
:103170000001884227D02EE040F2FF32C4F2010263
:10318000904218DC41F60001C4F2000188421AD0D6
:103190000021C4F20101884215D01CE040F6000174
:1031A000C4F2000188420ED040F60041C4F2000192
:1031B000884208D00FE044F20002C4F201029042BB
:1031C00001D0884207D12068806800F007000628F7
:1031D00004BF002010BD2068016841F001010160BA
:1031E000002010BDB0B50D4604463DB10320082DAA
:1031F00008BF0220042D08BF012000E00020204469
:1032000090F83E00022802BF0220C0B2B0BD3DB11E
:103210000320082D08BF0220042D08BF012000E074
:103220000020204490F83E100120002A00F0F98090
:10323000012940F0F680002B00F08F80022045B17C
:10324000082D09D0042D14BF84F8410084F83F00F4
:1032500004E084F83E0001E084F840004FEAB50045
:10326000032800F27A80DFE800F002213F5D606A07
:1032700044F62941C0F60001C163606A44F69541F5
:10328000C0F600010164606A44F6CD41C0F6000159
:10329000C1642168606A01F1340C11466246FDF791
:1032A000CDFB002859D14FF400705BE0A06A44F6D2
:1032B0002941C0F60001C163A06A44F69541C0F6F9
:1032C00000010164A06A44F6CD41C0F60001C1646A
:1032D0002168A06A01F1380C11466246FDF7AEFB89
:1032E000D8BB4FF480603DE0E06A44F62941C0F667
:1032F0000001C163E06A44F69541C0F60001016433
:10330000E06A44F6CD41C0F60001C1642168E06A7C
:1033100001F13C0C11466246FDF790FBE8B94FF411
:1033200000601FE0206B44F62941C0F60001C16334
:10333000206B44F69541C0F600010164206B44F611
:10334000CD41C0F60001C1642168206B01F1400C41
:1033500011466246FDF772FB10B10120C0B2B0BD4C
:103360004FF480502168CA681043C860206829461D
:10337000012201F0F1FB206840F4806240F200413C
:10338000C4F201018A4202BF426C42F4004242642C
:10339000206841F2FF72C4F2000290420BDC40F25E
:1033A000FF71C4F20001884217DCB0F1804F29D0D0
:1033B00040F2004119E040F2FF32C4F201029042B3
:1033C00018DC41F60001C4F2000188421AD0002145
:1033D000C4F20101884215D01DE040F60001C4F29C
:1033E000000188420ED040F60041C4F2000188423C
:1033F00008D010E044F20002C4F20102904201D071
:10340000884208D12068806800F00700062802BFC3
:103410000020C0B2B0BD2068016841F00101016028
:103420000020C0B2B0BD000010B5044639B1032081
:10343000082908BF0220042908BF012000E000205D
:10344000204490F83E00012842D1022041B10829D1
:1034500009D0042914BF84F8410084F83F0004E037
:1034600084F83E0001E084F840004FEAB1000328F0
:103470002ED833A252F820002268D3681843D060B7
:103480002068012201F068FB206840F4806240F26D
:103490000041C4F201018A4202BF426C42F4004280
:1034A0004264206841F2FF72C4F20002904211DCD3
:1034B00040F2FF71C4F2000188421DDCB0F1804F80
:1034C0002FD040F20041C4F20001884229D030E000
:1034D000012010BD40F2FF32C4F20102904218DC1C
:1034E00041F60001C4F2000188421AD00021C4F262
:1034F0000101884215D01CE040F60001C4F2000131
:1035000088420ED040F60041C4F20001884208D043
:103510000FE044F20002C4F20102904201D088425E
:1035200007D12068806800F00700062804BF00204B
:1035300010BD2068016841F001010160002010BD4C
:10354000020000000400000008000000100000005D
:10355000B0B50D4604462068002201F0FDFA20684F
:1035600040F4806140F20042C4F2010291420DD168
:10357000016A41F21112114208D1016A40F244423B
:10358000114202BF416C21F4004141642068016A8C
:1035900041F21112114208D1016A40F24442114233
:1035A00002BF016821F0010101600120082D0AD04D
:1035B000042D0CD0002D14BF84F8410084F83E0087
:1035C0004FF00000B0BD84F840000020B0BD84F88A
:1035D0003F000020B0BD0000B0B50D4604464FEAE4
:1035E000B500032884BF0120B0BDDFE800F0020968
:1035F00010172068C16821F40071C160606A13E08F
:103600002068C16821F48061C160A06A0CE0206874
:10361000C16821F40061C160E06A05E02068C1680A
:1036200021F48051C160206BFDF7D2F92068294652
:10363000002201F091FA206840F4806140F20042DB
:10364000C4F2010291420DD1016A41F211121142FC
:1036500008D1016A40F24442114202BF416C21F498
:10366000004141642068016A41F21112114208D1FF
:10367000016A40F24442114202BF016821F0010197
:1036800001600120082D0AD0042D0CD0002D14BF9C
:1036900084F8410084F83E004FF00000B0BD84F88B
:1036A00040000020B0BD84F83F000020B0BD000005
:1036B000B0B50D4604464FEAB500032884BF01208B
:1036C000B0BD25A151F820002168CA6800EA0200B7
:1036D000C860206829464FF0000201F03DFA2068DA
:1036E00040F4806140F20042C4F2010291420DD1E7
:1036F000016A41F21112114208D1016A40F24442BA
:10370000114202BF416C21F4004141642068016A0A
:1037100041F21112114208D1016A40F244421142B1
:1037200002BF016821F0010101600120082D0AD0CB
:10373000042D0CD0002D14BF84F8410084F83E0005
:103740004FF00000B0BD84F840000020B0BD84F808
:103750003F000020B0BD00BFFDFFFFFFFBFFFFFFEC
:10376000F7FFFFFFEFFFFFFF70B588B01E460D4665
:103770000446B24201D1012065E094F83C100220D9
:10378000012960D0012184F83C1084F83D002868AC
:10379000019068680290A8680390E868049028691E
:1037A000069068690790042A1FD0002A4FF0010094
:1037B00043D1206801A901F0E5FA042E1BD0DEBB3D
:1037C00005F118030ECB206801F008FC2068816920
:1037D00021F00C0181612068816821F07001816015
:1037E0002068816841F0500119E0206801A901F0CA
:1037F000FBFA042EE3D105F118030ECB206801F08B
:1038000053FC2068816921F44061816120688168EE
:1038100021F0700181602068816841F06001816061
:103820002068816821F0070181602068816841F08B
:1038300006018160002000E00120012184F83D1094
:10384000002184F83C10C0B208B070BDB0B50D4680
:103850000446002C04BF0120B0BD94F83D0028B9F7
:10386000002084F83C00204600F020F8022084F874
:103870003D002068211D01F0D3F82068016821F087
:10388000080101602068016829430160012084F873
:10389000460084F83E0084F83F0084F8420084F833
:1038A000430084F83D000020B0BD000070470000D8
:1038B000B0B5054695F83E3095F83F2095F8421092
:1038C00095F843000124012B08BF012A25D10129C5
:1038D00008BF012821D1022085F83E0085F83F006D
:1038E00085F8420085F84300286800240021012261
:1038F00001F032F928680421012201F02DF928682D
:1039000040F4806140F20042C4F20102914201BFE2
:10391000416C41F40041416400242046B0BD0000E8
:10392000B0B5054695F83E3095F83F2095F8421021
:1039300095F843000124012B08BF012A2FD101294A
:1039400008BF01282BD1022085F83E0085F83F00F2
:1039500085F8420085F843002868C16841F00201FB
:10396000C1602868C16841F00401C1602868002472
:103970000021012201F0F0F828680421012201F061
:10398000EBF8286840F4806140F20042C4F2010282
:10399000914201BF416C41F4004141640024204642
:1039A000B0BD000010B5044620680021002201F0DF
:1039B000D3F820680421002201F0CEF8206840F4FA
:1039C000806140F20042C4F2010291420DD1016ACD
:1039D00041F21112114208D1016A40F244421142EF
:1039E00002BF416C21F4004141642068016A41F248
:1039F0001112114208D1016A40F24442114202BF41
:103A0000016821F001010160012084F83E0084F882
:103A10003F0084F8420084F84300002010BD0000FD
:103A200010B504462068C16821F00201C160206819
:103A3000C16821F00401C16020680021002201F06A
:103A40008BF820680421002201F086F8206840F4F9
:103A5000806140F20042C4F2010291420DD1016A3C
:103A600041F21112114208D1016A40F2444211425E
:103A700002BF416C21F4004141642068016A41F2B7
:103A80001112114208D1016A40F24442114202BFB0
:103A9000016821F001010160012084F83E0084F8F2
:103AA0003F0084F8420084F84300002010BD00006D
:103AB000B0B50D46044694F83C00012802BF022030
:103AC000C0B2B0BD4FF0010084F83C004FEAB20133
:103AD00003294ED8DFE801F0021425372068294673
:103AE00001F050F92068816941F008018161206886
:103AF000816921F00401816129692068183034E06E
:103B00002068294601F070F92068816941F400615C
:103B100081612068816921F48061816120681830A9
:103B200021E02068294601F095F92068C16941F03B
:103B30000801C1612068C16921F00401C1612969DE
:103B400020681C3011E02068294601F0B9F920688E
:103B5000C16941F40061C1612068C16921F48061DB
:103B6000C16120681C3029690902026811430160A3
:103B70000020002184F83C10C0B2B0BD10B504464E
:103B8000002C04BF012010BD94F83D0028B900208E
:103B900084F83C00204600F01FF8022084F83D0025
:103BA0002068211D00F03CFF012084F8460084F8C5
:103BB0003E0084F83F0084F8400084F8410084F817
:103BC000420084F8430084F8440084F8450084F8F7
:103BD0003D00002010BD000070470000704700004D
:103BE0007047000010B5044639B10320082908BF0A
:103BF0000220042908BF012000E00020204490F8A2
:103C00003E0001281CBF012010BD4FF0020041B151
:103C1000082909D0042914BF84F8410084F83F0022
:103C200004E084F83E0001E084F8400020680122AE
:103C300000F092FF206840F4806240F20041C4F23C
:103C400001018A4202BF426C42F400424264206891
:103C500041F2FF72C4F2000290420FDC40F2FF71A9
:103C6000C4F2000188421BDCB0F1804F2DD040F23D
:103C70000041C4F20001884227D02EE040F2FF321A
:103C8000C4F20102904218DC41F60001C4F20001C6
:103C900088421AD00021C4F20101884215D01CE0EC
:103CA00040F60001C4F2000188420ED040F6004107
:103CB000C4F20001884208D00FE044F20002C4F2CE
:103CC0000102904201D0884207D12068806800F04C
:103CD0000700062804BF002010BD2068016841F0DD
:103CE00001010160002010BDB0B50D4604463DB194
:103CF0000320082D08BF0220042D08BF012000E08A
:103D00000020204490F83E00022802BF0220C0B2EA
:103D1000B0BD3DB10320082D08BF0220042D08BF0F
:103D2000012000E00020204490F83E100120002AED
:103D300000F0F980012940F0F680002B00F08F8020
:103D4000022045B1082D09D0042D14BF84F841008C
:103D500084F83F0004E084F83E0001E084F840006D
:103D60004FEAB500032800F27A80DFE800F0022174
:103D70003F5D606A44F62941C0F60001C163606A94
:103D800044F69541C0F600010164606A44F6CD41F5
:103D9000C0F60001C1642168606A01F1340C11466B
:103DA0006246FCF74BFE002859D14FF400705BE0EF
:103DB000A06A44F62941C0F60001C163A06A44F636
:103DC0009541C0F600010164A06A44F6CD41C0F6F9
:103DD0000001C1642168A06A01F1380C11466246F5
:103DE000FCF72CFED8BB4FF480603DE0E06A44F65F
:103DF0002941C0F60001C163E06A44F69541C0F66E
:103E000000010164E06A44F6CD41C0F60001C164DE
:103E10002168E06A01F13C0C11466246FCF70EFE97
:103E2000E8B94FF400601FE0206B44F62941C0F66A
:103E30000001C163206B44F69541C0F600010164A6
:103E4000206B44F6CD41C0F60001C1642168206BAF
:103E500001F1400C11466246FCF7F0FD10B1012063
:103E6000C0B2B0BD4FF480502168CA681043C8602A
:103E700020682946012200F06FFE206840F480622D
:103E800040F20041C4F201018A4202BF426C42F496
:103E900000424264206841F2FF72C4F20002904284
:103EA0000BDC40F2FF71C4F20001884217DCB0F174
:103EB000804F29D040F2004119E040F2FF32C4F2B5
:103EC0000102904218DC41F60001C4F20001884270
:103ED0001AD00021C4F20101884215D01DE040F63D
:103EE0000001C4F2000188420ED040F60041C4F245
:103EF0000001884208D010E044F20002C4F201023E
:103F0000904201D0884208D12068806800F0070004
:103F1000062802BF0020C0B2B0BD2068016841F091
:103F2000010101600020C0B2B0BD000010B5044620
:103F300039B10320082908BF0220042908BF012045
:103F400000E00020204490F83E00012842D10220E9
:103F500041B1082909D0042914BF84F8410084F82C
:103F60003F0004E084F83E0001E084F840004FEA9E
:103F7000B10003282ED833A252F820002268D3685B
:103F80001843D0602068012200F0E6FD206840F46C
:103F9000806240F20041C4F201018A4202BF426CD9
:103FA00042F400424264206841F2FF72C4F200020F
:103FB000904211DC40F2FF71C4F2000188421DDC26
:103FC000B0F1804F2FD040F20041C4F2000188428E
:103FD00029D030E0012010BD40F2FF32C4F20102CE
:103FE000904218DC41F60001C4F2000188421AD068
:103FF0000021C4F20101884215D01CE040F6000106
:10400000C4F2000188420ED040F60041C4F2000123
:10401000884208D00FE044F20002C4F2010290424C
:1040200001D0884207D12068806800F00700062888
:1040300004BF002010BD2068016841F0010101604B
:10404000002010BD02000000040000000800000075
:1040500010000000B0B50D4604462068002200F0B4
:104060007BFD206840F4806140F20042C4F201020E
:1040700091420DD1016A41F21112114208D1016A37
:1040800040F24442114202BF416C21F400414164BC
:104090002068016A41F21112114208D1016A40F20E
:1040A0004442114202BF016821F001010160012078
:1040B000082D0AD0042D0CD0002D14BF84F8410027
:1040C00084F83E004FF00000B0BD84F840000020AE
:1040D000B0BD84F83F000020B0BD0000B0B50D4673
:1040E00004464FEAB500032884BF0120B0BDDFE8D5
:1040F00000F0020910172068C16821F40071C16046
:10410000606A13E02068C16821F48061C160A06A20
:104110000CE02068C16821F40061C160E06A05E03C
:104120002068C16821F48051C160206BFCF750FC0D
:1041300020682946002200F00FFD206840F48061CD
:1041400040F20042C4F2010291420DD1016A41F2F3
:104150001112114208D1016A40F24442114202BFD9
:10416000416C21F4004141642068016A41F211125E
:10417000114208D1016A40F24442114202BF016873
:1041800021F0010101600120082D0AD0042D0CD07E
:10419000002D14BF84F8410084F83E004FF0000069
:1041A000B0BD84F840000020B0BD84F83F0000207E
:1041B000B0BD0000B0B50D4604464FEAB500032877
:1041C00084BF0120B0BD25A151F820002168CA6834
:1041D00000EA0200C860206829464FF0000200F0A3
:1041E000BBFC206840F4806140F20042C4F201024E
:1041F00091420DD1016A41F21112114208D1016AB6
:1042000040F24442114202BF416C21F4004141643A
:104210002068016A41F21112114208D1016A40F28C
:104220004442114202BF016821F0010101600120F6
:10423000082D0AD0042D0CD0002D14BF84F84100A5
:1042400084F83E004FF00000B0BD84F8400000202C
:10425000B0BD84F83F000020B0BD00BFFDFFFFFFF0
:10426000FBFFFFFFF7FFFFFFEFFFFFFF70470000BF
:1042700070470000B0B5044694F83C200220012AA3
:104280001BD0012584F83C5084F83D00204600F006
:104290003FFE00284FF001000AD12068C16821F0DC
:1042A0004001C1602068C16821F48041C1600020E4
:1042B00084F83D50002184F83C10C0B2B0BD00002D
:1042C000B0B5044694F83C200220012A1BD00125F9
:1042D00084F83C5084F83D00204600F019FE002888
:1042E0004FF001000AD12068C16841F04001C1606F
:1042F0002068C16821F48041C160002084F83D50ED
:10430000002184F83C10C0B2B0BD0000704700002E
:104310007047000010B50446002C04BF012010BDFA
:1043200094F8410028B9002084F84000204600F0AD
:1043300023F8242084F841002068C16821F400514A
:10434000C160204600F008FF2068016921F4904117
:1043500001612068416921F02A0141612068C1683A
:1043600041F40051C16000206064202184F84110B4
:1043700084F84210606310BD80B586B000210591BD
:10438000CDE90311CDE90111026844F60040C4F201
:104390000000824201D006B080BD009143F6300299
:1043A000C4F20202136943F400231361136903F496
:1043B00000230093009B0091136843F004031360F3
:1043C000126802F004020092009A4FF440620192D7
:1043D0000222CDE90221032104910821059100F573
:1043E000DE3001A9FCF778FB06B080BDFEE70000D7
:1043F0002DE9F04387B000270697019743F6300078
:10440000C4F20200016841F080010160016801F01E
:104410008001019101990197016841F00401016057
:10442000016801F00401019101990197016841F0CF
:1044300001010160016801F00101019101990197F9
:10444000016841F002010160006800F00200019083
:10445000019840F60004C4F2020420463B210022E9
:10446000FCF718FC4FF00108204604210122FCF75C
:1044700011FCA4F500654FF03009284630210022D8
:10448000FCF708FC3F20CDE90208CDE9047702AE35
:1044900020463146FCF720FBCDE90298CDE90477B0
:1044A00028463146FCF718FB07B0BDE8F083000052
:1044B00010B58CB00024CDE9004440F25450C2F253
:1044C00000000021C4F201014FF6FF728023C0E911
:1044D0000014C0E90242C0E9044483610321CDE92C
:1044E00003140121CDE90514CDE90744CDE90914F0
:1044F0000B9403A9FDF76CFD60B9CDE9004440F2CF
:104500005450C2F200006946FDF7B2F8002804BF1B
:104510000CB010BDFCF758FA80B586B00021CDE98B
:104520000411CDE90211CDE9001140F29C50C2F214
:1045300000004FF08042A72341F2873CC0E90023EE
:10454000C0E9021C016180218161FDF7F1F8C0B969
:104550004FF48050029040F29C50C2F2000002A939
:10456000FDF726FA68B90020CDE9000040F29C5022
:10457000C2F200006946FDF77BF8002804BF06B0D0
:1045800080BDFCF721FA000010B58CB00024CDE905
:10459000004440F2E450C2F2000040F20041C4F294
:1045A00000014FF6FF72C0E90014C0E90242046145
:1045B00084610321CDE903140121CDE90514CDE97E
:1045C0000744CDE909140B9403A9FDF701FD60B977
:1045D000CDE9004440F2E450C2F200006946FDF724
:1045E00047F8002804BF0CB010BDFCF7EDF900003F
:1045F00010B58CB00024CDE9004440F22C60C2F22A
:10460000000040F60001C4F200014FF6FF72C0E95D
:104610000014C0E90242046184610321CDE903145E
:104620000121CDE90514CDE90744CDE909140B9426
:1046300003A9FDF7CDFC60B9CDE9004440F22C6040
:10464000C2F200006946FDF713F8002804BF0CB061
:1046500010BDFCF7B9F9000010B58CB00024CDE90D
:10466000004440F27460C2F2000040F60041C4F21F
:1046700000014FF6FF72C0E90014C0E90242046174
:1046800084610321CDE903140121CDE90514CDE9AD
:104690000744CDE909140B9403A9FDF799FC60B90F
:1046A000CDE9004440F27460C2F200006946FCF7B4
:1046B000DFFF002804BF0CB010BDFCF785F9000037
:1046C00010B596B000211591CDE91311CDE9111166
:1046D000CDE90F11CDE90D11CDE90B11CDE909118E
:1046E000CDE90711CDE90511CDE90311CDE901119E
:1046F00040F2BC60C2F2000040F20042C4F201028B
:10470000632340F2E734C0E90023C0E90214C0E9A2
:1047100004118161FDF70CF8002865D14FF4805039
:10472000129040F2BC60C2F2000012A9FDF740F9FD
:10473000002859D140F2BC60C2F20000FFF71EFA17
:10474000002851D10024CDE9104440F2BC60C2F2EF
:10475000000010A9FCF78CFF002845D160200F94C1
:10476000CDE90D44CDE90B44CDE9090440F2BC602C
:10477000C2F2000009A90022FFF79AF9A0BB40F29B
:10478000BC60C2F2000009A90422FFF791F958BBEE
:1047900040F2BC60C2F2000009A90822FFF788F9C4
:1047A00010BB40F2BC60C2F2000009A90C22FFF766
:1047B0007FF9C8B900200590CDE90300CDE90100DB
:1047C0004FF400510691089040F2BC60C2F2000024
:1047D00001A9FCF7CFFE38B940F2BC60C2F200007C
:1047E000FEF7F2FB16B010BDFCF7EEF880B540F214
:1047F0000470C2F2000044F60041C4F200014FF41C
:10480000E13200234FF00C0C80E80E00C0E90333C6
:10481000C0E905C3C361FFF77DFD002808BF80BD67
:10482000FCF7D2F8FEE70000FEE7000000F007000A
:1048300000F1040CC31EBCF1070F38BF002380F049
:104840000700042828BF04204FF0010C0CFA00F0E8
:104850000138084098400CFA03F10139114008432F
:104860007047000010B540F28C24C2F200042046CC
:1048700001F0A4FD40F24850C2F2000090EC030A9F
:104880002046BDE8104001F0D9BD0000704700008F
:1048900070470000B0B501380024B4EB106F1EBFA4
:1048A00001242046B0BD4EF21005CEF2000568602E
:1048B0004FF0FF304FF00F0103F068F8AC604FF09D
:1048C000070028602046B0BDFCF734BAB0B592B0FE
:1048D00000240B94CDE90944CDE907440594CDE9C2
:1048E0000344CDE90144009443F64000C4F20200C1
:1048F000016841F080510160006800F08050009034
:104900000098009447F20000C4F20000016841F4EE
:1049100080410160006800F480400090009802250A
:1049200006950120099010200A90CDE90C5408202A
:104930000E90A820CDE90F050420119006A8FCF7E1
:104940001BFC88B90F20CDE9010503944FF4A0505A
:1049500004904FF48050059001A80521FCF7F4FA6B
:10496000002804BF12B0B0BDFCF72EF843F60400D7
:10497000C4F20200416801F00C0342F20042C0F2AE
:10498000F40247F64001C0F27D11082B04D0042B3D
:104990001CBF1146002B15E0036813F4800F08BFFD
:1049A0001146026802F03F02B1FBF2F10268C2F365
:1049B000881251430268C2F30142022303EB420210
:1049C000B1FBF2F140F20002C2F200021160406855
:1049D000C0F3031048F68431C0F60001085C11688A
:1049E00021FA00F0106070474EF68850CEF20000B9
:1049F000016841F4700101607047000040F29C5072
:104A0000C2F20000FEF74EBA806B012180F83D1023
:104A1000FCF7ACBD806B012180F83D10FCF7A8BD10
:104A2000026840F6FF3CC4F2000C60450FDCB0F1B8
:104A3000804F1EBF40F20043C4F20003984217D0DB
:104A400040F60003C4F20003984211D014E040F68F
:104A50000043C4F2000398421EBF40F20043C4F278
:104A60000103984204D00023C4F20103984203D109
:104A70004B6822F070021A4341F6FF73C4F2000340
:104A800098420DDC60451FDCB0F1804F1EBF40F244
:104A90000043C4F2000398423BD040F6000321E0FB
:104AA00043F6FF73C4F20103984220DC42F2000394
:104AB000C4F2000398421EBF0023C4F201039842CF
:104AC00027D040F2004320E040F60043C4F2000348
:104AD00098421EBF41F60003C4F20003984218D06A
:104AE00041F60043C4F20003984212D015E044F2AC
:104AF0000003C4F2010398421EBF44F60003C4F24F
:104B00000103984205D044F20043C4F201039842E5
:104B100003D1CB6822F440721A434B6922F0800221
:104B20001A4302608A68C2620A68826240F4806244
:104B300040F20043C4F201039A4204BF09690163D1
:104B40004FF001014161016911F0010F1EBF0169C0
:104B500021F001010161704701F01F01012303FAF7
:104B600001FC036A23EA0C03036202FA01F1026A00
:104B7000114301627047000010B5846B616A814285
:104B800013D0A16A81421AD0E16A814221D0216BFF
:104B9000814227D108212177C069002802BF012066
:104BA00084F8410084F845001CE001212177C069A8
:104BB000002804BF84F83E1084F8421012E002215D
:104BC0002177C06970B9012084F83F0084F8430060
:104BD00008E004212177C06920B9012084F8400051
:104BE00084F844002046FDF7C7FD0020207710BD63
:104BF00010B5846B616A81420AD0A16A814209D0F2
:104C0000E16A814208D0216B814207D1082004E08B
:104C1000012002E0022000E0042020772046FDF77A
:104C2000ADFD0020207710BD10B5846B616A814214
:104C300011D0A16A814216D0E16A81421CD0216B59
:104C4000814221D108212177C069002804BF0120B9
:104C500084F8410018E001212177C069002808BFCD
:104C600084F83E1010E002212177C069002804BFBB
:104C7000012084F83F0007E004212177C069002863
:104C800004BF012084F840002046FEF7A7FF002063
:104C9000207710BD10B5846B616A81420AD0A16A89
:104CA000814209D0E16A814208D0216B814207D15B
:104CB000082004E0012002E0022000E00420207728
:104CC0002046FEF78DFF0020207710BD10B5846BC5
:104CD000616A81420BD0A16A81420DD0E16A8142B2
:104CE00010D0216B814213D004F13D0014E001206B
:104CF000207784F83E0011E002202077012084F81C
:104D00003F000BE004202077012084F8400005E0FC
:104D10000820207704F14100012101702046FDF7B1
:104D200029FD0020207710BD806B016AC969002928
:104D300004BF012180F83D10FFF798BA806BFFF7A0
:104D400097BA0000806B816BC969002904BF0121FB
:104D500080F83D10FFF7DABA806BFFF7D9BA000090
:104D6000114341EA0321826822F47F4211438160AA
:104D700070470000826822F07702114341F007017A
:104D800081607047B0B5026A036A23F001030362D1
:104D9000D0F804E084690B688D6822F002021543A4
:104DA00024F0730242EA030C40F4806240F20044B3
:104DB000C4F20104A24201BF25F00C03CD6825F026
:104DC00004051D43A24201BFD1E905232EF440741E
:104DD000224342EA030EC0F804E0C0F818C0496854
:104DE00041630562B0BD000070B5026A036A23F03A
:104DF00010030362466884690B688D6822F0200204
:104E000042EA051E24F4E64242EA032C40F48062A2
:104E100040F20044C4F20104A24201BFCB686FF02B
:104E20004F0505EA03132EF0C00508BF43EA050E3F
:104E3000A24201BFD1E9052326F4406444EA82027C
:104E400042EA83064660C0F818C049688163C0F82A
:104E500020E070BD70B5026A036A23F480730362B8
:104E60004668C4690B688D6822F4007242EA052E18
:104E700024F0730242EA030C40F4806240F20044E2
:104E8000C4F20104A24208D1CB681B0240F2FF45E4
:104E9000AB432EF4406543EA050EA24201BFD1E9BF
:104EA000052326F4405444EA021242EA03164660FF
:104EB000C0F81CC04968C163C0F820E070BD0000A4
:104EC000B0B5D0F820C0036A23F48053036243686E
:104ED000C569D1F800E08C682CF4005242EA043C29
:104EE00025F4E64242EA0E2240F4806540F2004496
:104EF000C4F20104A54202BF4D6923F4804343EA92
:104F000085134360C26149680164C0F820C0B0BD28
:104F100080B50268936823F0770ED1E900C323F0CF
:104F2000070343EA0E0343EA0C0393604A684FEA1F
:104F30003213072B09D84FF0000CDFE803F004040C
:104F400004040A242B32604680BD4FF0010C6046F9
:104F500080BD0A68052A02BF4FF0010C604680BD83
:104F60000268D2F820C0136A23F0010313620268BA
:104F70009369096923F0F00343EA01119161006824
:104F8000C0F820C014E08B680A690068194600F078
:104F900013F80DE08B680A690068194600F072F892
:104FA00006E0D1E9022C0B6900686146FFF7D8FEE4
:104FB0004FF0000C604680BDD0F820C0036A23F09B
:104FC00001030362836923F0F00343EA0212826162
:104FD0002CF00A02114301627047000010B5D0F8AE
:104FE00020C0D0F820E02EF0010EC0F820E0D0F86C
:104FF00018E041F2FF74C4F20004A0420BDC40F25E
:10500000FF74C4F20004A04213DCB0F1804F29D039
:1050100040F2004415E040F2FF34C4F20104A04223
:1050200014DC41F60004C4F20004A0421AD00024AB
:1050300014E040F60004C4F20004A04212D040F68E
:105040000044C4F20004A0420CD018E044F2000472
:10505000C4F20104A04205D040F20044C4F20104AD
:10506000A0420CD12EF00304224363F307128261A5
:1050700001F00A012CF00A021143016210BD4EF04A
:105080000102F2E7D0F820C0036A23F010030362A4
:10509000836923F4704343EA023282612CF0A00258
:1050A00042EA01110162704780B5D0F820C0D0F803
:1050B00020E02EF0100EC0F820E04FEA022E4FF252
:1050C000FF022EEA020263F30F32836923F4734373
:1050D0001A438261A02202EA01112CF0A0021143BE
:1050E000016280BD80B5D0F820C0D0F820E02EF459
:1050F000807EC0F820E063F30712C36923F0F30356
:105100001A43C2614FF4206202EA01212CF42062AA
:105110001143016280BD000080B5D0F820C0D0F8F6
:1051200020E02EF4805EC0F820E04FEA022E4FF21D
:10513000FF022EEA020263F30F32C36923F47343C2
:105140001A43C2614FF4204202EA01312CF420429A
:105150001143016280BD000010B50446206801695A
:10516000E26821F44051114301612068A168D4E94B
:10517000042311431943E2691143C26849F20C63E5
:105180009A431143C16020684169A26921F44071CA
:1051900011434161206840F4806041F20041C4F253
:1051A0000101884202D1FBF79DFF01E0FBF788FF78
:1051B0001921A0FB01016368E269B2F5004F1CD11F
:1051C0005A00DB0FFBF758F848F21F51C5F2EB11FC
:1051D000A0FB01235A096FF0630302FB0300322393
:1051E00003EBC000A0FB01014FF4F87000EA1110BE
:1051F00000EB0210C1F342111AE09A009B0FFBF77B
:105200003BF848F21F51C5F2EB11A0FB01235A09EC
:105210006FF0630302FB0300322303EB0010A0FBDB
:105220000101F02000EA511000EB0210C1F343111C
:1052300008432168886010BDFEE7000002F02CBE24
:10524000704701468A680AB101201047704780B54F
:105250008AB0694602F0C9FF0299002818BF0021F0
:1052600008460AB080BD80B58AB0694602F0BDFF2D
:105270000099002818BF002108460AB080BD70B50B
:10528000ADF5407D62AD04462846FBF7D1F800201D
:105290006E462946E060304602F0CDFFB6A93046A2
:1052A00002F0A3FFA8B96D46B6AEB99B5BB1B69844
:1052B00021462A46A064BE98E064BB982065002081
:1052C000984708280AD12846314602F08EFF002868
:1052D000EBD00320C0B20DF5407D70BD062803D091
:1052E0000928F6D10920F5E762A86946224600237D
:1052F00000F0F8F90220EDE7B0B5ADF5367D62AD0E
:1053000004462846FBF794F86946284622460123BE
:1053100000F0E8F9FBF742F870B5049C1546064624
:1053200001290AD011BB02200F2D1DD8E3B9304648
:105330002946224602F068FF13E0052B07D0012B17
:1053400007D10F2D05D8304602F0A1FF03E01F2D35
:1053500001D9022008E005F580713046224602F0AE
:105360002CFF002818BF0220C0B270BDFBF716F852
:105370002DE9F04F81B01C4691460D468346A1456C
:1053800080F0FE800026E8462FE00AF007000121A9
:105390000123E9E0A74280F0FF8087F00301013795
:1053A000695C01F07F0211F0800F02FA00F200F157
:1053B000070046EA0206EDD158460D21424602F0AA
:1053C00023FF00980D2100EB860000F5017258467E
:1053D000009202F07BFFB9465646CCE058460121C8
:1053E00000F0DFF809F10209C5E089F0030009F1D6
:1053F000010715F800A01AF0800F1AD158460D21A8
:10540000424602F001FF4FEA8A006FF003011AF0F2
:10541000400FC0B2A1EB00004FF0040108BF01EB48
:105420008A0000994218009258460D2102F04EFF62
:10543000A0E00AF0F00080380009052800F2AC80F6
:10544000DFE800F003253444718BA74280F0A4808C
:10545000294687F003005B46C346B0464FEA0A364A
:10546000085CB1B241EA0012002A00F095801F46A4
:1054700000210023384600F094F806F40040464628
:10548000D84609F10209BB4646EAD03673E04AF035
:10549000020000F00F000F2800F07E800AF00F01DC
:1054A0005846424602F0B0FE009ABDE70AF00701F6
:1054B00020224FF48040002302FA01F100EACA20C2
:1054C000103941EA00025846002151E0AAF1B0012A
:1054D00007293FF65AAF0920DFE801F05016120401
:1054E0005F5F5F5F87F003004FF470210123285C4A
:1054F00001EA003100F00F00013041EA00026DE7DF
:10550000B2460026002045E7A74245D287F00300B7
:105510002A5C0920002A40D012F0F0013DD1584603
:10552000002100235CE70AF0FE00C82834D187F090
:105530000300BAF1C80F4FF01002295C4FEA1110B6
:1055400008BF42EA111001F00F0142181F2A23D8A8
:105550000131052341EA004240E75FEA0A701BD4AB
:105560000AF0070001210523013040F400225846CB
:1055700000F017F8B946A145FFF437AFF00709D19D
:105580006A4658460E2102F03FFE009A58460F2107
:1055900002F09CFE082000E00920C0B201B0BDE886
:1055A000F08F2DE9F04385B01E46154604460129CB
:1055B0002DD0002967D1A6BB02AA20460D2102F0FA
:1055C00023FE70BB00274FF001080DF110090026E3
:1055D00008FA06F0284213D0029832460023011D33
:1055E000029100210068CDF800900490204600F060
:1055F0004CF8B0B9A6F10D00B0FA80F040090743AD
:105600000136102EE4D3F80734D000200AE046F02B
:105610000400052805D104AA20460D2102F0F4FD5E
:1056200020B10220C0B205B0BDE8F083A8B2C8B175
:1056300000EB15472D0C0DF108080498334600F1D6
:105640000802016804922A464068CDE9021020460B
:105650000121CDF8008000F018F80028E1D10135D3
:10566000BD42EAD3012E03D10498021D049202E048
:10567000049A00E0029A20460D2102F027FE00283D
:1056800018BF0220CEE7FAF789FE70B5049E1446D3
:10569000054601290AD019BB02200F2C1ED8EBB9F0
:1056A00032682846214602F011FE14E0052B07D08F
:1056B000012B07D10F2C05D8284602F0E8FD03E0A6
:1056C0001F2C01D9022009E0D6E9002304F58071DE
:1056D000284602F0DFFD002818BF0220C0B270BDCE
:1056E000FAF75CFE2DE9F0478CB00C4601469A466D
:1056F0001546204602F09FFD01260DF12C080DF104
:10570000040904E0286A0B9981422ED0013E1AF068
:1057100001004FF0010718BF022708D03EB92A69DF
:1057200020464FF0FF3102F0D1FD4FF0000A204635
:105730006FF00101424602F067FD2046494602F043
:1057400054FDF8B9049B002BE0D00198294622466D
:10575000A8640998E8640698286538469847072899
:1057600005D00828CED009280CD1FAF717FE6A46D2
:1057700020464FF0FF3102F047FD00982861204697
:1057800002F07CFD0CB0BDE8F08701F0FABF80B5F7
:10579000AFF30080BDE8804002F0D5B82DE9F043BA
:1057A00040F28409C2F2000948452CD309F5007380
:1057B000984228D240F2842C011FC2F2000CDCF87F
:1057C00000E0BEF1000F18BF9E4514D030F8028CE7
:1057D0000026774601EB88047D8807EB85028A4224
:1057E00015D0BC4218D03A8809EB82051DB13E465F
:1057F0009D422F46F0D1AEEB090080080880CCF81E
:105800000010BDE8F083BDE8F043FAF795BF05EB63
:1058100008007880BDE8F08305EB0802002E20F830
:10582000022C04D0A1EB09003146800802E0CCF83C
:10583000001020880880BDE8F08380B5AFF30080B9
:10584000BDE8804002F07FB870B50D460646FAF715
:1058500058FF04465CB97543284600F004FB044633
:1058600024B120462946FAF7A1FE00E00024204694
:1058700070BD10B50446FAF7FDFD00B110BD20461D
:10588000BDE8104000F0EFBA80B5AFF30080BDE88E
:10589000804002F058B82DE9F04F8FB00D46182126
:1058A0000B9390468246FAF79BFD032015F0010901
:1058B0008AF8180004D015F00E0F40F0778108E048
:1058C000A80740F1738105F00C000C2801D10220DB
:1058D0005AE1189C2046FFF7BAFC0746002F0D97A7
:1058E00000F051810020CAF80C7000210F22002323
:1058F0000E900EA800902046FFF70EFDDDF838B0A0
:105900002046FFF7B0FC0446781C0D900DA83978AE
:1059100000F0CEF90D9AA44600282BF00101A1F168
:10592000010102F101060D9608BF60460890127849
:105930000495FF2A4FF000020FD0002316F8017BD8
:1059400007F07F0417F0800F04FA02F402F1070257
:1059500043EA0403F2D1F2180D96CDF81C90CDE97C
:105960000982CDF814A0A1EB0C0A711C00200022C2
:105970000D91357811F8013B03F07F0713F0800F8C
:1059800007FA00F700F1070042EA0702F2D101EB43
:10599000020B0EAFCDE90D11594580F03981384623
:1059A000294600F085F980463846294600F080F9FE
:1059B00081463846294600F07BF90E9900230022E3
:1059C00011F8014B04F07F0614F0800F06FA03F67D
:1059D00003F1070342EA0602F2D1D0450E919CBFC3
:1059E00009EB08039A4502D3C245D5D210E100283D
:1059F00000F0D9800899002A00EB010300F0C7806D
:105A00000BEB0200049A07994FF0FF380393A0F1C3
:105A1000010A02F0040002F0080B0843B0FA80F01B
:105A20004009089002F0060006900B9800F1580417
:105A300001E009EB020A00200021D14619F8012BF0
:105A400002F07F0312F0800F03FA00F300F1070069
:105A500041EA0301F2D108FA00F352060D4648BFAD
:105A60001D43202828BF0D46012D2EDB0A98002853
:105A700000F0CE80A0EB8500006868B30999012989
:105A800063D10B9B44F64767C4F24C37D3E900124D
:105A90007A4042F60137C4F22B3779401143214650
:105AA00008BF53F8281C00290C9100F0B58053F86A
:105AB000241C002900F0B080026813690CAA9847E2
:105AC000012842D10798B8B390E0B5F1FF3F0ADD55
:105AD0000698022839D16CE00898002869D0BBF1FB
