:020000040800F2
:10000000300800203102000839240008FD1F0008D4
:10001000112300082D060008F52500080000000047
:100020000000000000000000000000004124000863
:1000300031060008000000003D24000845240008A7
:100040004B0200084B0200084B0200084B0200085C
:100050004B0200084B0200084B0200084B0200084C
:100060004B0200084B0200084B0200084B0200083C
:100070004B0200084B0200084B0200084B0200082C
:100080004B0200084B0200084B0200084B0200081C
:100090004B0200084B0200084B0200084B0200080C
:1000A0004B0200084B0200084B0200084B020008FC
:1000B000052500084B0200084B0200084B0200080F
:1000C0004B0200084B0200084B0200084B020008DC
:1000D0004B0200084B0200084B0200084B020008CC
:1000E0004B0200084B0200084B0200084B020008BC
:1000F0004B0200084B0200084B0200084B020008AC
:100100004B0200084B0200084B0200084B0200089B
:100110004B0200084B0200084B0200084B0200088B
:100120004B0200084B0200084B0200084B0200087B
:100130004B02000800000000000000004B02000815
:100140004B0200084B0200084B0200084B0200085B
:100150004B0200084B0200084B0200084B0200084B
:100160004B0200084B0200084B0200084B0200083B
:100170004B0200084B0200080000000000000000D5
:100180004B0200084B02000800F002F800F041F8B2
:100190000AA090E8000C82448344AAF10107DA45E2
:1001A00001D100F036F8AFF2090EBAE80F0013F0F3
:1001B000010F18BFFB1A43F0010318475C2500002C
:1001C0007C250000103A24BF78C878C1FAD85207BD
:1001D00024BF30C830C144BF04680C6070470000C1
:1001E0000023002400250026103A28BF78C1FBD840
:1001F000520728BF30C148BF0B607047642900F028
:10020000FD80002070471FB502F075FA1FBD10B5C4
:1002100010BD00F0D8F91146FFF7F5FF02F0ECF938
:1002200000F0F6F903B4FFF7F2FF03BC00F0C4F9E5
:100230000948804709480047FEE7FEE7FEE7FEE77A
:10024000FEE7FEE7FEE7FEE7FEE7FEE704480549B6
:10025000054A064B70470000F12400088901000898
:10026000300200203008002030040020300400203C
:1002700053EA020C00F069802DE9F04B4FF00006C4
:10028000002B1FBFB3FA83F503FA05F424FA05F631
:100290005E4012BF1643B2FA82F502FA05F4C5F1C8
:1002A00020051EBF22FA05FC44EA0C04203556EA5C
:1002B000044C4FEA144418BF641C4FF000084FF080
:1002C0000009904271EB030C39D3002919BFB1FA30
:1002D00081F701FA07F6B0FA80F700FA07F6C7F1DE
:1002E00020071EBF20FA07FC46EA0C062037B6FBA3
:1002F000F4FCA7EB0507103F07F01F0BCBF120061E
:100300002CFA06F60CFA0BFB44BFB3460026202F4E
:10031000A4BF5E464FF0000B5BEA060C08BF4FF02F
:10032000010B19EB0B0948EB0608ABFB027C06FB43
:1003300002CC0BFB03CCC01B71EB0C01C1E70B46DD
:10034000024641464846BDE8F08B13B54FF0000029
:100350004FF00001AFF30080BDE81C407047000083
:100360000FB41CB50C0007AA009001D02044401E19
:10037000074B7B4469460190069800F0FCF8002C7E
:1003800003D06946002000F009F91CBC5DF814FB9D
:10039000310200002DE9F0410E46044600202062A3
:1003A0002046E168884730B3252805D0D4E90121EB
:1003B0009047206A401CF2E7E16820460027884702
:1003C000050018D0A5F14100192802D820354FF4B6
:1003D00000673246294620462760FFF70FFF40B1ED
:1003E000012804D0F61D26F007060836D8E7361D8A
:1003F000D6E72846DAE7206ABDE8F0812DE9F0412A
:100400000646002410687529314616A510D0AFF3B2
:100410000080002802DA404213A507E031688A070D
:1004200001D512A502E0490704D511A5012401E078
:10043000AFF3008000210A2206F1240709E0B0FB97
:10044000F2FCB0FBF2F302FB1C003030785418468B
:10045000491C0028F3D123462A463046BDE8F04126
:1004600000F02AB8000000002D0000002B00000062
:100470002000000010B5431C02E010F8011B71B110
:100480008107FAD14FF0013202C88C1A8C4314EA6A
:10049000C211F9D0C01A0A0603D0C01E10BDC01A7E
:1004A00010BD0A0401D0801E10BD0902FCD0401E00
:1004B00010BD7047704770472DE9F0470D469946CB
:1004C0009246044600F124080168880604D5E069D4
:1004D00021F01001216000E00120A84201DD471B4E
:1004E00000E00027A1697A1902EB0900081AA0614F
:1004F0002078C00602D42046AFF30080002608E032
:10050000D4E901211AF806009047206A401C761CA5
:1005100020624E45F4DB2078C0060AD52046AFF3B2
:10052000008006E0D4E9012130209047206A401C79
:100530002062381EA7F10107F4DC07E0D4E90121AD
:1005400018F805009047206A401C2062281EA5F17B
:100550000105F3DC2046AFF300802078000602D5C9
:100560000220BDE8F0870120FBE7000001694A1C7A
:1005700002610878704700B58FB0CDE901310021E4
:10058000059105497944CDE9031011466846FFF706
:1005900001FF0FB000BD0000E5FFFFFF0A6802F891
:1005A000010B0A607047D1E900239A4202D2531C22
:1005B0000B6010707047000001491820ABBEFEE7C9
:1005C000260002007047754600F02CF8AE46050084
:1005D0006946534620F00700854618B020B5FFF75E
:1005E00035FEBDE820404FF000064FF000074FF009
:1005F00000084FF0000BAC46ACE8C009ACE8C009FD
:10060000ACE8C009ACE8C00921F007018D4670478D
:1006100010B50446AFF300802046BDE81040FFF758
:1006200001BE00000048704710000020FEE70000F7
:100630007047000072B600BFFEE7000070B50546C7
:100640006E1C00F0F7F8044636B140F20800C2F222
:1006500000000078054401E04FF0FF3500F0EAF8B3
:10066000001BA842FAD370BD2DE9F04F82B041F6CD
:100670000042082743F6004B4FF0010E00250024EE
:100680004FF00008C4F20202C4F2010B904200F1E4
:100690003E4202F1FF7208BF07274FEAB223072B41
:1006A00038BF4FEAB22700970AE000BF08F10108FF
:1006B00004350234B8F1100F04BF02B0BDE8F08F6A
:1006C0000E680EFA08FC16EA0C0FEFD0D1F8049071
:1006D00009F0030AAAF10106012E17D8D0F808E0A4
:1006E000CB68032202FA04F62EEA0606A3404FF076
:1006F000010E33438360C9F30013466803FA08F31D
:1007000026EA0C063343436003E000BFBAF1030F4F
:1007100023D0C6680322BAF1020F02FA04F326EAD4
:1007200003038E6806FA04F643EA0603C36014D195
:1007300005F01C030F2202FA03F64FF6FC72C7F60F
:10074000FF7202EA58020244176AB7430E6906FABA
:1007500003F33B431362D1F804900768032309F0C5
:10076000030219F4403F03FA04F302FA04F227EA01
:10077000030342EA0302026098D0002205F00C074E
:100780000F26019243F64402BE40C4F20202134611
:100790001A6842F480421A601A6802F48042019298
:1007A00028F00302019B5A444FF60843CFF6FF732B
:1007B000994652F80930B343009E06FA07F73B43C7
:1007C00042F80930DBF808204B6822EA0C0213F4E7
:1007D000801F18BF42EA0C0213F4001FCBF8082058
:1007E00043F60C42C4F201021646326822EA0C02B9
:1007F00018BF42EA0C0213F4003F3260DBF8042019
:1008000022EA0C0218BF42EA0C0213F4803FCBF834
:100810000420DBF8002022EA0C0218BF42EA0C0296
:10082000CBF8002042E70000002A08BF09048161DC
:100830007047000040F22820C2F2000000687047B4
:1008400040F2080040F22821C2F20000C2F200018A
:1008500000780A68104408607047000080B543F6CD
:100860000040C4F20200016841F4007101600168B7
:1008700041F480610160016841F4807101600320EE
:1008800000F08CF80F2000F005F800F029F80020A7
:1008900080BD0000B0B5044640F208004FF47A7104
:1008A000C2F200000078B1FBF0F040F20401C2F2A5
:1008B00000010968B1FBF0F000F07CFB01250F2C72
:1008C0000CD858B94FF0FF3021460022002500F027
:1008D00033F840F20C00C2F2000004602846B0BDBC
:1008E00082B043F6400100200190C4F202014A6840
:1008F00042F480424A604A6802F480420192019ABE
:100900000090086840F080500860086800F080504F
:100910000090009802B070470028B8BF704700F000
:100920001F010122400902FA01F14EF20012CEF23B
:10093000000242F82010704710B500F00F034EF689
:100940000C5E00F1604CB0F1FF3FA3F10403CEF266
:10095000000E734403F10C04C8BF0CF56444DEF8C8
:100960000000C0F3022000F1040CC31E80F0070059
:10097000BCF1070F4FF0010C38BF0023042828BF3B
:1009800004200CFA00F0013808400CFA03F10F3192
:100990009840114008430001207010BD4EF60C51E4
:1009A0004FF6FF03CEF200010A681A4060F30A22F4
:1009B00042F0806040F0FD70086070472DE9F04122
:1009C00004460D46002C00F0A78043F60808C4F248
:1009D0000208D8F8F80300F00700A84208D288F807
:1009E000F853D8F8F80300F00700A84240F09480CC
:1009F000206810F0020F17D0410742BFD8F800104E
:100A000041F4E051C8F80010010742BFD8F80010C7
:100A100041F46041C8F80010D8F80010A26821F035
:100A2000F0011143C8F80010C00734D06068811E7F
:100A3000022905D258F8081C11F0007F6CD00CE098
:100A4000012805D158F8081C11F4003F64D004E0D7
:100A500058F8081C11F0020F5ED0D8F8001021F0F1
:100A600003010843C8F80000FFF7E4FE064641F220
:100A7000883700BFD8F80000616800F00C00B0EBC8
:100A8000810F08D0FFF7D6FE801BB842F2D90320B1
:100A9000C0B2BDE8F081D8F8F80300F00700A84222
:100AA00007D988F8F853D8F8F80300F00700A842EF
:100AB00032D1206810F0040F07D0D8F80010E26897
:100AC00021F4E0511143C8F80010000708D5D8F808
:100AD0000000216920F4604040EAC100C8F800002D
:100AE00000F046F8D8F8001042F20072C0F600029A
:100AF000C1F30311515CC84040F20401C2F200018D
:100B0000086040F20C00C2F200000068FFF7C2FE6D
:100B10000020C0B2BDE8F0810120C0B2BDE8F08184
:100B200040F2040043F6080142F21072C2F20000E3
:100B3000C4F20201C0F6000200680968C1F3822114
:100B4000515CC8407047000040F2040043F60801C1
:100B500042F21072C2F20000C4F20201C0F60002BA
:100B600000680968C1F34231515CC8407047000019
:100B700010B543F60404C4F20204606800F00C00EF
:100B800008280BD004281EBF42F20040C0F2F40037
:100B900010BD47F64000C0F27D1010BD22682068ED
:100BA00047F640010023C0F27D1110F4800F02F0DF
:100BB0003F0204BF42F20041C0F2F4012068C0F3DA
:100BC0008810A1FB0001FFF753FB21680222C1F34B
:100BD000014102EB4101B0FBF1F010BD2DE9F047FE
:100BE00082B00446002C3FD0207843F6000A43F63A
:100BF0007007C4F2020AC4F20207C0073FD057F8D8
:100C0000680C00F00C00042830D057F8680C00F095
:100C10000C00082804D157F86C0C10F4800F25D173
:100C20006668B6F5803F09D0DAF80000B6F5A02F67
:100C300040F0728140F48020CAF80000DAF8000029
:100C400040F48030CAF80000FFF7F4FD054600BF0D
:100C5000DAF8000010F4003F11D1FFF7EBFD401B64
:100C60006428F5D9032098E1012096E1DAF8000024
:100C700010F4003F03D06068002800F0D480207892
:100C800040F20008C4F24728800737D557F8680CAF
:100C900010F00C0F20D057F8680C00F00C0008285A
:100CA00004BF57F86C0C10F4800F15D0E0680028D2
:100CB00000F0A5800120C8F80000FFF7BBFD054645
:100CC000DAF8000010F0020F0FD1FFF7B3FD401B60
:100CD0000228F5D9032060E1DAF8000010F0020FD5
:100CE0001CBFE068012840F08880DAF80000216924
:100CF00020F0F80040EAC100CAF8000020780007A0
:100D000025D5606988B10120C8F8800EFFF792FDF3
:100D1000054600BF786810F0020F18D1FFF78AFD72
:100D2000401B0228F6D9032037E10020C8F8800EC6
:100D3000FFF780FD054600BF786810F0020F06D06F
:100D4000FFF778FD401B0228F6D9032025E1207823
:100D5000400740F18C8057F8300C4FF0000910F03C
:100D6000805F0FD1CDF804904FF0010957F8300C97
:100D700040F0805047F8300C57F8300C00F08050AD
:100D80000190019843F60006CFF6FE765AF8060069
:100D900010F4807F14D15AF8060040F480704AF8AD
:100DA0000600FFF747FD05465AF8060010F4807F5D
:100DB00006D1FFF73FFD401B0228F5D90320ECE0E8
:100DC000A668012E05D03868052E2ED140F004000B
:100DD0003860386840F001003860FFF72BFD0546A9
:100DE00041F28836386810F0020F37D1FFF722FD44
:100DF000401BB042F6D90320CFE00120CDE0002017
:100E0000C8F80000FFF716FD054600BFDAF800003D
:100E100010F0020F3FF472AFFFF70CFD411B0320EF
:100E20000229F3D9B9E00120B7E020F001003860D1
:100E3000386820F004003860FFF7FCFC0546002EFF
:100E4000CED141F28836386810F0020F06D0FFF795
:100E5000F1FC411B0320B142F5D99EE0B9F1010F2D
:100E600002BF57F8300C20F0805047F8300CA669CC
:100E7000002E00F0918057F8680C00F00C00082854
:100E800003D1012E22D1012087E00020C8F86000A4
:100E9000FFF7D0FC0546022E0CD100BFDAF80000A7
:100EA00010F0007F55D0FFF7C5FC411B032002293D
:100EB000F4D972E0DAF8000010F0007F6CD0FFF790
:100EC000B9FC411B03200229F4D966E057F86C0CE9
:100ED000E16900F480028A4263D1216A00F03F0296
:100EE0008A4260D1626A47F6C0710140B1EB821F4D
:100EF0005BD1A16A4FF6FF72C903914300F44032FF
:100F0000A1F580318A4252D1E16A00F07060B0EB05
:100F1000016F41D0012040E020F48030CAF8000089
:100F2000DAF8000020F48020CAF80000FFF782FC05
:100F30000546002E7FF48CAEDAF8000010F4003F76
:100F40003FF49DAEFFF776FC411B03206429F3D9E3
:100F500023E004F11C064FCE0843D90340EA821077
:100F60004FF6FF72914340EA0660A1F580310843D5
:100F700047F86C0C0120C8F86000FFF75BFC0446E2
:100F8000DAF8000010F0007F06D1FFF753FC011BD8
:100F900003200229F4D900E00020C0B202B0BDE86D
:100FA000F0870120F9E70120F7E70120F5E70120AC
:100FB000F3E70000411E0020B0EB116F1CBF0120C1
:100FC00070474EF21002F023CEF2000251604EF64E
:100FD0002351CEF200010B70072190601160704721
:100FE000704700007047000090F83C20012A02BFC3
:100FF0000221C8B27047B0B501F10805D1E900CEB1
:101000003CCDC96923F47C5322F470521A432EF468
:10101000F0431A432CF4E0431A4324F4C0431A4328
:101020002A4322F48042114302685164002180F86F
:101030003C10BDE8B040C8B27047000090F83C30AA
:101040000222012B55D010B5012380F83C3080F8E6
:101050003D200268D2F804E0D2F808C00C682EF0F7
:1010600070032343536041F2FF73C4F200039A42BA
:10107000BDE810400BDC40F2FF73C4F200039A425B
:1010800013DCB2F1804F29D040F2004315E040F26A
:10109000FF33C4F201039A4214DC41F60003C4F2A8
:1010A00000039A421AD0002314E040F60003C4F271
:1010B00000039A4212D040F60043C4F200039A4261
:1010C0000CD010E044F20003C4F201039A4205D0B0
:1010D00040F20043C4F201039A4204D149682CF063
:1010E0008003194391600121002280F83D1080F8AF
:1010F0003C20D0B27047000010B50446002C04BF5D
:10110000012010BD94F83D0028B9002084F83C006F
:10111000204600F0B5F8022040F6FF3284F83D008A
:10112000C4F200022068016890420FDCB0F1804FE9
:101130001EBF40F20043C4F20003984217D040F6AD
:101140000003C4F20003984211D014E040F60043BB
:10115000C4F2000398421EBF40F20043C4F20103F0
:10116000984204D00023C4F20103984203D1A3683B
:1011700021F07001194341F6FF73C4F20003984255
:101180000DDC90421FDCB0F1804F1EBF40F20042E8
:10119000C4F2000290423BD040F6000221E043F648
:1011A000FF72C4F20102904220DC42F20002C4F25B
:1011B000000290421EBF0022C4F20102904227D0DA
:1011C00040F2004220E040F60042C4F200029042A9
:1011D0001EBF41F60002C4F20002904218D041F650
:1011E0000042C4F20002904212D015E044F2000224
:1011F000C4F2010290421EBF44F60002C4F2010292
:10120000904205D044F20042C4F20102904203D160
:10121000226921F440711143A26921F08001114338
:1012200040F200420160C4F20102E168C1626168FB
:10123000816240F48061914204BF616901630121D0
:101240004161026912F0010F1EBF026922F0010222
:101250000261002084F8461084F83E1084F83F10A4
:1012600084F8401084F8411084F8421084F8431048
:1012700084F8441084F8451084F83D1010BD000037
:1012800080B582B0016840F2004243F64000C4F2EB
:101290000102C4F20200914218D0B1F1804F20D176
:1012A000002100220191016841F00101016000214B
:1012B000006800F00100019001981C20FFF73CFB42
:1012C0001C2002B0BDE88040FFF726BB0021009142
:1012D000416841F002014160406800F00200009066
:1012E000009802B080BD000090F83D1001291CBF9D
:1012F00001207047022180F83D100068C16841F06C
:101300000101C16041F2FF71C4F2000188420FDCAB
:1013100040F2FF71C4F20001884217DCB0F1804F47
:101320002DD040F20041C4F20001884227D02DE0C8
:1013300040F2FF31C4F20101884214DC41F60001A1
:10134000C4F2000188421AD0002114E040F60001E6
:10135000C4F20001884212D040F60041C4F20001FC
:1013600088420CD012E044F20001C4F2010188422C
:1013700005D040F20041C4F20101884206D18168E3
:1013800001F00701062904BF00207047016841F001
:10139000010101600020704790F83C300222012BCF
:1013A00000F0C58080B5012380F83C3080F83D20F6
:1013B0004FF67772D0F800C0DCF8083023EA02025A
:1013C000CCF808200B684F2B28DC1F2B43DD202B8B
:1013D00018BF302B43D0402B40F0AB80D1F804E055
:1013E000C968DCF82030DCF8202022F00102CCF8BB
:1013F0002020DCF8182022F0F00242EA0111CCF89B
:10140000181023F00A0141EA0E01CCF82010DCF894
:10141000081021F0770141F047017DE06F2B26DDB8
:10142000B3F5005F47D0B3F5805F77D0702B40F005
:101430008080D1E90123C9681A4342EA0121DCF81E
:10144000082022F47F421143CCF80810DCF8081081
:1014500041F0770160E0002B18BF102B69D1DCF858
:10146000081021F07701194341F0070154E0502B97
:1014700033D0602B5DD1D1F804E0C968DCF82030AE
:10148000DCF8202022F01002CCF82020DCF8182014
:1014900022F4704242EA0131CCF8181023F0A00186
:1014A00041EA0E11CCF82010DCF8081021F0770189
:1014B00041F0670130E0D1E90123C9681A4342EAEB
:1014C0000121DCF8082022F47F421143CCF80810F7
:1014D000DCF8081041F480411EE0D1F804E0C9684E
:1014E000DCF82030DCF8202022F00102CCF82020AB
:1014F000DCF8182022F0F00242EA0111CCF81810B2
:1015000023F00A0141EA0E01CCF82010DCF80810A3
:1015100021F0770141F05701CCF808100022012199
:1015200080F83D10002180F83C10BDE88040D0B22A
:1015300070470122F3E700002DE9F04F81B0044627
:101540008846002C02BF012001B0BDE8F08F94F85E
:101550003D0028B9002084F83C00204600F0DEF869
:10156000022044F2070284F83D002068816891431C
:1015700040F6FF328160C4F20002016890420FDC45
:10158000B0F1804F1EBF40F20043C4F20003984206
:1015900017D040F60003C4F20003984211D014E0C3
:1015A00040F60043C4F2000398421EBF40F20043DD
:1015B000C4F20103984204D00023C4F2010398420C
:1015C00003D1A36821F07001194341F6FF73C4F2FF
:1015D000000398420DDC90421FDCB0F1804F1EBF2B
:1015E00040F20042C4F2000290423BD040F60002BA
:1015F00021E043F6FF72C4F20102904220DC42F285
:101600000002C4F2000290421EBF0022C4F2010296
:10161000904227D040F2004220E040F60042C4F25F
:10162000000290421EBF41F60002C4F20002904246
:1016300018D041F60042C4F20002904212D015E0E8
:1016400044F20002C4F2010290421EBF44F60002BE
:10165000C4F20102904205D044F20042C4F20102F9
:10166000904203D1226921F440711143A26921F013
:101670008001114340F200420160C4F20102E168BE
:10168000C1626168816240F48061914204BF616916
:10169000016301214161026912F0010F1EBF02695D
:1016A00022F0010202618268D0F818B0036A009348
:1016B000D8E9005ED8E90276D8E9049AD8E9063C70
:1016C0002A43D8F8205047EA032382604FF6FF727E
:1016D0002BEA020232434FF6FC46B3431A4342EA76
:1016E0000C2242EA091242EA05328261009A22F093
:1016F000AA0242EA0E0242EA0A12026284F8461084
:1017000084F83E1084F83F1084F8421084F84310A7
:1017100084F83D10002001B0BDE8F08F80B586B0A0
:1017200000210591CDE90311CDE9011102680020E6
:10173000C4F20100824201D006B080BD43F63002FF
:10174000009100F58030C4F20202536943F00103B6
:101750005361536903F001030093009B00911368E8
:1017600043F001031360126802F001020092009A34
:101770004FF4407201920222CDE90221049101212D
:10178000059101A9FEF770FF06B080BD10B590F875
:101790003E4090F83F3090F842E090F843C001227C
:1017A00004290BD0A9B9012C08BFBEF1010F41D10A
:1017B000022180F83E1080F842102CE0012B08BF77
:1017C000BCF1010F36D1022180F83F1080F84310A0
:1017D0001DE0012C08BF012B2CD1BEF1010F08BF69
:1017E000BCF1010F26D10222002980F83E2080F8AA
:1017F0003F2080F8422080F843200CD001680A6A1C
:1018000022F001020A620A6A42F001020A62102111
:101810006FF0100202E001216FF001020068036A1C
:101820001A400262026A114300220162016841F01B
:1018300001010160104610BD70470000B0B50446BC
:101840002068C168026901EA0205A90714D56FF092
:101850000201016101212177806910F0030F03D09B
:101860002046FFF7E9FF05E0204600F075F8204626
:1018700000F050FA00202077680715D520686FF037
:101880000401016102212177806910F4407F03D0B7
:101890002046FFF7D1FF05E0204600F05DF8204626
:1018A00000F038FA00202077280715D520686FF05F
:1018B0000801016104212177C06910F0030F03D0F2
:1018C0002046FFF7B9FF05E0204600F045F8204626
:1018D00000F020FA00202077E80615D520686FF088
:1018E0001001016108212177C06910F4407F03D005
:1018F0002046FFF7A1FF05E0204600F02DF8204626
:1019000000F008FA00202077E80706D020686FF082
:1019100001010161204600F093FA280606D52068EF
:101920006FF0800101612046FFF75AFB680606D57B
:1019300020686FF040010161204600F083FAA8069C
:1019400058BFB0BD20686FF0200101612046BDE89E
:10195000B040FFF747BB00007047000090F83C30F4
:10196000012B02BF0223D8B270474FEAB202012313
:10197000032A80F83C3000F201812DE9F041DFE8D4
:1019800002F002813EC303681E6A1A6A22F0010255
:1019900026F002061A621A46D3F804C052F8185FFD
:1019A0008F680C68374325F0730643F4806546EA78
:1019B000040E40F20046C4F20106B54201BF27F012
:1019C0000C04CF6827F004072743B54201BFD1E9D3
:1019D00005452CF44076264346EA050CC3F804C0BE
:1019E000C3F818E04E685E631F629F6947F00807FE
:1019F0009F619F6927F004079F610969B8E0036848
:101A00001F6A1A6A22F4807227F400771A621A4653
:101A1000D3F804C052F81C4F8E680D6847EA062EB2
:101A200040F2004624F0730444EA050843F480655C
:101A3000C4F20106B54209D1CF6840F2FF443F022B
:101A400027EA04042EF4406744EA070EB54201BFBA
:101A5000D1E905452CF4405747EA041747EA051C2D
:101A6000C3F804C0C3F81C804F68DF63C3F820E0EC
:101A7000DF6947F00807DF61DF6927F00407DF61EE
:101A8000096975E003681F6A1A6A22F0100227F0DC
:101A900020071A621A46D3F804C052F8184F8E680D
:101AA0000D6847EA061E40F2004624F4E64444EA84
:101AB000052843F48065C4F20106B54201BFCF6832
:101AC0006FF04F0404EA07142EF0C00708BF44EA81
:101AD000070EB54201BFD1E905452CF4406747EA3E
:101AE000840747EA850CC3F804C0C3F818804F6820
:101AF0009F63C3F820E09F6947F400679F619F6977
:101B000027F480679F6131E00368D3F820C01A6A28
:101B100022F480522CF400541A621A46D3F804E0DE
:101B200052F81C6F8F680D6844EA073C26F4E644BF
:101B300040F2004644EA052543F48064C4F20106FD
:101B4000B44202BF4C692EF4804747EA841EC3F8B2
:101B500004E0DD614F681F64C3F820C0DF6947F40B
:101B60000067DF61DF6927F48067DF6109690902C7
:101B70001368194300231160BDE8F041002180F88B
:101B80003C10D8B27047000010B50446002C04BFCA
:101B9000012010BD94F83D0028B9002084F83C00D5
:101BA000204600F0B5F8022040F6FF3284F83D00F0
:101BB000C4F200022068016890420FDCB0F1804F4F
:101BC0001EBF40F20043C4F20003984217D040F613
:101BD0000003C4F20003984211D014E040F6004321
:101BE000C4F2000398421EBF40F20043C4F2010356
:101BF000984204D00023C4F20103984203D1A368A1
:101C000021F07001194341F6FF73C4F200039842BA
:101C10000DDC90421FDCB0F1804F1EBF40F200424D
:101C2000C4F2000290423BD040F6000221E043F6AD
:101C3000FF72C4F20102904220DC42F20002C4F2C0
:101C4000000290421EBF0022C4F20102904227D03F
:101C500040F2004220E040F60042C4F2000290420E
:101C60001EBF41F60002C4F20002904218D041F6B5
:101C70000042C4F20002904212D015E044F2000289
:101C8000C4F2010290421EBF44F60002C4F20102F7
:101C9000904205D044F20042C4F20102904203D1C6
:101CA000226921F440711143A26921F0800111439E
:101CB00040F200420160C4F20102E168C162616861
:101CC000816240F48061914204BF61690163012136
:101CD0004161026912F0010F1EBF026922F0010288
:101CE0000261002084F8461084F83E1084F83F100A
:101CF00084F8401084F8411084F8421084F84310AE
:101D000084F8441084F8451084F83D1010BD00009C
:101D1000704700007047000039B10322082908BF4E
:101D20000222042908BF012200E00022024492F8A6
:101D30003E20012A1CBF01207047022241B1082920
:101D400009D0042914BF80F8412080F83F2004E026
:101D500080F83E2001E080F84020006801F01F017B
:101D6000012202FA01F1026A8A430262026A114305
:101D7000016241F2FF71C4F2000188420FDC40F2BF
:101D8000FF71C4F20001884217DCB0F1804F49D0E6
:101D900040F20041C4F20001884243D049E040F2E1
:101DA000FF32C4F20102904214DC41F60003C4F297
:101DB0000003984236D0002314E040F60001C4F23C
:101DC000000188422ED040F60041C4F20001884252
:101DD00028D02EE044F20003C4F20103984221D03F
:101DE00040F20043C4F20103984222D1436C88427E
:101DF00043F400434364C2DD904207DC41F6000136
:101E0000C4F2000188420DD0002107E044F2000135
:101E1000C4F20101884205D040F20041C4F2010140
:101E2000884206D1816801F00701062904BF00201D
:101E30007047016841F00101016000207047000017
:101E4000704700007047000010B50446002C04BF26
:101E5000012010BD94F8410028B9002084F840000A
:101E6000204600F021F8242084F841002068C16851
:101E700021F40051C160204600F04AFB206801694E
:101E800021F490410161416921F02A014161C16859
:101E900041F40051C16000202021606484F84110A9
:101EA00084F84210606310BD80B586B000210591B2
:101EB000CDE90311CDE90111026844F20040C4F2FA
:101EC0000000824201D006B080BD43F6300200918E
:101ED00000F5DE30C4F20202136943F400331361EB
:101EE000136903F400330093009B0091136843F0DF
:101EF00001031360126802F001020092009A0C22A2
:101F000001920222CDE902210321049107210591CA
:101F100001A9FEF7A9FB06B080BD00002DE9F04342
:101F200081B004461D4616460F4694F8410020280D
:101F30001BD1002F4FF0010118BF002E5AD04FF0D7
:101F400000092120C4F8449084F84100FEF772FC97
:101F5000A684E6848046A068B0F5805F07D1266934
:101F6000002E0CBFB9463E4602E0022142E03E464A
:101F7000E28C2068016812B36F1C09060ED400BF02
:101F800047B1FEF757FC8DB3A0EB0800A8422DD84F
:101F90002068C168016811F0800FF1D016B116F801
:101FA000011B04E039F8021B00266FF35F2141603A
:101FB000E18C0139E184E28C0168002ADDD1490617
:101FC0000FD46E1C4EB1FEF735FC032155B1A0EBCA
:101FD0000800A84206D82068C168016811F0400FC7
:101FE000F0D00021202084F8410003E020200321CC
:101FF00084F84100C8B201B0BDE8F083FEE70000FC
:1020000070B586B043F63000002540F6000400228B
:1020100005950095C4F20200C4F20204016841F083
:1020200080010160016801F0800100910099009534
:10203000016841F004010160016801F004010091B0
:1020400000990095016841F00101016004210068D8
:1020500000F00100009000982046FEF7E5FB2046C6
:10206000082101220126FEF7DFFB0C2001A9CDE9A2
:1020700001062046CDE90355FEF7F6FA06B070BD1D
:1020800010B58CB040F27C000021002401224FF6F4
:10209000FF73C2F20000C4F20101CDE9004480E800
:1020A00016000321C0E90334C0E90544CDE9031457
:1020B00003A9CDE90524CDE90744CDE909240B9412
:1020C000FFF73AFA002818BFFEF7B4FA40F27C0096
:1020D0006946CDE90044C2F20000FEF7AFFF0028D8
:1020E00018BFFEF7A7FA0CB010BD000080B586B08F
:1020F00040F2C40044F23F2C00214FF08042A7235D
:10210000C2F20000C0F20F0CCDE90411CDE90211BA
:10211000CDE90011C0E90023C0E9021C0161816121
:10212000FEF7EAFF002818BFFEF784FA4FF480504C
:1021300002A9029040F2C400C2F20000FFF72CF99D
:10214000002818BFFEF776FA00206946CDE90000A6
:1021500040F2C400C2F20000FEF770FF002818BF72
:10216000FEF768FA06B080BD70B59CB040F20C1066
:1021700040F20045002140F28F6242F20F73C2F23A
:102180000000C4F201051591CDE91311CDE911113B
:10219000CDE90F11CDE90D11CDE90B11CDE90911F3
:1021A000CDE90711CDE90511CDE90311CDE9011103
:1021B000C0E90052C0E90213C0E904118161FEF7D1
:1021C0009BFF002818BFFEF735FA4FF4805012A984
:1021D000129040F20C10C2F20000FFF7DDF8002868
:1021E00018BFFEF727FA40F20C10C2F20000FFF70A
:1021F000CBFC002818BFFEF71DFA40F20C1000249B
:1022000010A9C2F20000CDE91044FEF717FF002824
:1022100018BFFEF70FFA60200F94CDE90D44CDE909
:102220000B4409A90022CDE9090440F20C10C2F2C6
:102230000000FFF793FB002818BFFEF7FBF940F200
:102240000C1009A90422C2F20000FFF787FB002846
:1022500018BFFEF7EFF940F20C1400264FF40050BF
:1022600001A9C2F200040596CDE90366CDE9016635
:10227000069008962046FEF7B7FE002818BFFEF726
:10228000D9F91B96CDE91966CDE917662068A842F1
:1022900001D01CB070BD43F6300100201690C4F28E
:1022A00002010A6842F004020A60096801F00401B0
:1022B00016911699C02117910221CDE918101A9094
:1022C000032017A91B9005F58230FEF7CDF91CB04D
:1022D00070BD000080B540F2541044F200414FF44C
:1022E000E13200234FF00C0CC2F20000C4F20001F6
:1022F00080E80E00C0E90333C0E905C3C361FFF7FE
:10230000A3FD00281CBFBDE88040FEF793B980BD47
:10231000FEE7000040F27C0040F278029FED442A84
:10232000B8EE006AC2F20000C2F200020068416A20
:1023300011800022426208B240F2700140F20002B5
:10234000C2F20001C2F2000203EE100A40F2C8100D
:1023500092ED000A91ED001AB8EEC33AC2F2000005
:1023600031EE000A32EE431A80ED051A82ED000AC2
:10237000F0EE410A90ED010A90ED042A90ED003A4A
:1023800090ED035A90ED024A31EE427A21EE000AB6
:1023900042EE060A03EE070A30EE853A04EE030A1F
:1023A00080ED080A90ED0A3AB4EEC30AF1EE10FA95
:1023B0000FDDB1EE434AB0EE430A80ED083A80EDFE
:1023C000032A80ED041AB4EEC43AF1EE10FA1ADAD8
:1023D00015E0B1EE434AB4EEC40AF1EE10FAB8BF0C
:1023E000B0EE440AB0EE434AB4EEC30A80ED080AE8
:1023F00080ED032A80ED041AF1EE10FA03DDB0EE51
:10240000440A80ED084A9FED0B1A40F20C1140F28D
:102410007400C2F20001C2F2000020EE011ABDEE0B
:10242000C11A096880ED000A11EE100A486370476E
:102430000000484200401C46FEE7000070470000D4
:1024400070470000FEF7FCB9B0B592B043F640000B
:10245000002402250B94CDE90944CDE907440594F5
:10246000CDE90344CDE901440094C4F202000168BF
:1024700041F080510160006800F0805000900098A9
:10248000009447F20000C4F20000016841F480416A
:102490000160006800F480400090009806950120DB
:1024A000099010200A900820CDE90C540E90A82025
:1024B000CDE90F050420119006A8FEF78FFB10B19F
:1024C00072B600BFFEE70F200521CDE901054FF4EC
:1024D000A050039404904FF48050059001A8FEF79B
:1024E0006DFA002804BF12B0B0BD72B6FEE700005E
:1024F0004EF68850CEF20000016841F47001016090
:102500007047000040F2C400C2F20000FFF796B925
:10251000B0B5044649F20C6520680169E26821F40F
:10252000405111430161D4F808C0D4E90423D4F820
:102530001CE0C16842EA0C02A9431A4342EA0E02B7
:102540001143C1604169A26921F4407111434161A5
:1025500041F2004140F48060C4F20101884202D19E
:10256000FEF7F2FA01E0FEF7DBFAE269636819218F
:10257000A0FB0101B2F5004F1CD15A00DB0FFDF7A3
:1025800077FE48F21F51C5F2EB11A0FB01235A0957
:102590006FF0630302FB0300322303EBC000A0FBD8
:1025A00001014FF4F87000EA1110C1F3421100EB81
:1025B00002101AE09A009B0FFDF75AFE48F21F51D5
:1025C000C5F2EB11A0FB01235A096FF0630302FB74
:1025D0000300322303EB0010A0FB0101F02000EA0E
:1025E0005110C1F3431100EB0210084321688860C9
:1025F000B0BD0000FEE70000F0B581B0FEF72EF997
:10260000FFF722FFFFF7FCFCFFF7AEFDFFF738FDF9
:10261000FFF760FEFFF76AFD00F058F840F20C1477
:1026200000210025C2F200042046FFF775FB20467A
:102630003C21FFF7ABF840F2C400C2F20000FEF705
:1026400053FE40F29C10002100224DF20A73002735
:1026500040F2F41440F25416C2F20000C4F2201109
:10266000C4F24002C3F62343C4F29637C2F2000418
:10267000C2F2000680E80E00C0E9097140F2C810FD
:1026800040F27807C2F20000C2F2000780E82E0094
:10269000C0E904550CA58162FFF73CFEB7F9003094
:1026A000204632212A46FDF75BFE2046FDF7E2FE7A
:1026B00082B2304621464FF0FF33FFF72FFC322025
:1026C000FDF7BCFFE8E700BF25640A00B0B540F2A3
:1026D0007C003C21C2F20000FFF758F840F20C14D5
:1026E00000210025C2F200042046FFF715FB2068F8
:1026F00045630020B0BD4FF04070E1EE100A704716
:1027000000000000000000000102030406070809A1
:102710000000000001020304382700080000002028
:1027200010000000C4010008482700081000002025
:1027300020080000E001000800401C470024F400CD
:08274000010000001000000080
:040000050800018965
:00000001FF
