:020000040800F2
:100000009007002029020008DF150008F3130008FC
:10001000DD1500081F0400086F190008000000002B
:10002000000000000000000000000000E3150008D0
:100030002104000800000000E1150008E515000893
:10004000430200084302000843020008430200087C
:10005000430200084302000843020008430200086C
:10006000430200084302000843020008430200085C
:10007000430200084302000843020008430200084C
:10008000430200084302000843020008430200083C
:10009000430200084302000843020008430200082C
:1000A000430200084302000843020008430200081C
:1000B000430200084302000843020008430200080C
:1000C00043020008430200084302000843020008FC
:1000D00043020008430200084302000843020008EC
:1000E00043020008430200084302000843020008DC
:1000F000430200088D16000843020008430200086E
:1001000043020008430200084302000843020008BB
:1001100043020008430200084302000843020008AB
:10012000430200084302000843020008430200089B
:100130004302000800000000000000004302000825
:10014000430200084302000843020008430200087B
:10015000430200084302000843020008430200086B
:10016000430200084302000843020008430200085B
:1001700043020008430200080000000000000000E5
:10018000430200084302000800F002F800F03CF8C7
:100190000AA090E8000C82448344AAF10107DA45E2
:1001A00001D100F031F8AFF2090EBAE80F0013F0F8
:1001B000010F18BFFB1A43F0010318471018000085
:1001C00030180000103A24BF78C878C1FAD8520716
:1001D00024BF30C830C144BF04680C6070470000C1
:1001E0000023002400250026103A28BF78C1FBD840
:1001F000520728BF30C148BF0B6070471FB501F0E0
:10020000D4FB1FBD10B510BD00F0CFF81146FFF7AD
:10021000F5FF01F0BDFB00F0EDF803B4FFF7F2FFCE
:1002200003BC00F0F5F80000094880470948004782
:10023000FEE7FEE7FEE7FEE7FEE7FEE7FEE7FEE796
:10024000FEE7FEE704480549054A064B70470000F3
:100250007D16000889010008900100209007002009
:10026000900300209003002053EA020C00F0698004
:100270002DE9F04B4FF00006002B1FBFB3FA83F5BA
:1002800003FA05F424FA05F65E4012BF1643B2FAEB
:1002900082F502FA05F4C5F120051EBF22FA05FC1D
:1002A00044EA0C04203556EA044C4FEA144418BFC3
:1002B000641C4FF000084FF00009904271EB030CF2
:1002C00039D3002919BFB1FA81F701FA07F6B0FA5C
:1002D00080F700FA07F6C7F120071EBF20FA07FCD7
:1002E00046EA0C062037B6FBF4FCA7EB0507103FE7
:1002F00007F01F0BCBF120060CFA0BFB2CFA06F6CD
:1003000044BFB3460026202FA4BF5E464FF0000B2B
:100310005BEA060C08BF4FF0010B19EB0B09ABFBB6
:10032000027C48EB0608C01B06FB02CC0BFB03CC8F
:1003300071EB0C01C1E70B46024641464846BDE859
:10034000F08B13B54FF000004FF00001AFF30080C9
:10035000BDE81C4070474FF0000200B513469446BC
:100360009646203922BFA0E80C50A0E80C50B1F10D
:100370002001BFF4F7AF090728BFA0E80C5048BF21
:100380000CC05DF804EB890028BF40F8042B08BFBF
:10039000704748BF20F8022B11F0804F18BF00F8BB
:1003A000012B7047704770477047754600F02CF876
:1003B000AE4605006946534620F00700854618B052
:1003C00020B5FFF73FFFBDE820404FF000064FF09B
:1003D00000074FF000084FF0000B21F00701AC467A
:1003E000ACE8C009ACE8C009ACE8C009ACE8C00999
:1003F0008D46704710B50446AFF300802046BDE837
:100400001040FFF70ABF000000487047300100208D
:1004100001491820ABBEFEE7260002007047FEE748
:10042000704772B6FEE700002DE9F84FDFF8BCA177
:100430000022012503264FF00F090AF1040BAAF14F
:10044000040E00BF0B6805FA02F42340A34270D1EA
:100450000F7907F00307012F01D0022F16D187680B
:100460004FEA420806FA08FC27EA0C07D1F80CC04C
:100470000CFA08FC4CEA070CC0F808C04768A74310
:100480000C79C4F3001494403C4344600C79E44379
:10049000A4070AD0C4684FEA420C06FA0CF7BC4322
:1004A0008F6807FA0CF72743C7600C7904F0030440
:1004B000022C12D1D40800EB840CDCF82040570742
:1004C000FF0E09FA07F824EA0804D1F8108008FAA8
:1004D00007F848EA0408CCF8208004684FEA420C88
:1004E00006FA0CF7BC430F7907F0030707FA0CF77D
:1004F000274307604C6814F4403F70D03C4C276899
:1005000047F480472760246822F0030704F48044FE
:100510000094384C07EB040CDCF8084897074FEAC6
:10052000177809FA08F7BC43334FB84202D10027C5
:1005300024E054E0314FB84201D101271EE0304F92
:10054000B84201D1022719E02E4FB84201D103274A
:1005500014E02D4FB84201D104270FE02B4FB842D1
:1005600001D105270AE02A4FB84201D1062705E04C
:10057000284FB84201D1072700E0082707FA08F7FB
:100580002743CCF80878DAF800405746D1F804C081
:100590009C435FEACC2C00D51C433C60DBF8004058
:1005A0005F46D1F804C09C435FEA8C2C00D51C4305
:1005B0003C60DEF800407746D1F804C09C435FEA17
:1005C0008C3C00D51C433C60084F083F3C68D1F888
:1005D00004C09C435FEACC3C00D51C433C60521CE9
:1005E000102AFFF42FAFBDE8F88F0000083C01404F
:1005F0004438024000300140000002400004024044
:1006000000080240000C02400010024000140240AA
:1006100000180240001C024001488068704700003A
:100620000000002002488168027811448160704710
:10063000000000200B4810B5016841F40071016012
:10064000016841F480610160016841F480710160DA
:10065000032000F09BF80F2000F006F800F050F89F
:10066000002010BD003C024030B505461F4887B051
:100670000024016841F480710160006806A900F45B
:100680008070009001A800F02DF90498A8B100F046
:1006900049F940001649174AB0FBF1F11648491EC6
:1006A000026040F2E732C0E90324C0E9011484612A
:1006B00000F0A2FB040003D015E000F033F9E9E7F5
:1006C0000D4800F0E5FB04000DD12D2000F030F8BE
:1006D000102D07D2002229462D2000F037F80748B8
:1006E000056000E0012407B0204630BD40380240DC
:1006F00040420F0000200040E800002004000020DD
:100700000A4808B5016841F480410160006800F4BE
:10071000804000900548001F016841F08051016051
:10072000006800F08050009008BD0000443802408E
:10073000002809DB00F01F020121914040098000E0
:1007400000F1E020C0F8001170470000F0B40E4B3B
:100750001B680C46C3F30223C3F10705042D00D91F
:100760000425191D072901D2002300E0DB1E012604
:1007700006FA05F1491E214099409E40761E16401A
:100780003143F0BC01F0F4B80CED00E0064900F094
:10079000070208684FF6FF03184040EA0220034AA8
:1007A00010430860704700000CED00E00000FA05FF
:1007B0002DE9F0470E46050065D0DFF81481D8F822
:1007C0000000F7B200F00700B04207D288F80070CE
:1007D000D8F8000000F00700B04254D128683D4C22
:1007E000810712D5400703D5206840F4E05020600F
:1007F0002878000703D5206840F460402060206816
:10080000A96820F0F000084320602878C0072DD0A8
:10081000304968680839012812D0022813D003280B
:1008200011D00968890700292DDA216821F0030118
:1008300001432160FFF7F0FE814641F2883A0EE065
:1008400009688903EFE709688901ECE7FFF7E4FE2F
:10085000A0EB0901514502D90320BDE8F0872068CB
:10086000696800F00C00B0EB810FEFD1D8F80010F0
:10087000404601F00701B14207D90770006800F057
:100880000700B04201D00120E7E72878400705D5EE
:100890002068E96820F4E0500843206028780007C9
:1008A00006D52068296920F4604040EAC100206034
:1008B00000F048F82168084AC1F30311515CC840B0
:1008C0000649086006480068FFF7CEFE0020C4E72E
:1008D000003C024008380240B41900080C00002017
:1008E000040000200F2202600C4A136803F0030387
:1008F0004360136803F0F0038360136803F4E0536C
:10090000C36012684FF4E05303EAD2020261044864
:10091000006800F0070008607047000008380240D7
:10092000003C02400448054900680968044AC1F3D4
:100930008221515CC84070470C00002008380240FA
:10094000C4190008154810B5006810F00C021448CE
:1009500013D04110042A0FD0082A0ED10F4C241FA7
:100960002268236802F03F025B0207D52068C0F3CB
:100970008810A0FB010106E0084610BD2168C1F304
:100980008811A1FB00010023FFF76EFC2168C1F371
:100990000141491C4900B0FBF1F010BD083802408C
:1009A0000024F4002DE9F84F04006ED02078DFF821
:1009B0004C93C007A9F104054AD009F1040001686D
:1009C000C1F38101012908D00068C0F38100022829
:1009D0000AD1D9F80000400206D52868800337D52F
:1009E00060680028E1D033E06068B0F5803F10D047
:1009F000B0F5A02F286810D020F480302860286837
:100A000020F4802028606068A8B1FFF705FE064644
:100A10000DE0286840F48030F4E740F4802028603E
:100A2000F7E700BFFFF7F8FD801B642873D828683C
:100A30008003F7D50CE0FFF7EFFD064605E000BFA9
:100A4000FFF7EAFD801B6428F0D828688003F7D4FC
:100A50002078DFF8AC8280074FF0000A3ED5A74827
:100A6000001D016811F00C0F08D00068C0F3810070
:100A700002280BD1D9F80000400207D4286880076B
:100A800016D5E068012800D112E033E1E068B8B182
:100A90000120C8F80000FFF7BFFD064605E000BFD3
:100AA000FFF7BAFD801B0228C0D828688007F7D559
:100AB0002868216920F0F80040EAC10028600DE0B4
:100AC000C8F800A0FFF7A8FD064604E0FFF7A4FD64
:100AD000801B02281FD828688007F7D420780007D9
:100AE00022D5864F87486169703771B10121016055
:100AF000FFF792FD064604E0FFF78EFD801B0228FB
:100B000009D838688007F7D50EE0C0F800A0FFF7D5
:100B100083FD064605E082E0FFF77EFD801B02288C
:100B20007DD838688007F7D42078400768D5DFF88B
:100B3000CCB100270BF13C0BDBF80000C0000BD45C
:100B4000DBF8001041F08051CBF80010DBF800001A
:100B5000012700F0805000906B4E3068C00510D423
:100B6000306840F480703060FFF756FD009005E07B
:100B7000FFF752FD0099401A022850D83068C0058E
:100B8000F6D55E4EA0686C3601280FD00528306877
:100B900010D020F001003060306820F00400306098
:100BA000A068B8B1FFF738FD00900FE0306840F062
:100BB0000100F4E740F004003060F7E7FFF72CFD98
:100BC0000099411A41F28830814266D83068800726
:100BD000F4D50EE0FFF720FD009007E0FFF71CFDC5
:100BE0000099411A41F28830814256D83068800716
:100BF000F4D42FB1DBF8001021F08051CBF80010B5
:100C0000A069C8B33D49091D0968C1F381010229E2
:100C10004AD00228504607D0C8F8600000E03CE007
:100C2000FFF7FAFC04463BE04746C8F86000FFF7D0
:100C3000F3FC064605E000BFFFF7EEFC801B022830
:100C40002BD828688001F7D4D4E907010843A16AAA
:100C50002E4A490802EB0141626A41EA82110843C7
:100C600094F82C1040EA0161C9F8001001203866A0
:100C7000FFF7D2FC044606E03EE000BFFFF7CCFCE5
:100C8000001B022809D828688001F7D534E000BF8E
:100C9000FFF7C2FC001B022802D90320BDE8F88F31
:100CA00028688001F4D427E00128F7D0D9F80000A3
:100CB000E26900F4800191421CD1226A00F03F01F8
:100CC000914217D147F6C071626A0140B1EB821FB1
:100CD00010D1A26A4FF0FF3300F4403103EB52020F
:100CE000B1EB024F06D194F82C1000F07060B0EB1D
:100CF000016F01D00120D1E70020CFE70438024086
:100D000000004742800E4742007000400000FFFF95
:100D10007047704710B590F83C20012A22D001227C
:100D200080F83C20CA688C6822F4407222434C68E8
:100D300022F4806222430C6822F4006222430C6990
:100D400022F4805222434C6922F400522243C969A2
:100D5000002322F480420A4301684A6480F83C3050
:100D6000002010BD022010BD70B590F83C20012A73
:100D700032D0012480F83C40022280F83D200368F4
:100D80005A689D6822F070060A6832435A60134B15
:100D900002689A4214D0B2F1804F11D0104B9A429F
:100DA0000ED0104B9A420BD00F4B9A4208D00F4BEB
:100DB0009A4205D00E4B9A4202D00E4B9A4204D171
:100DC000496825F080031943916080F83D40002177
:100DD00080F83C10084670BD022070BD0000014044
:100DE0000004004000080040000C004000040140E6
:100DF000004001400018004010B5040003D094F8F2
:100E00003D0010B107E0012010BD002084F83C0037
:100E1000204600F01FF8022084F83D00211D2068C4
:100E200000F042FC012084F8460084F83E0084F87B
:100E30003F0084F8400084F8410084F8420084F8C0
:100E4000430084F8440084F8450084F83D00002005
:100E500010BD000008B500680B49884212D10B484C
:100E6000016841F0020101600068002200F0020008
:100E700000900F212D20FFF769FCBDE808402D20D0
:100E8000FFF756BC08BD0000000401404438024092
:100E900090F83D10012901D001207047022180F80F
:100EA0003D100168CA6842F00102CA600068114939
:100EB000884214D0B0F1804F11D00F4988420ED033
:100EC0000E4988420BD00E49884208D00D4988420D
:100ED00005D00D49884202D00C49884204D181686E
:100EE00001F00701062903D0016841F0010101600A
:100EF000002070470000014000040040000800404E
:100F0000000C004000040140004001400018004077
:100F100070B5044690F83C000025012817D0012642
:100F200084F83C60022084F83D002068826822F04A
:100F3000770222F47F4282600868502838D00DDCA6
:100F400020284FD005DC90B3102811D14AE00220B0
:100F500070BD302846D040280AD13BE060282FD011
:100F600070280DD0B0F5805F03D0B0F5005F12D0CF
:100F7000012584F83D60002084F83C00284670BDBF
:100F8000CB68D1E90121206800F0FAFB2068816874
:100F900041F0770109E0CB68D1E90121206800F038
:100FA000EFFB2068816841F480418160E1E719E04E
:100FB000CA684968206800F0B7FC5021206806E044
:100FC000CA684968206800F0C0FC6021206800F011
:100FD000E1FBCEE7CA684968206800F0A5FC402123
:100FE0002068F4E7226801461046F0E72DE9F04159
:100FF0000D46040003D094F83D0018B108E001202C
:10100000BDE8F081002084F83C00204600F040F864
:10101000022084F83D002068816844F20702914371
:101020008160211D206800F03FFB22689068916973
:10103000166A2B68AF69034340F20330814341EAEB
:101040000721A868EF6908434FF6FC418843E96827
:1010500040EA0720014328692F6A000140EA07306F
:10106000084369686D6926F0AA0646EA0515294312
:1010700093602268906154F8460B0162012004F8E5
:101080001F09E0752076E0762077A0750020B7E78D
:1010900070B586B0044614216846FFF75CF91F4E10
:1010A000236800221E49022401251E48B34214D1A0
:1010B0001B4B14331E6846F001061E601B6803F0CC
:1010C000010305930B6843F001030B60096801F00D
:1010D000010105914FF4407115E0B3F1804F1AD131
:1010E0000F4B10331E6846F001061E601B6803F0AC
:1010F000010305930B6843F001030B60096801F0DD
:101100000101059103210091CDE90142CDE90325BB
:101110006946FFF789F906B070BD00000000014084
:10112000303802400000024070472DE9F04104468B
:101130000068C66805694FF00007A90713D5B10715
:1011400011D5F91E01610120207720688069800790
:10115000204602D0FFF7E8FF04E000F0A9F820469F
:1011600000F03BF92777680716D5700714D521687A
:101170006FF004000861022020772068806910F475
:10118000407F204602D0FFF7CFFF04E000F090F848
:10119000204600F022F92777280715D5300713D508
:1011A00021686FF008000861042020772068C0697A
:1011B0008007204602D0FFF7B7FF04E000F078F880
:1011C000204600F00AF92777E80616D5F00614D570
:1011D00021686FF010000861082020772068C0693E
:1011E00010F4407F204602D0FFF79EFF04E000F09D
:1011F0005FF8204600F0F1F82777E80708D0F007FD
:1012000006D021686FF001000861204600F0E6F882
:10121000280608D5300606D521686FF080000861E1
:101220002046FFF775FD680608D5700606D52168CB
:101230006FF040000861204600F0DAF8A8060AD5F1
:10124000B00608D521686FF0200008612046BDE88F
:10125000F041FFF75EBDBDE8F081000010B586B03B
:10126000044614216846FFF776F80E492068884244
:1012700015D10D480021026842F0040202600068A6
:1012800000F004000590C02000900220CDE901018B
:101290000320CDE9031069460448FFF7C5F806B0FE
:1012A00010BD000000040140303802400008024038
:1012B000704770B5044690F83C0000260D460128A2
:1012C0000FD0012084F83C006AB1042A1DD0082AFE
:1012D0002FD00C2A3FD00126002084F83C00304655
:1012E00070BD022070BD206800F05CFA2068816942
:1012F00041F0080181612068816921F00401816168
:10130000206881692A69114311E0206800F07AFAA7
:101310002068816941F4006181612068816921F45C
:1013200080618161206881692A6941EA02218161C5
:10133000D2E7206800F09CFA2068C16941F00801FA
:10134000C1612068C16921F00401C1612068C169DF
:101350002A69114311E0206800F0BEFA2068C169D3
:1013600041F40061C1612068C16921F48061C161FB
:101370002068C1692A6941EA0221C161ACE710B560
:10138000040003D094F83D0010B107E0012010BD27
:10139000002084F83C00204600F01EF8022084F86B
:1013A0003D00211D206800F07FF9012084F84600EF
:1013B00084F83E0084F83F0084F8400084F841003F
:1013C00084F8420084F8430084F8440084F845001F
:1013D00084F83D00002010BD704770470068034945
:1013E000884201D1FFF71EB970470000002000407D
:1013F0007047FEE70D4808B5016841F080010160C3
:10140000016801F080010091016841F00101016073
:10141000016801F001010091016841F004010160DF
:10142000006800F00400009008BD00003038024061
:1014300010B58CB024216846FEF78DFF00241648B5
:10144000099414490A94C0E900144FF6FF71C0E9E9
:1014500002410461446184610320CDE9000401205C
:10146000CDE902040494CDE90540079469460A4891
:101470000894FFF7BBFD08B1FEF7D3FF099409A953
:1014800005480A94FFF770FC002801D0FEF7C9FF59
:101490000CB010BD000001401000002010B58CB051
:1014A00024216846FEF757FF0024154809944FF0A1
:1014B00080410A94C0E90014611EC0E90241046140
:1014C00084610320CDE900040120CDE902040494E5
:1014D000CDE905400794694609480894FFF786FD61
:1014E00008B1FEF79EFF099409A905480A94FFF781
:1014F0003BFC002801D0FEF794FF0CB010BD0000AB
:101500005800002010B596B000240F941094119448
:10151000129413941C2168461494FEF71CFF20219A
:1015200007A8FEF718FF2C482A4901606321C0E98B
:10153000011440F2E731C0E9031444618461FFF70C
:101540005BFC08B1FEF76DFF4FF480500F900FA9C0
:101550002148FFF7DDFC08B1FEF763FF1E48FFF7E7
:101560000EFF08B1FEF75DFF139413A91A481494F7
:10157000FFF7FAFB08B1FEF754FF6020CDE9000445
:101580000294039404940594002269461248069438
:10159000FFF78FFE08B1FEF744FF042269460E48AC
:1015A000FFF787FE08B1FEF73CFF07940894099403
:1015B0004FF400500A94CDE90B4007A906480E9459
:1015C000FFF7A8FB08B1FEF72CFF0348FFF746FE24
:1015D00016B010BD00040140A0000020FEE7FEE7A9
:1015E000704770477047000030B593B030216846AF
:1015F000FEF7B1FE14210CA8FEF7ADFE1D48002534
:10160000016841F080510160006800F08050119045
:101610001948016841F4804101600068022400F427
:1016200080401190012003901020049000940694B3
:101630000820CDE90750A820CDE9090404200B902B
:101640006846FFF7AFF908B172B6FEE70CA90F20A4
:1016500081E831004FF4A0500F904FF4805010906B
:1016600005210CA8FFF7A4F8002801D072B6FEE708
:1016700013B030BD4038024000700040024801689D
:1016800041F470010160704788ED00E010B5044836
:10169000FFF74BFDBDE810400248FFF746BD0000D4
:1016A000A0000020E8000020F0B50268294C2A4D77
:1016B0002A4E2B4F2B4B4FF0804CA04209D0604557
:1016C00007D0A84205D0B04203D0B84201D098421A
:1016D00004D122F0700E4A6842EA0E02A0421BD0EA
:1016E000604519D0A84217D0B04215D0B84213D0E7
:1016F000984211D01C4DA8420ED01C4DA8420BD0D0
:101700001B4DA84208D01B4DA84205D01A4DA84237
:1017100002D01A4DA84203D122F44075CA682A4368
:101720004D6922F080022A4302608A68C2620A6818
:101730008262A04201D0984201D10969016301216E
:1017400041610169C90703D0016921F0010101610B
:10175000F0BD00000000014000040040000800400F
:10176000000C0040000401400040014000440140E2
:101770000048014000180040001C004000200040CC
:1017800010B5846842EA032224F47F440A432243CA
:10179000826010BD826822F070020A4342F00701A5
:1017A00081607047F0B5036A026A22F001020262AA
:1017B00042688469124E24F073050C682C4323F0B0
:1017C00002058B682B430D4DA84201D0B04205D1D4
:1017D00023F00807CB683B4323F00403A84201D061
:1017E000B04205D14D6922F4407215438A692A43FB
:1017F00042608461496841630362F0BD00000140BA
:1018000000040140F0B5026A036A23F0100303628A
:10181000436884690D6824F4E64444EA05248D682D
:1018200022F0200242EA05120F4D104EA84201D0CC
:10183000B04206D1CF6822F0800242EA071222F0BD
:101840004002A84201D0B04207D14D6923F4406361
:1018500043EA85038D6943EA8503436084614968EF
:1018600081630262F0BD00000000014000040140FD
:10187000F0B5026A036A23F4807303624368C469A3
:1018800022F4007224F073050C68124E2C438D680C
:1018900042EA05220E4DA84201D0B04206D1CF68DF
:1018A00022F4006242EA072222F48062A84201D0B8
:1018B000B04207D14D6923F4405343EA05138D69C3
:1018C00043EA05134360C4614968C1630262F0BD25
:1018D000000001400004014030B5046A026A22F4AD
:1018E000805202624268C3690D6823F4E64343EA0A
:1018F00005238D6824F4005444EA0534084DA842B9
:1019000002D0084DA84204D14D6922F4804242EA37
:1019100085124260C36149680164046230BD000001
:10192000000001400004014010B5036A046A24F07D
:1019300001040462846924F0F00444EA021423F0F0
:101940000A020A438461026210BD10B5036A046A88
:1019500024F010040462846923F0A00324F470448A
:1019600044EA023243EA01118261016210BDFEE7DE
:101970000907090E002804DB00F1E02080F80014BC
:10198000704700F00F0000F1E02080F8141D704750
:10199000FEF750FEFFF728FEFFF72CFDFFF748FD8E
:1019A000FFF77CFDFFF7AEFDFEE74FF04070E1EE84
:1019B000100A70470000000000000000010203044C
:1019C000060708090000000001020304EC190008E2
:1019D0000000002010000000C4010008FC190008ED
:1019E0001000002080070000E00100080100000056
:0C19F00010000000000000000024F400C3
:040000050800018965
:00000001FF
